:06000000020071021CFD6C
:100023000212A0021DBF120080B9000302006BE49C
:10003300908FFF781E79018002F0A3D8FCD9FA9043
:10004300901CAA82AB83900083783879018015E4F1
:1000530093A3AC82AD838A828B83F0A3AA82AB8302
:100063008C828D83D8E9D9E7121D8E121DB975D004
:10007300007581BF7510FF75118F02002979012268
:10008300D261766167696E002020202000474155C8
:100093000044524F004156540053545000415252B1
:1000A300002A2A2A2A535549564945204C49474E86
:1000B300452A2A2A2A0001CAC0E0E6F0A308DAFA90
:1000C300D0E0FA22CAC0E0E0A3C582CCC582C583D2
:1000D300CDC583F0A3C582CCC582C583CDC583DAE4
:1000E300E6D0E0CA22251010AF08F5104002151122
:1000F3008008F51040021511D2AF22C0D025101090
:10010300AF08F510500205118008F51050020511D3
:10011300D2AFD0D0222510F58210AF08F5104002DF
:1001230015118008F51040021511D2AF85118322F5
:100133002510F582E43511F58322E4732510C58279
:10014300C0E0E51134FFC583C0E0E510C395822408
:10015300F910AF0885831185821080088583118586
:100163008210D2AFCEF0A3E520F0A37808E608F022
:10017300A3DEFAEFF0A3E58124FBF8E608F0A3E69B
:1001830008F0A30808E608F0A3E608F0A315811514
:1001930081D0E0FED0E0F815811581E8C0E0EEC023
:1001A300E022851183851082E0A3FEE0A3F5207889
:1001B30008E0A3F608DFFAE0A3FFE0A3C0E0E0A3B2
:1001C300C0E0E0A3C0E0E0A3C0E010AF0885821068
:1001D3008583118008858210858311D2AFD083D0A7
:1001E3008222C0D02510C582C0E0E51134FFC5834B
:1001F300C0E0E510C3958224F310AF088583118511
:1002030082108008858311858210D2AFC8F0A3E9DC
:10021300F0A3EAF0A3EBF0A37908E709F0A3D8FA77
:10022300ECF0A3EDF0A3EEF0A3EFF0A3D0E0F0A386
:10023300D0E0F0A3D0E0F0A3E520F0A3E5F0F0A335
:1002430022851183851082E0C0E0A3E0F9A3E0FAE0
:10025300A3E0FBA37808E0F608A3DFFAE0FCA3E041
:10026300FDA3E0FEA3E0FFA3E0C0E0A3E0C0E0A3A2
:10027300E0F5D0A3E0F520A3E0A3F5F010AF0885E7
:1002830083118582108008858311858210D2AFD0B7
:1002930082D083D0E0F8D0E032740280027401C0CF
:1002A300E0F404120118D0E01200BA22D083D08205
:1002B300ECC0E0EDC0E0E493A3FCE493A3FDED4CBC
:1002C300600D1202FBEC24FFFCED34FFFD80EFE434
:1002D30093A3FCE493A3FDED4C600D12033AEC24CD
:1002E300FFFCED34FFFD80EFD0E0FDD0E0FCE493B4
:1002F300A3C0E0E493C0E022C0E0C3E49396087493
:1003030001939618400FE49366700808740193668E
:100313001870007019A3A3C3E4939608740193960D
:1003230018A3A3400DD0E0D0E0D0E00202EBA3A3DA
:10033300A3A3A3A3D0E022C0E0C0F088F0E49366B7
:1003430070080874019366187000A8F0A3A3700BDB
:10035300D0F0D0E0D0E0D0E00202EBA3A3D0F0D005
:10036300E02274F712013FEAFEEBFF7C007DF8EE1A
:10037300FAEFFB120E567902EE2402FAEF3400FB79
:10038300121AD87900EE2406FAEF3400FB121AD8B9
:100393007903EE240AFAEF3400FB121AD87901EE3E
:1003A300240EFAEF3400FB121AD8EE2412FAEF34BB
:1003B30000FB121A41EE2417FAEF3400FB121D6AF8
:1003C300750880750925780812029C7C057905EE6D
:1003D300241BFAEF3400FB12112174021200FEEE0B
:1003E300241DF582EF3400F5837400F0EE2420F52C
:1003F30082EF3400F5837400F0EE241EF582EF34AF
:1004030000F5837400F0EE241FF582EF3400F583CA
:100413007400F0EE242CF582EF3400F5837440F081
:10042300EE242DF582EF3400F5837430F0EE2425AD
:10043300F582EF3400F5837433F0EE2426F582EF72
:100443003400F5837420F0EE2427F582EF3400F5B1
:10045300837430F0EE2428F582EF3400F583743092
:10046300F0EE2429F582EF3400F5837430F0EEFAD0
:10047300EFFB7F020201A574F812013FEAFEEBFFD6
:10048300EE241BFAEF3400FB121246EE242AF58207
:10049300EF3400F583EAF0A3EBF0EEFAEFFB120D75
:1004A3001A7C02790AEEFAEFFB120F64EE241FF5B1
:1004B30082EF3400F583E0F9EEFAEFFB121080EEE1
:1004C300242AF582EF3400F583E0F8A3E0F9E84944
:1004D300700302062B7C027900EEFAEFFB120F6425
:1004E300EE242AF582EF3400F583E0FCA3E0FDEE71
:1004F300FAEFFB1210DFEE242AF582EF3400F583C6
:10050300E0F8A3E0F5838882E0643260030206200A
:10051300EE242AF582EF3400F583E0F8A3E0F583B7
:100523008882A3E064206003020620EE242AF58279
:10053300EF3400F583E0F8A3E0F5838882A3A3E01A
:1005430024BF600724F5602402062BEE242AF582DB
:10055300EF3400F5837400F0A37400F0EE241DF56E
:1005630082EF3400F5837400F002062B90905274EE
:1005730001F0EE242AF582EF3400F583E0F8A3E0DE
:10058300F5838882A3A3A3A3E064317020EE241D26
:10059300F582EF3400F5837401F0EE241FF582EF4A
:1005A3003400F5837400F09090127401F0EE242A65
:1005B300F582EF3400F583E0F8A3E0F5838882A3A6
:1005C300A3A3A3E06432701AEE241DF582EF340076
:1005D300F5837401F0EE241FF582EF3400F5837484
:1005E30001F0EE242AF582EF3400F583E0F8A3E06E
:1005F300F5838882A3A3A3A3E06430700DEE241DCA
:10060300F582EF3400F5837400F0EE242AF582EFCF
:100613003400F5837400F0A37400F0800BEE241B08
:10062300FAEF3400FB121281EE241EF582EF340040
:10063300F583E06401700DEE241DF582EF3400F5BF
:10064300837400F0EE241EF582EF3400F583E0643A
:1006530003700DEE241DF582EF3400F5837400F072
:10066300EE241DF582EF3400F583E0600614604B41
:100673000209F17904EEFAEFFB1209F6EE2427F5ED
:1006830082EF3400F5837441F0EE241EF582EF34DB
:1006930000F583E02430C0E0EE2428F582EF340037
:1006A300F583D0E0F0EE2425FCEF3400FDEE241BAF
:1006B300FAEF3400FB1212130209F1EE241FF58244
:1006C300EF3400F583E06003020906909012E064C2
:1006D300016003020906EE2420F582EF3400F5835E
:1006E300E0640160030207E99090527400F079011D
:1006F300EEFAEFFB1209F6780079008008E824018E
:10070300F8E93400F9C3E894E8E994FD40EF780090
:1007130079008008E82401F8E93400F9C3E894E893
:10072300E994FD40EF780079008008E82401F8E9B6
:100733003400F9C3E894E8E994FD40EF78007900C8
:100743008008E82401F8E93400F9C3E894E8E9945F
:10075300FD40EF780079008008E82401F8E93400CF
:10076300F9C3E894E8E994FD40EF7902EEFAEFFB70
:100773001209F6780079008008E82401F8E93400CA
:10078300F9C3E894E8E994FD40EF78007900800824
:10079300E82401F8E93400F9C3E894E8E994FD405A
:1007A300EF780079008008E82401F8E93400F9C300
:1007B300E894E8E994FD40EF780079008008E824A4
:1007C30001F8E93400F9C3E894E8E994FD40EF78CF
:1007D3000079008008E82401F8E93400F9C3E894BB
:1007E300E8E994FD40EFEE2420F582EF3400F58331
:1007F300E0640260030209007900EEFAEFFB1209DC
:10080300F6780079008008E82401F8E93400F9C398
:10081300E894E8E994FD40EF780079008008E82443
:1008230001F8E93400F9C3E894E8E994FD40EF786E
:100833000079008008E82401F8E93400F9C3E8945A
:10084300E8E994FD40EF780079008008E82401F896
:10085300E93400F9C3E894E8E994FD40EF780079BE
:10086300008008E82401F8E93400F9C3E894E8E9D2
:1008730094FD40EF7902EEFAEFFB1209F678007966
:10088300008008E82401F8E93400F9C3E894E8E9B2
:1008930094FD40EF780079008008E82401F8E934FA
:1008A30000F9C3E894E8E994FD40EF78007900800B
:1008B30008E82401F8E93400F9C3E894E8E994FD71
:1008C30040EF780079008008E82401F8E93400F962
:1008D300C3E894E8E994FD40EF780079008008E8E4
:1008E3002401F8E93400F9C3E894E8E994FD40EF02
:1008F300EE2420F582EF3400F5837400F09090121B
:100903007400F0EE241FF582EF3400F583E06401F8
:1009130060030209AEEE2420F582EF3400F583E094
:10092300640160030209AE9090527400F07C047974
:100933000AEEFAEFFB120F647C1E7D90EEFAEFFBDA
:10094300121100EE2420F582EF3400F5837400F0D9
:10095300EE242CF582EF3400F5837440F07902EE37
:10096300FAEFFB1209F6780079008008E82401F811
:10097300E93400F9C3E894E8E994FD40EF7800799D
:10098300008008E82401F8E93400F9C3E894E8E9B1
:1009930094FD40EF780079008008E82401F8E934F9
:1009A30000F9C3E894E8E994FD40EFEEFAEFFB1297
:1009B3000C36EE2427F582EF3400F583744CF0EE09
:1009C300241EF582EF3400F583E02430C0E0EE24EA
:1009D30028F582EF3400F583D0E0F0EE2425FCEF18
:1009E3003400FDEE241BFAEF3400FB1212137F01D7
:1009F3000201A574F812013FEAFEEBFF89087C03AC
:100A03007900EEFAEFFB120F647C247D90EEFAEF8F
:100A1300FB1211007C037900EEFAEFFB120F6474F2
:100A2300016508706F7C297D90EEFAEFFB121100CF
:100A3300EE242DF582EF3400F583E0FC7D00EE24F7
:100A430002FAEF3400FB121B1FEE242DF582EF3464
:100A530000F583E0FC7D00EE2406FAEF3400FB1280
:100A63001B1FEE242DF582EF3400F583E0FC7D009F
:100A7300EE240AFAEF3400FB121AFFEE242DF5825E
:100A8300EF3400F583E0FC7D00EE240EFAEF340032
:100A9300FB121AFFE508706F7C2D7D90EEFAEFFBD9
:100AA300121100EE242DF582EF3400F583E0FC7D76
:100AB30000EE2402FAEF3400FB121AFFEE242DF5A8
:100AC30082EF3400F583E0FC7D00EE2406FAEF3478
:100AD30000FB121AFFEE242DF582EF3400F583E0BC
:100AE300FC7D00EE240AFAEF3400FB121B1FEE24F8
:100AF3002DF582EF3400F583E0FC7D00EE240EFA41
:100B0300EF3400FB121B1F74026508706F7C317D8C
:100B130090EEFAEFFB121100EE242CF582EF340075
:100B2300F583E0FC7D00EE2402FAEF3400FB121A99
:100B3300FFEE242CF582EF3400F583E0FC7D00EE1C
:100B43002406FAEF3400FB121AFFEE242CF582EF91
:100B53003400F583E0FC7D00EE240AFAEF3400FB59
:100B6300121AFFEE242CF582EF3400F583E0FC7DAE
:100B730000EE240EFAEF3400FB121AFF740465082A
:100B830070377C357D90EEFAEFFB121100EE2402F4
:100B9300FAEF3400FB121B40EE2406FAEF3400FB9D
:100BA300121B40EE240AFAEF3400FB121B40EE2422
:100BB3000EFAEF3400FB121B4074056508706F7C5E
:100BC300397D90EEFAEFFB121100EE242CF582EF43
:100BD3003400F583E0FC7D00EE2402FAEF3400FBE1
:100BE300121B1FEE242CF582EF3400F583E0FC7D0D
:100BF30000EE2406FAEF3400FB121B1FEE242CF543
:100C030082EF3400F583E0FC7D00EE240AFAEF3432
:100C130000FB121B1FEE242CF582EF3400F583E05A
:100C2300FC7D00EE240EFAEF3400FB121B1F7F0144
:100C33000201A574F812013FEAFEEBFF7C01790083
:100C4300EEFAEFFB120F647C3D7D90EEFAEFFB12A0
:100C53001100EE242CF582EF3400F5837427F0EEB7
:100C63002412FAEF3400FB121A74E9604914601677
:100C730014607324FE7003020D0C14605114601E83
:100C830014606E020D15EE242DF582EF3400F5830A
:100C9300743AF07901EEFAEFFB1209F68074EE2450
:100CA3002DF582EF3400F5837430F07901EEFAEF1D
:100CB300FB1209F6805CEE242DF582EF3400F583F8
:100CC300743AF07900EEFAEFFB1209F68044EE2451
:100CD3002DF582EF3400F5837430F07900EEFAEFEE
:100CE300FB1209F6802C7902EEFAEFFB1209F6806B
:100CF30021EE242CF582EF3400F5837440F0790261
:100D0300EEFAEFFB1209F680097904EEFAEFFB1213
:100D130009F67F010201A574F812013FEAFEEBFF19
:100D2300EE2412FAEF3400FB121A5FE9C0E0EE245E
:100D33001CF582EF3400F583D0E0F0EE241CF5823D
:100D4300EF3400F583E0540764027035909013E0AC
:100D5300702FEE241EF582EF3400F5837401F0EE5C
:100D6300241CF582EF3400F583E054E0700DEE248B
:100D73001EF582EF3400F5837403F0909013740131
:100D8300F0EE241CF582EF3400F583E054E7701A8B
:100D9300909013E07014EE2420F582EF3400F58375
:100DA300E02401F09090137401F0EE241CF582EF1F
:100DB3003400F583E0540364037017EE241CF582BA
:100DC300EF3400F583E054E464207022909013E044
:100DD300701CEE242CF582EF3400F5837440F07917
:100DE30002EEFAEFFB1209F69090137401F0EE2471
:100DF3001CF582EF3400F583E05407640770139009
:100E030090137400F0EE241EF582EF3400F5837422
:100E130000F07C047900EEFAEFFB120F64EE241E5F
:100E2300F582EF3400F583E0F9EEFAEFFB12108060
:100E33007C04790AEEFAEFFB120F64EE2420F582AC
:100E4300EF3400F583E0F9EEFAEFFB1210807F0137
:100E53000201A574F812013FEAFEEBFF8E828F8335
:100E6300ECF0A3EDF0EEFAEFFB120EB6EEFAEFFBA9
:100E73007F010201A5780079008008E82401F8E9E0
:100E83003400F9C3EC98ED9950F12274F812013F44
:100E9300EAFEEBFF8E828F83E02401FCA3E03400A3
:100EA300FDEEFAEFFB121CEEE9F8A2E740E67F0144
:100EB3000201A574F712013FEAFEEBFF7508007506
:100EC300090080297C107D27EEFAEFFB120E78795A
:100ED300388E828F83E0FCA3E0FDEEFAEFFB121C59
:100EE300E1E5082401F508E5093400F509C3E5083F
:100EF3009404E509940040CCEEFAEFFB120E8E79D0
:100F0300388E828F83E0FCA3E0FDEEFAEFFB121C28
:100F1300E1EEFAEFFB120E8E79018E828F83E0FCF5
:100F2300A3E0FDEEFAEFFB121CE1EEFAEFFB120E6B
:100F33008E790C8E828F83E0FCA3E0FDEEFAEFFB4B
:100F4300121CE1EEFAEFFB120E8E79068E828F836E
:100F5300E0FCA3E0FDEEFAEFFB121CE17F020201CD
:100F6300A574F612013FEAFEEBFF89098C0AE50A34
:100F730014600B14600D146012146017801D850932
:100F830008801B74402509F508801374142509F59E
:100F930008800B74542509F5088003850908D3E5F7
:100FA3000892E7F508EEFAEFFB120E8EA9088E827F
:100FB3008F83E0FCA3E0FDEEFAEFFB121CE17F035D
:100FC3000201A574F812013FEAFEEBFF8908EEFA6D
:100FD300EFFB120E8EA9088E828F83E02402FCA3FE
:100FE300E03400FDEEFAEFFB121CE17F010201A5E4
:100FF30074F812013FEAFEEBFF8908EEFAEFFB12E9
:101003000E8EA9088E828F83E02402FCA3E03400B5
:10101300FDEEFAEFFB121CE17F010201A574F81249
:10102300013FE9FAEAFBC4540F8C828D83F0740804
:10103300120133E0F8A3E0F9740F5A88828983F030
:101043008C828D83E0C3940A500A8C828D83E024C2
:1010530030F080088C828D83E02437F08882898386
:10106300E0C3940A500A88828983E02430F0800820
:1010730088828983E02437F07F010201A574F51289
:10108300013F74FE1200E8EAFEEBFF890885108237
:1010930085118385820A85830B780A12029C740367
:1010A300120133AC82AD83A908EEFAEFFB121020D4
:1010B30074021200FE7401120133E0F9EEFAEFFB41
:1010C300120FC6851082851183E0F9EEFAEFFB1249
:1010D3000FC674021200FE7F040201A574F8120108
:1010E3003FEAFEEBFF8C828D83800AE0F9EEFAEF94
:1010F300FB120FC6A3E070F37F010201A574F8127F
:10110300013FEAFEEBFF8C828D83800AE0F9EEFA61
:10111300EFFB120FF3A3E070F37F010201A574F359
:1011230012013F8A0C8B0D89088C09740D1201334F
:10113300E0FEA3E0FF85080A750B00AA0AAB0B12B9
:101143001DBC90900EEAF0A3EBF090900EE0F8A394
:10115300E0F990900AE8F0A3E9F0E508A80879001F
:1011630090900EE028F8A3E039F9909008E8F0A3F6
:10117300E9F090900EE0F8A3E0F9909006E8F0A370
:10118300E9F0E508909002F0E509909003F0EEFC99
:10119300EFFDAA0CAB0D1211A5AA0CAB0D7F060235
:1011A30001A574F712013F75985043892043878046
:1011B3008C088D0978081202AF000006006009F35D
:1011C30011C012EE118025E911004BE4110096DFE6
:1011D3001100E1DA11F811758DFF801C758DFE8009
:1011E30017758DFD8012758DFA800D758DF480084D
:1011F300758DE88003758DFAD28EC2ABD2AFD2ACB7
:10120300C2997F020201A58999A29950FCC2992231
:1012130074F812013FEAFEEBFF8C828D83A882A94A
:1012230083800AE0F9EEFAEFFB12120AA3E070F3EF
:101233007F010201A5C082C083909005E0F9D083AD
:10124300D08222C082C083121238E96401701290E6
:101253009006E0F8A3E0F9909010E8F0A3E9F0809D
:101263000A9090107400F0A37400F090900574003D
:10127300F0909010E0FAA3E0FBD083D08222C082EA
:10128300C0839090047400F0909006E0F8A3E0F916
:1012930090900AE8F0A3E9F0D083D08222C0E074F2
:1012A300F21201E5C2AFA2984003021372D2F0A278
:1012B3009730F001B3E433FAD2F0A29730F001B3E0
:1012C300929790900AC082C083909008E0F8A3E0C0
:1012D300F9D083D082C3E098A3E0994010909006A0
:1012E300E0F8A3E0F990900AE8F0A3E9F0E599C0EB
:1012F300E090900AE0F8A3E0F5838882D0E0F090D4
:10130300900AE02401F8A3E03400F990900AE8F091
:10131300A3E9F0909004E0FA7B00909003E0F87961
:101323000024FFF8E934FFF9C3EA98EB99A2D265E8
:10133300D033500F909004E02401F0909005740096
:10134300F0802C909003E0F87900C3E498F8E499D6
:10135300F990900AE028F8A3E039F990900CE8F0AE
:10136300A3E9F09090047400F09090057401F0E507
:1013730098C298D2AF7F0102024474F712013FEA88
:10138300FEEBFF80061214261217E4909018E0FA81
:10139300A3E0FBEA4B70297A1A7B9012141660586B
:1013A30088828983C3E09EA3E09F50621214268043
:1013B300EA88828983C3E09EA3E09F5051121426DA
:1013C30012141670EC90901812152A121420E8FCCF
:1013D300E9FD7A1A7B9080031214268A828B83128A
:1013E3001420EC687002ED69600E88828983C3E083
:1013F3009EA3E09F40E28016121C858A088B09A8F1
:1014030008A909E84960030213887A007B007F0278
:101413000201A58A828B83121420E84922E0F8A3F3
:10142300E0F922E82402FAE93400FB2274F4120101
:101433003FEA2402FEEB3400FFC3EA9EEB9F501DFC
:10144300C3EE9404EF940050047E047F00EEFAEFA1
:10145300FB12137D8A088B09EA450970077A007B22
:101463000002151F8A828B83E0FAA3E0FBEA2402C1
:10147300F8EB3400F98A828B83E0FCA3E0FDEC24D3
:10148300FCF50AED34FFF50BC3E50A9EE50B9F500F
:101493001388828983121420850882850983E8F0E2
:1014A300A3E98043EA2EF50AEB3FF50B8508828515
:1014B3000983E50AF0A3E50BF088828983E0F50A46
:1014C300A3E0F50B121524A3A3E50AF0A3E50BF0A3
:1014D300ECC39EFCED9FFD121524ECF0A3EDF08A06
:1014E300828B83EEF0A3EFF08508828509831214C3
:1014F3001A6015E82402F8E93400F988828983E048
:10150300FCA3E0FDEC4D700478007900909018E89E
:10151300F0A3E9F0EA2402FAEB3400FB7F050201B1
:10152300A5850882850983E0F8A3E0F583888222F4
:10153300C082C0838A828B837405F0D083D08222D9
:10154300C082C0838A828B83D2B4D2B5AA82AB8392
:1015530012167FC2B4AA82AB8312167FC2B5AA82C7
:10156300AB8312167FD083D08222C082C0838A824B
:101573008B83C2B4C2B5AA82AB8312167FD2B5AA3B
:1015830082AB8312167FD2B4AA82AB8312167FD0AA
:1015930083D0822274F812013F8A828B83D2B4AA49
:1015A30082AB8312167FD2B5AA82AB8312167FA2B7
:1015B300B4E433FEAA82AB8312167FC2B5AA82AB10
:1015C3008312167FEEF97F010201A574F812013F21
:1015D3008A828B83E9FEEEFFEEA2E092B4AA82AB8D
:1015E3008312167FD2B5AA82AB8312167FC2B5AA25
:1015F30082AB8312167F7F010201A574F812013FAB
:101603008A828B83E9FF7E007508008019AA82AB6A
:1016130083121597E9640170010E7407650860046D
:10162300EEC333FE0508E508C3940840E0EFF9AACA
:1016330082AB831215CEEEF97F010201A574F81275
:10164300013F8A828B83E9FF7E00800E7901AA82A3
:10165300AB831215CEEFC333FF0EEEC394085010C5
:10166300EFA2E740E77900AA82AB831215CE80E5AB
:10167300AA82AB831215977F010201A5C082C083A2
:101683008A828B83E0F8800118E8C3940150F9D073
:1016930083D08222C082C0838A828B83AA82AB8357
:1016A300121533AA82AB83D083D0822274F1120144
:1016B3003F74FE1200E8EAFEEBFF89087411120181
:1016C30033E0F8851082851183ECF0A3EDF0E86038
:1016D30009146026146057021776EEFAEFFB121511
:1016E300438007EEFAEFFB121543A908EEFAEFFB6E
:1016F300121640E9640160EB8079EEFAEFFB1215F4
:10170300438007EEFAEFFB121543A908EEFAEFFB4D
:10171300121640E9640160EB851082851183E0F9BC
:10172300EEFAEFFB121640E9640160EC8045EEFA35
:10173300EFFB1215438007EEFAEFFB121543A908DE
:10174300EEFAEFFB121640E9640160EB8510828527
:101753001183E0F9EEFAEFFB121640E9640160EC45
:101763007401120133E0F9EEFAEFFB121640E9645B
:101773000160ED7412120133E0F50EA3E0F50F746E
:1017830014120133E0F50CE50CC39402402E7509E5
:1017930000E509C3950C503885090A750B00E50E61
:1017A300250AF582E50F350BF583E0F9EEFAEFFB39
:1017B300121640E9640160E0050980D5850E828533
:1017C3000F83E0F9EEFAEFFB121640E9640160ECD7
:1017D300EEFAEFFB12156D74021200FE7F08020190
:1017E300A574F312013FEA4B700302191EEA24FEAB
:1017F300FAEB34FFFB8A828B83E0FEA3E0FFC3EEA8
:101803009404EF9400500302191E90901AE0FCA375
:10181300E0FDEA2402F508EB3400F509EC4D600B1A
:10182300EAF8EBF9C3E89CE99D5015850882850920
:1018330083ECF0A3EDF090901A0218C2AC82AD8352
:10184300EC2402F50AED3400F50B850A82F583E0FA
:10185300F50CA3E0850C82F583E58245836009C31B
:10186300E58298E5839940D4121923EC28F8ED39E1
:10187300F9C3EA98EB99500302191EEA687002EB68
:101883006970118C828D83E02EF0A3E03FF0ECFAB7
:10189300EDFB8030850A82850B83121927E84960A6
:1018A3000DEA2EFCEB3FFDC3E89CE99D406D8508E6
:1018B30082850983E8F0A3E9F0850A82850B83EA30
:1018C300F0A3EBF0EA2402F8EB3400F9E8FCE9FDBD
:1018D300121923E84960448A828B83E0FEA3E0FF68
:1018E300EA2EFEEB3FFFE86E7002E96F702D9090D9
:1018F30018E4F0A3F088828983E0FEA3E0FF8A82E4
:101903008B83E02EF0A3E03FF088828983A3A312A8
:1019130019278C828D83E8F0A3E9F07F060201A5E5
:101923008C828D83E0F8A3E0F92274F812013FEA78
:10193300FEEBFFEEFAEFFB1216978E828F83A3A3C3
:101943007498F0EEFAEFFB7F010201A574F7120120
:101953003F74FA1200E8E9FE851082851183741042
:10196300F0EE600B14601E146031146044805685E1
:101973001082851183E0C2E1F0851082851183E036
:10198300C2E2F08040851082851183E0D2E1F085C8
:101993001082851183E0C2E2F0802A8510828511CE
:1019A30083E0C2E1F0851082851183E0D2E2F0800A
:1019B30014851082851183E0D2E1F08510828511B0
:1019C30083E0D2E2F07401120133ECF0A3EDF08571
:1019D3001082851183E0C0E07403120133D0E0F07C
:1019E3007402120133E0C0E07404120133D0E0F05A
:1019F3007401120133E0C0E07405120133D0E0F04A
:101A030075080378081202A0740412013385820852
:101A1300858309780812029C75080078081202A0D1
:101A23007C007D008A828B83A3A3E0F91216AF7436
:101A3300041200FE74061200FE7F020201A574F870
:101A430012013FEAFEEBFF8E828F83A3AA82AB8350
:101A5300121BD4EEFAEFFB7F010201A5C082C08303
:101A63008A828B83A3AA82AB83121BF7D083D08293
:101A73002274F812013FEAFEEBFF8E828F83A3AA42
:101A830082AB83121BF7E98E828F83F08E828F8362
:101A9300E0A2E55015D2F08E828F83E0A2E7500AD0
:101AA300D382F0500575080280188E828F83E0A2DE
:101AB300E540037508008E828F83E0A2E74003753B
:101AC30008018E828F83E054E07003750807A9082C
:101AD3007F010201A574F812013FEAFEEBFF8908BA
:101AE300EEFAEFFB12192DE5088E828F83A3A3A3D1
:101AF300E508F0EEFAEFFB7F010201A5C082C08387
:101B0300E4CCFDEC2400FCED3480FD8A828B83A3BE
:101B1300A3A3E0F912194FD083D08222C082C083DD
:101B2300E4CCFD7400C39CFC74809DFD8A828B838E
:101B3300A3A3A3E0F912194FD083D08222C082C09D
:101B4300837C007D808A828B83A3A3A3E0F912198F
:101B53004FD083D08222C082C0838A828B83AA82A1
:101B6300AB83121697AA82AB83121B78AA82AB832C
:101B7300D083D0822274F712013F74FE1200E890E2
:101B8300901CC082C083851082851183AC82AD8393
:101B9300D083D08274021200C7750802780812023B
:101BA300A074011201338582088583097808120223
:101BB3009C75080078081202A07C007D00796812E9
:101BC30016AF74041200FE74021200FE7F020201BB
:101BD300A574F812013FEAFEEBFFEEFAEFFB1216D3
:101BE300978E828F83A3A3A37440F0EEFAEFFB7F5B
:101BF300010201A574F812013FEAFEEBFFEEFAEFD2
:101C0300FB1215438007EEFAEFFB1215438E828F0A
:101C130083A3A3A3E02401F9EEFAEFFB121640E934
:101C2300640160E27901EEFAEFFB1215FEE9F508B3
:101C3300EEFAEFFB12156DA9087F010201A5C08220
:101C4300C0838A828B837C007DF8AA82AB83120EC9
:101C530056AA82AB83D083D08222021C60C082C08A
:101C63008374D21200E8851082851183AA82AB8324
:101C7300120365851082851183AA82AB8312047ACD
:101C830080F1C082C083909016E0F8A3E0F9E849A0
:101C930060067A007B0080219090167453F0A37441
:101CA30090F07452C3945374919490F99090537438
:101CB300FFF0A3E9F07A537B90D083D08222C082D5
:101CC300C083E98C828D83F0D083D08222C082C00E
:101CD3008379008C828D83E0F9D083D08222EEC099
:101CE300E0E9FEF9121CC1D0E0FE22EEC0E07E0066
:101CF300121CD0E9FEF9D0E0FE22C0E0C0D0E8C05B
:101D0300E0C082C083C2AF9090007400F0A374F966
:101D1300F0909000E0F8A3E0F5838882E0540F9000
:101D23008FFFF0C289D2AFD083D082D0E0F8D0D079
:101D3300D0E03274F712013FEAFEEBFF8003121D7D
:101D4300B6EEFAEFFB12142FEA4B7016909014E0E4
:101D5300F8A3E0F9E84960E6E0F583888212013DE3
:101D630080DF7F020201A574F812013FEAFEEBFF58
:101D7300EEFAEFFB121B59EE2402FAEF3400FB12CA
:101D83001B59EEFAEFFB7F010201A574FE1200E876
:101D9300851082851183AA82AB83121C4185108230
:101DA300851183AA82AB83121C5D80FE7A017B00BE
:0E1DB300021DBF021DAF020026021D3680FE7B
:000071018E
:00000001FF
