:10000000020051020A4F020AB6120060B900030250
:10001000004BE4908FFF780479018002F0A3D8FCB4
:10002000D9FA909002AA82AB83900063782F79016D
:100030008015E493A3AC82AD838A828B83F0A3AA5C
:1000400082AB838C828D83D8E9D9E71209D6120A54
:10005000B375D0007581BF7510FF75118F0200094F
:1000600079012220202020004741550044524F00B2
:100070004156540053545000415252002A2A2A2A11
:10008000535549564945204C49474E452A2A2A2A64
:1000900000251010AF08F510400215118008F5106A
:1000A00040021511D2AF22C0D0251010AF08F510B4
:1000B000500205118008F51050020511D2AFD0D0C2
:1000C000222510F582E43511F583222510C582C062
:1000D000E0E51134FFC583C0E0E510C3958224F943
:1000E00010AF088583118582108008858311858271
:1000F00010D2AFCEF0A3E520F0A37808E608F0A375
:10010000DEFAEFF0A3E58124FBF8E608F0A3E608A9
:10011000F0A30808E608F0A3E608F0A3158115810E
:10012000D0E0FED0E0F815811581E8C0E0EEC0E037
:1001300022851183851082E0A3FEE0A3F5207808D4
:10014000E0A3F608DFFAE0A3FFE0A3C0E0E0A3C06D
:10015000E0E0A3C0E0E0A3C0E010AF088582108516
:1001600083118008858210858311D2AFD083D0821D
:100170002274F81200CBEAFEEBFF7C007DF8EEFA69
:10018000EFFB1204DB7901EE2402FAEF3400FB12DC
:1001900008987900EE2404FAEF3400FB12089879ED
:1001A00003EE2406FAEF3400FB1208987902EE24DD
:1001B00008FAEF3400FB120898EE240AFAEF340034
:1001C000FB1207F7EE240CF582EF3400F583740080
:1001D000F0EE240DF582EF3400F5837400F0A37483
:1001E00008F0EE240FF582EF3400F5837400F0A3DD
:1001F0007403F0EEFAEFFB7F0102013102044F7449
:10020000F81200CBEAFEEBFF89087C037900EEFAD6
:10021000EFFB1205E97C027D90EEFAEFFB12067807
:100220007C037900EEFAEFFB1205E97401650870B2
:10023000737C077D90EEFAEFFB120678EE240FF543
:1002400082EF3400F583E0FCA3E0FDEE2402FAEF38
:100250003400FB1208BDEE240FF582EF3400F58365
:10026000E0FCA3E0FDEE2404FAEF3400FB1208E00A
:10027000EE240FF582EF3400F583E0FCA3E0FDEE01
:100280002406FAEF3400FB1208BDEE240FF582EFCE
:100290003400F583E0FCA3E0FDEE2408FAEF34001F
:1002A000FB1208E0E50870737C0B7D90EEFAEFFB23
:1002B000120678EE240FF582EF3400F583E0FCA3FC
:1002C000E0FDEE2402FAEF3400FB1208E0EE240F0A
:1002D000F582EF3400F583E0FCA3E0FDEE2404FAA0
:1002E000EF3400FB1208BDEE240FF582EF3400F569
:1002F00083E0FCA3E0FDEE2406FAEF3400FB1208D5
:10030000E0EE240FF582EF3400F583E0FCA3E0FD7E
:10031000EE2408FAEF3400FB1208BD740265087081
:10032000737C0F7D90EEFAEFFB120678EE240DF54C
:1003300082EF3400F583E0FCA3E0FDEE2402FAEF47
:100340003400FB1208BDEE240DF582EF3400F58376
:10035000E0FCA3E0FDEE2404FAEF3400FB1208BD3C
:10036000EE240DF582EF3400F583E0FCA3E0FDEE12
:100370002406FAEF3400FB1208BDEE240DF582EFDF
:100380003400F583E0FCA3E0FDEE2408FAEF34002E
:10039000FB1208BD7404650870377C137D90EEFA7B
:1003A000EFFB120678EE2402FAEF3400FB12090488
:1003B000EE2404FAEF3400FB120904EE2406FAEFEF
:1003C0003400FB120904EE2408FAEF3400FB120992
:1003D000047405650870737C177D90EEFAEFFB12CC
:1003E0000678EE240DF582EF3400F583E0FCA3E0FF
:1003F000FDEE2402FAEF3400FB1208E0EE240DF5C6
:1004000082EF3400F583E0FCA3E0FDEE2404FAEF74
:100410003400FB1208E0EE240DF582EF3400F58382
:10042000E0FCA3E0FDEE2406FAEF3400FB1208E046
:10043000EE240DF582EF3400F583E0FCA3E0FDEE41
:100440002408FAEF3400FB1208E07F010201317446
:10045000F81200CBEAFEEBFF7C017900EEFAEFFB2D
:100460001205E97C1B7D90EEFAEFFB120678EE2474
:100470000DF582EF3400F5837480F0A37402F0EE82
:10048000240AFAEF3400FB12081CE960241460050A
:1004900014603A8041EE240FF582EF3400F5837446
:1004A00000F0A37407F07901EEFAEFFB1201FF8070
:1004B00025EE240FF582EF3400F5837400F0A37469
:1004C00007F07900EEFAEFFB1201FF80097902EEE6
:1004D000FAEFFB1201FF7F0102013174F81200CB29
:1004E000EAFEEBFF8E828F83ECF0A3EDF0EEFAEFE5
:1004F000FB12053BEEFAEFFB7F0102013178007938
:10050000008008E82401F8E93400F9C3EC98ED997B
:1005100050F12274F81200CBEAFEEBFF8E828F833B
:10052000E02401FCA3E03400FDEEFAEFFB120A40E8
:10053000E9F8A2E740E67F0102013174F71200CB2F
:10054000EAFEEBFF75080075090080297C107D2705
:10055000EEFAEFFB1204FD79388E828F83E0FCA364
:10056000E0FDEEFAEFFB120A33E5082401F508E599
:10057000093400F509C3E5089404E509940040CC6A
:10058000EEFAEFFB12051379388E828F83E0FCA31D
:10059000E0FDEEFAEFFB120A33EEFAEFFB12051361
:1005A00079018E828F83E0FCA3E0FDEEFAEFFB126F
:1005B0000A33EEFAEFFB120513790C8E828F83E07B
:1005C000FCA3E0FDEEFAEFFB120A33EEFAEFFB12AA
:1005D000051379068E828F83E0FCA3E0FDEEFAEF2F
:1005E000FB120A337F0202013174F61200CBEAFEDD
:1005F000EBFF89098C0AE50A14600B14600D146086
:1006000012146017801D850908801B74402509F5A8
:1006100008801374142509F508800B74542509F516
:10062000088003850908D3E50892E7F508EEFAEF9C
:10063000FB120513A9088E828F83E0FCA3E0FDEE78
:10064000FAEFFB120A337F0302013174F81200CB78
:10065000EAFEEBFF8908EEFAEFFB120513A9088EFC
:10066000828F83E02402FCA3E03400FDEEFAEFFB6E
:10067000120A337F0102013174F81200CBEAFEEB5B
:10068000FF8C828D83800AE0F9EEFAEFFB12064BB5
:10069000A3E070F37F01020131C082C0838A828BA4
:1006A00083AA82AB83120A88D294AA82AB83D083B6
:1006B000D0822274F81200CB8A828B83E9FFECFE91
:1006C000EF606F1460030207C2C2947940AA82AB44
:1006D00083120A8DE97900AA82AB83120A8DE9EEB2
:1006E000F9AA82AB83120A8DE9D294C2947940AA06
:1006F00082AB83120A8DE97901AA82AB83120A8D3B
:10070000E97900AA82AB83120A8DE9D294C2947966
:1007100040AA82AB83120A8DE97906AA82AB8312C2
:100720000A8DE97900AA82AB83120A8DE9D294027C
:1007300007C2C2947940AA82AB83120A8DE979007C
:10074000AA82AB83120A8DE974FF6EF9E9FEAA82D0
:10075000AB83120A8DE9D294C2947940AA82AB830A
:10076000120A8DE97901AA82AB83120A8DE9790018
:10077000AA82AB83120A8DE9D294C2947940AA82EC
:10078000AB83120A8DE97906AA82AB83120A8DE93E
:100790007900AA82AB83120A8DE9D294C29479407F
:1007A000AA82AB83120A8DE9790AAA82AB83120A64
:1007B0008DE974FF6EF9E9FEAA82AB83120A8DE916
:1007C000D2947F01020131C082C0838A828B83C2AE
:1007D000947941AA82AB83120A8DE97909AA82AB86
:1007E00083120A8DE97900AA82AB83120A8DE9F996
:1007F000D294D083D0822274F81200CBEAFEEBFFB1
:10080000EEFAEFFB1206998E828F83A3AA82AB8346
:10081000120699EEFAEFFB7F0102013174F8120023
:10082000CB74FF120091EAFEEBFF7CE079018E822F
:100830008F83A3AA82AB831206B38E828F83A3AA6F
:1008400082AB831207C7E9851082851183F085107A
:1008500082851183E0A2E55017D2F08510828511C0
:1008600083E0A2E7500AD382F05005750802800E9B
:10087000851082851183E0A2E5400375080085108C
:1008800082851183E0A2E74003750801A90874017D
:100890001200A77F0102013174F81200CBEAFEEBCF
:1008A000FF8908EEFAEFFB12091BE5088E828F83A1
:1008B000A3E508F0EEFAEFFB7F01020131C082C030
:1008C0008374FF5CFC740F5DFDEC2400FCED3408C8
:1008D000FD8A828B83A3E0F9120933D083D0822270
:1008E000C082C08374FF5CFC740F5DFD7400C39C08
:1008F000FC74089DFD8A828B83A3E0F9120933D032
:1009000083D08222C082C0838A828B83A3E0F97C59
:10091000007D08120933D083D08222C082C0838A2E
:10092000828B83AA82AB83120A88AA82AB83D0838C
:10093000D0822274F81200CB74FE120091EAFEEB12
:10094000FF8908D3E50892E3F508E508C454F0F5FB
:1009500008851082851183ECF0A3EDF0740112007C
:10096000C1E04508F0C29674011200C1E0F9EEFA48
:10097000EFFB120A8DE9851082851183E0F9EEFA0A
:10098000EFFB120A8DE9D29674021200A77F0102D2
:100990000131C082C0838A828B837C007DF8AA8269
:1009A000AB831204DBAA82AB83D083D082220209FC
:1009B000B1C082C08374EF120091851082851183CB
:1009C000AA82AB83120171851082851183AA82AB42
:1009D000831201FC80F174FD12009174011200C1B8
:1009E000AA82AB83120992851082851183AA82ABF9
:1009F000831206997CE07901851082851183AA8291
:100A0000AB831206B374011200C1AA82AB83120930
:100A1000AE80FEC082C083E98C828D83F0D083D00B
:100A20008222C082C08379008C828D83E0F9D083DA
:100A3000D08222EEC0E0E9FEF9120A13D0E0FE22D5
:100A4000EEC0E07E00120A22E9FEF9D0E0FE22C0EC
:100A5000E0C0D0E8C0E0C082C083C2AF9090007414
:100A600000F0A374F9F0909000E0F8A3E0F583881B
:100A700082E0540F908FFFF0C289D2AFD083D08232
:100A8000D0E0F8D0D0D0E032C293C2912278088072
:100A900012C292E9C333F9D293A291E433C949F95E
:100AA000C29318E8C394014009E9A2E750E3D29247
:080AB00080E12202000680FE35
:00005101AE
:00000001FF
