:0600000002009F020D0743
:030023000203FDD8
:10004300020AE6EAFEEBFF1209C3EEFAEFFB020D2A
:10005300601200AEB90003020096E4900F007835F9
:1000630079018002F0A3D8FCD9FA900F34AA82ABAD
:10007300839000B1780E79018015E493A3AC82AD2F
:10008300838A828B83F0A3AA82AB838C828D83D8ED
:10009300E9D9E7120D33120CD8120D5A75D0007539
:1000A30081BF75100075110F020054790122544568
:1000B300535400140F000F730A040CE4732510C586
:1000C30082C0E0E51134FFC583C0E0E510C395822B
:1000D30024F910AF08858311858210800885831168
:1000E300858210D2AFCEF0A3E520F0A37808E6080E
:1000F300F0A3DEFAEFF0A3E58124FBF8E608F0A312
:10010300E608F0A30808E608F0A3E608F0A31581C3
:100113001581D0E0FED0E0F815811581E8C0E0EE4E
:10012300C0E022851183851082E0A3FEE0A3F520C1
:100133007808E0A3F608DFFAE0A3FFE0A3C0E0E05D
:10014300A3C0E0E0A3C0E0E0A3C0E010AF08858255
:10015300108583118008858210858311D2AFD083E7
:10016300D08222C0D02510C582C0E0E51134FFC57E
:1001730083C0E0E510C3958224F310AF0885831193
:100183008582108008858311858210D2AFC8F0A3C1
:10019300E9F0A3EAF0A3EBF0A37908E709F0A3D809
:1001A300FAECF0A3EDF0A3EEF0A3EFF0A3D0E0F0B0
:1001B300A3D0E0F0A3D0E0F0A3E520F0A3E5F0F0B6
:1001C300A322851183851082E0C0E0A3E0F9A3E0B8
:1001D300FAA3E0FBA37808E0F608A3DFFAE0FCA3A8
:1001E300E0FDA3E0FEA3E0FFA3E0C0E0A3E0C0E0E6
:1001F300A3E0F5D0A3E0F520A3E0A3F5F010AF084A
:100203008583118582108008858311858210D2AF82
:10021300D082D083D0E0F8D0E032D083D082ECC05B
:10022300E0EDC0E0E493A3FCE493A3FDED4C600D8B
:10023300120269EC24FFFCED34FFFD80EFE493A38D
:10024300FCE493A3FDED4C600D1202A8EC24FFFC2B
:10025300ED34FFFD80EFD0E0FDD0E0FCE493A3C0DC
:10026300E0E493C0E022C0E0C3E4939608740193F2
:100273009618400FE493667008087401936618702B
:10028300007019A3A3C3E49396087401939618A36B
:10029300A3400DD0E0D0E0D0E0020259A3A3A3A372
:1002A300A3A3D0E022C0E0C0F088F0E49366700816
:1002B3000874019366187000A8F0A3A3700BD0F024
:1002C300D0E0D0E0D0E0020259A3A3D0F0D0E022E6
:1002D300CA0C74F81200C0EAFEEBFF7A0C7B001222
:1002E3000D5D900F23EAF0A3EBF0900F3F7404F041
:1002F300900F40740CF0900F23E0F8A3E0F9900FF7
:100303001BE8F0A3E9F0900F23E0240BF8A3E034FB
:1003130000F9900F1DE8F0A3E9F0900F23E0F8A394
:10032300E0F9900F1FE8F0A3E9F0900F23E0F8A3A2
:10033300E0F9900F21E8F0A3E9F07C807D25EEFA47
:10034300EFFB1203B3EEFAEFFB7F01020126C0823B
:10035300C083900F23E0F8A3E0F9E8496015900FFC
:1003630023E0FAA3E0FB120D48900F237400F0A3DF
:100373007400F0D083D082228999A29950FCC2994B
:100383002274F81200C0EAFEEBFF8C828D83800A90
:10039300E0F9EEFAEFFB12037BA3E070F37F0102B7
:1003A3000126C082C083900F18E0F9D083D0822247
:1003B30074F71200C07598504389204387808C08D6
:1003C3008D09780812021D000003006009E603C0CE
:1003D30012E1038025DC03EB03758DF3800D758D2E
:1003E300E68008758DCC8003758DF3D28EC2ABD2B7
:1003F300AFD2ACC2997F02020126C0E074F21201AF
:1004030066C2AFA29840030204C2900F1DC082C00F
:1004130083900F1FE0F8A3E0F9D083D082C3E09864
:10042300A3E0995010900F1BE0F8A3E0F9900F1F81
:10043300E8F0A3E9F0E599C0E0900F1FE0F8A3E02E
:10044300F5838882D0E0F0E599900F19F0900F1AA8
:100453007401F0900F1FE02401F8A3E03400F99039
:100463000F1FE8F0A3E9F01203A5E9FA7B00900F50
:100473003FE0F8790024FFF8E934FFF9C3EA98EB89
:1004830099A2D265D0335009900F18E02401F0806F
:100493002C900F187400F0900F177401F0900F3F19
:1004A300E0F87900C3E498F8E499F9900F1FE02885
:1004B300F8A3E039F9900F21E8F0A3E9F0C298D24C
:1004C300AF7F010201C574F71200C0EAFEEBFF80A3
:1004D3000CEC24020A0AED3400FB120683900F3061
:1004E300E0FAA3E0FBEA4B702B7A327B0F80031216
:1004F3000574120568605388828983C3E09EA3E074
:100503009F40EC805B88828983C3E09EA3E09F5079
:100513004F12057412056870EC900F3012067AE0E2
:10052300FCA3E0FD7A327B0F800F88828983C3E0CE
:100533009EA3E09F502A1205748A828B83E0F8A35E
:10054300E0F9EC687002ED6970E0120C2E8A088BFA
:1005530009AC08AD09EC4D60030204D47A007B00BA
:100563007F020201268A828B83E0F8A3E0F9E8493F
:1005730022E82402FAE93400FB2274F61200C0EAEE
:100583002402FEEB3400FFC3EA9EEB9F40077A0090
:100593007B00020663C3EE9404EF940050047E04D0
:1005A3007F00EEFAEFFB1204C98A088B09A808A999
:1005B30009E8FCE9FDE84960D58C828D83E0FAA364
:1005C300E0FBEA2402F8EB3400F98A828B83E0240F
:1005D300FCF508A3E034FFF509C3E5089EE5099F90
:1005E300501388828983E0F8A3E0F98C828D83E835
:1005F300F0A3E98036EA2EF508EB3FF5098C828DEE
:1006030083E508F0A3E509F088828983E0F508A370
:10061300E0120674A3A3120668E0C39EF508A3E0E4
:100623009F120674120668EEF0A3EFF08C828D839E
:1006330012056C6016E824020808E93400F9888280
:100643008983E0FCA3E0FDEC4D7004780079009011
:100653000F30E8F0A3E9F0EA24020A0AEB3400FBC6
:100663007F03020126E508F0A3E509F08A828B8364
:1006730022F5098C828D83E0F8A3E0F5838882223A
:1006830074F31200C0EA4B70030207C1EA24FE1A96
:100693001AEB34FFFB8A828B83E0FEA3E0FFC3EEF9
:1006A3009404EF940050030207C1900F32E0FCA3BF
:1006B300E0FDEA2402F508EB3400F509EC4D600B8C
:1006C300EAF8EBF9C3E89CE99D5015850882850992
:1006D30083ECF0A3EDF0900F32020762AC82AD839E
:1006E300EC2402F50AED3400F50B850A82F583E06C
:1006F300F50CA3E0850C82F583E58245836009C38D
:10070300E58298E5839940D41207C6EC28F8ED39C1
:10071300F9C3EA98EB9950030207C1EA687002EB48
:100723006970118C828D83E02EF0A3E03FF0ECFA28
:10073300EDFB8030850A82850B831207CAE8496086
:100743000DEA2EFCEB3FFDC3E89CE99D4070850854
:1007530082850983E8F0A3E9F0850A82850B83EAA1
:10076300F0A3EBF0EA2402F8EB3400F9E8FCE9FD2E
:100773001207C6E84960478A828B83E0FEA3E0FF45
:10078300EA2EFEEB3FFFE86E7002E96F7030900FC8
:1007930030E4F0A3F01207C688828983E0FEA3E069
:1007A300FF8A828B83E02EF0A3E03FF08882898367
:1007B300A3A31207CA8C828D83E8F0A3E9F07F0616
:1007C3000201268C828D83E0F8A3E0F92274F812EB
:1007D30000C0EAFEEBFF8E828F837400F0A374F8EF
:1007E300F0EEFAEFFB12085CEEFAEFFB7F01020179
:1007F30026020835780079008008E82401F8E934F6
:1008030000F9C3EC98ED9950F12274F81200C0EA94
:10081300FEEBFF8E828F83E02401FCA3E03400FD16
:10082300EEFAEFFB120C1FE9F8A2E740E67F0102A4
:10083300012674F81200C0EAFEEBFFEEFAEFFB129A
:10084300080D79018E828F83E0FCA3E0FDEEFAEFC1
:10085300FB120C127F0102012674F71200C0EAFE9C
:10086300EBFF75080075090080297C107D27EEFADF
:10087300EFFB1207F779388E828F83E0FCA3E0FD4C
:10088300EEFAEFFB120C12E5082401F508E5093432
:1008930000F509C3E5089404E509940040CCEEFA99
:1008A300EFFB12080D79388E828F83E0FCA3E0FD05
:1008B300EEFAEFFB120C12EEFAEFFB12080D7901C0
:1008C3008E828F83E0FCA3E0FDEEFAEFFB120C12A5
:1008D300EEFAEFFB12080D790C8E828F83E0FCA3F6
:1008E300E0FDEEFAEFFB120C12EEFAEFFB12080D2D
:1008F30079068E828F83E0FCA3E0FDEEFAEFFB1214
:100903000C127F0202012674F41200C08A0A8B0BB8
:10091300ECFEEDFF750C02850A08850B09800C12AD
:1009230009707402650C6024120970EE6508700387
:10093300EF6509602D850882850983E493F87401C6
:1009430093F9E84960D97402650C60DC85088285F7
:100953000983E493C0E0740193F583D0821200BE4F
:1009630080C6150CE50C70AF7F05020126E508244F
:1009730002F508E5093400F5092274F81200C08A6B
:10098300828B83E0F8A3E0F988828983E0FCA3E00B
:10099300FDEC4D7010900F2AE0FCA3E0FDEA6C70B3
:1009A30002EB6D7005120D50801188828983ECF083
:1009B300A3EDF0900F2AEAF0A3EBF07F01020126EA
:1009C300C082C08380078C828D831200BE900F2A61
:1009D300E0F8A3E0F9E8496038900F2A120A1912E7
:1009E3000A19E0FAA3E0FB900F2AEAF0A3EBF088E0
:1009F300828983A3A3A3A3E0FAA3E0FBEAFCEBFDB4
:100A030088828983A3A3E0FAA3E0FBEA4B70B78053
:100A1300B5D083D08222E0FAA3E0F5838A822274E0
:100A2300F81200C0EAFEEBFFEEFAEFFB1202D58EDE
:100A3300828F83A3AA82AB83120CECEE2403FAEF1A
:100A43003400FB120CA2EE240CFAEF3400FB120765
:100A5300D0EE240EFAEF3400FB120B66EE2411FAEB
:100A6300EF3400FB120BACEEFAEFFB7F0102012621
:100A730074F81200C0EAFEEBFFEE2411FAEF340023
:100A8300FB120BD1EE240EFAEF3400FB120B8BEEAC
:100A9300240CFAEF3400FB1207F4EE2403FAEF34CC
:100AA30000FB120CBF8E828F83A3AA82AB83120D2D
:100AB30004EEFAEFFB1203517F0102012674F812D0
:100AC30000C08A828B83ECFEEDFF7942AA82AB835E
:100AD30012037BEEFCEFFDAA82AB831203847F013A
:100AE300020126C0E0C0D0E8C0E0E9C0E0C082C097
:100AF30083E5DDF8E5DDF9E8A2E0500EE9A2E25076
:100B03000975DEFF7401900F25F0E5DDF8E5DDF9E9
:100B1300E8A2E0500EE9A2E1500975DEFF740190EE
:100B23000F29F0900F28E0C0E0900F27E0F8D0E005
:100B33005860067400900F26F0900F28E0A2E0B3EF
:100B4300E433C0E0900F27E0F8D0E058600674006B
:100B5300900F26F0D083D082D0E0F9D0E0F8D0D047
:100B6300D0E03274F81200C0EAFEEBFFEEFAEFFBBE
:100B7300120D3E8E828F83A3AA82AB83120CECEEFE
:100B8300FAEFFB7F0102012674F81200C0EAFEEBC4
:100B9300FF8E828F83A3AA82AB83120D04EEFAEF3A
:100BA300FB120D477F0102012674F81200C0EAFE12
:100BB300EBFFEEFAEFFB120D3E8E828F83A3AA8228
:100BC300AB83120CECEEFAEFFB7F0102012674F803
:100BD3001200C0EAFEEBFF8E828F83A3AA82AB834F
:100BE300120D04EEFAEFFB120D477F01020126C03E
:100BF30082C083E98C828D83F0D083D08222C0822D
:100C0300C08379008C828D83E0F9D083D08222EE79
:100C1300C0E0E9FEF9120BF2D0E0FE22EEC0E07E66
:100C230000120C01E9FEF9D0E0FE22C082C08390DD
:100C33000F2EE0F8A3E0F9E84960067A007B008014
:100C430021900F2E7441F0A3740FF07440C39441AC
:100C5300741F940FF9900F4174FFF0A3E9F07A41E8
:100C63007B0FD083D0822274F71200C0EAFEEBFF21
:100C73008003120D57EEFAEFFB12057D8B09A909CC
:100C8300EA497016900F2CE0F8A3E0F9E84960E216
:100C9300E0F58388821200BE80DB7F0202012674A6
:100CA300F81200C0EAFEEBFFEE2408FAEF3400FB73
:100CB300120D3EEEFAEFFB7F01020126EA2408FA49
:100CC300EB3400FB020D477A007B0F120A227A39BC
:100CD3007B0F02097DC2AF75AE55D2AF7C347D0F59
:100CE3007A007B0F120AC080F3C082C0838A828B92
:100CF30083AA82AB83120D22AA82AB83D083D082D4
:100D030022020D32C0E0C0D0C082C083C2AF900FB8
:100D1300167401F0D2AFD083D082D0D0D0E032C0ED
:100D230082C0838A828B837405F0D083D08222228F
:100D33007CD57D027AD37B0202090AC295C294C292
:100D430096D2972222EA4B6003120683227A017B12
:0F0D530000020D60020D50020046020C6A80FE85
:00009F0160
:00000001FF
