:0600000002007F0213C89C
:100023000207F6EAFEEBFF121158EEFAEFFB021499
:100033000612008EB90003020076E4900F00782FB9
:1000430079018002F0A3D8FCD9FA900F2EAA82ABD3
:1000530083900091788579018015E493A3AC82ADF8
:10006300838A828B83F0A3AA82AB838C828D83D80D
:10007300E9D9E71213E31213B812140075D000750F
:1000830081BF75100075110F020034790122130F1F
:10009300000FDC03040C534F4C373235204163749B
:1000A30069766500534F4C37313320416374697669
:1000B3006500534F4C3732322041637469766500D3
:1000C3004E6F20626F6C696400436F756E74657266
:1000D300436C6F636B576973650053544F50004310
:1000E3006C6F636B57697365004E6F20626C6F634F
:1000F300005461626C6520464553544F004F726152
:100103006E6765004E6F6972004D6574616C6C6952
:100113006300CAC0E0E6F0A308DAFAD0E0FA2225C9
:100123001010AF08F510400215118008F5104002B9
:100133001511D2AF22C0D0251010AF08F510500210
:1001430005118008F51050020511D2AFD0D0222539
:1001530010F58210AF08F510400215118008F51054
:1001630040021511D2AF851183222510F582E435A3
:1001730011F58322E4732510C582C0E0E51134FF35
:10018300C583C0E0E510C3958224F910AF088583C9
:10019300118582108008858311858210D2AFCEF03D
:1001A300A3E520F0A37808E608F0A3DEFAEFF0A3B6
:1001B300E58124FBF8E608F0A3E608F0A30808E6C7
:1001C30008F0A3E608F0A315811581D0E0FED0E086
:1001D300F815811581E8C0E0EEC0E0228511838522
:1001E3001082E0A3FEE0A3F5207808E0A3F608DF81
:1001F300FAE0A3FFE0A3C0E0E0A3C0E0E0A3C0E017
:10020300E0A3C0E010AF08858210858311800885C4
:100213008210858311D2AFD083D08222C0D0251023
:10022300C582C0E0E51134FFC583C0E0E510C39586
:100233008224F310AF08858311858210800885839B
:1002430011858210D2AFC8F0A3E9F0A3EAF0A3EBC3
:10025300F0A37908E709F0A3D8FAECF0A3EDF0A333
:10026300EEF0A3EFF0A3D0E0F0A3D0E0F0A3D0E052
:10027300F0A3E520F0A3E5F0F0A322851183851018
:1002830082E0C0E0A3E0F9A3E0FAA3E0FBA37808CF
:10029300E0F608A3DFFAE0FCA3E0FDA3E0FEA3E0A1
:1002A300FFA3E0C0E0A3E0C0E0A3E0F5D0A3E0F546
:1002B30020A3E0A3F5F010AF088583118582108099
:1002C30008858311858210D2AFD082D083D0E0F825
:1002D300D0E032740280027401C0E0F404120152CF
:1002E300D0E012011522D083D082ECC0E0EDC0E053
:1002F300E493A3FCE493A3FDED4C600D120335ECF2
:1003030024FFFCED34FFFD80EFE493A3FCE493A30F
:10031300FDED4C600D120374EC24FFFCED34FFFD86
:1003230080EFD0E0FDD0E0FCE493A3C0E0E493C011
:10033300E022C0E0C3E49396087401939618400F3B
:10034300E49366700808740193661870007019A32B
:10035300A3C3E49396087401939618A3A3400DD006
:10036300E0D0E0D0E0020325A3A3A3A3A3A3D0E09E
:1003730022C0E0C0F088F0E493667008087401932B
:1003830066187000A8F0A3A3700BD0F0D0E0D0E003
:10039300D0E0020325A3A3D0F0D0E022AA1374F87F
:1003A300120179EAFEEBFFEEFAEFFB1206CE8E8224
:1003B3008F83A3AA82AB831208C2EE2403FAEF341D
:1003C30000FB121232EE240BFAEF3400FB121297E9
:1003D300EEFAEFFB7F010201DF74F8120179EAFE06
:1003E300EBFFEE240BFAEF3400FB1212BBEE2403F7
:1003F300FAEF3400FB1212568E828F83A3AA82ABCC
:10040300831208E6EEFAEFFB12074A7F010201DFCF
:1004130074F81201798A828B83ECFEEDFF7942AA8C
:1004230082AB83120774EEFCEFFDAA82AB83120743
:100433007D7F010201DF74F81201798A828B83ECDC
:10044300FEEDFF7931AA82AB83120774EEFCEFFD58
:10045300AA82AB8312077D7F010201DF74F51201CB
:1004630079EAFEEBFF750800750900750A00750B44
:10047300007C0179008E828F83A3AA82AB83120949
:10048300FCEE240BFAEF3400FB1212DBE9F509EE64
:10049300240BFAEF3400FB1212E1E9F50AEE240B08
:1004A300FAEF3400FB1212DEE9F50B7401650970F3
:1004B300297401650A70097401650B7003750803DB
:1004C300E50A70097401650B7003750801E50A708C
:1004D3000CE50B7008750802800375080474016548
:1004E3000870107C9D7D0F8E828F83A3AA82AB83BD
:1004F300120A8B7402650870107CA47D0F8E828FA4
:1005030083A3AA82AB83120A8B7403650870107CE1
:10051300A97D0F8E828F83A3AA82AB83120A8B7469
:1005230004650870107C897D0F8E828F83A3AA8255
:10053300AB83120A8BA9087F040201DFC082C08348
:100543007C917D0F8A828B83A3AA82AB83120A8B51
:100553007900D083D0822274F8120179EAFEEBFF8E
:100563007C0279008E828F83A3AA82AB831209FC5B
:10057300EEFAEFFB12053FE96401700302062E7CDD
:10058300607D0F8E828F83A3AA82AB83120A8BEEC8
:10059300FAEFFB1206CBE964017070740165087011
:1005A300167C697D0FEEFAEFFB1204137C697D0F55
:1005B300EEFAEFFB1204397402650870167C7A7D3B
:1005C3000FEEFAEFFB1204137C7A7D0FEEFAEFFBCA
:1005D3001204397403650870167C7F7D0FEEFAEF01
:1005E300FB1204137C7F7D0FEEFAEFFB12043974C8
:1005F30004650870167C897D0FEEFAEFFB12041375
:100603007C897D0FEEFAEFFB1204397F010201DFD3
:10061300EE2403FAEF3400FB1212767C367D0F8E44
:10062300828F83A3AA82AB83120A8BEE240BFAEF89
:100633003400FB1212DBE960D7EEFAEFFB12045F22
:10064300E9F508EE2403FAEF3400FB12127B7C4435
:100653007D0F8E828F83A3AA82AB83120A8B800BBA
:10066300EE2403FAEF3400FB12127BEE240BFAEFB5
:100673003400FB1212E4E960E7EE2403FAEF3400DE
:10068300FB1212857C527D0F8E828F83A3AA82ABCD
:1006930083120A8B800BEE2403FAEF3400FB121251
:1006A30085EE240BFAEF3400FB1212EFE960E7EE5C
:1006B3002403FAEF3400FB121280EE2403FAEF3422
:1006C30000FB12128A02059279012274F812017951
:1006D300EAFEEBFF7A0C7B00121403900F22EAF080
:1006E300A3EBF0900F347404F0900F35740CF0907A
:1006F3000F22E0F8A3E0F9900F1AE8F0A3E9F090D5
:100703000F22E0240BF8A3E03400F9900F1CE8F06B
:10071300A3E9F0900F22E0F8A3E0F9900F1EE8F0B0
:10072300A3E9F0900F22E0F8A3E0F9900F20E8F09E
:10073300A3E9F07C807D25EEFAEFFB1207ACEEFA1D
:10074300EFFB7F010201DFC082C083900F22E0F83C
:10075300A3E0F9E8496015900F22E0FAA3E0FB1249
:1007630013EE900F227400F0A37400F0D083D082B4
:10077300228999A29950FCC2992274F8120179EA4C
:10078300FEEBFF8C828D83800AE0F9EEFAEFFB1219
:100793000774A3E070F37F010201DFC082C083907E
:1007A3000F17E0F9D083D0822274F712017975987C
:1007B300504389204387808C088D0978081202E909
:1007C300000003006009DF07C012DA078025D507A0
:1007D300E407758DF3800D758DE68008758DCC80EB
:1007E30003758DF3D28EC2ABD2AFD2ACC2997F0266
:1007F3000201DFC0E074F212021FC2AFA2984003ED
:100803000208BB900F1CC082C083900F1EE0F8A3A8
:10081300E0F9D083D082C3E098A3E0995010900F01
:100823001AE0F8A3E0F9900F1EE8F0A3E9F0E599C8
:10083300C0E0900F1EE0F8A3E0F5838882D0E0F0DB
:10084300E599900F18F0900F197401F0900F1EE0C6
:100853002401F8A3E03400F9900F1EE8F0A3E9F0B7
:1008630012079EE9FA7B00900F34E0F8790024FF29
:10087300F8E934FFF9C3EA98EB99A2D265D0335073
:1008830009900F17E02401F0802C900F177400F0EB
:10089300900F167401F0900F34E0F87900C3E498D8
:1008A300F8E499F9900F1EE028F8A3E039F9900FC6
:1008B30020E8F0A3E9F0C298D2AF7F0102027E7470
:1008C300F8120179EAFEEBFF8E828F837400F0A3A6
:1008D30074F8F0EEFAEFFB12094EEEFAEFFB7F012C
:1008E3000201DF020927780079008008E82401F873
:1008F300E93400F9C3EC98ED9950F12274F8120130
:1009030079EAFEEBFF8E828F83E02401FCA3E034BF
:1009130000FDEEFAEFFB121327E9F8A2E740E67FAA
:10092300010201DF74F8120179EAFEEBFFEEFAEF40
:10093300FB1208FF79018E828F83E0FCA3E0FDEEBA
:10094300FAEFFB12131A7F010201DF74F712017928
:10095300EAFEEBFF75080075090080297C107D27EE
:10096300EEFAEFFB1208E979388E828F83E0FCA35D
:10097300E0FDEEFAEFFB12131AE5082401F508E592
:10098300093400F509C3E5089404E509940040CC53
:10099300EEFAEFFB1208FF79388E828F83E0FCA317
:1009A300E0FDEEFAEFFB12131AEEFAEFFB1208FF6B
:1009B30079018E828F83E0FCA3E0FDEEFAEFFB1258
:1009C300131AEEFAEFFB1208FF790C8E828F83E085
:1009D300FCA3E0FDEEFAEFFB12131AEEFAEFFB12A3
:1009E30008FF79068E828F83E0FCA3E0FDEEFAEF29
:1009F300FB12131A7F020201DF74F6120179EAFE79
:100A0300EBFF89098C0AE50A14600B14600D14606E
:100A130012146017801D850908801B74402509F591
:100A230008801374142509F508800B74542509F5FF
:100A3300088003850908D3E50892E7F508EEFAEF85
:100A4300FB1208FFA9088E828F83E0FCA3E0FDEE72
:100A5300FAEFFB12131A7F030201DF74F812017914
:100A6300EAFEEBFF8908EEFAEFFB1208FFA9088EF6
:100A7300828F83E02402FCA3E03400FDEEFAEFFB57
:100A830012131A7F010201DF74F8120179EAFEEBF7
:100A9300FF8C828D83800AE0F9EEFAEFFB120A5E87
:100AA300A3E070F37F010201DF74F7120179EAFE1C
:100AB300EBFF800CEC24020A0AED3400FB120F5208
:100AC300900F2AE0FAA3E0FBEA4B702B7A2C7B0F02
:100AD3008003120B57120B4B605388828983C3E048
:100AE3009EA3E09F40EC805B88828983C3E09EA342
:100AF300E09F504F120B57120B4B70EC900F2A12C2
:100B03000C5DE0FCA3E0FD7A2C7B0F800F888289CB
:100B130083C3E09EA3E09F502A120B578A828B83E4
:100B2300E0F8A3E0F9EC687002ED6970E0121336A7
:100B33008A088B09AC08AD09EC4D6003020AB77A49
:100B4300007B007F020201DF8A828B83E0F8A3E04F
:100B5300F9E84922E82402FAE93400FB2274F61288
:100B63000179EA2402FEEB3400FFC3EA9EEB9F40C7
:100B7300077A007B00020C46C3EE9404EF94005006
:100B8300047E047F00EEFAEFFB120AAC8A088B099D
:100B9300A808A909E8FCE9FDE84960D58C828D83A2
:100BA300E0FAA3E0FBEA2402F8EB3400F98A828B33
:100BB30083E024FCF508A3E034FFF509C3E5089EB0
:100BC300E5099F501388828983E0F8A3E0F98C82BA
:100BD3008D83E8F0A3E98036EA2EF508EB3FF509AB
:100BE3008C828D83E508F0A3E509F088828983E090
:100BF300F508A3E0120C57A3A3120C4BE0C39EF518
:100C030008A3E09F120C57120C4BEEF0A3EFF08CED
:100C1300828D83120B4F6016E824020808E9340022
:100C2300F988828983E0FCA3E0FDEC4D7004780031
:100C33007900900F2AE8F0A3E9F0EA24020A0AEB0C
:100C43003400FB7F030201DFE508F0A3E509F08A26
:100C5300828B8322F5098C828D83E0F8A3E0F583F0
:100C6300888222C082C0838A828B83AA82AB83124A
:100C73000DF6AA82AB83D083D08222020E0674F1D2
:100C830012017974FE120122EAFEEBFF8908741146
:100C930012016DE0F8741212016DE0F50EA3E0F598
:100CA3000F741412016DE0F50C851082851183EC2D
:100CB300F0A3EDF0E86009146026146057020D5CA0
:100CC300EEFAEFFB120E078007EEFAEFFB120E07A8
:100CD300A908EEFAEFFB120EFBE9640160EB8079E1
:100CE300EEFAEFFB120E078007EEFAEFFB120E0788
:100CF300A908EEFAEFFB120EFBE9640160EB851025
:100D030082851183E0F9EEFAEFFB120EFBE9640131
:100D130060EC8045EEFAEFFB120E078007EEFAEF68
:100D2300FB120E07A908EEFAEFFB120EFBE96401B2
:100D330060EB851082851183E0F9EEFAEFFB120E6A
:100D4300FBE9640160EC740112016DE0F9EEFAEF66
:100D5300FB120EFBE9640160EDE50CC39402402E27
:100D6300750900E509C3950C503885090A750B0010
:100D7300E50E250AF582E50F350BF583E0F9EEFA6A
:100D8300EFFB120EFBE9640160E0050980D5850ED7
:100D930082850F83E0F9EEFAEFFB120EFBE96401A3
:100DA30060ECEEFAEFFB120E3174021201387F0889
:100DB3000201DF74F81201798A828B83AA82AB83E2
:100DC300120E078007AA82AB83120E077940AA820C
:100DD300AB83120EFBE9640160EB7901AA82AB835A
:100DE300120EBFE9FEAA82AB83120E31EEF97F0128
:100DF3000201DFC082C0838A828B837405F0D083B3
:100E0300D0822222C082C0838A828B83D2B6D2B799
:100E1300AA82AB83120F3AC2B6AA82AB83120F3AED
:100E2300C2B7AA82AB83120F3AD083D08222C08288
:100E3300C0838A828B83C2B6C2B7AA82AB83120FE6
:100E43003AD2B7AA82AB83120F3AD2B6AA82AB8345
:100E5300120F3AD083D0822274F81201798A828BDE
:100E630083D2B6AA82AB83120F3AD2B7AA82AB83DC
:100E7300120F3AA2B6E433FEAA82AB83120F3AC230
:100E8300B7AA82AB83120F3AEEF97F010201DF7436
:100E9300F81201798A828B83E9FEA2E092B6AA82D4
:100EA300AB83120F3AD2B7AA82AB83120F3AC2B7FF
:100EB300AA82AB83120F3A7F010201DF74F8120199
:100EC300798A828B83E9FF7E007508008013AA82EA
:100ED300AB83120E5BE9640170010EEEC333FE05B2
:100EE30008E508C3940840E6EFF9AA82AB83120E23
:100EF30092EEF97F010201DF74F81201798A828B85
:100F030083E9FF7E00800E7901AA82AB83120E92E1
:100F1300EFC333FF0EEEC394085010EFA2E740E790
:100F23007900AA82AB83120E9280E5AA82AB831268
:100F33000E5B7F010201DFC082C0838A828B83E064
:100F4300F8800118E8C3940150F9D083D082227449
:100F5300F3120179EA4B7003021090EA24FE1A1A85
:100F6300EB34FFFB8A828B83E0FEA3E0FFC3EE94A6
:100F730004EF94005003021090900F2CE0FCA3E0C8
:100F8300FDEA2402F508EB3400F509EC4D600BEAA9
:100F9300F8EBF9C3E89CE99D501585088285098320
:100FA300ECF0A3EDF0900F2C021031AC82AD83EC8A
:100FB3002402F50AED3400F50B850A82F583E0F58A
:100FC3000CA3E0850C82F583E58245836009C3E5C4
:100FD3008298E5839940D4121095EC28F8ED39F9FD
:100FE300C3EA98EB995003021090EA687002EB6928
:100FF30070118C828D83E02EF0A3E03FF0ECFAEDCC
:10100300FB8030850A82850B83121099E849600DB5
:10101300EA2EFCEB3FFDC3E89CE99D407085088206
:10102300850983E8F0A3E9F0850A82850B83EAF05A
:10103300A3EBF0EA2402F8EB3400F9E8FCE9FD1233
:101043001095E84960478A828B83E0FEA3E0FFEABC
:101053002EFEEB3FFFE86E7002E96F7030900F2AAF
:10106300E4F0A3F012109588828983E0FEA3E0FFE9
:101073008A828B83E02EF0A3E03FF088828983A3EA
:10108300A31210998C828D83E8F0A3E9F07F060206
:1010930001DF8C828D83E0F8A3E0F92274F412015E
:1010A300798A0A8B0BECFEEDFF750C02850A088525
:1010B3000B09800C1211057402650C6024121105D2
:1010C300EE65087003EF6509602D85088285098345
:1010D300E493F8740193F9E84960D97402650C60EC
:1010E300DC850882850983E493C0E0740193F5836A
:1010F300D08212017780C6150CE50C70AF7F050214
:1011030001DFE5082402F508E5093400F509227436
:10111300F81201798A828B83E0F8A3E0F988828947
:1011230083E0FCA3E0FDEC4D7010900F24E0FCA3E2
:10113300E0FDEA6C7002EB6D70051213F680118806
:10114300828983ECF0A3EDF0900F24EAF0A3EBF097
:101153007F010201DFC082C08380078C828D8312EE
:101163000177900F24E0F8A3E0F9E8496038900F85
:10117300241211AE1211AEE0FAA3E0FB900F24EAA1
:10118300F0A3EBF088828983A3A3A3A3E0FAA3E0EF
:10119300FBEAFCEBFD88828983A3A3E0FAA3E0FBCF
:1011A300EA4B70B780B5D083D08222E0FAA3E0F592
:1011B300838A822274F8120179EAFEEBFFEEFAEFDA
:1011C300FB120C668E828F83A3A3A37440F0EEFA06
:1011D300EFFB7F010201DF020C7E020DB674F712F2
:1011E300017974FF120122E9FE851082851183F0D3
:1011F30075080178081202DA740112016D858208FC
:1012030085830978081202D675080078081202DA75
:101213007C007D008A828B83A3A3A3E0F9120C8157
:10122300740412013874011201387F020201DF7461
:10123300F8120179EAFEEBFFEEFAEFFB1211B7EEBB
:101243002404FAEF3400FB1211B7EEFAEFFB7F012F
:101253000201DF74F8120179EAFEEBFFEE2404FACF
:10126300EF3400FB1211DAEEFAEFFB1211DA7F0111
:101273000201DF79400211E079400211E079400276
:1012830011E079400211E07941EA2404FAEB3400D9
:10129300FB0211E074F8120179EAFEEBFFEEFAEFBC
:1012A300FB1211B7EE2404FAEF3400FB1211B7EE70
:1012B300FAEFFB7F010201DF74F8120179EAFEEB1A
:1012C300FFEE2404FAEF3400FB1211DAEEFAEFFB1F
:1012D3001211DA7F010201DF0211DD0211DD0211B9
:1012E300DDEA2404FAEB3400FB0211DDEA2404FAFC
:1012F300EB3400FB0211DDC082C083E98C828D8355
:10130300F0D083D08222C082C08379008C828D8307
:10131300E0F9D083D08222EEC0E0E9FEF91212FA9E
:10132300D0E0FE22EEC0E07E00121309E9FEF9D000
:10133300E0FE22C082C083900F28E0F8A3E0F9E822
:101343004960067A007B008021900F2874B2F0A3D5
:10135300740FF074B1C394B2741F940FF9900FB269
:1013630074FFF0A3E9F07AB27B0FD083D0822274AA
:10137300F7120179EAFEEBFF80031213FDEEFAEF99
:10138300FB120B608B09A909EA497016900F26E03E
:10139300F8A3E0F9E84960E2E0F583888212017777
:1013A30080DB7F020201DF7A007B0F1203A17A2E1A
:1013B3007B0F021112C2AF75AE55D2AF7A007B0F0D
:1013C30012055A80F7C0E0C0D0C082C083C2AF907C
:1013D3000F157401F0D2AFD083D082D0D0D0E032D9
:1013E3007CA17D037A9F7B0302109FEA4B6003126B
:1013F3000F52227A017B000214060213F602002622
:0514030002137280FEDF
:00007F0180
:00000001FF
