:06000000020071020B8DED
:10002300020A7D020C29120080B9000302006BE46E
:10003300908FFF780F79018002F0A3D8FCD9FA9052
:10004300900DAA82AB83900083782279018015E416
:1000530093A3AC82AD838A828B83F0A3AA82AB8302
:100063008C828D83D8E9D9E7120C02120C2675D045
:10007300007581BF7510FF75118F02002979012268
:100083003132334134353642373839432A30234409
:100093004A65207465737465206C27656372616EAD
:1000A30000CAC0E0E6F0A308DAFAD0E0FA22C3E41B
:1000B30098F8E499F91200F28026C3E49AFAE49BD3
:1000C300FBE920E7E91200F2E498F8E499F922C386
:1000D300E498F8E499F91200F2E498F8E499F9C382
:1000E300E49AFAE49BFB22EB20E7CFE920E7E0B9AF
:1000F3000010BB0008E88AF084F8AAF022E4FBC8E9
:10010300FA22EB70227B10C833C8C933C9335007B6
:10011300C39AC3DBF280069A50012ADBEAC833F4A0
:10012300C8C933F4C9FA2275F008E4C833C8C9331F
:10013300C933C99AC99B5004C92AC93BD5F0ECFB02
:10014300C833F4C8E4C9FA22600C08C6C313C6183E
:10015300C613C6D5E0F422251010AF08F5104002EF
:1001630015118008F51040021511D2AF22C0D02519
:100173001010AF08F510500205118008F510500259
:100183000511D2AFD0D0222510F58210AF08F5109B
:10019300400215118008F51040021511D2AF8511E8
:1001A30083222510F582E43511F583222510C582BB
:1001B300C0E0E51134FFC583C0E0E510C395822498
:1001C300F910AF0885831185821080088583118516
:1001D3008210D2AFCEF0A3E520F0A37808E608F0B2
:1001E300A3DEFAEFF0A3E58124FBF8E608F0A3E62B
:1001F30008F0A30808E608F0A3E608F0A3158115A4
:1002030081D0E0FED0E0F815811581E8C0E0EEC0B2
:10021300E022851183851082E0A3FEE0A3F5207818
:1002230008E0A3F608DFFAE0A3FFE0A3C0E0E0A341
:10023300C0E0E0A3C0E0E0A3C0E010AF08858210F7
:100243008583118008858210858311D2AFD083D036
:100253008222C0D02510C582C0E0E51134FFC583DA
:10026300C0E0E510C3958224F310AF0885831185A0
:1002730082108008858311858210D2AFC8F0A3E96C
:10028300F0A3EAF0A3EBF0A37908E709F0A3D8FA07
:10029300ECF0A3EDF0A3EEF0A3EFF0A3D0E0F0A316
:1002A300D0E0F0A3D0E0F0A3E520F0A3E5F0F0A3C5
:1002B30022851183851082E0C0E0A3E0F9A3E0FA70
:1002C300A3E0FBA37808E0F608A3DFFAE0FCA3E0D1
:1002D300FDA3E0FEA3E0FFA3E0C0E0A3E0C0E0A332
:1002E300E0F5D0A3E0F520A3E0A3F5F010AF088577
:1002F30083118582108008858311858210D2AFD047
:1003030082D083D0E0F8D0E03274028000C0E0F401
:100313000412018AD0E01200A42274F81201AFEA99
:10032300FEEBFF8E828F83ECF0A3EDF0EEFAEFFB92
:1003330012037DEEFAEFFB7F0102021578007900CC
:100343008008E82401F8E93400F9C3EC98ED9950EA
:10035300F12274F81201AFEAFEEBFF8E828F83E085
:100363002401FCA3E03400FDEEFAEFFB120BF3E9EA
:10037300F8A2E740E67F0102021574F71201AFEA23
:10038300FEEBFF75080075090080297C107D27EEC0
:10039300FAEFFB12033F79388E828F83E0FCA3E0F0
:1003A300FDEEFAEFFB120BE6E5082401F508E5097B
:1003B3003400F509C3E5089404E509940040CCEE44
:1003C300FAEFFB12035579388E828F83E0FCA3E0AA
:1003D300FDEEFAEFFB120BE6EEFAEFFB1203557993
:1003E300018E828F83E0FCA3E0FDEEFAEFFB120B9C
:1003F300E6EEFAEFFB120355790C8E828F83E0FC55
:10040300A3E0FDEEFAEFFB120BE6EEFAEFFB1203AD
:100413005579068E828F83E0FCA3E0FDEEFAEFFBB5
:10042300120BE67F0202021574F61201AFEAFEEB2D
:10043300FF89098C0AE50A14600B14600D1460121D
:10044300146017801D850908801B74402509F50871
:10045300801374142509F508800B74542509F508D5
:100463008003850908D3E50892E7F508EEFAEFFB68
:10047300120355A9088E828F83E0FCA3E0FDEEFAF8
:10048300EFFB120BE67F0302021574F81201AFEAC9
:10049300FEEBFF8908EEFAEFFB120355A9088E82E3
:1004A3008F83E02402FCA3E03400FDEEFAEFFB129D
:1004B3000BE67F0102021574F81201AFEAFEEBFFAF
:1004C3008908EEFAEFFB120355A9088E828F83E0A9
:1004D3002402FCA3E03400FDEEFAEFFB120BE67FEF
:1004E3000102021574F81201AFE9FAEAFBC4540FD2
:1004F3008C828D83F074081201A5E0F8A3E0F974EF
:100503000F5A88828983F08C828D83E0C3940A50CA
:100513000A8C828D83E02430F080088C828D83E006
:100523002437F088828983E0C3940A500A88828939
:1005330083E02430F0800888828983E02437F07FC9
:100543000102021574F71201AF74091201A5E0F854
:10055300A3E0F9E8FAE9FB8C088D09740C7808121A
:10056300014BE5088A828B83E508F0740B1201A521
:10057300E0F8A3E0F9ECFEEDFFE4EFFE540F888210
:100583008983F0740D1201A5E0FEA3E0FFECC454CF
:100593000F8E828F83F0740F1201A5E0F508A3E09C
:1005A300F509EC540F850882850983F08A828B83D1
:1005B300E0C3940A500A8A828B83E02430F08008D7
:1005C3008A828B83E02437F088828983E0C3940A8C
:1005D300500A88828983E02430F0800888828983E6
:1005E300E02437F08E828F83E0C3940A500A8E8210
:1005F3008F83E02430F080088E828F83E02437F0ED
:10060300850882850983E0C3940A500C8508828596
:100613000983E02430F0800A850882850983E02479
:1006230037F07F0202021574F51201AF74FE120156
:100633005AEAFEEBFF890885108285118385820AB9
:1006430085830B780A12030C74031201A5AC82ADE7
:1006530083A908EEFAEFFB1204E774021201707427
:10066300011201A5E0F9EEFAEFFB12048D85108269
:10067300851183E0F9EEFAEFFB12048D7402120187
:10068300707F0402021574F71201AF74FC12015A51
:10069300EAFEEBFF85108285118385820885830935
:1006A300780812030C74031201A585820885830957
:1006B300780812030C74061201A585820885830944
:1006C300780812030C74091201A585820885830931
:1006D300780812030CEEFAEFFB12054774081201B7
:1006E3007074031201A5E0F9EEFAEFFB12048D74A6
:1006F300021201A5E0F9EEFAEFFB12048D74011268
:1007030001A5E0F9EEFAEFFB12048D851082851145
:1007130083E0F9EEFAEFFB12048D74041201707F8B
:100723000202021574F81201AFEAFEEBFF8C828D10
:1007330083800AE0F9EEFAEFFB1204BAA3E070F348
:100743007F0102021574F81201AF8A828B83E9FFDD
:100753007E00800E7930AA82AB831204BAEFC333D2
:10076300FF0EEEC394085010EFA2E750E77931AAC9
:1007730082AB831204BA80E57F0102021574F7127B
:1007830001AF8A828B83ECFEEDFFC3EE9400EF94FE
:1007930000A2D265D0334003020884792DAA82AB2C
:1007A300831204BA74FF6EFE74FF6FFFEEF8EFF965
:1007B3007AE87B031200EAE8FCECF87900E875F0CC
:1007C300E8A4C8AAF075F003A42AFA75F0E8E9A42E
:1007D3002AF9C3EE98FEEF99FFEEF8EFF97A647BFE
:1007E300001200EAE8F508E508A8087900E875F0C2
:1007F30064A4C8AAF075F000A42AFA75F064E9A409
:100803002AF9C3EE98FEEF99FFEEF8EFF97A0A7B27
:10081300001200EAE8F509E509A8097900E875F08E
:100823000AA4C8AAF075F000A42AFA75F00AE9A48C
:100833002AF9C3EE98FEEF99FFEEF8EFF97A017B00
:10084300001200EAE8FE74302CFC74302508F50829
:1008530074302509F50974302EFEECF9AA82AB83B6
:1008630012048DA908AA82AB8312048DA909AA8256
:10087300AB8312048DEEF9AA82AB8312048D0209B5
:100883005F7920AA82AB831204BAEEF8EFF97AE813
:100893007B031200EAE8FCECF87900E875F0E8A4C1
:1008A300C8AAF075F003A42AFA75F0E8E9A42AF9B6
:1008B300C3EE98FEEF99FFEEF8EFF97A647B00122E
:1008C30000EAE8F508E508A8087900E875F064A4EB
:1008D300C8AAF075F000A42AFA75F064E9A42AF90D
:1008E300C3EE98FEEF99FFEEF8EFF97A0A7B001258
:1008F30000EAE8F509E509A8097900E875F00AA412
:10090300C8AAF075F000A42AFA75F00AE9A42AF936
:10091300C3EE98FEEF99FFEEF8EFF97A017B001230
:1009230000EAE8FE74302CFC74302508F5087430B6
:100933002509F50974302EFEECF9AA82AB83120463
:100943008DA908AA82AB8312048DA909AA82AB835D
:1009530012048DEEF9AA82AB8312048D7F02020288
:100963001574F81201AFEAFEEBFF7C007DF8EEFA96
:10097300EFFB12031DEE2402FAEF3400FB120B5AB5
:10098300EEFAEFFB7F0102021502098F74F41201E4
:10099300AFEAFEEBFF750C17750ACD750BAB750847
:1009A300DD7509047C017900EEFAEFFB12042B7963
:1009B30054EEFAEFFB1204BA7945EEFAEFFB120498
:1009C300BA7953EEFAEFFB1204BA7954EEFAEFFB5D
:1009D3001204BA7953EEFAEFFB1204BA7C017909D7
:1009E300EEFAEFFB12042BAC08AD09EEFAEFFB12A3
:1009F30007807C017913EEFAEFFB12042BEE24023D
:100A0300FAEF3400FB120B71EEFAEFFB12048D7C4C
:100A1300027900EEFAEFFB12042BA90CEEFAEFFBBE
:100A230012062A7C02790AEEFAEFFB12042BAC0AB7
:100A3300AD0BEEFAEFFB1206897C037900EEFAEFB9
:100A4300FB12042B7C1D7D90EEFAEFFB1207277C33
:100A5300047900EEFAEFFB12042B7977EEFAEFFB41
:100A63001207487C04790AEEFAEFFB12042B79553E
:100A7300EEFAEFFB1207480209A7C0E074F2120274
:100A830055C2AFA2984003020B4FD2F0A29730F0A9
:100A930001B3E433FAD2F0A29730F001B392979006
:100AA3009009C082C083909007E0F8A3E0F9D08357
:100AB300D082C3E098A3E0994010909005E0F8A39A
:100AC300E0F9909009E8F0A3E9F0E599C0E090908F
:100AD30009E0F8A3E0F5838882D0E0F0909009E084
:100AE3002401F8A3E03400F9909009E8F0A3E9F0B9
:100AF300909003E0FA7B00909002E0F8790024FFE5
:100B0300F8E934FFF9C3EA98EB99A2D265D03350E0
:100B13000F909003E02401F09090047400F0802C77
:100B2300909002E0F87900C3E498F8E499F9909082
:100B330009E028F8A3E039F990900BE8F0A3E9F075
:100B43009090037400F09090047401F0E598C298BB
:100B5300D2AF7F010202B4C082C083908FFF74358D
:100B6300F0C2AFD288D2AFD2A8D083D08222C082C3
:100B7300C083908FFFE0F87900740D28F58274909C
:100B830039F583E0F9D083D08222C0E0C0D0E8C039
:100B9300E0C082C083C2AF9090007400F0A374F9E8
:100BA300F0909000E0F8A3E0F5838882E0540F9082
:100BB3008FFFF0C289D2AFD083D082D0E0F8D0D0FB
:100BC300D0E032C082C083E98C828D83F0D083D0A1
:100BD3008222C082C08379008C828D83E0F9D08326
:100BE300D08222EEC0E0E9FEF9120BC6D0E0FE226D
:100BF300EEC0E07E00120BD5E9FEF9D0E0FE2274D0
:100C0300FD12015A75AE55851082851183AA82ABF8
:100C130083120964851082851183AA82AB8312092A
:080C23008C80F102002680FE26
:000071018E
:00000001FF
