:04000000A3EF02F078
:1000080000C015F0E1CF16F0E2CF17F0F29E9EAADD
:100018002BD01A0E265CD8B0266A320EE16E000E7E
:10002800E26E2650E126D8B0E22AAECFE6FF26508F
:10003800010F006E00C026F0190E195C08E2195075
:10004800010F006E00C019F0010E186E03D0266A69
:10005800196A186A19500D0807E23F502E0A04E081
:10006800266A196A010E186EF28E9E9A15C000F063
:0A00780016C0E1FF17C0E2FF1100FF
:1000820063C003F064C004F065C005F066C006F00A
:10009200000167A72CD003C002F00232029E023296
:1000A200029E0232029E050E016E04C000F0015053
:1000B20004E000360090FF0FFBD761C0E1FF62C091
:1000C200E2FF00500210E66E614B622B050E016EDC
:1000D20003C000F0015004E000360090FF0FFBD790
:1000E20061C0E1FF62C0E2FF00C0E6FF42D0050E40
:1000F200006E05C002F0005004E00232029EFF0FC3
:10010200FBD706C000F000360090003600900036A3
:10011200009061C0E1FF62C0E2FF00500210E66E93
:10012200614B622B05C000F0003600900036009053
:1001320000360090E00E0016080E0010016E030E4D
:100142000514006E61C0E1FF62C0E2FF00500110C1
:10015200E66E614B622B61C0E1FF62C0E2FF04C048
:10016200E6FF614B622B61C0E1FF62C0E2FF03C0A8
:04017200E6FF120092
:100176005706580659065A065B06060E006E57C005
:1001860070FF005004E070367090FF0FFBD7585098
:10019600701259C071FF7136719071367190713657
:1001A60071905B5071125CA4718C5CB0718E5AC0F8
:0801B60072FF5CB2728C1200B2
:0C01BE009EB801D0FDD757C0ADFF120065
:1001CA0058520AE057C06FFFE00E6E14016E0150DC
:0E01DA00571801E0F9D702D057C06FFF12008E
:1001E80066D0000E0001616F0F0E626F58C063F099
:1001F80059C064F05AC065F05BC066F05CC067F037
:100208003CDF65D00001040E616F0F0E626F58C0AD
:1002180063F059C064F05AC065F05BC066F05CC01A
:1002280067F02BDF54D00001080E616F0F0E626F6C
:1002380058C063F059C064F05AC065F05BC066F0FE
:100248005CC067F01ADF43D000010C0E616F0F0E1F
:10025800626F58C063F059C064F05AC065F05BC063
:1002680066F05CC067F009DF32D00001100E616FE4
:100278000F0E626F58C063F059C064F05AC065F041
:100288005BC066F05CC067F0F8DE21D00001140E98
:10029800616F0F0E626F58C063F059C064F05AC0A6
:1002A80065F05BC066F05CC067F0E7DE10D05750C1
:1002B800000A97E05750010AA5E05750020AB3E038
:1002C8005750030AC1E05750040ACFE0DFD71200A5
:1002D8005750000A11E1180E0001616F0F0E626F8E
:1002E80058C063F059C064F05AC065F05BC066F04E
:1002F8005CC067F0C2DE10D000011C0E616F0F0EEB
:10030800626F58C063F059C064F05AC065F05BC0B2
:0A03180066F05CC067F0B1DE120071
:100322000F0140B704D0F10E6F166F860FD030B7B1
:1003320005D0F10E6F16060E6F1208D020B704D04A
:10034200F10E6F166F8402D0006A47D0030E531469
:10035200606E53B611D0610E0001616F0F0E626FB5
:100362004CC063F04DC064F04EC065F04FC066F003
:10037200F70E676F85DE10D00001610E616F0F0E00
:10038200626F4CC063F04DC064F04EC065F04FC068
:1003920066F0FF0E676F74DE52C065FF53AC658C6A
:1003A200660E556E0F0E566E546A5250545C10E231
:1003B20054505524E16E000E5620E26E54505024E3
:1003C200E96E000E5120EA6EEECFE6FF542AEDD719
:0C03D2006086F10E6F16FF0E006E120028
:1003DE000900F5CFE6FF0006FBE10106F9E1120088
:1003EE00C00EF26ED36AC290800E946E080E936E9B
:0203FE001200EB
:10040000200E9D6E190EAF6E900EAB6E240EAC6E6C
:020410001200D8
:1004120093949386800E576EFF0E586ED5DE4CC0B5
:1004220057F04DC058F04EC059F04FC05AF050C06E
:100432005BF051C05CF09EDE600E5114606E100ED7
:100442005114016E0150100AD8B4608460CF50FF7D
:10045200576A586A596A5A6A5B6AF70E5C6E3BDFE2
:10046200010E576E586A596A5A6A5B6AF70E5C6ED9
:1004720032DF600E5114006E9F0E0010016E0FD01D
:10048200F70E526EF70E536E11D0FF0E526EFF0E24
:10049200536E0CD0FF0E526EF70E536E07D0015002
:1004A200DF0AEEE00150BF0AF0E0F4D7576A586A5B
:1004B200596A5A6A5B6A52C05CF095DE010E576E49
:1004C200586A596A5A6A5B6A52C05CF08CDE020E44
:1004D200576E586A596A5A6A5B6A53C05CF083DE87
:1004E200030E576E586A596A5A6A5B6A53C05CF0C7
:1004F2007ADE040E576E586A596A5A6A5B6A53C0AA
:100502005CF071DE050E576E586A596A5A6A5B6A68
:1005120053C05CF068DE576AFF0E586E55DE12005B
:100522004CC0E9FF4DC0EAFFEE50000A0AE04CC0A1
:10053200E9FF4DC0EAFFEECF57F040DE4C4A4D2AAC
:04054200EFD71200DD
:1005460017EC03F051DF59DF1A0E4C6E000E4D6E9C
:10055600E5DF316A286A276AFC0E286EBB0E316E0B
:10056600010E4C6E010E4D6E030E4E6E030E4F6E57
:10057600010E506EBB0E516E49DF800E576EFF0E98
:10058600586E20DE576AFF0E586EFF0E596E5A6E71
:100596005B6EFF0E5C6E9DDE010E576EFF0E586E93
:1005A600FF0E596E5A6E5B6EFF0E5C6E92DE050E86
:1005B600576E040E586E000E596E000E5A6E000EDF
:1005C6005B6EFF0E5C6E0DDE576AFF0E586EFADD2F
:1005D6001850000A1FE13DC029F03EC02AF03FC076
:1005E6002BF040C02CF041C02DF0266A196A010E8E
:1005F600186E040E4C6E000E4D6E000E4E6E000E02
:100606004F6E290E506E000E516E050E526E28C0AA
:0806160053F084DEDDD7FFD7AD
:10062E0010EE18F00F0E006E010E016E1E0EF66E1D
:0E063E00060EF76E000EF86EEFEC01F01200E3
:01061E0001DA
:01061F0000DA
:0C06200052533233324F4B393630300029
:01062C0000CD
:020000040030CA
:0D000100220D00FFFF80FF0FC00FE00F4039
:00000001FF
