:0400000057EF03F0C3
:1000080000C015F0E1CF16F0E2CF17F0F29E9EAADD
:100018002BD01A0E245CD8B0246A350EE16E000E7F
:10002800E26E2450E126D8B0E22AAECFE6FF245093
:10003800010F006E00C024F0190E235C08E2235063
:10004800010F006E00C023F0010E226E03D0246A57
:10005800236A226A23500D0807E242502E0A04E060
:10006800246A236A010E226EF28E9E9A15C000F051
:0A00780016C0E1FF17C0E2FF1100FF
:10008200C5A801D0FDD7C5A601D0FDD7C5A401D012
:10009200FDD7C5A001D0FDD7C5A201D0FDD7C7A409
:0600A20001D0FDD71200A1
:0A00A800000EC5BC010E006E120030
:1000B20063C003F064C004F065C005F066C006F0DA
:1000C200000167A72CD003C002F00232029E023266
:1000D200029E0232029E050E016E04C000F0015023
:1000E20004E000360090FF0FFBD761C0E1FF62C061
:1000F200E2FF00500210E66E614B622B050E016EAC
:1001020003C000F0015004E000360090FF0FFBD75F
:1001120061C0E1FF62C0E2FF00C0E6FF42D0050E0F
:10012200006E05C002F0005004E00232029EFF0F92
:10013200FBD706C000F00036009000360090003673
:10014200009061C0E1FF62C0E2FF00500210E66E63
:10015200614B622B05C000F0003600900036009023
:1001620000360090E00E0016080E0010016E030E1D
:100172000514006E61C0E1FF62C0E2FF0050011091
:10018200E66E614B622B61C0E1FF62C0E2FF04C018
:10019200E6FF614B622B61C0E1FF62C0E2FF03C078
:0401A200E6FF120062
:1001A6006DDF000160B102D0C59A01D0C58AC5884D
:0201B600120035
:0601B80064DFC5841200A3
:1001BE005A065B065C065D065E06060E006E5AC0AB
:1001CE0070FF005004E070367090FF0FFBD75B504D
:1001DE0070125CC071FF713671907136719071360C
:1001EE0071905E5071125FA4718C5FB0718E5DC0A4
:0801FE0072FF5FB2728C120067
:100206005B520AE05AC06FFFE00E6E14016E015099
:0E0216005A1801E0F9D702D05AC06FFF12004B
:100224005A50000A11E1180E0001616F0F0E626F3F
:100234005BC063F05CC064F05DC065F05EC066F0F6
:100244005FC067F034DF10D000011C0E616F0F0E29
:10025400626F5BC063F05CC064F05DC065F05EC05B
:0A02640066F05FC067F023DF1200B0
:10026E0009DFC586C5A601D0FDD75AC060F094DF60
:06027E00C9CF00F01200E0
:06028400FEDEC58212003F
:10028A0066D0000E0001616F0F0E626F5BC063F0F3
:10029A005CC064F05DC065F05EC066F05FC067F088
:1002AA0003DF65D00001040E616F0F0E626F5BC041
:1002BA0063F05CC064F05DC065F05EC066F05FC06C
:1002CA0067F0F2DE54D00001080E616F0F0E626F04
:1002DA005BC063F05CC064F05DC065F05EC066F050
:1002EA005FC067F0E1DE43D000010C0E616F0F0EB4
:1002FA00626F5BC063F05CC064F05DC065F05EC0B5
:10030A0066F05FC067F0D0DE32D00001100E616F78
:10031A000F0E626F5BC063F05CC064F05DC065F095
:10032A005EC066F05FC067F0BFDE21D00001140E28
:10033A00616F0F0E626F5BC063F05CC064F05DC0FA
:10034A0065F05EC066F05FC067F0AEDE10D05A504E
:10035A00000A97E05A50010AA5E05A50020AB3E08F
:10036A005A50030AC1E05A50040ACFE0DFD71200FC
:10037A0083DE07D05A50010FC96E09D05AC0C9FF8F
:10038A0006D05B50000AF6E05B50010AF7E0C7A00E
:10039A0001D0FDD784DE0050000A01E0FBD712002D
:0603AA006BDEC5801200AD
:1003B00094889496C78EC79C090EC86E280EC66E88
:0403C000C56A1200F8
:1003C400200E9D6E190EAF6E900EAB6E240EAC6EA9
:0203D400120015
:1003D600C00EF26ED36AC290800E946E080E936EB3
:0203E600120003
:1003E8000900F5CFE6FF0006FBE10106F9E112007E
:1003F8000F0140B704D0F10E6F166F860FD030B7DB
:1004080005D0F10E6F16060E6F1208D020B704D073
:10041800F10E6F166F8402D0006A47D0030E56148F
:10042800606E56B611D0610E0001616F0F0E626FDB
:100438004FC063F050C064F051C065F052C066F020
:10044800F70E676F32DE10D00001610E616F0F0E7C
:10045800626F4FC063F050C064F051C065F052C085
:1004680066F0FF0E676F21DE55C065FF56AC658CE0
:10047800660E586E0F0E596E576A5550575C10E24B
:1004880057505824E16E000E5920E26E57505324FD
:10049800E96E000E5420EA6EEECFE6FF572AEDD73C
:0C04A8006086F10E6F16FF0E006E120051
:1004B4007ADF4FC05AF0010E5B6E5DDF020E5A6E9A
:1004C400010E5B6E58DFDCDE4FC05AF05B6A53DF0F
:1004D400010E5A6ECADE00C02DF06CDE64DF4FC020
:1004E4005AF0010E5B6E47DF010E5A6E010E5B6E11
:1004F40042DFC6DE4FC05AF05B6A3DDF010E5A6E22
:10050400B4DE00C02EF056DE4EDF4FC05AF0010EAE
:100514005B6E31DF5A6A010E5B6E2DDFB1DE4FC0B8
:100524005AF05B6A28DF010E5A6E9FDE00C02FF07E
:0405340041DE120092
:1005380038DF4FC05AF0010E5B6E1BDF020E5A6E99
:10054800010E5B6E16DF50C05AF0010E5B6E11DFB4
:100558002FDE27DF4FC05AF0010E5B6E0ADF010E57
:100568005A6E010E5B6E05DF51C05AF0010E5B6ECC
:1005780000DF1EDE16DF4FC05AF0010E5B6EF9DE9B
:100588005A6A010E5B6EF5DE52C05AF0010E5B6EC0
:06059800F0DE0EDE120091
:10059E0093949386800E5A6EFF0E5B6E2DDE4FC0C7
:1005AE005AF050C05BF051C05CF052C05DF053C0C9
:1005BE005EF054C05FF0FCDD600E5414606E100EE1
:1005CE005414016E0150100AD8B4608460CF50FFED
:1005DE005A6A5B6A5C6A5D6A5E6AF70E5F6E1BDE64
:1005EE00010E5A6E5B6A5C6A5D6A5E6AF70E5F6E3A
:1005FE0012DE600E5414006E9F0E0010016E0FD0AE
:10060E00F70E556EF70E566E11D0FF0E556EFF0E8D
:10061E00566E0CD0FF0E556EF70E566E07D001506B
:10062E00DF0AEEE00150BF0AF0E0F4D75A6A5B6AC7
:10063E005C6A5D6A5E6A55C05FF020DE010E5A6E1E
:10064E005B6A5C6A5D6A5E6A55C05FF017DE020E19
:10065E005A6E5B6A5C6A5D6A5E6A56C05FF00EDE59
:10066E00030E5A6E5B6A5C6A5D6A5E6A56C05FF024
:10067E0005DE040E5A6E5B6A5C6A5D6A5E6A56C07F
:10068E005FF0FCDD050E5A6E5B6A5C6A5D6A5E6A3F
:10069E0056C05FF0F3DD5A6AFF0E5B6EADDD1200E1
:1006AE000DEC04F091DE87DE7CDED00E4F6E090E6F
:1006BE00506E280E516E330E526E37DF256A266A43
:1006CE00276AFC0E266EBB0E256E010E4F6E010EB6
:1006DE00506E030E516E030E526E010E536EBB0E14
:1006EE00546E56DF800E5A6EFF0E5B6E85DD5A6AB3
:1006FE00FF0E5B6EFF0E5C6E5D6E5E6EFF0E5F6ECE
:10070E008ADD010E5A6EFF0E5B6EFF0E5C6E5D6E25
:10071E005E6EFF0E5F6E7FDD050E5A6E040E5B6E13
:10072E00000E5C6E000E5D6E000E5E6EFF0E5F6E56
:10073E00A5DD5A6AFF0E5B6E5FDD040E4F6E000E76
:10074E00506E000E516E000E526E180E536E000E4D
:10075E00546E070E556E26C056F047DED00E4F6E05
:10076E00A2DE120E4F6E000E506E516E526E200EA5
:10077E00536E000E546E010E556E26C056F035DEC9
:10078E002250000A3AE140C030F041C031F042C080
:10079E0032F043C033F044C034F0246A236A010EB1
:1007AE00226E050E4F6E000E506E000E516E000E34
:1007BE00526E300E536E000E546E050E556E26C0E0
:1007CE0056F013DE360E286E2DC029F02EC02AF0FC
:1007DE002FC02BF0200E2C6E040E4F6E000E506E9E
:1007EE00000E516E000E526E280E536E000E546E99
:0E07FE00050E556E26C056F0F8DDB0D7FFD7B9
:10081A0010EE18F00D0E006E010E016E0C0EF66E43
:0E082A00080EF76E000EF86EF4EC01F01200EE
:08080C00424F4E4A4F555200C5
:020814004100A1
:0108160001E0
:0108170000E0
:0108180000DF
:020000040030CA
:0D000100220D00FFFF80FF0FC00FE00F4039
:00000001FF
