:1000000002005F020B6FEAFEEBFF1209A8EEFAEFA7
:10001000FB020B9F12006EB90003020056E4908FA2
:10002000FF781479018002F0A3D8FCD9FA909012DD
:10003000AA82AB83900071787E79018015E493A346
:10004000AC82AD838A828B83F0A3AA82AB838C823D
:100050008D83D8E9D9E7120B8A120A3F120B9C75DF
:10006000D0007581BF7510FF75118F0200147901E2
:1000700022E80300000A0000000000000001000068
:10008000003132354B2C20504349322C204944203A
:100090003D203030300043414E20425553204465CE
:1000A0006D6F0030313031464600303236344646CE
:1000B0000030333634464600303430324646003065
:1000C00035363446460030373031464600416C6C98
:1000D0006F0004900390F90A0890069098050B9021
:1000E0000A9067070E900D90070313000100C3E705
:1000F000960809E7960809E7960809E79622C008D6
:10010000C3E096F50808A3E096420808A3E09642EB
:100110000808A3E09645087001D3D00822E026F62F
:1001200008A3E036F608A3E036F608A3E036F62288
:10013000E0F608A3E0F608A3E0F608A3E0F622CA7A
:10014000C0E0E6F0A308DAFAD0E0FA22CAC0E0E0A4
:10015000A3C582CCC582C583CDC583F0A3C582CC9F
:10016000C582C583CDC583DAE6D0E0CA22600D081A
:10017000C6A2E713C618C613C6D5E0F32225101091
:10018000AF08F510400215118008F5104002151156
:10019000D2AF22C0D0251010AF08F51050020511C3
:1001A0008008F51050020511D2AFD0D0222510F5ED
:1001B0008210AF08F510400215118008F5104002BA
:1001C0001511D2AF851183222510F582E43511F582
:1001D0008322E4732510C582C0E0E51134FFC58396
:1001E000C0E0E510C3958224F910AF08858311851E
:1001F00082108008858311858210D2AFCEF0A3E5EE
:1002000020F0A37808E608F0A3DEFAEFF0A3E5817A
:1002100024FBF8E608F0A3E608F0A30808E608F0D7
:10022000A3E608F0A315811581D0E0FED0E0F81513
:10023000811581E8C0E0EEC0E0228511838510823F
:10024000E0A3FEE0A3F5207808E0A3F608DFFAE0DB
:10025000A3FFE0A3C0E0E0A3C0E0E0A3C0E0E0A310
:10026000C0E010AF08858210858311800885821058
:10027000858311D2AFD083D082227401C0E0F40410
:100280001201ADD0E012013F2274048000CCC0E026
:10029000EDC0E0E510C39CCCAD1150011D10AF06C0
:1002A0008C108D1180068C108D11D2AF12014CD0A4
:1002B000E0FDD0E0FC22070A74F81201D474FF12AA
:1002C000017DEAFEEBFFEEFAEFFB12075E8510827E
:1002D000851183AA82AB8312075EEEFAEFFB12034D
:1002E0000A7CA07D00EEFAEFFB1204508510828597
:1002F0001183AA82AB83120767EEFAEFFB74011237
:1003000001937F0102023A02076774F81201D4EAEE
:10031000FEEBFF750800780812027A7D007CC07938
:1003200003EEFAEFFB1208197401120193E99090A1
:1003300012120289EEFAEFFB1205457404120193C2
:100340007C87790FEEFAEFFB12042C7C3C790CEEE3
:10035000FAEFFB12042C7C00790DEEFAEFFB12048D
:100360002C7C00791CEEFAEFFB12042C7C00791D2A
:10037000EEFAEFFB12042C7CC0792AEEFAEFFB12A6
:10038000042C7C9A7929EEFAEFFB12042C7C077975
:1003900028EEFAEFFB12042C7C01792BEEFAEFFB2E
:1003A00012042C7C00792CEEFAEFFB12042C7C005A
:1003B000792DEEFAEFFB12042C7C207960EEFAEF37
:1003C000FB12042C7C037930EEFAEFFB12042C7C38
:1003D000017935EEFAEFFB12042C7C007900EEFA7D
:1003E000EFFB12042C7C207901EEFAEFFB12042CB7
:1003F0007C007920EEFAEFFB12042C7C207921EEB0
:10040000FAEFFB12042C7C007931EEFAEFFB1204B8
:100410002C7C007932EEFAEFFB12042C7C07790F6A
:10042000EEFAEFFB12042C7F0102023A74F812017B
:10043000D4E9FFECFEF508780812027AEFFD7C02A1
:1004400079031208197401120193E97F0102023A3B
:1004500074F71201D48A828B83ECFAEDFB7C007E68
:10046000008A088B097403780812016DE508AC084E
:10047000EAC43354E0FE7931AA82AB8312042CEE35
:10048000FC7932AA82AB8312042C7F0202023A74F6
:10049000F11201D4EAFEEBFF8C0E8D0F750800758A
:1004A0000C36AC0EAD0FEEFAEFFB120524E9F508A1
:1004B000E508C394094003750808AC087935EEFADD
:1004C000EFFB12042C750900802185090A750B00C9
:1004D000E50E250AF582E50F350BF583E0FCA90C46
:1004E000EEFAEFFB12042C050C0509E509C395088B
:1004F00040D8750800780812027A7D007C81790165
:10050000EEFAEFFB1208197401120193E9909016AC
:10051000120289EEFAEFFB12054574041201937F73
:100520000802023A74F71201D4790080010989089F
:10053000750900EC2508F582ED3509F583E070EDCD
:100540007F0202023A74F11201D4740F1201C878CA
:100550000812013090901A780C12013080089090A7
:100560001E780C12011D7808790C1200EE40EF7F06
:100570000802023A74F81201D4EAFEEBFF8E828F71
:10058000837400F0A374F8F0EEFAEFFB120600EEAD
:10059000FAEFFB7F0102023A0205D9780079008068
:1005A00008E82401F8E93400F9C3EC98ED9950F11A
:1005B0002274F81201D4EAFEEBFF8E828F83E024CE
:1005C00001FCA3E03400FDEEFAEFFB120B60E9F84A
:1005D000A2E740E67F0102023A74F81201D4EAFE73
:1005E000EBFFEEFAEFFB1205B179018E828F83E00B
:1005F000FCA3E0FDEEFAEFFB120B537F0102023A7F
:1006000074F71201D4EAFEEBFF750800750900804B
:10061000297C107D27EEFAEFFB12059B79388E823C
:100620008F83E0FCA3E0FDEEFAEFFB120B53E5082D
:100630002401F508E5093400F509C3E5089404E54B
:1006400009940040CCEEFAEFFB1205B179388E82A6
:100650008F83E0FCA3E0FDEEFAEFFB120B53EEFA02
:10066000EFFB1205B179018E828F83E0FCA3E0FDE0
:10067000EEFAEFFB120B53EEFAEFFB1205B1790C19
:100680008E828F83E0FCA3E0FDEEFAEFFB120B53AA
:10069000EEFAEFFB1205B179068E828F83E0FCA3A0
:1006A000E0FDEEFAEFFB120B537F0202023A74F602
:1006B0001201D4EAFEEBFF89098C0AE50A14600BEB
:1006C00014600D146012146017801D850908801BCA
:1006D00074402509F508801374142509F508800B6A
:1006E00074542509F5088003850908D3E50892E7C5
:1006F000F508EEFAEFFB1205B1A9088E828F83E0B0
:10070000FCA3E0FDEEFAEFFB120B537F0302023A6B
:1007100074F81201D4EAFEEBFF8908EEFAEFFB123F
:1007200005B1A9088E828F83E02402FCA3E0340087
:10073000FDEEFAEFFB120B537F0102023A74F8123E
:1007400001D4EAFEEBFF8C828D83800AE0F9EEFA99
:10075000EFFB120710A3E070F37F0102023AC2958B
:10076000C294C296D2972222E9FA7900EC702AC28A
:100770009678008015C295EAC333FAE9C333F9D2FB
:1007800096A294E43329F9C29608E8C39408500964
:10079000EAA2E750E0D29580DE74016C7028D29610
:1007A0007800800BC295A294E43329F9C29608E838
:1007B000C39408500FE9C333F9D296EAA2E750E494
:1007C000D29580E2D29674026C70247800800DC2BB
:1007D00095A294E43329F9C296D29608E8C3940806
:1007E000500DE9C333F9EAA2E750E4D29580E274F0
:1007F000036C70247800800BC295A294E43329F92D
:10080000D29608E8C39408500FE9C333F9C296EAB8
:10081000A2E750E4D29580E22274F31201D474FD71
:1008200012017D8A0C8B0D8908ECFEEDFF7410120D
:1008300001C8E0F8909000C082C0838510828511C5
:1008400083AC82AD83D083D082740312014CEE85D9
:100850001082851183F0EFC0E074011201C8D0E06E
:10086000F0E8C0E074021201C8D0E0F0C297750948
:100870000080387C0085090A750B0085108285117F
:1008800083E582250AF582E583350BF583E0F9AA35
:100890000CAB0D120768E990901E120289AA0CABEE
:1008A0000D1208C074041201930509E509C39508E7
:1008B00040C1D297790174031201937F0602023A74
:1008C00074F11201D4740F1201C87808120130902B
:1008D000901A780C120130800890901E780C12014A
:1008E0001D7808790C1200EE40EF7F0802023A747E
:1008F000F41201D48A0A8B0BECFEEDFF750C028515
:100900000A08850B09800C1209557402650C6024D5
:10091000120955EE65087003EF6509602D850882A0
:10092000850983E493F8740193F9E84960D9740266
:10093000650C60DC850882850983E493C0E074015E
:1009400093F583D0821201D280C6150CE50C70AFEE
:100950007F0502023AE5082402F508E5093400F5AE
:10096000092274F81201D48A828B83E0F8A3E0F99B
:1009700088828983E0FCA3E0FDEC4D70109090101C
:10098000E0FCA3E0FDEA6C7002EB6D7005120B95C4
:10099000801188828983ECF0A3EDF0909010EAF04A
:1009A000A3EBF07F0102023AC082C08380078C82F1
:1009B0008D831201D2909010E0F8A3E0F9E849602D
:1009C000389090101209FE1209FEE0FAA3E0FB90A5
:1009D0009010EAF0A3EBF088828983A3A3A3A3E09D
:1009E000FAA3E0FBEAFCEBFD88828983A3A3E0FA8B
:1009F000A3E0FBEA4B70B780B5D083D08222E0FA47
:100A0000A3E0F5838A82227A037B90120AE17A734B
:100A10007B901209627A067B901205747A797B903A
:100A20001209627A0A7B9012075E7A7F7B90120924
:100A3000627A0D7B901202B87A857B900209627C03
:100A40000179007A067B901206AE7C227D907A06B0
:100A50007B9012073D7C0279007A067B901206AEED
:100A60007C0379007A067B901206AE7C377D907A03
:100A7000067B9012073D801D90901E780812011D84
:100A800090908B78081200FE50EE7C6E7D907A0379
:100A90007B90120AFA7C447D907A0D7B9012048F31
:100AA0007C4B7D907A0D7B9012048F7C527D907AE6
:100AB0000D7B9012048F7C597D907A0D7B901204EF
:100AC0008F7C607D907A0D7B9012048F7C677D9087
:100AD0007A0D7B9012048F90901A78081201308062
:100AE0009FC082C0838A828B83AA82AB83120B222F
:100AF000AA82AB83D083D0822222C082C083801698
:100B00008C828D83E0F599A29950FCC2998C828DDC
:100B100083A3AC82AD838C828D83E070E3D083D0DD
:100B20008222759850438920758DFF758780D28EFB
:100B3000D29922C082C083E98C828D83F0D083D089
:100B40008222C082C08379008C828D83E0F9D083B9
:100B5000D08222EEC0E0E9FEF9120B33D0E0FE2293
:100B6000EEC0E07E00120B42E9FEF9D0E0FE22C0AA
:100B7000E0C0D0C082C083C2AF908FFF7401F0D2BA
:100B8000AFD083D082D0D0D0E0327CB87D027AB6AC
:100B90007B020208EF7A017B00020B9F02000680B5
:010BA000FE56
:00005F01A0
:00000001FF
