:030000000200718A
:10002300020C13021823120080B9000302006BE4D0
:10003300908FFF781A79018002F0A3D8FCD9FA9047
:100043009018AA82AB83900083783979018015E4F4
:1000530093A3AC82AD838A828B83F0A3AA82AB8302
:100063008C828D83D8E9D9E712171B12181D75D01E
:10007300007581BF7510FF75118F02002979012268
:10008300E803000001000000040C202020200047AA
:1000930041550044524F00415654005354500041BF
:1000A3005252002A2A2A2A535549564945204C4977
:1000B300474E452A2A2A2A00C3E7960809E79608E5
:1000C30009E7960809E79622E026F608A3E036F644
:1000D30008A3E036F608A3E036F622E0F608A3E02C
:1000E300F608A3E0F608A3E0F622CAC0E0E6F0A310
:1000F30008DAFAD0E0FA22CAC0E0E0A3C582CCC590
:1001030082C583CDC583F0A3C582CCC582C583CD0B
:10011300C583DAE6D0E0CA22600D08C6A2E713C69B
:1001230018C613C6D5E0F322251010AF08F510400A
:100133000215118008F51040021511D2AF22C0D06C
:10014300251010AF08F510500205118008F5105066
:10015300020511D2AFD0D0222510F58210AF08F5D9
:1001630010400215118008F51040021511D2AF8519
:100173001183222510F582E43511F58322E47325DA
:1001830010C582C0E0E51134FFC583C0E0E510C3AC
:10019300958224F910AF0885831185821080088524
:1001A3008311858210D2AFCEF0A3E520F0A37808A7
:1001B300E608F0A3DEFAEFF0A3E58124FBF8E608F6
:1001C300F0A3E608F0A30808E608F0A3E608F0A306
:1001D30015811581D0E0FED0E0F815811581E8C0C6
:1001E300E0EEC0E022851183851082E0A3FEE0A348
:1001F300F5207808E0A3F608DFFAE0A3FFE0A3C048
:10020300E0E0A3C0E0E0A3C0E0E0A3C0E010AF08DB
:100213008582108583118008858210858311D2AF72
:10022300D083D08222C0D02510C582C0E0E511342E
:10023300FFC583C0E0E510C3958224F310AF0885A2
:1002430083118582108008858311858210D2AFC8FF
:10025300F0A3E9F0A3EAF0A3EBF0A37908E709F030
:10026300A3D8FAECF0A3EDF0A3EEF0A3EFF0A3D044
:10027300E0F0A3D0E0F0A3D0E0F0A3E520F0A3E505
:10028300F0F0A322851183851082E0C0E0A3E0F99A
:10029300A3E0FAA3E0FBA37808E0F608A3DFFAE003
:1002A300FCA3E0FDA3E0FEA3E0FFA3E0C0E0A3E026
:1002B300C0E0A3E0F5D0A3E0F520A3E0A3F5F010A0
:1002C300AF0885831185821080088583118582108C
:1002D300D2AFD082D083D0E0F8D0E0327402800273
:1002E3007401C0E0F40412015BD0E01200ED22744B
:1002F300048000CCC0E0EDC0E0E510C39CCCAD11A0
:1003030050011D10AF068C108D1180068C108D11BD
:10031300D2AF1200FAD0E0FDD0E0FC22D083D0822D
:10032300ECC0E0EDC0E0E493A3FCE493A3FDED4C4B
:10033300600D12036BEC24FFFCED34FFFD80EFE452
:1003430093A3FCE493A3FDED4C600D1203AAEC24EC
:10035300FFFCED34FFFD80EFD0E0FDD0E0FCE49343
:10036300A3C0E0E493C0E022C0E0C3E49396087422
:1003730001939618400FE49366700808740193661E
:100383001870007019A3A3C3E4939608740193969D
:1003930018A3A3400DD0E0D0E0D0E002035BA3A3F9
:1003A300A3A3A3A3D0E022C0E0C0F088F0E4936647
:1003B30070080874019366187000A8F0A3A3700B6B
:1003C300D0F0D0E0D0E0D0E002035BA3A3D0F0D024
:1003D300E02274F8120182EAFEEBFF7C007DF8EE66
:1003E300FAEFFB1209667902EE2402FAEF3400FBFE
:1003F3001215737900EE2406FAEF3400FB1215731D
:100403007903EE240AFAEF3400FB1215737901EE37
:10041300240EFAEF3400FB121573EE2412FAEF34B4
:1004230000FB1215F4EE2416F582EF3400F5837405
:1004330000F0EE2417F582EF3400F5837440F0EEFC
:100443002418F582EF3400F5837430F0EEFAEFFBF5
:100453007F010201E802069B74F8120182EAFEEBB7
:10046300FF89087C037900EEFAEFFB120A747C2201
:100473007D90EEFAEFFB120B037C037900EEFAEFAB
:10048300FB120A7474016508706F7C277D90EEFA85
:10049300EFFB120B03EE2418F582EF3400F583E033
:1004A300FC7D00EE2402FAEF3400FB12159AEE24D1
:1004B30018F582EF3400F583E0FC7D00EE2406FAA4
:1004C300EF3400FB1215BAEE2418F582EF3400F571
:1004D30083E0FC7D00EE240AFAEF3400FB12159A48
:1004E300EE2418F582EF3400F583E0FC7D00EE2462
:1004F3000EFAEF3400FB1215BAE508706F7C2B7D02
:1005030090EEFAEFFB120B03EE2418F582EF3400A2
:10051300F583E0FC7D00EE2402FAEF3400FB1215B4
:10052300BAEE2418F582EF3400F583E0FC7D00EE8B
:100533002406FAEF3400FB12159AEE2418F582EF25
:100543003400F583E0FC7D00EE240AFAEF3400FB6F
:100553001215BAEE2418F582EF3400F583E0FC7D22
:1005630000EE240EFAEF3400FB12159A74026508AC
:10057300706F7C2F7D90EEFAEFFB120B03EE2417C6
:10058300F582EF3400F583E0FC7D00EE2402FAEF00
:100593003400FB12159AEE2417F582EF3400F5832D
:1005A300E0FC7D00EE2406FAEF3400FB12159AEE10
:1005B3002417F582EF3400F583E0FC7D00EE240A76
:1005C300FAEF3400FB12159AEE2417F582EF34008C
:1005D300F583E0FC7D00EE240EFAEF3400FB1215E8
:1005E3009A7404650870377C337D90EEFAEFFB1242
:1005F3000B03EE2402FAEF3400FB1215DBEE2406A4
:10060300FAEF3400FB1215DBEE240AFAEF3400FB99
:100613001215DBEE240EFAEF3400FB1215DB740522
:100623006508706F7C377D90EEFAEFFB120B03EEDB
:100633002417F582EF3400F583E0FC7D00EE2402FD
:10064300FAEF3400FB1215BAEE2417F582EF3400EB
:10065300F583E0FC7D00EE2406FAEF3400FB12156F
:10066300BAEE2417F582EF3400F583E0FC7D00EE4B
:10067300240AFAEF3400FB1215BAEE2417F582EFC1
:100683003400F583E0FC7D00EE240EFAEF3400FB2A
:100693001215BA7F010201E874F8120182EAFEEB37
:1006A300FF7C017900EEFAEFFB120A747C3B7D902C
:1006B300EEFAEFFB120B03EE2417F582EF3400F58D
:1006C300837428F0EE2412FAEF3400FB121613E9B8
:1006D300604214600F14606C24FE607314604D1448
:1006E300601A8074EE2418F582EF3400F583747079
:1006F300F07901EEFAEFFB12045B805CEE2418F54F
:1007030082EF3400F5837430F07901EEFAEFFB12D7
:10071300045B8044EE2418F582EF3400F583747093
:10072300F07900EEFAEFFB12045B802CEE2418F54F
:1007330082EF3400F5837430F07900EEFAEFFB12A8
:10074300045B80147902EEFAEFFB12045B800979F3
:1007530004EEFAEFFB12045B7F010201E8C082C0E2
:10076300838A828B83AA82AB83120E95AA82AB8380
:1007730012078A7CA07D00AA82AB831208D0AA82CA
:10078300AB83D083D0822274F8120182EAFEEBFF9E
:1007930075080078081202E37D007CC07903EEFA45
:1007A300EFFB120E9A7401120141E99090181202A4
:1007B300F2EEFAEFFB12090F74041201417C877900
:1007C3000FEEFAEFFB1208AC7C3C790CEEFAEFFB70
:1007D3001208AC7C00790DEEFAEFFB1208AC7C003A
:1007E300791CEEFAEFFB1208AC7C00791DEEFAEFF0
:1007F300FB1208AC7CC0792AEEFAEFFB1208AC7C42
:100803009A7929EEFAEFFB1208AC7C077928EEFA05
:10081300EFFB1208AC7C01792BEEFAEFFB1208AC6C
:100823007C00792CEEFAEFFB1208AC7C00792DEEFC
:10083300FAEFFB1208AC7C207960EEFAEFFB1208AA
:10084300AC7C037930EEFAEFFB1208AC7C0179350E
:10085300EEFAEFFB1208AC7C007900EEFAEFFB1224
:1008630008AC7C207901EEFAEFFB1208AC7C00792E
:1008730020EEFAEFFB1208AC7C207921EEFAEFFBB5
:100883001208AC7C007931EEFAEFFB1208AC7C0065
:100893007932EEFAEFFB1208AC7C07790FEEFAEF30
:1008A300FB1208AC7F010201E874F8120182E9FF30
:1008B300ECFEF50878081202E3EFFD7C02790312DF
:1008C3000E9A7401120141E97F010201E874F712E3
:1008D30001828A828B83ECFAEDFB7C007E008A081E
:1008E3008B097403780812011BE508AC08EAC433CA
:1008F30054E0FE7931AA82AB831208ACEEFC793264
:10090300AA82AB831208AC7F020201E874F11201E0
:1009130082750C00750D00750E00750F00740F12B3
:10092300017678081200DE800890901C780C120083
:10093300CB7808790C1200BB40EF7F080201E87402
:10094300F8120182EAFEEBFF8E828F837400F0A31C
:1009530074F8F0EEFAEFFB1209C6EEFAEFFB7F0133
:100963000201E874F8120182EAFEEBFF8E828F83A4
:10097300ECF0A3EDF0EEFAEFFB1209C6EEFAEFFB93
:100983007F010201E8780079008008E82401F8E992
:100993003400F9C3EC98ED9950F12274F8120182F6
:1009A300EAFEEBFF8E828F83E02401FCA3E0340098
:1009B300FDEEFAEFFB121695E9F8A2E740E67F0198
:1009C3000201E874F7120182EAFEEBFF7508007575
:1009D300090080297C107D27EEFAEFFB1209887944
:1009E300388E828F83E0FCA3E0FDEEFAEFFB121654
:1009F30088E5082401F508E5093400F509C3E5088D
:100A03009404E509940040CCEEFAEFFB12099E79B9
:100A1300388E828F83E0FCA3E0FDEEFAEFFB121623
:100A230088EEFAEFFB12099E79018E828F83E0FC38
:100A3300A3E0FDEEFAEFFB121688EEFAEFFB1209C4
:100A43009E790C8E828F83E0FCA3E0FDEEFAEFFB30
:100A5300121688EEFAEFFB12099E79068E828F83B7
:100A6300E0FCA3E0FDEEFAEFFB1216887F02020121
:100A7300E874F6120182EAFEEBFF89098C0AE50AA3
:100A830014600B14600D146012146017801D850927
:100A930008801B74402509F508801374142509F593
:100AA30008800B74542509F5088003850908D3E5EC
:100AB3000892E7F508EEFAEFFB12099EA9088E8269
:100AC3008F83E0FCA3E0FDEEFAEFFB1216887F03B1
:100AD3000201E874F8120182EAFEEBFF8908EEFADC
:100AE300EFFB12099EA9088E828F83E02402FCA3E8
:100AF300E03400FDEEFAEFFB1216887F010201E8F5
:100B030074F8120182EAFEEBFF8C828D83800AE087
:100B1300F9EEFAEFFB120AD6A3E070F37F010201AC
:100B2300E874F8120182EAFEEBFF7A0C7B001218DC
:100B33002090900BEAF0A3EBF09090207404F090D7
:100B43009021740CF090900BE0F8A3E0F9909003DF
:100B5300E8F0A3E9F090900BE0240BF8A3E0340055
:100B6300F9909005E8F0A3E9F090900BE0F8A3E08A
:100B7300F9909007E8F0A3E9F090900BE0F8A3E078
:100B8300F9909009E8F0A3E9F07C807D25EEFAEF77
:100B9300FB120BAEEEFAEFFB7F010201E8C082C04D
:100BA30083909000E0F9D083D0822274F7120182FF
:100BB3007598504389204387808C088D09780812E3
:100BC300031F000006006009FC0BC012F70B802511
:100BD300F20B004BED0B0096E80B00E1E30B010C6D
:100BE300758DFF801C758DFE8017758DFD801275C8
:100BF3008DFA800D758DF48008758DE88003758DF1
:100C0300FAD28EC2ABD2AFD2ACC2997F020201E854
:100C1300C0E074F2120228C2AFA2984003020CD8BB
:100C2300909005C082C083909007E0F8A3E0F9D0CC
:100C330083D082C3E098A3E0995010909003E0F82A
:100C4300A3E0F9909007E8F0A3E9F0E599C0E090FC
:100C53009007E0F8A3E0F5838882D0E0F0E599906F
:100C63009001F09090027401F0909007E02401F855
:100C7300A3E03400F9909007E8F0A3E9F0120BA089
:100C8300E9FA7B00909020E0F8790024FFF8E9343A
:100C9300FFF9C3EA98EB99A2D265D033500990903B
:100CA30000E02401F0802C9090007400F0908FFFFE
:100CB3007401F0909020E0F87900C3E498F8E49987
:100CC300F9909007E028F8A3E039F9909009E8F04B
:100CD300A3E9F0C298D2AF7F0102028774F7120131
:100CE30082EAFEEBFF8006120D8812131690901411
:100CF300E0FAA3E0FBEA4B70297A167B90120D7899
:100D0300605888828983C3E09EA3E09F5062120DDE
:100D13008880EA88828983C3E09EA3E09F505112B2
:100D23000D88120D7870EC909014120E8C120D82B7
:100D3300E8FCE9FD7A167B908003120D888A828B8A
:100D430083120D82EC687002ED69600E88828983DC
:100D5300C3E09EA3E09F40E280161216A48A088B8C
:100D630009A808A909E8496003020CEA7A007B0094
:100D73007F020201E88A828B83120D82E84922E016
:100D8300F8A3E0F922E82402FAE93400FB2274F420
:100D9300120182EA2402FEEB3400FFC3EA9EEB9FBA
:100DA300501DC3EE9404EF940050047E047F00EEC4
:100DB300FAEFFB120CDF8A088B09EA450970077A00
:100DC300007B00020E818A828B83E0FAA3E0FBEAB8
:100DD3002402F8EB3400F98A828B83E0FCA3E0FD64
:100DE300EC24FCF50AED34FFF50BC3E50A9EE50B95
:100DF3009F501388828983120D8285088285098317
:100E0300E8F0A3E98043EA2EF50AEB3FF50B8508EA
:100E130082850983E50AF0A3E50BF088828983E0E4
:100E2300F50AA3E0F50B120E86A3A3E50AF0A3E5EA
:100E33000BF0ECC39EFCED9FFD120E86ECF0A3EDD0
:100E4300F08A828B83EEF0A3EFF085088285098315
:100E5300120D7C6015E82402F8E93400F9888289D0
:100E630083E0FCA3E0FDEC4D7004780079009090E2
:100E730014E8F0A3E9F0EA2402FAEB3400FB7F055F
:100E83000201E8850882850983E0F8A3E0F58388F9
:100E93008222C293C2912274F312018274FD120161
:100EA3002B8A0C8B0D8908ECFEEDFF741012017672
:100EB300E0F890900DC082C083851082851183ACC9
:100EC30082AD83D083D08274031200FAEE85108240
:100ED300851183F0EFC0E07401120176D0E0F0E8F1
:100EE300C0E07402120176D0E0F0C2977509008069
:100EF300387C0085090A750B00851082851183E50E
:100F030082250AF582E583350BF583E0F9AA0CAB5C
:100F13000D120F74E990901C1202F2AA0CAB0D1281
:100F23000F4174041201410509E509C3950840C145
:100F3300D297790174031201417F060201E874F12B
:100F4300120182750C00750D00750E00750F00748B
:100F53000F12017678081200DE800890901C780C3E
:100F63001200CB7808790C1200BB40EF7F08020116
:100F7300E8E9FA7900EC702AC29378008015C292EE
:100F8300EAC333FAE9C333F9D293A291E43329F9DB
:100F9300C29308E8C394085009EAA2E750E0D2924A
:100FA30080DE74016C7028D2937800800BC292A209
:100FB30091E43329F9C29308E8C39408500FE9C3B5
:100FC30033F9D293EAA2E750E4D29280E2D2937447
:100FD300026C70247800800DC292A291E43329F947
:100FE300C293D29308E8C39408500DE9C333F9EAD6
:100FF300A2E750E4D29280E274036C7024780080FC
:101003000BC292A291E43329F9D29308E8C394085E
:10101300500FE9C333F9C293EAA2E750E4D29280B6
:10102300E222C082C0838A828B83AA82AB8312119D
:10103300B2AA82AB83D083D0822274F81201828A4F
:10104300828B83AA82AB831211C28007AA82AB83ED
:101053001211C27940AA82AB831212BFE964016004
:10106300EB7901AA82AB8312127DE9FEAA82AB83DC
:101073001211ECEEF97F010201E874F1120182749E
:10108300FE12012BEAFEEBFF89087411120176E0D0
:10109300F8851082851183ECF0A3EDF0E860091464
:1010A3006026146057021144EEFAEFFB1211C2805E
:1010B30007EEFAEFFB1211C2A908EEFAEFFB1212C8
:1010C300BFE9640160EB8079EEFAEFFB1211C28095
:1010D30007EEFAEFFB1211C2A908EEFAEFFB1212A8
:1010E300BFE9640160EB851082851183E0F9EEFAB4
:1010F300EFFB1212BFE9640160EC8045EEFAEFFBEF
:101103001211C28007EEFAEFFB1211C2A908EEFA20
:10111300EFFB1212BFE9640160EB85108285118336
:10112300E0F9EEFAEFFB1212BFE9640160EC74011F
:10113300120176E0F9EEFAEFFB1212BFE9640160E7
:10114300ED7412120176E0F50EA3E0F50F7414129C
:101153000176E0F50CE50CC39402402E750900E519
:1011630009C3950C503885090A750B00E50E250A4D
:10117300F582E50F350BF583E0F9EEFAEFFB12127A
:10118300BFE9640160E0050980D5850E82850F8380
:10119300E0F9EEFAEFFB1212BFE9640160ECEEFA3C
:1011A300EFFB1211EC74021201417F080201E8C047
:1011B30082C0838A828B837405F0D083D08222C05D
:1011C30082C0838A828B83D2B4D2B5AA82AB8312C4
:1011D30012FEC2B4AA82AB831212FEC2B5AA82ABBC
:1011E300831212FED083D08222C082C0838A828B74
:1011F30083C2B4C2B5AA82AB831212FED2B5AA824D
:10120300AB831212FED2B4AA82AB831212FED08336
:10121300D0822274F81201828A828B83D2B4AA828A
:10122300AB831212FED2B5AA82AB831212FEA2B412
:10123300E433FEAA82AB831212FEC2B5AA82AB8349
:101243001212FEEEF97F010201E874F81201828A9C
:10125300828B83E9FEEEFFEEA2E092B4AA82AB8317
:101263001212FED2B5AA82AB831212FEC2B5AA82B3
:10127300AB831212FE7F010201E874F81201828A25
:10128300828B83E9FF7E007508008019AA82AB83F5
:10129300121216E9640170010E740765086004EE0A
:1012A300C333FE0508E508C3940840E0EFF9AA82BA
:1012B300AB8312124DEEF97F010201E874F81201BB
:1012C300828A828B83E9FF7E00800E7901AA82AB3A
:1012D3008312124DEFC333FF0EEEC394085010EF89
:1012E300A2E740E77900AA82AB8312124D80E5AAF8
:1012F30082AB831212167F010201E8C082C0838A87
:10130300828B83E0F8800118E8C3940150F9D083FD
:10131300D0822274F3120182EA4B7003021450EA62
:1013230024FEFAEB34FFFB8A828B83E0FEA3E0FF0B
:10133300C3EE9404EF94005003021450909016E00F
:10134300FCA3E0FDEA2402F508EB3400F509EC4DBB
:10135300600BEAF8EBF9C3E89CE99D501585088218
:10136300850983ECF0A3EDF09090160213F4AC82A0
:10137300AD83EC2402F50AED3400F50B850A82F502
:1013830083E0F50CA3E0850C82F583E58245836059
:1013930009C3E58298E5839940D4121455EC28F8E3
:1013A300ED39F9C3EA98EB995003021450EA6870D7
:1013B30002EB6970118C828D83E02EF0A3E03FF085
:1013C300ECFAEDFB8030850A82850B83121459E811
:1013D30049600DEA2EFCEB3FFDC3E89CE99D406D9F
:1013E300850882850983E8F0A3E9F0850A82850BE5
:1013F30083EAF0A3EBF0EA2402F8EB3400F9E8FC0B
:10140300E9FD121455E84960448A828B83E0FEA308
:10141300E0FFEA2EFEEB3FFFE86E7002E96F702DEE
:10142300909014E4F0A3F088828983E0FEA3E0FFA8
:101433008A828B83E02EF0A3E03FF088828983A326
:10144300A31214598C828D83E8F0A3E9F07F06027E
:1014530001E88C828D83E0F8A3E0F92274F812018D
:1014630082EAFEEBFFEEFAEFFB1210258E828F83EA
:10147300A3A37498F0EEFAEFFB7F010201E874F77F
:1014830012018274FA12012BE9FE85108285118301
:101493007410F0EE600B14601E146031146044800D
:1014A30056851082851183E0C2E1F0851082851193
:1014B30083E0C2E2F08040851082851183E0D2E1AF
:1014C300F0851082851183E0C2E2F0802A851082C4
:1014D300851183E0C2E1F0851082851183E0D2E2B9
:1014E300F08014851082851183E0D2E1F0851082AB
:1014F300851183E0D2E2F07401120176ECF0A3EDE2
:10150300F0851082851183E0C0E07403120176D068
:10151300E0F07402120176E0C0E07404120176D0A8
:10152300E0F07401120176E0C0E07405120176D098
:10153300E0F075080378081202E37404120176855B
:10154300820885830978081202DF7508007808127B
:1015530002E37C007D008A828B83A3A3E0F912104F
:101563007D740412014174061201417F020201E8F5
:1015730074F8120182EAFEEBFF8908EEFAEFFB1220
:10158300145FE5088E828F83A3A3A3E508F0EEFA28
:10159300EFFB7F010201E8C082C083E4CCFDEC24B1
:1015A30000FCED3480FD8A828B83A3A3A3E0F912B0
:1015B3001481D083D08222C082C083E4CCFD740026
:1015C300C39CFC74809DFD8A828B83A3A3A3E0F953
:1015D300121481D083D08222C082C0837C007D809C
:1015E3008A828B83A3A3A3E0F9121481D083D082D0
:1015F30022C082C0838A828B83AA82AB831217C9DB
:10160300AA82AB83121787AA82AB83D083D08222AC
:1016130074F812018274FF12012B1217AAE98510C4
:1016230082851183F0851082851183E064FF600B4E
:10163300851082851183E064BF70047E02801A8561
:101643001082851183E0A2E550027E018510828518
:101653001183E0A2E750027E00EEF974011201410A
:101663007F010201E8C082C083E98C828D83F0D0C0
:1016730083D08222C082C08379008C828D83E0F97B
:10168300D083D08222EEC0E0E9FEF9121668D0E0E2
:10169300FE22EEC0E07E00121677E9FEF9D0E0FEEE
:1016A30022C082C083909012E0F8A3E0F9E8496079
:1016B300067A007B0080219090127450F0A37490FE
:1016C300F0744FC3945074919490F990905074FFB8
:1016D300F0A3E9F07A507B90D083D0822274F81281
:1016E3000182EAFEEBFFEEFAEFFB1207608E828FB8
:1016F30083A3AA82AB831217FBEE2402FAEF340012
:10170300FB120942EE2404FAEF3400FB1217E3EE56
:10171300FAEFFB7F010201E874D312012B851082DB
:10172300851183AA82AB831217AD7414120176AAB2
:1017330082AB831203D57402120176AA82AB8312A1
:1017430016E07414120176AA82AB8312045880F255
:1017530074F7120182EAFEEBFF800312181AEEFA05
:10176300EFFB120D91EA4B7016909010E0F8A3E096
:10177300F9E84960E6E0F583888212018080DF7F23
:10178300020201E874F8120182EAFEEBFFEEFAEFBF
:10179300FB1210258E828F83A3A3A37440F0EEFA6D
:1017A300EFFB7F010201E802103DC082C0838A8201
:1017B3008B837C007DF8AA82AB83120966AA82AB75
:1017C30083D083D08222C082C0838A828B83AA8201
:1017D300AB83120E95D294AA82AB83D083D082229C
:1017E300C082C0838A828B83AA82AB83121025AA0C
:1017F30082AB83D083D08222C082C0838A828B83D0
:10180300AA82AB83120B24AA82AB83D083D0822219
:101813007A017B00021823021813020026021753D1
:0218230080FE45
:000071018E
:00000001FF
