:030000000200718A
:100023000209AE021497120080B9000302006BE4C8
:10003300908FFF781779018002F0A3D8FCD9FA904A
:100043009015AA82AB83900083783379018015E4FD
:1000530093A3AC82AD838A828B83F0A3AA82AB8302
:100063008C828D83D8E9D9E71213E512149175D0E8
:10007300007581BF7510FF75118F02002979012268
:10008300D261040C20202020004741550044524FE8
:10009300004156540053545000415252002A2A2A18
:1000A3002A535549564945204C49474E452A2A2A41
:1000B3002A00CAC0E0E6F0A308DAFAD0E0FA22CABE
:1000C300C0E0E0A3C582CCC582C583CDC583F0A3C0
:1000D300C582CCC582C583CDC583DAE6D0E0CA220A
:1000E300251010AF08F510400215118008F51040D7
:1000F300021511D2AF22C0D0251010AF08F5105051
:100103000205118008F51050020511D2AFD0D0229C
:100113002510F58210AF08F510400215118008F57F
:100123001040021511D2AF851183222510F582E408
:100133003511F58322E4732510C582C0E0E511343F
:10014300FFC583C0E0E510C3958224F910AF08858D
:1001530083118582108008858311858210D2AFCEEA
:10016300F0A3E520F0A37808E608F0A3DEFAEFF0A9
:10017300A3E58124FBF8E608F0A3E608F0A308084A
:10018300E608F0A3E608F0A315811581D0E0FED0C0
:10019300E0F815811581E8C0E0EEC0E02285118307
:1001A300851082E0A3FEE0A3F5207808E0A3F6081B
:1001B300DFFAE0A3FFE0A3C0E0E0A3C0E0E0A3C058
:1001C300E0E0A3C0E010AF088582108583118008AA
:1001D300858210858311D2AFD083D08222C0D025EF
:1001E30010C582C0E0E51134FFC583C0E0E510C34C
:1001F300958224F310AF08858311858210800885CA
:100203008311858210D2AFC8F0A3E9F0A3EAF0A36B
:10021300EBF0A37908E709F0A3D8FAECF0A3EDF02B
:10022300A3EEF0A3EFF0A3D0E0F0A3D0E0F0A3D0CF
:10023300E0F0A3E520F0A3E5F0F0A3228511838588
:100243001082E0C0E0A3E0F9A3E0FAA3E0FBA37807
:1002530008E0F608A3DFFAE0FCA3E0FDA3E0FEA3B9
:10026300E0FFA3E0C0E0A3E0C0E0A3E0F5D0A3E09B
:10027300F520A3E0A3F5F010AF0885831185821064
:100283008008858311858210D2AFD082D083D0E0DD
:10029300F8D0E032740280027401C0E0F404120169
:1002A30013D0E01200B522D083D082ECC0E0EDC0C1
:1002B300E0E493A3FCE493A3FDED4C600D1202F67E
:1002C300EC24FFFCED34FFFD80EFE493A3FCE49307
:1002D300A3FDED4C600D120335EC24FFFCED34FF60
:1002E300FD80EFD0E0FDD0E0FCE493A3C0E0E49315
:1002F300C0E022C0E0C3E4939608740193961840CB
:100303000FE49366700808740193661870007019FF
:10031300A3A3C3E49396087401939618A3A3400D73
:10032300D0E0D0E0D0E00202E6A3A3A3A3A3A3D02E
:10033300E022C0E0C0F088F0E4936670080874011E
:100343009366187000A8F0A3A3700BD0F0D0E0D090
:10035300E0D0E00202E6A3A3D0F0D0E02274F812CA
:10036300013AEAFEEBFF7C007DF8EEFAEFFB1207A1
:10037300017902EE2402FAEF3400FB12117E7900B8
:10038300EE2406FAEF3400FB12117E7903EE240A01
:10039300FAEF3400FB12117E7901EE240EFAEF34EA
:1003A30000FB12117EEE2412FAEF3400FB1211FF50
:1003B300EE2416FAEF3400FB121452EE2418FAEF6F
:1003C3003400FB12146AEE2419F582EF3400F5832E
:1003D3007400F0EE241AF582EF3400F5837440F0D4
:1003E300EE241BF582EF3400F5837430F0EEFAEF60
:1003F300FB7F010201A002063C74F812013AEAFEF7
:10040300EBFF89087C037900EEFAEFFB12080F7CFF
:10041300197D90EEFAEFFB12089E7C037900EEFA49
:10042300EFFB12080F74016508706F7C1E7D90EE60
:10043300FAEFFB12089EEE241BF582EF3400F583DE
:10044300E0FC7D00EE2402FAEF3400FB1211C5EE4E
:10045300241BF582EF3400F583E0FC7D00EE2406D7
:10046300FAEF3400FB1211C5EE241BF582EF3400C2
:10047300F583E0FC7D00EE240AFAEF3400FB121151
:10048300A5EE241BF582EF3400F583E0FC7D00EE3E
:10049300240EFAEF3400FB1211A5E508706F7C22DD
:1004A3007D90EEFAEFFB12089EEE241BF582EF34EB
:1004B30000F583E0FC7D00EE2402FAEF3400FB122A
:1004C30011A5EE241BF582EF3400F583E0FC7D00DB
:1004D300EE2406FAEF3400FB1211A5EE241BF5827D
:1004E300EF3400F583E0FC7D00EE240AFAEF3400DC
:1004F300FB1211C5EE241BF582EF3400F583E0FCFB
:100503007D00EE240EFAEF3400FB1211C574026570
:1005130008706F7C267D90EEFAEFFB12089EEE24A6
:100523001AF582EF3400F583E0FC7D00EE2402FA35
:10053300EF3400FB1211A5EE241AF582EF3400F517
:1005430083E0FC7D00EE2406FAEF3400FB1211A5D4
:10055300EE241AF582EF3400F583E0FC7D00EE24EF
:100563000AFAEF3400FB1211A5EE241AF582EF34D8
:1005730000F583E0FC7D00EE240EFAEF3400FB125D
:1005830011A57404650870377C2A7D90EEFAEFFBA1
:1005930012089EEE2402FAEF3400FB1211E6EE2459
:1005A30006FAEF3400FB1211E6EE240AFAEF3400E8
:1005B300FB1211E6EE240EFAEF3400FB1211E6747F
:1005C300056508706F7C2E7D90EEFAEFFB12089E96
:1005D300EE241AF582EF3400F583E0FC7D00EE246F
:1005E30002FAEF3400FB1211C5EE241AF582EF3440
:1005F30000F583E0FC7D00EE2406FAEF3400FB12E5
:1006030011C5EE241AF582EF3400F583E0FC7D007A
:10061300EE240AFAEF3400FB1211C5EE241AF58218
:10062300EF3400F583E0FC7D00EE240EFAEF340096
:10063300FB1211C57F010201A074F812013AEAFE10
:10064300EBFF7C017900EEFAEFFB12080F7C327DA1
:1006530090EEFAEFFB12089EEE241AF582EF3400B7
:10066300F5837428F0EE2412FAEF3400FB12121E05
:10067300E9604214600F14606C24FE607314604DD3
:1006830014601A8074EE241BF582EF3400F5837432
:1006930040F07901EEFAEFFB1203FC805CEE241BC1
:1006A300F582EF3400F5837430F07901EEFAEFFB55
:1006B3001203FC8044EE241BF582EF3400F58374AF
:1006C30040F07900EEFAEFFB1203FC802CEE241BC2
:1006D300F582EF3400F5837430F07900EEFAEFFB26
:1006E3001203FC80147902EEFAEFFB1203FC80097B
:1006F3007904EEFAEFFB1203FC7F010201A074F808
:1007030012013AEAFEEBFF8E828F83ECF0A3EDF049
:10071300EEFAEFFB120761EEFAEFFB7F010201A095
:10072300780079008008E82401F8E93400F9C3EC83
:1007330098ED9950F12274F812013AEAFEEBFF8E1C
:10074300828F83E02401FCA3E03400FDEEFAEFFB8B
:100753001213A2E9F8A2E740E67F010201A074F7B1
:1007630012013AEAFEEBFF75080075090080297C47
:10077300107D27EEFAEFFB12072379388E828F83E1
:10078300E0FCA3E0FDEEFAEFFB121395E50824016C
:10079300F508E5093400F509C3E5089404E509946F
:1007A3000040CCEEFAEFFB12073979388E828F8343
:1007B300E0FCA3E0FDEEFAEFFB121395EEFAEFFB7C
:1007C30012073979018E828F83E0FCA3E0FDEEFAF4
:1007D300EFFB121395EEFAEFFB120739790C8E82B9
:1007E3008F83E0FCA3E0FDEEFAEFFB121395EEFA24
:1007F300EFFB12073979068E828F83E0FCA3E0FDBD
:10080300EEFAEFFB1213957F020201A074F61201B8
:100813003AEAFEEBFF89098C0AE50A14600B1460BF
:100823000D146012146017801D850908801B744025
:100833002509F508801374142509F508800B7454F1
:100843002509F5088003850908D3E50892E7F5082B
:10085300EEFAEFFB120739A9088E828F83E0FCA31F
:10086300E0FDEEFAEFFB1213957F030201A074F88B
:1008730012013AEAFEEBFF8908EEFAEFFB120739A1
:10088300A9088E828F83E02402FCA3E03400FDEEEE
:10089300FAEFFB1213957F010201A074F812013ADB
:1008A300EAFEEBFF8C828D83800AE0F9EEFAEFFB20
:1008B300120871A3E070F37F010201A074F8120122
:1008C3003AEAFEEBFF7A0C7B0012149490900BEA49
:1008D300F0A3EBF09090177404F0909018740CF060
:1008E30090900BE0F8A3E0F9909003E8F0A3E9F00F
:1008F30090900BE0240BF8A3E03400F9909005E806
:10090300F0A3E9F090900BE0F8A3E0F9909007E8EA
:10091300F0A3E9F090900BE0F8A3E0F9909009E8D8
:10092300F0A3E9F07C807D25EEFAEFFB120949EE96
:10093300FAEFFB7F010201A0C082C083909000E028
:10094300F9D083D0822274F712013A759850438903
:10095300204387808C088D0978081202AA000006BC
:100963000060099709C012920980258D09004B8800
:10097300090096830900E17E099C09758DFF801C9F
:10098300758DFE8017758DFD8012758DFA800D753E
:100993008DF48008758DE88003758DFAD28EC2AB15
:1009A300D2AFD2ACC2997F020201A0C0E074F212AE
:1009B30001E0C2AFA2984003020A73909005C0827F
:1009C300C083909007E0F8A3E0F9D083D082C3E01E
:1009D30098A3E0995010909003E0F8A3E0F9909069
:1009E30007E8F0A3E9F0E599C0E0909007E0F8A3E9
:1009F300E0F5838882D0E0F0E599909001F0909043
:100A0300027401F0909007E02401F8A3E03400F9A8
:100A1300909007E8F0A3E9F012093BE9FA7B009014
:100A23009017E0F8790024FFF8E934FFF9C3EA9856
:100A3300EB99A2D265D0335009909000E02401F0E5
:100A4300802C9090007400F0908FFF7401F09090D0
:100A530017E0F87900C3E498F8E499F9909007E077
:100A630028F8A3E039F9909009E8F0A3E9F0C298D7
:100A7300D2AF7F0102023F74F712013AEAFEEBFFA5
:100A83008006120B23120F21909011E0FAA3E0FBD2
:100A9300EA4B70297A137B90120B13605888828972
:100AA30083C3E09EA3E09F5062120B2380EA8882F7
:100AB3008983C3E09EA3E09F5051120B23120B13B3
:100AC30070EC909011120C27120B1DE8FCE9FD7AD3
:100AD300137B908003120B238A828B83120B1DECF2
:100AE300687002ED69600E88828983C3E09EA3E08B
:100AF3009F40E280161213398A088B09A808A909B6
:100B0300E8496003020A857A007B007F020201A0A4
:100B13008A828B83120B1DE84922E0F8A3E0F922B5
:100B2300E82402FAE93400FB2274F412013AEA24BD
:100B330002FEEB3400FFC3EA9EEB9F501DC3EE940D
:100B430004EF940050047E047F00EEFAEFFB120AD8
:100B53007A8A088B09EA450970077A007B00020C40
:100B63001C8A828B83E0FAA3E0FBEA2402F8EB34CD
:100B730000F98A828B83E0FCA3E0FDEC24FCF50AF8
:100B8300ED34FFF50BC3E50A9EE50B9F50138882F6
:100B93008983120B1D850882850983E8F0A3E98008
:100BA30043EA2EF50AEB3FF50B850882850983E5B9
:100BB3000AF0A3E50BF088828983E0F50AA3E0F548
:100BC3000B120C21A3A3E50AF0A3E50BF0ECC39EE3
:100BD300FCED9FFD120C21ECF0A3EDF08A828B83D8
:100BE300EEF0A3EFF0850882850983120B176015D9
:100BF300E82402F8E93400F988828983E0FCA3E061
:100C0300FDEC4D700478007900909011E8F0A3E9B1
:100C1300F0EA2402FAEB3400FB7F050201A0850809
:100C230082850983E0F8A3E0F583888222C082C02D
:100C3300838A828B83AA82AB83120DBDAA82AB8384
:100C4300D083D0822274F812013A8A828B83AA82DB
:100C5300AB83120DCD8007AA82AB83120DCD7941F0
:100C6300AA82AB83120ECAE9640160EB7901AA82FE
:100C7300AB83120E88E9FEAA82AB83120DF7EEF95D
:100C83007F010201A074F112013A74FE1200E3EA3B
:100C9300FEEBFF8908741112012EE0F8851082859E
:100CA3001183ECF0A3EDF0E860091460261460579B
:100CB300020D4FEEFAEFFB120DCD8007EEFAEFFBBC
:100CC300120DCDA908EEFAEFFB120ECAE96401601A
:100CD300EB8079EEFAEFFB120DCD8007EEFAEFFB16
:100CE300120DCDA908EEFAEFFB120ECAE9640160FA
:100CF300EB851082851183E0F9EEFAEFFB120ECA41
:100D0300E9640160EC8045EEFAEFFB120DCD80073C
:100D1300EEFAEFFB120DCDA908EEFAEFFB120ECAA5
:100D2300E9640160EB851082851183E0F9EEFAEF47
:100D3300FB120ECAE9640160EC740112012EE0F9A2
:100D4300EEFAEFFB120ECAE9640160ED74121201B0
:100D53002EE0F50EA3E0F50F741412012EE0F50C4E
:100D6300E50CC39402402E750900E509C3950C50A8
:100D73003885090A750B00E50E250AF582E50F355E
:100D83000BF583E0F9EEFAEFFB120ECAE96401609A
:100D9300E0050980D5850E82850F83E0F9EEFAEF31
:100DA300FB120ECAE9640160ECEEFAEFFB120DF7D9
:100DB30074021200F97F080201A0C082C0838A82F4
:100DC3008B837405F0D083D08222C082C0838A8251
:100DD3008B83D2B4D2B5AA82AB83120F09C2B4AA51
:100DE30082AB83120F09C2B5AA82AB83120F09D05B
:100DF30083D08222C082C0838A828B83C2B4C2B56D
:100E0300AA82AB83120F09D2B5AA82AB83120F0950
:100E1300D2B4AA82AB83120F09D083D0822274F892
:100E230012013A8A828B83D2B4AA82AB83120F094E
:100E3300D2B5AA82AB83120F09A2B4E433FEAA820D
:100E4300AB83120F09C2B5AA82AB83120F09EEF965
:100E53007F010201A074F812013A8A828B83E9FEB2
:100E6300EEFFEEA2E092B4AA82AB83120F09D2B5D1
:100E7300AA82AB83120F09C2B5AA82AB83120F09F0
:100E83007F010201A074F812013A8A828B83E9FF81
:100E93007E007508008019AA82AB83120E21E964D3
:100EA3000170010E740765086004EEC333FE050884
:100EB300E508C3940840E0EFF9AA82AB83120E5809
:100EC300EEF97F010201A074F812013A8A828B8342
:100ED300E9FF7E00800E7901AA82AB83120E58EFE0
:100EE300C333FF0EEEC394085010EFA2E740E77937
:100EF30000AA82AB83120E5880E5AA82AB83120E3E
:100F0300217F010201A0C082C0838A828B83E0F823
:100F1300800118E8C3940150F9D083D0822274F37E
:100F230012013AEA4B700302105BEA24FEFAEB3437
:100F3300FFFB8A828B83E0FEA3E0FFC3EE9404EF02
:100F43009400500302105B909013E0FCA3E0FDEAD1
:100F53002402F508EB3400F509EC4D600BEAF8EBDD
:100F6300F9C3E89CE99D5015850882850983ECF057
:100F7300A3EDF0909013020FFFAC82AD83EC24023B
:100F8300F50AED3400F50B850A82F583E0F50CA331
:100F9300E0850C82F583E58245836009C3E5829889
:100FA300E5839940D4121060EC28F8ED39F9C3EACF
:100FB30098EB99500302105BEA687002EB697011B9
:100FC3008C828D83E02EF0A3E03FF0ECFAEDFB8002
:100FD30030850A82850B83121064E849600DEA2E7E
:100FE300FCEB3FFDC3E89CE99D406D8508828509C4
:100FF30083E8F0A3E9F0850A82850B83EAF0A3EB8B
:10100300F0EA2402F8EB3400F9E8FCE9FD12106081
:10101300E84960448A828B83E0FEA3E0FFEA2EFE68
:10102300EB3FFFE86E7002E96F702D909011E4F0D2
:10103300A3F088828983E0FEA3E0FF8A828B83E0AA
:101043002EF0A3E03FF088828983A3A31210648C5F
:10105300828D83E8F0A3E9F07F060201A08C828DE4
:1010630083E0F8A3E0F92274F812013AEAFEEBFFF9
:10107300EEFAEFFB120C308E828F83A3A37498F0E9
:10108300EEFAEFFB7F010201A074F712013A74FA42
:101093001200E3E9FE8510828511837410F0EE607F
:1010A3000B14601E146031146044805685108285D1
:1010B3001183E0C2E1F0851082851183E0C2E2F082
:1010C3008040851082851183E0D2E1F0851082850E
:1010D3001183E0C2E2F0802A851082851183E0C289
:1010E300E1F0851082851183E0D2E2F0801485104F
:1010F30082851183E0D2E1F0851082851183E0D2ED
:10110300E2F0740112012EECF0A3EDF0851082855C
:101113001183E0C0E0740312012ED0E0F0740212D8
:10112300012EE0C0E0740412012ED0E0F07401122D
:10113300012EE0C0E0740512012ED0E0F075080323
:10114300780812029B740412012E85820885830994
:101153007808120297750800780812029B7C007DBC
:10116300008A828B83A3A3E0F9120C887404120013
:10117300F974061200F97F020201A074F812013A11
:10118300EAFEEBFF8908EEFAEFFB12106AE5088E20
:10119300828F83A3A3A3E508F0EEFAEFFB7F01029E
:1011A30001A0C082C083E4CCFDEC2400FCED3480BC
:1011B300FD8A828B83A3A3A3E0F912108CD083D082
:1011C3008222C082C083E4CCFD7400C39CFC748083
:1011D3009DFD8A828B83A3A3A3E0F912108CD08395
:1011E300D08222C082C0837C007D808A828B83A3CD
:1011F300A3A3E0F912108CD083D08222C082C083D3
:101203008A828B83AA82AB83121438AA82AB83129D
:101213001412AA82AB83D083D0822274F812013ACB
:1012230074FF1200E3121435E9851082851183F0EF
:10123300851082851183E0A2E55016D2F0851082D5
:10124300851183E0A2E75009D382F050047E028027
:101253001A851082851183E0A2E540027E00851085
:1012630082851183E0A2E740027E01EEF974011248
:1012730000F97F010201A0C082C0838A828B83AA06
:1012830082AB83120C30AA82AB83121299AA82AB6F
:1012930083D083D0822274F712013A74FE1200E3E2
:1012A300909015C082C083851082851183AC82AD76
:1012B30083D083D08274021200C2750802780812A8
:1012C300029B740112012E85820885830978081216
:1012D3000297750800780812029B7C007D007968EC
:1012E300120C8874041200F974021200F97F0202CE
:1012F30001A0C082C0838A828B837C007DF8AA828E
:10130300AB83120701AA82AB83D083D0822202135C
:1013130014C082C08374E41200E3851082851183B4
:10132300AA82AB83120360851082851183AA82ABE4
:10133300831203F980F1C082C08390900FE0F8A379
:10134300E0F9E84960067A007B00802190900F74F1
:1013530047F0A37490F07446C3944774919490F942
:1013630090904774FFF0A3E9F07A477B90D083D045
:101373008222C082C083E98C828D83F0D083D082A5
:1013830022C082C08379008C828D83E0F9D083D020
:101393008222EEC0E0E9FEF9121375D0E0FE22EEE0
:1013A300C0E07E00121384E9FEF9D0E0FE2274F758
:1013B30012013AEAFEEBFF800312148EEEFAEFFB02
:1013C300120B2CEA4B701690900DE0F8A3E0F9E8AD
:1013D3004960E6E0F583888212013880DF7F0202EC
:1013E30001A074E21200E3851082851183AA82AB07
:1013F300831212F5740212012EAA82AB83120360C8
:10140300851082851183AA82AB8312131180F17434
:10141300F812013AEAFEEBFFEEFAEFFB120C308E04
:10142300828F83A3A3A37440F0EEFAEFFB7F010244
:1014330001A0020C48C082C0838A828B83AA82AB3C
:1014430083121489D294AA82AB83D083D08222C020
:1014530082C0838A828B83AA82AB8312127AAA8286
:10146300AB83D083D08222C082C0838A828B83AA3B
:1014730082AB831208BFAA82AB83D083D082227A45
:10148300017B00021497C293C291220214820200CC
:06149300260213B180FEE9
:000071018E
:00000001FF
