:06000000020089020EE976
:10003B00020D1B020F6D120098B90003020083E43E
:10004B00908FFF780D79018002F0A3D8FCD9FA903C
:10005B00900BAA82AB8390009B782B79018015E4DF
:10006B0093A3AC82AD838A828B83F0A3AA82AB83EA
:10007B008C828D83D8E9D9E7120F22120F6A75D0C3
:10008B00007581BF7510FF75118F02004179012238
:10009B0020202020004741550044524F0041565428
:1000AB000053545000415252005355495649452074
:1000BB004C49474E452049324300CAC0E0E6F0A305
:1000CB0008DAFAD0E0FA22251010AF08F51040023A
:1000DB0015118008F51040021511D2AF22C0D025A2
:1000EB001010AF08F510500205118008F5105002E2
:1000FB000511D2AFD0D0222510F58210AF08F51024
:10010B00400215118008F51040021511D2AF851170
:10011B0083222510F582E43511F583222510C58243
:10012B00C0E0E51134FFC583C0E0E510C395822420
:10013B00F910AF088583118582108008858311859E
:10014B008210D2AFCEF0A3E520F0A37808E608F03A
:10015B00A3DEFAEFF0A3E58124FBF8E608F0A3E6B3
:10016B0008F0A30808E608F0A3E608F0A31581152C
:10017B0081D0E0FED0E0F815811581E8C0E0EEC03B
:10018B00E022851183851082E0A3FEE0A3F52078A1
:10019B0008E0A3F608DFFAE0A3FFE0A3C0E0E0A3CA
:1001AB00C0E0E0A3C0E0E0A3C0E010AF0885821080
:1001BB008583118008858210858311D2AFD083D0BF
:1001CB008222740280027401C0E0F404120102D096
:1001DB00E01200C52274F8120127EAFEEBFF7C0047
:1001EB007DF8EEFAEFFB1208317902EE2402FAEFFA
:1001FB003400FB120DB47900EE2406FAEF3400FB49
:10020B00120DB47903EE240AFAEF3400FB120DB48D
:10021B007901EE240EFAEF3400FB120DB4EE24122A
:10022B00FAEF3400FB120C64EE2416F582EF340067
:10023B00F5837400F0EE2417F582EF3400F5837428
:10024B0040F0EE2418F582EF3400F5837430F0EEB5
:10025B00FAEFFB7F0102018D0204A674F81201274D
:10026B00EAFEEBFF89087C037900EEFAEFFB12093B
:10027B003F7C0B7D90EEFAEFFB1209CE7C037900ED
:10028B00EEFAEFFB12093F74016508706F7C107D6D
:10029B0090EEFAEFFB1209CEEE2418F582EF340044
:1002AB00F583E0FC7D00EE2402FAEF3400FB120D27
:1002BB00DBEE2418F582EF3400F583E0FC7D00EED5
:1002CB002406FAEF3400FB120DFBEE2418F582EF37
:1002DB003400F583E0FC7D00EE240AFAEF3400FBDA
:1002EB00120DDBEE2418F582EF3400F583E0FC7D74
:1002FB0000EE240EFAEF3400FB120DFBE508706FD5
:10030B007C147D90EEFAEFFB1209CEEE2418F582E9
:10031B00EF3400F583E0FC7D00EE2402FAEF3400AD
:10032B00FB120DFBEE2418F582EF3400F583E0FC95
:10033B007D00EE2406FAEF3400FB120DDBEE2418E1
:10034B00F582EF3400F583E0FC7D00EE240AFAEF32
:10035B003400FB120DFBEE2418F582EF3400F5830D
:10036B00E0FC7D00EE240EFAEF3400FB120DDB7483
:10037B00026508706F7C187D90EEFAEFFB1209CEC8
:10038B00EE2417F582EF3400F583E0FC7D00EE24BC
:10039B0002FAEF3400FB120DDBEE2417F582EF347B
:1003AB0000F583E0FC7D00EE2406FAEF3400FB122F
:1003BB000DDBEE2417F582EF3400F583E0FC7D00B6
:1003CB00EE240AFAEF3400FB120DDBEE2417F58254
:1003DB00EF3400F583E0FC7D00EE240EFAEF3400E1
:1003EB00FB120DDB7404650870377C1C7D90EEFAF4
:1003FB00EFFB1209CEEE2402FAEF3400FB120E1CB7
:10040B00EE2406FAEF3400FB120E1CEE240AFAEF70
:10041B003400FB120E1CEE240EFAEF3400FB120E0E
:10042B001C74056508706F7C207D90EEFAEFFB1253
:10043B0009CEEE2417F582EF3400F583E0FC7D0046
:10044B00EE2402FAEF3400FB120DFBEE2417F582BB
:10045B00EF3400F583E0FC7D00EE2406FAEF340068
:10046B00FB120DFBEE2417F582EF3400F583E0FC55
:10047B007D00EE240AFAEF3400FB120DFBEE24177D
:10048B00F582EF3400F583E0FC7D00EE240EFAEFED
:10049B003400FB120DFB7F0102018D74F812012752
:1004AB00EAFEEBFF7C017900EEFAEFFB12093F7CD1
:1004BB00247D90EEFAEFFB1209CEEE2417F582EFB6
:1004CB003400F5837428F0EE2412FAEF3400FB129B
:1004DB000C7EE9604214600F14606C24FE60731490
:1004EB00604D14601A8074EE2418F582EF3400F519
:1004FB00837470F07901EEFAEFFB120266805CEE0A
:10050B002418F582EF3400F5837430F07901EEFA9C
:10051B00EFFB1202668044EE2418F582EF3400F5EF
:10052B00837470F07900EEFAEFFB120266802CEE0A
:10053B002418F582EF3400F5837430F07900EEFA6D
:10054B00EFFB12026680147902EEFAEFFB120266E1
:10055B0080097904EEFAEFFB1202667F0102018D2E
:10056B00C082C0838A828B83AA82AB831209EFAAD3
:10057B0082AB83D083D0822274F112012774FE12D6
:10058B0000D2EAFEEBFF8908741112011DE0F8742A
:10059B001212011DE0F50EA3E0F50F741412011DEC
:1005AB00E0F50C851082851183ECF0A3EDF0E8608B
:1005BB000914602A14607C0206A4EEFAEFFB120900
:1005CB00FF8007EEFAEFFB1209FF74012508F9EE25
:1005DB00FAEFFB120AF9E9640160E80206A4EEFAED
:1005EB00EFFB1209FF8007EEFAEFFB1209FFA908D8
:1005FB00EEFAEFFB120AF9E9640160EB85108285D4
:10060B001183E0F9EEFAEFFB120AF9E9640160ECF1
:10061B00EEFAEFFB1209FF8007EEFAEFFB1209FF70
:10062B0074012508F9EEFAEFFB120AF9E96401608F
:10063B00E88066EEFAEFFB1209FF8007EEFAEFFB9C
:10064B001209FFA908EEFAEFFB120AF9E96401603F
:10065B00EB851082851183E0F9EEFAEFFB120AF9B4
:10066B00E9640160EC740112011DE0F9EEFAEFFB95
:10067B00120AF9E9640160EDEEFAEFFB1209FF8053
:10068B0007EEFAEFFB1209FF74012508F9EEFAEFFA
:10069B00FB120AF9E9640160E8E50CC39402402FF0
:1006AB0075090080237900EEFAEFFB120AB7E9C057
:1006BB00E085090A750B00E50E250AF582E50F3575
:1006CB000BF583D0E0F00509E509C3950C40D6790D
:1006DB0001EEFAEFFB120AB7E9850E82850F83F064
:1006EB00EEFAEFFB120A2974021200E87F080201EE
:1006FB008D74F112012774FE1200D2EAFEEBFF8912
:10070B0008741112011DE0F8741212011DE0F50EB0
:10071B00A3E0F50F741412011DE0F50C8510828512
:10072B001183ECF0A3EDF0E8600914602614605718
:10073B000207D7EEFAEFFB1209FF8007EEFAEFFB89
:10074B001209FFA908EEFAEFFB120AF9E96401603E
:10075B00EB8079EEFAEFFB1209FF8007EEFAEFFB65
:10076B001209FFA908EEFAEFFB120AF9E96401601E
:10077B00EB851082851183E0F9EEFAEFFB120AF993
:10078B00E9640160EC8045EEFAEFFB1209FF80078C
:10079B00EEFAEFFB1209FFA908EEFAEFFB120AF9CA
:1007AB00E9640160EB851082851183E0F9EEFAEFC5
:1007BB00FB120AF9E9640160EC740112011DE0F906
:1007CB00EEFAEFFB120AF9E9640160EDE50CC39454
:1007DB0002402E750900E509C3950C503885090AAE
:1007EB00750B00E50E250AF582E50F350BF583E059
:1007FB00F9EEFAEFFB120AF9E9640160E0050980F2
:10080B00D5850E82850F83E0F9EEFAEFFB120AF91C
:10081B00E9640160ECEEFAEFFB120A297402120094
:10082B00E87F0802018D74F8120127EAFEEBFF8EB8
:10083B00828F83ECF0A3EDF0EEFAEFFB120891EE52
:10084B00FAEFFB7F0102018D780079008008E82424
:10085B0001F8E93400F9C3EC98ED9950F12274F8E2
:10086B00120127EAFEEBFF8E828F83E02401FCA3AB
:10087B00E03400FDEEFAEFFB120EDAE9F8A2E740E6
:10088B00E67F0102018D74F7120127EAFEEBFF757B
:10089B00080075090080297C107D27EEFAEFFB120A
:1008AB00085379388E828F83E0FCA3E0FDEEFAEFDC
:1008BB00FB120ECDE5082401F508E5093400F50916
:1008CB00C3E5089404E509940040CCEEFAEFFB1263
:1008DB00086979388E828F83E0FCA3E0FDEEFAEF96
:1008EB00FB120ECDEEFAEFFB12086979018E828FA7
:1008FB0083E0FCA3E0FDEEFAEFFB120ECDEEFAEF78
:10090B00FB120869790C8E828F83E0FCA3E0FDEE6D
:10091B00FAEFFB120ECDEEFAEFFB12086979068E99
:10092B00828F83E0FCA3E0FDEEFAEFFB120ECD7F8E
:10093B000202018D74F6120127EAFEEBFF89098C86
:10094B000AE50A14600B14600D1460121460178012
:10095B001D850908801B74402509F5088013741444
:10096B002509F508800B74542509F50880038509C2
:10097B0008D3E50892E7F508EEFAEFFB120869A930
:10098B00088E828F83E0FCA3E0FDEEFAEFFB120EE4
:10099B00CD7F0302018D74F8120127EAFEEBFF896C
:1009AB0008EEFAEFFB120869A9088E828F83E02408
:1009BB0002FCA3E03400FDEEFAEFFB120ECD7F013B
:1009CB0002018D74F8120127EAFEEBFF8C828D83F6
:1009DB00800AE0F9EEFAEFFB1209A1A3E070F37FB6
:1009EB000102018DC082C0838A828B837405F0D093
:1009FB0083D08222C082C0838A828B83D2B4D2B549
:100A0B00AA82AB83120B38C2B4AA82AB83120B3807
:100A1B00C2B5AA82AB83120B38D083D08222C0829C
:100A2B00C0838A828B83C2B4C2B5AA82AB83120BFA
:100A3B0038D2B5AA82AB83120B38D2B4AA82AB835D
:100A4B00120B38D083D0822274F81201278A828B42
:100A5B0083D2B4AA82AB83120B38D2B5AA82AB83F2
:100A6B00120B38A2B4E433FEAA82AB83120B38C24A
:100A7B00B5AA82AB83120B38EEF97F0102018D749C
:100A8B00F81201278A828B83E9FEA2E092B4AA8234
:100A9B00AB83120B38D2B5AA82AB83120B38C2B51B
:100AAB00AA82AB83120B387F0102018D74F81201FD
:100ABB00278A828B83E9FF7E007508008019AA8242
:100ACB00AB83120A53E9640170010E740765086069
:100ADB0004EEC333FE0508E508C3940840E0EFF9C4
:100AEB00AA82AB83120A8AEEF97F0102018D74F898
:100AFB001201278A828B83E9FF7E00800E7901AA7F
:100B0B0082AB83120A8AEFC333FF0EEEC3940850F5
:100B1B0010EFA2E740E77900AA82AB83120A8A8022
:100B2B00E5AA82AB83120A537F0102018DC082C0FA
:100B3B00838A828B83E0F8800118E8C3940150F913
:100B4B00D083D0822274F8120127EAFEEBFFEEFA73
:100B5B00EFFB12056B8E828F83A3A37498F0EEFAD2
:100B6B00EFFB7F0102018D74F712012774FA12005B
:100B7B00D2E9FE8510828511837410F0EE600B14A0
:100B8B00601E146031146044805685108285118379
:100B9B00E0C2E1F0851082851183E0C2E2F0804073
:100BAB00851082851183E0D2E1F085108285118357
:100BBB00E0C2E2F0802A851082851183E0C2E1F069
:100BCB00851082851183E0D2E2F080148510828536
:100BDB001183E0D2E1F0851082851183E0D2E2F03F
:100BEB00740112011DECF0A3EDF0851082851183C9
:100BFB00E0C0E0740312011DD0E0F0740212011D7D
:100C0B00E0C0E0740412011DD0E0F0740112011D6C
:100C1B00E0C0E0740512011DD0E0F0750803780800
:100C2B001201D1740412011D85820885830978088D
:100C3B001201CD75080078081201D17C007D008A65
:100C4B00828B83A3A3E0F91206FC74041200E874F0
:100C5B00061200E87F0202018DC082C0838A828B5C
:100C6B00837944AA82AB83120E35AA82AB83D083DD
:100C7B00D0822274F812012774FF1200D2120E5C7C
:100C8B00E9851082851183F0851082851183E064DC
:100C9B00FE70027E00851082851183E064C0602C9B
:100CAB00851082851183E064C860218510828511CF
:100CBB0083E064186016851082851183E0640C60F4
:100CCB000B851082851183E064DC70047E02803416
:100CDB00851082851183E0A2E150027E018510828E
:100CEB00851183E0A2E250027E0685108285118376
:100CFB00E0A2E550027E00851082851183E0A2E41C
:100D0B0050027E05EEF974011200E87F0102018D9D
:100D1B00C0E0C0D0E8C0E0E9C0E0C082C083C2AF91
:100D2B00A2C05074909009E0F8A3E0F9909007E00E
:100D3B00687003A3E0697010909005E0F8A3E0F9E8
:100D4B00909009E8F0A3E9F0E5C1C0E0909009E0CC
:100D5B00F8A3E0F5838882D0E0F0909009E02401BD
:100D6B00F8A3E03400F9909009E8F0A3E9F0909033
:100D7B0002E0F8909003E0C398500F909003E024AA
:100D8B0001F09090047400F0800C9090037400F0CC
:100D9B009090047401F0C2C0D2AFD083D082D0E067
:100DAB00F9D0E0F8D0D0D0E03274F8120127EAFE87
:100DBB00EBFF8908EEFAEFFB120B50E5088E828FE2
:100DCB0083A3A3A3E508F0EEFAEFFB7F0102018DED
:100DDB00C082C083E4CCFDEC2400FCED3480FD8AA2
:100DEB00828B83A3A3A3E0F9120B72D083D0822250
:100DFB00C082C083E4CCFD7400C39CFC74809DFD59
:100E0B008A828B83A3A3A3E0F9120B72D083D082C7
:100E1B0022C082C0837C007D808A828B83A3A3A3A4
:100E2B00E0F9120B72D083D0822274F8120127EAF8
:100E3B00FEEBFF8908EEFAEFFB12056BE5088E82DD
:100E4B008F83A3A3A3E508F0EEFAEFFB7F0102016A
:100E5B008D74F712012774FF1200D2750801780800
:100E6B001201D1740112011D85820885830978084E
:100E7B001201CD75080078081201D17C007D008A23
:100E8B00828B83A3A3A3E0F912058374041200E8F9
:100E9B00851082851183E0F974011200E87F02024C
:100EAB00018DC082C083E98C828D83F0D083D08288
:100EBB0022C082C08379008C828D83E0F9D083D0ED
:100ECB008222EEC0E0E9FEF9120EADD0E0FE22EE7A
:100EDB00C0E07E00120EBCE9FEF9D0E0FE22C0E0BD
:100EEB00C0D0E8C0E0C082C083C2AF909000740055
:100EFB00F0A374F9F0909000E0F8A3E0F5838882FA
:100F0B00E0540F908FFFF0C289D2AFD083D082D044
:100F1B00E0F8D0D0D0E03274E51200D28510828593
:100F2B001183AA82AB83120F4E740212011DAA8287
:100F3B00AB831201E0740212011DAA82AB83120271
:100F4B006380F2C082C0838A828B837C007DF8AA87
:100F5B0082AB83120831AA82AB83D083D082220268
:040F6B00003E80FEC6
:0000890176
:00000001FF
