:030000000200718A
:1000230002051C02103F120080B9000302006BE4BA
:10003300908FFF781779018002F0A3D8FCD9FA904A
:100043009015AA82AB83900083780579018015E42B
:1000530093A3AC82AD838A828B83F0A3AA82AB8302
:100063008C828D83D8E9D9E7120F2A12103975D003
:10007300007581BF7510FF75118F02002979012268
:10008300D261040C8A088B098C0A8D0B7808120044
:10009300D120F01430E72B74FFFCFBFA747F80222D
:1000A300E4FCFBFA7480801AB48008BC00F2BB0045
:1000B300EF800F50EBF9E4C39AFAE49BFBE49CFC5A
:1000C300E499C6CC18C6CB18C6CA18C6F922E4C927
:1000D300C608CAC608CBC6D3330308CCC63392F0CE
:1000E300C3947F402E94184019C9B90704CACBCCD6
:1000F300225025C309CA33CACB33CBCC33CC33D933
:10010300F422F4600DC9CCC313CB13CBCA13CAD9E1
:10011300F6CC22E4FCFBFA2214FCFBFA22CAC0E070
:10012300E6F0A308DAFAD0E0FA22CAC0E0E0A3C5F9
:1001330082CCC582C583CDC583F0A3C582CCC582DD
:10014300C583CDC583DAE6D0E0CA22B90010BB006F
:1001530008E88AF084F8AAF022E4FBC8FA22EB70DC
:10016300227B10C833C8C933C9335007C39AC3DBD2
:10017300F280069A50012ADBEAC833F4C8C933F483
:10018300C9FA2275F008E4C833C8C933C933C99A18
:10019300C99B5004C92AC93BD5F0ECFBC833F4C84A
:1001A300E4C9FA22251010AF08F51040021511809A
:1001B30008F51040021511D2AF22C0D0251010AFA0
:1001C30008F510500205118008F51050020511D2F0
:1001D300AFD0D0222510F58210AF08F510400215DC
:1001E300118008F51040021511D2AF851183222525
:1001F30010F582E43511F58322E4732510C582C01E
:10020300E0E51134FFC583C0E0E510C3958224F90E
:1002130010AF08858311858210800885831185823C
:1002230010D2AFCEF0A3E520F0A37808E608F0A340
:10023300DEFAEFF0A3E58124FBF8E608F0A3E60875
:10024300F0A30808E608F0A3E608F0A315811581DA
:10025300D0E0FED0E0F815811581E8C0E0EEC0E003
:1002630022851183851082E0A3FEE0A3F5207808A0
:10027300E0A3F608DFFAE0A3FFE0A3C0E0E0A3C039
:10028300E0E0A3C0E0E0A3C0E010AF0885821085E2
:1002930083118008858210858311D2AFD083D082E9
:1002A30022C0D02510C582C0E0E51134FFC583C04C
:1002B300E0E510C3958224F310AF0885831185828E
:1002C300108008858311858210D2AFC8F0A3E9F0AE
:1002D300A3EAF0A3EBF0A37908E709F0A3D8FAECBB
:1002E300F0A3EDF0A3EEF0A3EFF0A3D0E0F0A3D0E2
:1002F300E0F0A3D0E0F0A3E520F0A3E5F0F0A32223
:10030300851183851082E0C0E0A3E0F9A3E0FAA39E
:10031300E0FBA37808E0F608A3DFFAE0FCA3E0FD26
:10032300A3E0FEA3E0FFA3E0C0E0A3E0C0E0A3E0FE
:10033300F5D0A3E0F520A3E0A3F5F010AF08858383
:10034300118582108008858311858210D2AFD082F7
:10035300D083D0E0F8D0E032740280027401C0E0B0
:10036300F4041201D7D0E012012022D083D082EC12
:10037300C0E0EDC0E0E493A3FCE493A3FDED4C6087
:100383000D1203BAEC24FFFCED34FFFD80EFE49380
:10039300A3FCE493A3FDED4C600D1203F9EC24FFE1
:1003A300FCED34FFFD80EFD0E0FDD0E0FCE493A34F
:1003B300C0E0E493C0E022C0E0C3E4939608740174
:1003C300939618400FE493667008087401936618B7
:1003D30070007019A3A3C3E493960874019396184D
:1003E300A3A3400DD0E0D0E0D0E00203AAA3A3A3CF
:1003F300A3A3A3D0E022C0E0C0F088F0E49366702A
:10040300080874019366187000A8F0A3A3700BD0BA
:10041300F0D0E0D0E0D0E00203AAA3A3D0F0D0E074
:100423002274F81201FEEAFEEBFF7A0C7B00121035
:100433003C90900BEAF0A3EBF09090177404F090CB
:100443009018740CF090900BE0F8A3E0F9909003EF
:10045300E8F0A3E9F090900BE0240BF8A3E034005C
:10046300F9909005E8F0A3E9F090900BE0F8A3E091
:10047300F9909007E8F0A3E9F090900BE0F8A3E07F
:10048300F9909009E8F0A3E9F07C807D25EEFAEF7E
:10049300FB1204B7EEFAEFFB7F010202648999A213
:1004A3009950FCC29922C082C083909000E0F9D099
:1004B30083D0822274F71201FE759850438920433A
:1004C30087808C088D09780812036E00000600608F
:1004D300090505C01200058025FB04004BF6040046
:1004E30096F10400E1EC040A05758DFF801C758DFF
:1004F300FE8017758DFD8012758DFA800D758DF454
:100503008008758DE88003758DFAD28EC2ABD2AFA9
:10051300D2ACC2997F02020264C0E074F21202A458
:10052300C2AFA29840030205E1909005C082C08348
:10053300909007E0F8A3E0F9D083D082C3E098A3BA
:10054300E0995010909003E0F8A3E0F9909007E849
:10055300F0A3E9F0E599C0E0909007E0F8A3E0F597
:10056300838882D0E0F0E599909001F09090027436
:1005730001F0909007E02401F8A3E03400F9909093
:1005830007E8F0A3E9F01204A9E9FA7B00909017B9
:10059300E0F8790024FFF8E934FFF9C3EA98EB990E
:1005A300A2D265D0335009909000E02401F0802C52
:1005B3009090007400F0908FFF7401F0909017E01A
:1005C300F87900C3E498F8E499F9909007E028F8E3
:1005D300A3E039F9909009E8F0A3E9F0C298D2AF0B
:1005E3007F0102030374F61201FE8A828B83ECF807
:1005F300EDF97A0A7B0012014EEA2430F50AECF891
:10060300EDF97A0A7B0012014E7A0A7B0012014E41
:10061300EA2430F509ECF8EDF97A647B0012014E17
:100623007A0A7B0012014EEA2430F508ECF8EDF962
:100633007AE87B0312014E7A0A7B0012014EEA2408
:1006430030FEECF8EDF97A107B2712014EE82430E6
:10065300FF74306F6009EFF9AA82AB831204A074B0
:10066300306F700574306E6009EEF9AA82AB8312A5
:1006730004A074306F700B74306E700674306508AC
:100683006009A908AA82AB831204A074306F7011A9
:1006930074306E700C7430650870067430650960D0
:1006A30009A909AA82AB831204A0A90AAA82AB836F
:1006B3001204A07F0302026474F71201FEEAFEEB48
:1006C300FF80061207641209BE909011E0FAA3E0BE
:1006D300FBEA4B70297A137B901207546058888287
:1006E3008983C3E09EA3E09F506212076480EA8877
:1006F300828983C3E09EA3E09F50511207641207CF
:100703005470EC90901112086812075EE8FCE9FD42
:100713007A137B9080031207648A828B8312075EAD
:10072300EC687002ED69600E88828983C3E09EA342
:10073300E09F40E28016120E7E8A088B09A808A962
:1007430009E84960030206C67A007B007F020202C1
:10075300648A828B8312075EE84922E0F8A3E0F9FA
:1007630022E82402FAE93400FB2274F41201FEEABF
:100773002402FEEB3400FFC3EA9EEB9F501DC3EE41
:100783009404EF940050047E047F00EEFAEFFB1212
:1007930006BB8A088B09EA450970077A007B0002C9
:1007A300085D8A828B83E0FAA3E0FBEA2402F8EB7C
:1007B3003400F98A828B83E0FCA3E0FDEC24FCF592
:1007C3000AED34FFF50BC3E50A9EE50B9F50138832
:1007D30082898312075E850882850983E8F0A3E98D
:1007E3008043EA2EF50AEB3FF50B850882850983E2
:1007F300E50AF0A3E50BF088828983E0F50AA3E01C
:10080300F50B120862A3A3E50AF0A3E50BF0ECC312
:100813009EFCED9FFD120862ECF0A3EDF08A828B43
:1008230083EEF0A3EFF085088285098312075860F1
:1008330015E82402F8E93400F988828983E0FCA3EF
:10084300E0FDEC4D700478007900909011E8F0A37E
:10085300E9F0EA2402FAEB3400FB7F050202648527
:100863000882850983E0F8A3E0F583888222C082A9
:10087300C0838A828B83AA82AB83120B07AA82ABC3
:1008830083D083D0822274F11201FE74FE1201A779
:10089300EAFEEBFF890874111201F2E0F885108279
:1008A300851183ECF0A3EDF0E86009146026146071
:1008B30057020950EEFAEFFB120B178007EEFAEF1F
:1008C300FB120B17A908EEFAEFFB120BD2E9640136
:1008D30060EB8079EEFAEFFB120B178007EEFAEF6D
:1008E300FB120B17A908EEFAEFFB120BD2E9640116
:1008F30060EB851082851183E0F9EEFAEFFB120BB2
:10090300D2E9640160EC8045EEFAEFFB120B17802D
:1009130007EEFAEFFB120B17A908EEFAEFFB120B27
:10092300D2E9640160EB851082851183E0F9EEFA68
:10093300EFFB120BD2E9640160EC74011201F2E0E7
:10094300F9EEFAEFFB120BD2E9640160ED741212B7
:1009530001F2E0F50EA3E0F50F74141201F2E0F5D5
:100963000CE50CC39402402E750900E509C3950CF0
:10097300503885090A750B00E50E250AF582E50F47
:10098300350BF583E0F9EEFAEFFB120BD2E96401C4
:1009930060E0050980D5850E82850F83E0F9EEFAC4
:1009A300EFFB120BD2E9640160ECEEFAEFFB120BE2
:1009B3004174021201BD7F0802026474F31201FE46
:1009C300EA4B7003020AF8EA24FEFAEB34FFFB8ACF
:1009D300828B83E0FEA3E0FFC3EE9404EF94005008
:1009E30003020AF8909013E0FCA3E0FDEA2402F569
:1009F30008EB3400F509EC4D600BEAF8EBF9C3E8BA
:100A03009CE99D5015850882850983ECF0A3EDF0E0
:100A1300909013020A9CAC82AD83EC2402F50AED9C
:100A23003400F50B850A82F583E0F50CA3E0850C11
:100A330082F583E58245836009C3E58298E583995E
:100A430040D4120AFDEC28F8ED39F9C3EA98EB9982
:100A53005003020AF8EA687002EB6970118C828D08
:100A630083E02EF0A3E03FF0ECFAEDFB8030850A43
:100A730082850B83120B01E849600DEA2EFCEB3FE4
:100A8300FDC3E89CE99D406D850882850983E8F0F4
:100A9300A3E9F0850A82850B83EAF0A3EBF0EA244D
:100AA30002F8EB3400F9E8FCE9FD120AFDE84960BD
:100AB300448A828B83E0FEA3E0FFEA2EFEEB3FFF36
:100AC300E86E7002E96F702D909011E4F0A3F08846
:100AD300828983E0FEA3E0FF8A828B83E02EF0A36A
:100AE300E03FF088828983A3A3120B018C828D835C
:100AF300E8F0A3E9F07F060202648C828D83E0F8BC
:100B0300A3E0F922C082C0838A828B837405F0D06C
:100B130083D08222C082C0838A828B83D2B4D2B52F
:100B2300AA82AB83120C11C2B4AA82AB83120C113A
:100B3300C2B5AA82AB83120C11D083D08222C082A9
:100B4300C0838A828B83C2B4C2B5AA82AB83120CE0
:100B530011D2B5AA82AB83120C11D2B4AA82AB8391
:100B6300120C11D083D0822274F81201FE8A828B78
:100B730083D2B4AA82AB83120C11D2B5AA82AB83FF
:100B8300120C11A2B4E433FEAA82AB83120C11C27D
:100B9300B5AA82AB83120C11EEF97F0102026474D1
:100BA300F81201FE8A828B83E9FEEEFFEEA2E09249
:100BB300B4AA82AB83120C11D2B5AA82AB83120CF6
:100BC30011C2B5AA82AB83120C117F0102026474B5
:100BD300F81201FE8A828B83E9FF7E00800E790181
:100BE300AA82AB83120BA2EFC333FF0EEEC39408AA
:100BF3005010EFA2E740E77900AA82AB83120BA261
:100C030080E5AA82AB83120B6B7F01020264C08270
:100C1300C0838A828B83E0F8800118E8C394015073
:100C2300F9D083D0822274F81201FEEAFEEBFF8E24
:100C3300828F83ECF0A3EDF0EEFAEFFB120C89EE5A
:100C4300FAEFFB7F01020264780079008008E82450
:100C530001F8E93400F9C3EC98ED9950F12274F8E6
:100C63001201FEEAFEEBFF8E828F83E02401FCA3D8
:100C7300E03400FDEEFAEFFB120EE7E9F8A2E740DD
:100C8300E67F0102026474F71201FEEAFEEBFF75D0
:100C9300080075090080297C107D27EEFAEFFB120E
:100CA3000C4B79388E828F83E0FCA3E0FDEEFAEFE4
:100CB300FB120EDAE5082401F508E5093400F5090D
:100CC300C3E5089404E509940040CCEEFAEFFB1267
:100CD3000C6179388E828F83E0FCA3E0FDEEFAEF9E
:100CE300FB120EDAEEFAEFFB120C6179018E828FA2
:100CF30083E0FCA3E0FDEEFAEFFB120EDAEEFAEF6F
:100D0300FB120C61790C8E828F83E0FCA3E0FDEE75
:100D1300FAEFFB120EDAEEFAEFFB120C6179068E94
:100D2300828F83E0FCA3E0FDEEFAEFFB120EDA7F85
:100D33000202026474F81201FEEAFEEBFF7C007DFE
:100D4300F8EEFAEFFB120C297901EE2402FAEF34E4
:100D530000FB120F567900EE2404FAEF3400FB1265
:100D63000F567903EE2406FAEF3400FB120F56797F
:100D730002EE2408FAEF3400FB120F56EE240AFAAF
:100D8300EF3400FB120F7BEE240CFAEF3400FB125E
:100D93000FA0EE240EFAEF3400FB120FDDEE240F4A
:100DA300F582EF3400F5837400F0EE2410F582EF42
:100DB3003400F5837400F0A37408F0EE2412F58276
:100DC300EF3400F5837400F0A37403F0EEFAEFFB45
:100DD3007F0102026474F51201FEEAFEEBFFEE24CA
:100DE3000CFAEF3400FB120FB8120087AC08AD0900
:100DF300EE240EFAEF3400FB120FF57F04020264B7
:100E0300C082C0838A828B83AA82AB83120871AAB1
:100E130082AB83120E22AA82AB83D083D082227448
:100E2300F71201FE74FE1201A7909015C082C083D1
:100E3300851082851183AC82AD83D083D082740206
:100E430012012D750802780812035F74011201F272
:100E5300858208858309780812035B750800780882
:100E630012035F7C007D0079681208897404120103
:100E7300BD74021201BD7F02020264C082C083906E
:100E8300900FE0F8A3E0F9E84960067A007B008060
:100E93002190900F7419F0A37490F07418C39419EF
:100EA30074919490F990901974FFF0A3E9F07A1972
:100EB3007B90D083D08222C082C083E98C828D83D1
:100EC300F0D083D08222C082C08379008C828D834C
:100ED300E0F9D083D08222EEC0E0E9FEF9120EBA27
:100EE300D0E0FE22EEC0E07E00120EC9E9FEF9D08A
:100EF300E0FE2274F71201FEEAFEEBFF80031210FC
:100F030036EEFAEFFB12076DEA4B701690900DE088
:100F1300F8A3E0F9E84960E6E0F58388821201FC72
:100F230080DF7F0202026474EA1201A785108285C2
:100F33001183AA82AB83120FC174021201F2AA8237
:100F4300AB83120D3774021201F2AA82AB83120D26
:100F5300D880F274F81201FEEAFEEBFF8908EEFA7C
:100F6300EFFB121012E5088E828F83A3E508F0EEE3
:100F7300FAEFFB7F0102026474F81201FEEAFEEB52
:100F8300FFEEFAEFFB120FF88E828F83A3AA82ABD8
:100F930083120FF8EEFAEFFB7F01020264C082C0F6
:100FA300838A828B83AA82AB83120E03AA82AB83CA
:100FB300D083D082227A007B007C807D3F22C08256
:100FC300C0838A828B837C007DF8AA82AB83120C58
:100FD30029AA82AB83D083D08222C082C0838A8233
:100FE3008B83AA82AB83120424AA82AB83D083D0DF
:100FF30082220205E8C082C0838A828B83AA82ABE5
:1010030083121031D294AA82AB83D083D08222C0C0
:1010130082C0838A828B83AA82AB83121031AA8215
:10102300AB83D083D082227A017B0002103FC2932C
:0E103300C2912202102A020026020EF680FE52
:000071018E
:00000001FF
