:030000000200718A
:10002300020BEA0215EE120080B9000302006BE432
:10003300908FFF781A79018002F0A3D8FCD9FA9047
:100043009018AA82AB83900083783979018015E4F4
:1000530093A3AC82AD838A828B83F0A3AA82AB8302
:100063008C828D83D8E9D9E71215321215E875D041
:10007300007581BF7510FF75118F02002979012268
:10008300E80300000000000001000000040C202031
:100093002020004741550044524F0041565400531D
:1000A30054500041525200535549564945204C493A
:1000B300474E452053504900C3E7960809E7960881
:1000C30009E7960809E79622E026F608A3E036F644
:1000D30008A3E036F608A3E036F622E0F608A3E02C
:1000E300F608A3E0F608A3E0F622CAC0E0E6F0A310
:1000F30008DAFAD0E0FA22CAC0E0E0A3C582CCC590
:1001030082C583CDC583F0A3C582CCC582C583CD0B
:10011300C583DAE6D0E0CA22600D08C6A2E713C69B
:1001230018C613C6D5E0F322251010AF08F510400A
:100133000215118008F51040021511D2AF22C0D06C
:10014300251010AF08F510500205118008F5105066
:10015300020511D2AFD0D0222510F58210AF08F5D9
:1001630010400215118008F51040021511D2AF8519
:100173001183222510F582E43511F58322E47325DA
:1001830010C582C0E0E51134FFC583C0E0E510C3AC
:10019300958224F910AF0885831185821080088524
:1001A3008311858210D2AFCEF0A3E520F0A37808A7
:1001B300E608F0A3DEFAEFF0A3E58124FBF8E608F6
:1001C300F0A3E608F0A30808E608F0A3E608F0A306
:1001D30015811581D0E0FED0E0F815811581E8C0C6
:1001E300E0EEC0E022851183851082E0A3FEE0A348
:1001F300F5207808E0A3F608DFFAE0A3FFE0A3C048
:10020300E0E0A3C0E0E0A3C0E0E0A3C0E010AF08DB
:100213008582108583118008858210858311D2AF72
:10022300D083D08222C0D02510C582C0E0E511342E
:10023300FFC583C0E0E510C3958224F310AF0885A2
:1002430083118582108008858311858210D2AFC8FF
:10025300F0A3E9F0A3EAF0A3EBF0A37908E709F030
:10026300A3D8FAECF0A3EDF0A3EEF0A3EFF0A3D044
:10027300E0F0A3D0E0F0A3D0E0F0A3E520F0A3E505
:10028300F0F0A322851183851082E0C0E0A3E0F99A
:10029300A3E0FAA3E0FBA37808E0F608A3DFFAE003
:1002A300FCA3E0FDA3E0FEA3E0FFA3E0C0E0A3E026
:1002B300C0E0A3E0F5D0A3E0F520A3E0A3F5F010A0
:1002C300AF0885831185821080088583118582108C
:1002D300D2AFD082D083D0E0F8D0E0327401C0E056
:1002E300F40412015BD0E01200ED2274048000CC10
:1002F300C0E0EDC0E0E510C39CCCAD1150011D1072
:10030300AF068C108D1180068C108D11D2AF1200A8
:10031300FAD0E0FDD0E0FC22D083D082ECC0E0ED47
:10032300C0E0E493A3FCE493A3FDED4C600D120342
:1003330067EC24FFFCED34FFFD80EFE493A3FCE4C2
:1003430093A3FDED4C600D1203A6EC24FFFCED34EA
:10035300FFFD80EFD0E0FDD0E0FCE493A3C0E0E438
:1003630093C0E022C0E0C3E4939608740193961807
:10037300400FE49366700808740193661870007068
:1003830019A3A3C3E49396087401939618A3A340F7
:100393000DD0E0D0E0D0E0020357A3A3A3A3A3A30F
:1003A300D0E022C0E0C0F088F0E4936670080874DF
:1003B300019366187000A8F0A3A3700BD0F0D0E0EF
:1003C300D0E0D0E0020357A3A3D0F0D0E02274F82A
:1003D300120182EAFEEBFF7C007DF8EEFAEFFB12DE
:1003E300075F7901EE2402FAEF3400FB1212CD7994
:1003F30000EE2404FAEF3400FB1212CD7903EE244D
:1004030006FAEF3400FB1212CD7902EE2408FAEF5C
:100413003400FB1212CDEE240AFAEF3400FB121360
:1004230050EE240BF582EF3400F5837400F0EE24D4
:100433000CF582EF3400F5837400F0A37408F0EE3A
:10044300240EF582EF3400F5837400F0A37403F0F7
:10045300EEFAEFFB7F010201E80206AF74F8120126
:1004630082EAFEEBFF89087C037900EEFAEFFB12C8
:10047300086D7C267D90EEFAEFFB1208FC7C037975
:1004830000EEFAEFFB12086D7401650870737C2BA4
:100493007D90EEFAEFFB1208FCEE240EF582EF34AA
:1004A30000F583E0FCA3E0FDEE2402FAEF3400FB49
:1004B3001212F2EE240EF582EF3400F583E0FCA372
:1004C300E0FDEE2404FAEF3400FB121315EE240EC4
:1004D300F582EF3400F583E0FCA3E0FDEE2406FA99
:1004E300EF3400FB1212F2EE240EF582EF3400F526
:1004F30083E0FCA3E0FDEE2408FAEF3400FB1213C3
:1005030015E50870737C2F7D90EEFAEFFB1208FC63
:10051300EE240EF582EF3400F583E0FCA3E0FDEE5C
:100523002402FAEF3400FB121315EE240EF582EFCA
:100533003400F583E0FCA3E0FDEE2404FAEF34007D
:10054300FB1212F2EE240EF582EF3400F583E0FC89
:10055300A3E0FDEE2406FAEF3400FB121315EE249C
:100563000EF582EF3400F583E0FCA3E0FDEE2408F2
:10057300FAEF3400FB1212F27402650870737C33D5
:100583007D90EEFAEFFB1208FCEE240CF582EF34BB
:1005930000F583E0FCA3E0FDEE2402FAEF3400FB58
:1005A3001212F2EE240CF582EF3400F583E0FCA383
:1005B300E0FDEE2404FAEF3400FB1212F2EE240CF9
:1005C300F582EF3400F583E0FCA3E0FDEE2406FAA8
:1005D300EF3400FB1212F2EE240CF582EF3400F537
:1005E30083E0FCA3E0FDEE2408FAEF3400FB1212D3
:1005F300F27404650870377C377D90EEFAEFFB12D6
:1006030008FCEE2402FAEF3400FB121339EE240443
:10061300FAEF3400FB121339EE2406FAEF3400FB31
:10062300121339EE2408FAEF3400FB121339740560
:10063300650870737C3B7D90EEFAEFFB1208FCEECD
:10064300240CF582EF3400F583E0FCA3E0FDEE24F7
:1006530002FAEF3400FB121315EE240CF582EF348B
:1006630000F583E0FCA3E0FDEE2404FAEF3400FB85
:10067300121315EE240CF582EF3400F583E0FCA38E
:10068300E0FDEE2406FAEF3400FB121315EE240C02
:10069300F582EF3400F583E0FCA3E0FDEE2408FAD5
:1006A300EF3400FB1213157F010201E874F8120105
:1006B30082EAFEEBFF7C017900EEFAEFFB12086D94
:1006C3007C3F7D90EEFAEFFB1208FCEE240CF582E2
:1006D300EF3400F5837480F0A37402F0EE240AFA79
:1006E300EF3400FB121368E9602414600514603AC8
:1006F3008041EE240EF582EF3400F5837400F0A3FD
:100703007407F07901EEFAEFFB12045F8025EE2403
:100713000EF582EF3400F5837400F0A37407F079CB
:1007230000EEFAEFFB12045F80097902EEFAEFFBA9
:1007330012045F7F010201E874F8120182EAFEEB02
:10074300FF8E828F837400F0A374F8F0EEFAEFFB50
:100753001207BFEEFAEFFB7F010201E874F8120102
:1007630082EAFEEBFF8E828F83ECF0A3EDF0EEFACC
:10077300EFFB1207BFEEFAEFFB7F010201E87800FF
:1007830079008008E82401F8E93400F9C3EC98ED16
:100793009950F12274F8120182EAFEEBFF8E828FE8
:1007A30083E02401FCA3E03400FDEEFAEFFB121416
:1007B30074E9F8A2E740E67F010201E874F7120149
:1007C30082EAFEEBFF75080075090080297C107D25
:1007D30027EEFAEFFB12078179388E828F83E0FCD4
:1007E300A3E0FDEEFAEFFB121467E5082401F50818
:1007F300E5093400F509C3E5089404E509940040CC
:10080300CCEEFAEFFB12079779388E828F83E0FCE8
:10081300A3E0FDEEFAEFFB121467EEFAEFFB12070B
:100823009779018E828F83E0FCA3E0FDEEFAEFFB64
:10083300121467EEFAEFFB120797790C8E828F83FF
:10084300E0FCA3E0FDEEFAEFFB121467EEFAEFFB18
:1008530012079779068E828F83E0FCA3E0FDEEFA00
:10086300EFFB1214677F020201E874F6120182EAB9
:10087300FEEBFF89098C0AE50A14600B14600D1462
:100883006012146017801D850908801B74402509B8
:10089300F508801374142509F508800B7454250991
:1008A300F5088003850908D3E50892E7F508EEFA11
:1008B300EFFB120797A9088E828F83E0FCA3E0FD6C
:1008C300EEFAEFFB1214677F030201E874F81201DA
:1008D30082EAFEEBFF8908EEFAEFFB120797A908FD
:1008E3008E828F83E02402FCA3E03400FDEEFAEF56
:1008F300FB1214677F010201E874F8120182EAFE19
:10090300EBFF8C828D83800AE0F9EEFAEFFB12088D
:10091300CFA3E070F37F010201E8C082C0838A8223
:100923008B83AA82AB83120E70AA82AB8312094710
:100933007CA07D00AA82AB83120A8DAA82AB83D0EE
:1009430083D0822274F8120182EAFEEBFF7508005D
:1009530078081202DF7D007CC07903EEFAEFFB1208
:100963000E9B7401120141E99090181202EEEEFA07
:10097300EFFB120ACC74041201417C87790FEEFA63
:10098300EFFB120A697C3C790CEEFAEFFB120A6961
:100993007C00790DEEFAEFFB120A697C00791CEEFC
:1009A300FAEFFB120A697C00791DEEFAEFFB120ADB
:1009B300697CC0792AEEFAEFFB120A697C9A7929DD
:1009C300EEFAEFFB120A697C077928EEFAEFFB12C5
:1009D3000A697C01792BEEFAEFFB120A697C007934
:1009E3002CEEFAEFFB120A697C00792DEEFAEFFB8D
:1009F300120A697C207960EEFAEFFB120A697C0324
:100A03007930EEFAEFFB120A697C017935EEFAEFE1
:100A1300FB120A697C007900EEFAEFFB120A697C8B
:100A2300207901EEFAEFFB120A697C007920EEFAD5
:100A3300EFFB120A697C207921EEFAEFFB120A69B7
:100A43007C007931EEFAEFFB120A697C007932EE11
:100A5300FAEFFB120A697C07790FEEFAEFFB120A31
:100A6300697F010201E874F8120182E9FFECFEF5E7
:100A73000878081202DFEFFD7C027903120E9B74E3
:100A830001120141E97F010201E874F71201828A30
:100A9300828B83ECFAEDFB7C007E008A088B097461
:100AA30003780812011BE508AC08EAC43354E0FEDE
:100AB3007931AA82AB83120A69EEFC7932AA82AB3E
:100AC30083120A697F020201E874F1120182740F32
:100AD30012017678081200DE90901C780C1200DE6A
:100AE3008008909020780C1200CB7808790C1200C3
:100AF300BB40EF7F080201E874F8120182EAFEEBC3
:100B0300FF7A0C7B001215EB90900BEAF0A3EBF04D
:100B13009090247404F0909025740CF090900BE066
:100B2300F8A3E0F9909003E8F0A3E9F090900BE0CC
:100B3300240BF8A3E03400F9909005E8F0A3E9F062
:100B430090900BE0F8A3E0F9909007E8F0A3E9F0A8
:100B530090900BE0F8A3E0F9909009E8F0A3E9F096
:100B63007C807D25EEFAEFFB120B85EEFAEFFB7F1F
:100B7300010201E8C082C083909000E0F9D083D0E5
:100B8300822274F71201827598504389204387802B
:100B93008C088D09780812031B000006006009D336
:100BA3000BC012CE0B8025C90B004BC40B0096BFA4
:100BB3000B00E1BA0BD80B758DFF801C758DFE8081
:100BC30017758DFD8012758DFA800D758DF4800873
:100BD300758DE88003758DFAD28EC2ABD2AFD2ACDD
:100BE300C2997F020201E8C0E074F2120228C2AF88
:100BF300A2984003020CAF909005C082C0839090EE
:100C030007E0F8A3E0F9D083D082C3E098A3E0998A
:100C13005010909003E0F8A3E0F9909007E8F0A358
:100C2300E9F0E599C0E0909007E0F8A3E0F5838848
:100C330082D0E0F0E599909001F09090027401F079
:100C4300909007E02401F8A3E03400F9909007E8BE
:100C5300F0A3E9F0120B77E9FA7B00909024E0F817
:100C6300790024FFF8E934FFF9C3EA98EB99A2D29B
:100C730065D0335009909000E02401F0802C9090CF
:100C8300007400F0908FFF7401F0909024E0F879E5
:100C930000C3E498F8E499F9909007E028F8A3E0FA
:100CA30039F9909009E8F0A3E9F0C298D2AF7F0137
:100CB30002028774F7120182EAFEEBFF800CEC2438
:100CC300020A0AED3400FB121180909014E0FAA39B
:100CD300E0FBEA4B702B7A167B908003120D6112B6
:100CE3000D55605388828983C3E09EA3E09F40EC47
:100CF300805B88828983C3E09EA3E09F504F120DDF
:100D030061120D5570EC909014120E67E0FCA3E095
:100D1300FD7A167B90800F88828983C3E09EA3E0CF
:100D23009F502A120D618A828B83E0F8A3E0F9ECCD
:100D3300687002ED6970E01214838A088B09AC08AD
:100D4300AD09EC4D6003020CC17A007B007F020207
:100D530001E88A828B83E0F8A3E0F9E84922E824DA
:100D630002FAE93400FB2274F6120182EA2402FE3D
:100D7300EB3400FFC3EA9EEB9F40077A007B00023F
:100D83000E50C3EE9404EF940050047E047F00EEF3
:100D9300FAEFFB120CB68A088B09A808A909E8FC2C
:100DA300E9FDE84960D58C828D83E0FAA3E0FBEA94
:100DB3002402F8EB3400F98A828B83E024FCF508E3
:100DC300A3E034FFF509C3E5089EE5099F501388A6
:100DD300828983E0F8A3E0F98C828D83E8F0A3E9AC
:100DE3008036EA2EF508EB3FF5098C828D83E50802
:100DF300F0A3E509F088828983E0F508A3E0120EE9
:100E030061A3A3120E55E0C39EF508A3E09F120E43
:100E130061120E55EEF0A3EFF08C828D83120D5903
:100E23006016E824020808E93400F988828983E01F
:100E3300FCA3E0FDEC4D700478007900909014E879
:100E4300F0A3E9F0EA24020A0AEB3400FB7F030271
:100E530001E8E508F0A3E509F08A828B8322F5090E
:100E63008C828D83E0F8A3E0F583888222C293C24B
:100E7300912278088012C292E9C333F9D293A291E6
:100E8300E433C949F9C29318E8C394014009E9A2BC
:100E9300E750E3D29280E12274F312018274FD12CF
:100EA300012B8A0C8B0D8908ECFEEDFF74101201E7
:100EB30076E0F890900DC082C083851082851183FF
:100EC300AC82AD83D083D08274031200FAEE851016
:100ED30082851183F0EFC0E07401120176D0E0F057
:100EE300E8C0E07402120176D0E0F0C29775090001
:100EF30080387C0085090A750B0085108285118373
:100F0300E582250AF582E583350BF583E0F9AA0C22
:100F1300AB0D120F71E99090201202EEAA0CAB0DEB
:100F2300120F4274041201410509E509C3950840F3
:100F3300C1D297790174031201417F060201E8745B
:100F4300F1120182740F12017678081200DE90907C
:100F53001C780C1200DE8008909020780C1200CBD5
:100F63007808790C1200BB40EF7F080201E8E9FA28
:100F73007900EC702AC29378008015C292EAC333D9
:100F8300FAE9C333F9D293A291E43329F9C293085E
:100F9300E8C394085009EAA2E750E0D29280DE74D5
:100FA300016C7028D2937800800BC292A291E43333
:100FB30029F9C29308E8C39408500FE9C333F9D25F
:100FC30093EAA2E750E4D29280E2D29374026C7067
:100FD300247800800DC292A291E43329F9C293D2FE
:100FE3009308E8C39408500DE9C333F9EAA2E75024
:100FF300E4D29280E274036C70247800800BC29276
:10100300A291E43329F9D29308E8C39408500FE975
:10101300C333F9C293EAA2E750E4D29280E222C03A
:1010230082C0838A828B83AA82AB83120E70D2948E
:10103300AA82AB83D083D0822274F81201828A827F
:101043008B83E9FFECFEEF606F14600302114BC268
:10105300947940AA82AB83120E75E97900AA82AB18
:1010630083120E75E9EEF9AA82AB83120E75E9D2EB
:1010730094C2947940AA82AB83120E75E97901AACE
:1010830082AB83120E75E97900AA82AB83120E75C7
:10109300E9D294C2947940AA82AB83120E75E9799E
:1010A30006AA82AB83120E75E97900AA82AB83127A
:1010B3000E75E9D29402114BC2947940AA82AB8394
:1010C300120E75E97900AA82AB83120E75E974FFDB
:1010D3006EF9E9FEAA82AB83120E75E9D294C2942B
:1010E3007940AA82AB83120E75E97901AA82AB8398
:1010F300120E75E97900AA82AB83120E75E9D294B8
:10110300C2947940AA82AB83120E75E97906AA824A
:10111300AB83120E75E97900AA82AB83120E75E9CF
:10112300D294C2947940AA82AB83120E75E9790AEC
:10113300AA82AB83120E75E974FF6EF9E9FEAA82E7
:10114300AB83120E75E9D2947F010201E8C082C01D
:10115300838A828B83C2947941AA82AB83120E75F0
:10116300E97909AA82AB83120E75E97900AA82ABE9
:1011730083120E75E9F9D294D083D0822274F312CC
:101183000182EA4B70030212BEEA24FE1A1AEB3400
:10119300FFFB8A828B83E0FEA3E0FFC3EE9404EFA0
:1011A300940050030212BE909016E0FCA3E0FDEA07
:1011B3002402F508EB3400F509EC4D600BEAF8EB7B
:1011C300F9C3E89CE99D5015850882850983ECF0F5
:1011D300A3EDF090901602125FAC82AD83EC240273
:1011E300F50AED3400F50B850A82F583E0F50CA3CF
:1011F300E0850C82F583E58245836009C3E5829827
:10120300E5839940D41212C3EC28F8ED39F9C3EA07
:1012130098EB9950030212BEEA687002EB697011F1
:101223008C828D83E02EF0A3E03FF0ECFAEDFB809F
:1012330030850A82850B831212C7E849600DEA2EB6
:10124300FCEB3FFDC3E89CE99D407085088285095E
:1012530083E8F0A3E9F0850A82850B83EAF0A3EB28
:10126300F0EA2402F8EB3400F9E8FCE9FD1212C3BA
:10127300E84960478A828B83E0FEA3E0FFEA2EFE03
:10128300EB3FFFE86E7002E96F7030909014E4F06A
:10129300A3F01212C388828983E0FEA3E0FF8A824F
:1012A3008B83E02EF0A3E03FF088828983A3A3120F
:1012B30012C78C828D83E8F0A3E9F07F060201E870
:1012C3008C828D83E0F8A3E0F92274F8120182EA9C
:1012D300FEEBFF8908EEFAEFFB1213D0E5088E82CE
:1012E3008F83A3E508F0EEFAEFFB7F010201E8C06C
:1012F30082C08374FF5CFC740F5DFDEC2400FCED85
:101303003408FD8A828B83A3E0F91213E8D083D0DB
:101313008222C082C08374FF5CFC740F5DFD740085
:10132300C39CFC74089DFD8A828B83A3E0F912138E
:10133300E8D083D08222C082C0838A828B83A3E0D9
:10134300F97C007D081213E8D083D08222C082C0CA
:10135300838A828B83AA82AB83121022AA82AB83F5
:10136300D083D0822274F812018274FF12012B8A77
:10137300828B837CE07901AA82AB8312103CAA8220
:10138300AB83121150E9851082851183F085108299
:10139300851183E064FF600B851082851183E0640F
:1013A300BF70047E02801A851082851183E0A2E556
:1013B30050027E01851082851183E0A2E750027EF0
:1013C30000EEF974011201417F010201E8C082C0FD
:1013D300838A828B83AA82AB83120E70AA82AB8329
:1013E300D083D0822274F812018274FE12012BEA98
:1013F300FEEBFF8908D3E50892E3F508E508C4543A
:10140300F0F508851082851183ECF0A3EDF07401EB
:10141300120176E04508F0C2967401120176E0F9F4
:10142300EEFAEFFB120E75E9851082851183E0F960
:10143300EEFAEFFB120E75E9D29674021201417FA8
:10144300010201E8C082C083E98C828D83F0D083DE
:10145300D08222C082C08379008C828D83E0F9D050
:1014630083D08222EEC0E0E9FEF9121447D0E0FEF9
:1014730022EEC0E07E00121456E9FEF9D0E0FE220F
:10148300C082C083909012E0F8A3E0F9E8496006B7
:101493007A007B0080219090127450F0A37490F036
:1014A300744FC3945074919490F990905074FFF0DA
:1014B300A3E9F07A507B90D083D0822274F8120192
:1014C30082EAFEEBFFEEFAEFFB12091D8E828F8399
:1014D300A3AA82AB831215B6EE2402FAEF3400FB03
:1014E30012073BEE2404FAEF3400FB12159EEEFACA
:1014F300EFFB7F010201E874F7120182EAFEEBFFC2
:1015030080031215E5EEFAEFFB120D6A8B09A909A8
:10151300EA497016909010E0F8A3E0F9E84960E218
:10152300E0F583888212018080DB7F020201E87488
:10153300DC12012B851082851183AA82AB831215DD
:101543006A7402120176AA82AB831203D174121257
:101553000176AA82AB831214BF7402120176AA82A7
:10156300AB8312045C80F2C082C0838A828B837C4B
:10157300007DF8AA82AB8312075FAA82AB83D08374
:10158300D08222C082C0838A828B83AA82AB8312D9
:1015930015CEAA82AB83D083D08222C082C0838A35
:1015A300828B83AA82AB83121586AA82AB83D083F4
:1015B300D08222C082C0838A828B83AA82AB8312A9
:1015C3000AFBAA82AB83D083D08222C082C0838AE3
:1015D300828B837405F0D083D082227A017B000250
:0D15E30015EE0215DE0200260214FA80FE4D
:000071018E
:00000001FF
