:0600000002007102095C20
:100023000208870209C3120080B9000302006BE4CF
:10003300908FFF781079018002F0A3D8FCD9FA9051
:10004300900EAA82AB83900083780979018015E42E
:1000530093A3AC82AD838A828B83F0A3AA82AB8302
:100063008C828D83D8E9D9E712071D1209C075D098
:10007300007581BF7510FF75118F02002979012268
:100083004142434445460000CAC0E0E6F0A308DA13
:10009300FAD0E0FA22CAC0E0E0A3C582CCC582C58B
:1000A30083CDC583F0A3C582CCC582C583CDC5836B
:1000B300DAE6D0E0CA22600D08C6A2E713C618C666
:1000C30013C6D5E0F322251010AF08F51040021532
:1000D300118008F51040021511D2AF22C0D02510AF
:1000E30010AF08F510500205118008F510500205F5
:1000F30011D2AFD0D0222510F58210AF08F51040F1
:100103000215118008F51040021511D2AF85118335
:10011300222510F582E43511F583222510C582C00E
:10012300E0E51134FFC583C0E0E510C3958224F9EF
:1001330010AF08858311858210800885831185821D
:1001430010D2AFCEF0A3E520F0A37808E608F0A321
:10015300DEFAEFF0A3E58124FBF8E608F0A3E60856
:10016300F0A30808E608F0A3E608F0A315811581BB
:10017300D0E0FED0E0F815811581E8C0E0EEC0E0E4
:1001830022851183851082E0A3FEE0A3F520780881
:10019300E0A3F608DFFAE0A3FFE0A3C0E0E0A3C01A
:1001A300E0E0A3C0E0E0A3C0E010AF0885821085C3
:1001B30083118008858210858311D2AFD083D082CA
:1001C30022740280027401C0E0F4041200F9D0E04A
:1001D30012008B22C082C0838A828B83AA82AB8364
:1001E300120995AA82AB83D083D0822274F81201BC
:1001F3001EEAFEEBFF75080078081201C87D007C3B
:10020300C07901EEFAEFFB12040074011200DFE97A
:10021300780079008008E82401F8E93400F9C3E89C
:1002230094E8E9940340EF7C87790FEEFAEFFB1231
:1002330003167C3C790CEEFAEFFB1203167C007973
:100243000DEEFAEFFB1203167C00791CEEFAEFFBBE
:100253001203167C00791DEEFAEFFB1203167CC025
:10026300792AEEFAEFFB1203167C887929EEFAEF6E
:10027300FB1203167C037928EEFAEFFB1203167CBC
:1002830001792BEEFAEFFB1203167C00792CEEFAC0
:10029300EFFB1203167C00792DEEFAEFFB12031627
:1002A3007C207960EEFAEFFB1203167C037930EEC3
:1002B300FAEFFB1203167C017935EEFAEFFB12031A
:1002C300167C007900EEFAEFFB1203167C0079012D
:1002D300EEFAEFFB1203167C007920EEFAEFFB1225
:1002E30003167C007921EEFAEFFB1203167C0079EA
:1002F30031EEFAEFFB1203167C007932EEFAEFFBD4
:100303001203167C07790FEEFAEFFB1203167F0137
:1003130002018474F812011EE9FFECFEF508780867
:100323001201C8EFFD7C027903120400740112006C
:10033300DFE97F0102018474F712011E8A828B8335
:10034300ECFAEDFB7C007E008A088B0974037808C5
:100353001200B9E508AC08EAC43354E0FE7931AAC7
:1003630082AB83120316EEFC7932AA82AB831203AB
:10037300167F0202018474F112011E8A0C8B0D8C0C
:100383000E8D0F7F007E36AC0EAD0FAA0CAB0D1297
:10039300049EE9FFEFC3940940027F08EFFC79351F
:1003A300AA0CAB0D120316750800802085080A7588
:1003B3000B00E50E250AF582E50F350BF583E0FC0E
:1003C300EEF9AA0CAB0D1203160E0508E508C39F40
:1003D30040DA75080078081201C87D007C81790134
:1003E300AA0CAB0D12040074011200DFE97800803F
:1003F3000108E8C3940A40F97F0802018474F312E8
:10040300011E74FD1200C98A0C8B0D8908ECFEEDE8
:10041300FF7410120114E0F890900BC082C0838522
:100423001082851183AC82AD83D083D08274031292
:100433000098EE851082851183F0EFC0E0740112FD
:100443000114D0E0F0E8C0E07402120114D0E0F02F
:10045300C297750900800908E8C3940A40F90509A1
:10046300E509C39508502685090A750B0085108296
:10047300851183E582250AF582E583350BF583E053
:10048300F9AA0CAB0D12099AE9780080CBD29779BF
:100493000174031200DF7F0602018474F712011E48
:1004A30079008001098908750900EC2508F582EDBA
:1004B3003509F583E070ED7F0202018474F81201BF
:1004C3001EEAFEEBFF8E828F837400F0A374F8F0B4
:1004D300EEFAEFFB120521EEFAEFFB7F0102018436
:1004E300780079008008E82401F8E93400F9C3ECC6
:1004F30098ED9950F12274F812011EEAFEEBFF8E7B
:10050300828F83E02401FCA3E03400FDEEFAEFFBCD
:1005130012094DE9F8A2E740E67F0102018474F76E
:1005230012011EEAFEEBFF75080075090080297CA5
:10053300107D27EEFAEFFB1204E379388E828F8366
:10054300E0FCA3E0FDEEFAEFFB120940E50824010D
:10055300F508E5093400F509C3E5089404E50994B1
:100563000040CCEEFAEFFB1204F979388E828F83C8
:10057300E0FCA3E0FDEEFAEFFB120940EEFAEFFB1D
:100583001204F979018E828F83E0FCA3E0FDEEFA79
:10059300EFFB120940EEFAEFFB1204F9790C8E829D
:1005A3008F83E0FCA3E0FDEEFAEFFB120940EEFAC5
:1005B300EFFB1204F979068E828F83E0FCA3E0FD42
:1005C300EEFAEFFB1209407F0202018474F6120176
:1005D3001EEAFEEBFF89098C0AE50A14600B14601E
:1005E3000D146012146017801D850908801B744068
:1005F3002509F508801374142509F508800B745434
:100603002509F5088003850908D3E50892E7F5086D
:10061300EEFAEFFB1204F9A9088E828F83E0FCA3A4
:10062300E0FDEEFAEFFB1209407F0302018474F848
:1006330012011EEAFEEBFF8908EEFAEFFB1204F942
:10064300A9088E828F83E02402FCA3E03400FDEE30
:10065300FAEFFB1209407F0102018474F812011EB4
:10066300E9FAEAFBC4540F8C828D83F074081201FB
:1006730014E0F8A3E0F9740F5A88828983F08C821E
:100683008D83E0C3940A500A8C828D83E02430F07A
:1006930080088C828D83E02437F088828983E0C3CD
:1006A300940A500A88828983E02430F08008888283
:1006B3008983E02437F07F0102018474F512011E5F
:1006C30074FE1200C9EAFEEBFF89088510828511CA
:1006D3008385820A85830B780A1201C4740312018D
:1006E30014AC82AD83A908EEFAEFFB12065E740226
:1006F3001200DF7401120114E0F9EEFAEFFB1206A7
:1007030031851082851183E0F9EEFAEFFB12063191
:1007130074021200DF7F0402018474FD1200C98594
:100723001082851183AA82AB831201D7740112014F
:1007330014AA82AB831204BFD297C296C294D297F3
:10074300851082851183AA82AB831201EF7C017D20
:1007530000851082851183AA82AB8312033A7C0E33
:100763007D90851082851183AA82AB83120379C29F
:10077300977903851082851183AA82AB8312099A24
:10078300E97966851082851183AA82AB8312099A5F
:10079300E97900851082851183AA82AB8312099AB5
:1007A300E9F5097900851082851183AA82AB83124A
:1007B300099AE9F50A7900851082851183AA82AB2B
:1007C3008312099AE9FE7900851082851183AA8232
:1007D300AB8312099AE9FF7900851082851183AAF8
:1007E30082AB8312099AE9F508D2977C01790074E8
:1007F30001120114AA82AB831205CFA90974011255
:100803000114AA82AB831206BE7C01790374011220
:100813000114AA82AB831205CFA90A740112011431
:10082300AA82AB831206BE7C0179067401120114FD
:10083300AA82AB831205CFEEF97401120114AA82C6
:10084300AB831206BE7C0179097401120114AA82DA
:10085300AB831205CFEFF97401120114AA82AB83A3
:100863001206BE7C01790C7401120114AA82AB83B7
:100873001205CFA9087401120114AA82AB831206D0
:10088300BE020761C0E0C0D0E8C0E0E9C0E0C082BA
:10089300C083C2AFA2985074909009E0F8A3E0F926
:1008A300909007E0687003A3E0697010909005E0F2
:1008B300F8A3E0F9909009E8F0A3E9F0E599C0E026
:1008C300909009E0F8A3E0F5838882D0E0F090905F
:1008D30009E02401F8A3E03400F9909009E8F0A3BB
:1008E300E9F0909002E0F8909003E0C398500F90E5
:1008F3009003E02401F09090047400F0800C909039
:10090300037400F09090047401F0C298D2AFD083C6
:10091300D082D0E0F9D0E0F8D0D0D0E032C082C0AD
:1009230083E98C828D83F0D083D08222C082C083FE
:1009330079008C828D83E0F9D083D08222EEC0E0EF
:10094300E9FEF9120920D0E0FE22EEC0E07E00129B
:10095300092FE9FEF9D0E0FE22C0E0C0D0E8C0E0F4
:10096300C082C083C2AF9090007400F0A374F9F00A
:10097300909000E0F8A3E0F5838882E0540F908F15
:10098300FFF0C289D2AFD083D082D0E0F8D0D0D0EC
:10099300E032D297C2962278088012D295E9C33307
:1009A300F9D296A294E433C949F9C29618E8C394DC
:1009B300014009E9A2E740E3C29580E12202002653
:0209C30080FEB4
:000071018E
:00000001FF
