:060000000200710218B5B8
:10002300020E64021977120080B9000302006BE428
:10003300900F00781D79018002F0A3D8FCD9FA90C3
:100043000F1CAA82AB83900083783179018015E479
:1000530093A3AC82AD838A828B83F0A3AA82AB8302
:100063008C828D83D8E9D9E712194612197175D09C
:10007300007581BF75100075110F020029790122E7
:10008300D26120202020004741550044524F0041B7
:1000930056540053545000415252002A2A2A2A53DC
:1000A3005549564945204C49474E452A2A2A2A0094
:1000B300CAC0E0E6F0A308DAFAD0E0FA22CAC0E048
:1000C300E0A3C582CCC582C583CDC583F0A3C58219
:1000D300CCC582C583CDC583DAE6D0E0CA2225101C
:1000E30010AF08F510400215118008F510400215F5
:1000F30011D2AF22C0D0251010AF08F51050020561
:10010300118008F51050020511D2AFD0D02225106E
:10011300F58210AF08F510400215118008F5104064
:10012300021511D2AF851183222510F582E4351112
:10013300F58322E4732510C582C0E0E51134FFC5C1
:1001430083C0E0E510C3958224F910AF08858311BD
:100153008582108008858311858210D2AFCEF0A3EB
:10016300E520F0A37808E608F0A3DEFAEFF0A3E5B4
:100173008124FBF8E608F0A3E608F0A30808E608E4
:10018300F0A3E608F0A315811581D0E0FED0E0F8D6
:1001930015811581E8C0E0EEC0E02285118385104A
:1001A30082E0A3FEE0A3F5207808E0A3F608DFFAD7
:1001B300E0A3FFE0A3C0E0E0A3C0E0E0A3C0E0E071
:1001C300A3C0E010AF088582108583118008858263
:1001D30010858311D2AFD083D08222C0D02510C521
:1001E30082C0E0E51134FFC583C0E0E510C395820A
:1001F30024F310AF0885831185821080088583114D
:10020300858210D2AFC8F0A3E9F0A3EAF0A3EBF024
:10021300A37908E709F0A3D8FAECF0A3EDF0A3EE75
:10022300F0A3EFF0A3D0E0F0A3D0E0F0A3D0E0F090
:10023300A3E520F0A3E5F0F0A322851183851082C6
:10024300E0C0E0A3E0F9A3E0FAA3E0FBA37808E0B1
:10025300F608A3DFFAE0FCA3E0FDA3E0FEA3E0FFC2
:10026300A3E0C0E0A3E0C0E0A3E0F5D0A3E0F52065
:10027300A3E0A3F5F010AF088583118582108008F1
:10028300858311858210D2AFD082D083D0E0F8D09D
:10029300E032740280027401C0E0F404120111D050
:1002A300E01200B322D083D082ECC0E0EDC0E0E4E2
:1002B30093A3FCE493A3FDED4C600D1202F4EC2434
:1002C300FFFCED34FFFD80EFE493A3FCE493A3FD77
:1002D300ED4C600D120333EC24FFFCED34FFFD8085
:1002E300EFD0E0FDD0E0FCE493A3C0E0E493C0E0F2
:1002F30022C0E0C3E49396087401939618400FE478
:100303009366700808740193661870007019A3A3AC
:10031300C3E49396087401939618A3A3400DD0E009
:10032300D0E0D0E00202E4A3A3A3A3A3A3D0E022DE
:10033300C0E0C0F088F0E493667008087401936627
:10034300187000A8F0A3A3700BD0F0D0E0D0E0D0D9
:10035300E00202E4A3A3D0F0D0E02274F712013844
:10036300EAFEEBFF7C007DF8EEFAEFFB120A14794C
:1003730002EE2402FAEF3400FB1216907900EE2409
:1003830006FAEF3400FB1216907903EE240AFAEF13
:100393003400FB1216907901EE240EFAEF3400FBC1
:1003A300121690EE2412FAEF3400FB121605EE2417
:1003B30017FAEF3400FB12192275088075092578A6
:1003C300081202957C057905EE241BFAEF3400FB35
:1003D300120CDF74021200F7EE241DF582EF3400D5
:1003E300F5837400F0EE241EF582EF3400F5837478
:1003F30000F0EE241FF582EF3400F5837400F0EE75
:10040300242BF582EF3400F5837440F0EE242CF5B1
:1004130082EF3400F5837430F0EE2424F582EF3458
:1004230000F5837433F0EE2425F582EF3400F58371
:100433007420F0EE2426F582EF3400F5837430F057
:10044300EE2427F582EF3400F5837430F0EE242890
:10045300F582EF3400F5837430F0EEFAEFFB7F02A0
:1004630002019E74F8120138EAFEEBFFEE241BFA38
:10047300EF3400FB120E04EE2429F582EF3400F56D
:1004830083EAF0A3EBF0EEFAEFFB12096DEE2429F9
:10049300F582EF3400F583E0F8A3E0F9E84970034F
:1004A3000205907C027900EEFAEFFB120B22EE2498
:1004B30029F582EF3400F583E0FCA3E0FDEEFAEFCB
:1004C300FB120C9DEE2429F582EF3400F583E0F84E
:1004D300A3E0F5838882E064326003020585EE249D
:1004E30029F582EF3400F583E0F8A3E0F5838882F1
:1004F300A3E064206003020585EE2429F582EF342E
:1005030000F583E0F8A3E0F5838882A3A3E024BF8A
:10051300600624F560228075EE2429F582EF34000D
:10052300F5837400F0A37400F0EE241DF582EF341C
:1005330000F5837400F08055EE2429F582EF340032
:10054300F5837400F0A37400F0EE241DF582EF34FC
:1005530000F5837401F0EE241EF582EF3400F58379
:10056300E0600FEE241EF582EF3400F583E06403B0
:10057300701BEE241EF582EF3400F583E02401F0B6
:10058300800BEE241BFAEF3400FB120E45EE241E03
:10059300F582EF3400F583E0700DEE241DF582EF54
:1005A3003400F5837400F0EE241EF582EF3400F579
:1005B30083E06403700DEE241DF582EF3400F583B0
:1005C3007400F0EE241DF582EF3400F583E060063D
:1005D30014604A0206637904EEFAEFFB120668EE32
:1005E3002426F582EF3400F5837441F0EE241EF5E2
:1005F30082EF3400F583E02430C0E0EE2427F58257
:10060300EF3400F583D0E0F0EE2424FCEF3400FD5A
:10061300EE241BFAEF3400FB120DD18043EEFAEF08
:10062300FB1208A8EE2426F582EF3400F583744C00
:10063300F0EE241EF582EF3400F583E02430C0E0B1
:10064300EE2427F582EF3400F583D0E0F0EE242486
:10065300FCEF3400FDEE241BFAEF3400FB120DD146
:100663007F0102019E74F8120138EAFEEBFF89084C
:100673007C037900EEFAEFFB120B227C1E7D0FEE5A
:10068300FAEFFB120CBE7C037900EEFAEFFB120BC0
:100693002274016508706F7C237D0FEEFAEFFB1265
:1006A3000CBEEE242CF582EF3400F583E0FC7D00D4
:1006B300EE2402FAEF3400FB1216D7EE242CF58257
:1006C300EF3400F583E0FC7D00EE2406FAEF3400FE
:1006D300FB1216D7EE242CF582EF3400F583E0FCF1
:1006E3007D00EE240AFAEF3400FB1216B7EE242C39
:1006F300F582EF3400F583E0FC7D00EE240EFAEF83
:100703003400FB1216B7E508706F7C277D0FEEFAF5
:10071300EFFB120CBEEE242CF582EF3400F583E0E0
:10072300FC7D00EE2402FAEF3400FB1216B7EE2430
:100733002CF582EF3400F583E0FC7D00EE2406FA0D
:10074300EF3400FB1216B7EE242CF582EF3400F5DC
:1007530083E0FC7D00EE240AFAEF3400FB1216D787
:10076300EE242CF582EF3400F583E0FC7D00EE24CB
:100773000EFAEF3400FB1216D774026508706F7C13
:100783002B7D0FEEFAEFFB120CBEEE242BF582EF5E
:100793003400F583E0FC7D00EE2402FAEF3400FB25
:1007A3001216B7EE242BF582EF3400F583E0FC7DBF
:1007B30000EE2406FAEF3400FB1216B7EE242BF5F5
:1007C30082EF3400F583E0FC7D00EE240AFAEF3477
:1007D30000FB1216B7EE242BF582EF3400F583E00D
:1007E300FC7D00EE240EFAEF3400FB1216B77404FE
:1007F300650870377C2F7D0FEEFAEFFB120CBEEE0F
:100803002402FAEF3400FB1216F8EE2406FAEF3452
:1008130000FB1216F8EE240AFAEF3400FB1216F866
:10082300EE240EFAEF3400FB1216F8740565087017
:100833006F7C337D0FEEFAEFFB120CBEEE242BF52B
:1008430082EF3400F583E0FC7D00EE2402FAEF34FE
:1008530000FB1216D7EE242BF582EF3400F583E06C
:10086300FC7D00EE2406FAEF3400FB1216D7EE24CB
:100873002BF582EF3400F583E0FC7D00EE240AFAC9
:10088300EF3400FB1216D7EE242BF582EF3400F57C
:1008930083E0FC7D00EE240EFAEF3400FB1216D742
:1008A3007F0102019E74F8120138EAFEEBFF7C011E
:1008B3007900EEFAEFFB120B227C377D0FEEFAEF95
:1008C300FB120CBEEE242BF582EF3400F58374305B
:1008D300F0EE2412FAEF3400FB121638E9604214EA
:1008E300600F14606C24FE607314604D14601A80F2
:1008F30074EE242CF582EF3400F5837440F0790113
:10090300EEFAEFFB120668805CEE242CF582EF34DE
:1009130000F5837430F07901EEFAEFFB120668807C
:1009230044EE242CF582EF3400F5837440F0790013
:10093300EEFAEFFB120668802CEE242CF582EF34DE
:1009430000F5837430F07900EEFAEFFB120668804D
:10095300147902EEFAEFFB12066880097904EEFAC5
:10096300EFFB1206687F0102019E74F8120138EA58
:10097300FEEBFFEE2412FAEF3400FB121623E9C05C
:10098300E0EE241CF582EF3400F583D0E0F0EE2492
:100993001CF582EF3400F583E054076407601A9076
:1009A3000F13E07014EE241EF582EF3400F583E09C
:1009B3002401F0900F137401F0EE241CF582EF3440
:1009C30000F583E0540764077006900F137400F07A
:1009D300EE241CF582EF3400F583E05407640270C3
:1009E3000DEE241EF582EF3400F5837400F07C04D1
:1009F3007900EEFAEFFB120B22EE241EF582EF34A0
:100A030000F583E0F9EEFAEFFB120C3E7F010201E1
:100A13009E74F8120138EAFEEBFF8E828F83ECF0AE
:100A2300A3EDF0EEFAEFFB120A74EEFAEFFB7F018F
:100A330002019E780079008008E82401F8E9340077
:100A4300F9C3EC98ED9950F12274F8120138EAFEDB
:100A5300EBFF8E828F83E02401FCA3E03400FDEEE4
:100A6300FAEFFB1218A6E9F8A2E740E67F010201BC
:100A73009E74F7120138EAFEEBFF75080075090052
:100A830080297C107D27EEFAEFFB120A3679388E27
:100A9300828F83E0FCA3E0FDEEFAEFFB121899E5E9
:100AA300082401F508E5093400F509C3E5089404B1
:100AB300E509940040CCEEFAEFFB120A4C79388E2C
:100AC300828F83E0FCA3E0FDEEFAEFFB121899EEB0
:100AD300FAEFFB120A4C79018E828F83E0FCA3E0CC
:100AE300FDEEFAEFFB121899EEFAEFFB120A4C79BE
:100AF3000C8E828F83E0FCA3E0FDEEFAEFFB12186D
:100B030099EEFAEFFB120A4C79068E828F83E0FC92
:100B1300A3E0FDEEFAEFFB1218997F0202019E7427
:100B2300F6120138EAFEEBFF89098C0AE50A146024
:100B33000B14600D146012146017801D8509088062
:100B43001B74402509F508801374142509F50880E2
:100B53000B74542509F5088003850908D3E5089229
:100B6300E7F508EEFAEFFB120A4CA9088E828F8391
:100B7300E0FCA3E0FDEEFAEFFB1218997F030201FC
:100B83009E74F8120138EAFEEBFF8908EEFAEFFBD8
:100B9300120A4CA9088E828F83E02402FCA3E0345E
:100BA30000FDEEFAEFFB1218997F0102019E74F823
:100BB300120138EAFEEBFF8908EEFAEFFB120A4C4A
:100BC300A9088E828F83E02402FCA3E03400FDEEAB
:100BD300FAEFFB1218997F0102019E74F812013893
:100BE300E9FAEAFBC4540F8C828D83F07408120176
:100BF3002CE0F8A3E0F9740F5A88828983F08C8281
:100C03008D83E0C3940A500A8C828D83E02430F0F4
:100C130080088C828D83E02437F088828983E0C347
:100C2300940A500A88828983E02430F080088882FD
:100C33008983E02437F07F0102019E74F5120138A5
:100C430074FE1200E1EAFEEBFF890885108285112C
:100C53008385820A85830B780A1202957403120135
:100C63002CAC82AD83A908EEFAEFFB120BDE740203
:100C73001200F7740112012CE0F9EEFAEFFB120BEC
:100C830084851082851183E0F9EEFAEFFB120B8461
:100C930074021200F77F0402019E74F8120138EA0D
:100CA300FEEBFF8C828D83800AE0F9EEFAEFFB12F4
:100CB3000B84A3E070F37F0102019E74F8120138E4
:100CC300EAFEEBFF8C828D83800AE0F9EEFAEFFBFC
:100CD300120BB1A3E070F37F0102019E74F31201C2
:100CE300388A0C8B0D89088C09740D12012CE0FED7
:100CF300A3E0FF85080A750B00AA0AAB0B1219744F
:100D0300900F0FEAF0A3EBF0900F0FE0F8A3E0F9D8
:100D1300900F0BE8F0A3E9F0E508A8087900900F1D
:100D23000FE028F8A3E039F9900F09E8F0A3E9F000
:100D3300900F0FE0F8A3E0F9900F07E8F0A3E9F0B4
:100D4300E508900F03F0E509900F04F0EEFCEFFDCA
:100D5300AA0CAB0D120D63AA0CAB0D7F0602019E0C
:100D630074F71201387598504389204387808C08A3
:100D73008D0978081202A8000006006009B10DC0B1
:100D830012AC0D8025A70D004BA20D00969D0D0002
:100D9300E1980DB60D758DFF801C758DFE8017755E
:100DA3008DFD8012758DFA800D758DF48008758D1B
:100DB300E88003758DFAD28EC2ABD2AFD2ACC299A2
:100DC3007F0202019E8999A29950FCC2992274F86C
:100DD300120138EAFEEBFF8C828D83A882A98380FF
:100DE3000AE0F9EEFAEFFB120DC8A3E070F37F01FE
:100DF30002019EC082C083900F06E0F9D083D082A7
:100E030022C082C083120DF6E964017018900F07A7
:100E1300E0F8A3E0F9900F11E8F0A3E9F0900F06D2
:100E23007400F0800A900F117400F0A37400F09026
:100E33000F067400F0900F11E0FAA3E0FBD083D00B
:100E43008222C082C083900F057400F0900F07E0E8
:100E5300F8A3E0F9900F0BE8F0A3E9F0D083D08278
:100E630022C0E074F21201DEC2AFA2984003020F67
:100E730036D2F0A29730F001B3E433FAD2F0A2975E
:100E830030F001B39297900F0BC082C083900F098B
:100E9300E0F8A3E0F9D083D082C3E098A3E09940BF
:100EA30010900F07E0F8A3E0F9900F0BE8F0A3E927
:100EB300F0E599C0E0900F0BE0F8A3E0F58388829A
:100EC300D0E0F0900F0BE02401F8A3E03400F99098
:100ED3000F0BE8F0A3E9F0900F05E0FA7B00900F09
:100EE30004E0F8790024FFF8E934FFF9C3EA98EB4A
:100EF30099A2D265D033500F900F05E02401F090F2
:100F03000F067400F0802C900F04E0F87900C3E41E
:100F130098F8E499F9900F0BE028F8A3E039F990D9
:100F23000F0DE8F0A3E9F0900F057400F0900F06A1
:100F33007401F0E598C298D2AF7F0102023D74F7C5
:100F4300120138EAFEEBFF8006120FEA1213A89093
:100F53000F18E0FAA3E0FBEA4B70297A1A7B0F1211
:100F63000FDA605888828983C3E09EA3E09F5062B2
:100F7300120FEA80EA88828983C3E09EA3E09F5030
:100F830051120FEA120FDA70EC900F181210EE12D2
:100F93000FE4E8FCE9FD7A1A7B0F8003120FEA8A5B
:100FA300828B83120FE4EC687002ED69600E888215
:100FB3008983C3E09EA3E09F40E2801612183D8A16
:100FC300088B09A808A909E8496003020F4C7A00B5
:100FD3007B007F0202019E8A828B83120FE4E84921
:100FE30022E0F8A3E0F922E82402FAE93400FB2224
:100FF30074F4120138EA2402FEEB3400FFC3EA9EC4
:10100300EB9F501DC3EE9404EF940050047E047FC5
:1010130000EEFAEFFB120F418A088B09EA450970CB
:10102300077A007B000210E38A828B83E0FAA3E055
:10103300FBEA2402F8EB3400F98A828B83E0FCA3F9
:10104300E0FDEC24FCF50AED34FFF50BC3E50A9E45
:10105300E50B9F501388828983120FE485088285EC
:101063000983E8F0A3E98043EA2EF50AEB3FF50B89
:10107300850882850983E50AF0A3E50BF088828958
:1010830083E0F50AA3E0F50B1210E8A3A3E50AF049
:10109300A3E50BF0ECC39EFCED9FFD1210E8ECF012
:1010A300A3EDF08A828B83EEF0A3EFF085088285AF
:1010B3000983120FDE6015E82402F8E93400F98889
:1010C300828983E0FCA3E0FDEC4D70047800790095
:1010D300900F18E8F0A3E9F0EA2402FAEB3400FBDE
:1010E3007F0502019E850882850983E0F8A3E0F568
:1010F30083888222C082C0838A828B837405F0D066
:1011030083D08222C082C0838A828B83D2B4D2B539
:10111300AA82AB83121243C2B4AA82AB83121243D4
:10112300C2B5AA82AB83121243D083D08222C0827B
:10113300C0838A828B83C2B4C2B5AA82AB831212E4
:1011430043D2B5AA82AB83121243D2B4AA82AB8331
:10115300121243D083D0822274F81201388A828B10
:1011630083D2B4AA82AB83121243D2B5AA82AB83D1
:10117300121243A2B4E433FEAA82AB83121243C217
:10118300B5AA82AB83121243EEF97F0102019E746A
:10119300F81201388A828B83E9FEEEFFEEA2E09219
:1011A300B4AA82AB83121243D2B5AA82AB831212C2
:1011B30043C2B5AA82AB831212437F0102019E741C
:1011C300F81201388A828B83E9FF7E00750800805C
:1011D30019AA82AB8312115BE9640170010E7407D3
:1011E30065086004EEC333FE0508E508C3940840B0
:1011F300E0EFF9AA82AB83121192EEF97F010201AB
:101203009E74F81201388A828B83E9FF7E00800E78
:101213007901AA82AB83121192EFC333FF0EEEC39F
:1012230094085010EFA2E740E77900AA82AB83123B
:10123300119280E5AA82AB8312115B7F0102019EAA
:10124300C082C0838A828B83E0F8800118E8C3944C
:101253000150F9D083D08222C082C0838A828B83DB
:10126300AA82AB831210F7AA82AB83D083D08222E7
:1012730074F112013874FE1200E1EAFEEBFF8908F3
:10128300741112012CE0F8851082851183ECF0A310
:10129300EDF0E8600914602614605702133AEEFA81
:1012A300EFFB1211078007EEFAEFFB121107A908F3
:1012B300EEFAEFFB121204E9640160EB8079EEFAB7
:1012C300EFFB1211078007EEFAEFFB121107A908D3
:1012D300EEFAEFFB121204E9640160EB85108285DC
:1012E3001183E0F9EEFAEFFB121204E9640160ECFA
:1012F3008045EEFAEFFB1211078007EEFAEFFB12BF
:101303001107A908EEFAEFFB121204E9640160EB7E
:10131300851082851183E0F9EEFAEFFB121204E9DE
:10132300640160EC740112012CE0F9EEFAEFFB1298
:101333001204E9640160ED741212012CE0F50EA3AE
:10134300E0F50F741412012CE0F50CE50CC39402C4
:10135300402E750900E509C3950C503885090A75B7
:101363000B00E50E250AF582E50F350BF583E0F951
:10137300EEFAEFFB121204E9640160E0050980D57F
:10138300850E82850F83E0F9EEFAEFFB121204E972
:10139300640160ECEEFAEFFB12113174021200F7F4
:1013A3007F0802019E74F3120138EA4B70030214A2
:1013B300E2EA24FEFAEB34FFFB8A828B83E0FEA38E
:1013C300E0FFC3EE9404EF940050030214E2900F85
:1013D3001AE0FCA3E0FDEA2402F508EB3400F5096A
:1013E300EC4D600BEAF8EBF9C3E89CE99D501585D9
:1013F3000882850983ECF0A3EDF0900F1A0214869E
:10140300AC82AD83EC2402F50AED3400F50B850ABA
:1014130082F583E0F50CA3E0850C82F583E5824534
:10142300836009C3E58298E5839940D41214E7ECFD
:1014330028F8ED39F9C3EA98EB9950030214E2EA6C
:10144300687002EB6970118C828D83E02EF0A3E04B
:101453003FF0ECFAEDFB8030850A82850B83121492
:10146300EBE849600DEA2EFCEB3FFDC3E89CE99DE8
:10147300406D850882850983E8F0A3E9F0850A8237
:10148300850B83EAF0A3EBF0EA2402F8EB3400F9CE
:10149300E8FCE9FD1214E7E84960448A828B83E0A3
:1014A300FEA3E0FFEA2EFEEB3FFFE86E7002E96F5A
:1014B300702D900F18E4F0A3F088828983E0FEA3D7
:1014C300E0FF8A828B83E02EF0A3E03FF0888289DD
:1014D30083A3A31214EB8C828D83E8F0A3E9F07F3E
:1014E3000602019E8C828D83E0F8A3E0F92274F852
:1014F300120138EAFEEBFFEEFAEFFB12125B8E826B
:101503008F83A3A37498F0EEFAEFFB7F0102019E91
:1015130074F712013874FA1200E1E9FE851082852E
:1015230011837410F0EE600B14601E1460311460AC
:10153300448056851082851183E0C2E1F0851082D4
:10154300851183E0C2E2F08040851082851183E03B
:10155300D2E1F0851082851183E0C2E2F0802A8512
:101563001082851183E0C2E1F0851082851183E04A
:10157300D2E2F08014851082851183E0D2E1F085F8
:101583001082851183E0D2E2F0740112012CECF099
:10159300A3EDF0851082851183E0C0E0740312018E
:1015A3002CD0E0F0740212012CE0C0E074041201AC
:1015B3002CD0E0F0740112012CE0C0E0740512019C
:1015C3002CD0E0F075080378081202997404120114
:1015D3002C8582088583097808120295750800789E
:1015E300081202997C007D008A828B83A3A3E0F911
:1015F30012127374041200F774061200F77F0202CA
:10160300019E74F8120138EAFEEBFF8E828F83A3EA
:10161300AA82AB8312178CEEFAEFFB7F0102019EC5
:10162300C082C0838A828B83A3AA82AB831217AF43
:10163300D083D0822274F8120138EAFEEBFF8E8247
:101643008F83A3AA82AB831217AFE98E828F83F0B5
:101653008E828F83E0A2E55015D2F08E828F83E0D5
:10166300A2E7500AD382F0500575080280188E82D3
:101673008F83E0A2E540037508008E828F83E0A28A
:10168300E74003750801A9087F0102019E74F8125F
:101693000138EAFEEBFF8908EEFAEFFB1214F1E5DD
:1016A300088E828F83A3A3A3E508F0EEFAEFFB7FF6
:1016B3000102019EC082C083E4CCFDEC2400FCED5A
:1016C3003480FD8A828B83A3A3A3E0F9121513D080
:1016D30083D08222C082C083E4CCFD7400C39CFC0F
:1016E30074809DFD8A828B83A3A3A3E0F912151353
:1016F300D083D08222C082C0837C007D808A828B8B
:1017030083A3A3A3E0F9121513D083D08222C0824E
:10171300C0838A828B83AA82AB8312125BAA82ABB9
:1017230083121730AA82AB83D083D0822274F7123C
:10173300013874FE1200E1900F1CC082C083851033
:1017430082851183AC82AD83D083D0827402120070
:10175300C07508027808120299740112012C85825F
:101763000885830978081202957508007808120223
:10177300997C007D00796812127374041200F77467
:10178300021200F77F0202019E74F8120138EAFE8A
:10179300EBFFEEFAEFFB12125B8E828F83A3A3A300
:1017A3007440F0EEFAEFFB7F0102019E74F8120120
:1017B30038EAFEEBFFEEFAEFFB1211078007EEFAB1
:1017C300EFFB1211078E828F83A3A3A3E02401F9F9
:1017D300EEFAEFFB121204E9640160E27901EEFA1A
:1017E300EFFB1211C2E9F508EEFAEFFB121131A972
:1017F300087F0102019EC082C0838A828B837C00A2
:101803007DF8AA82AB83120A14AA82AB83D083D059
:101813008222021818C082C08374D31200E185109B
:1018230082851183AA82AB8312035E8510828511A0
:1018330083AA82AB8312046680F1C082C083900FB7
:1018430016E0F8A3E0F9E84960067A007B008021FE
:10185300900F16744CF0A3740FF0744BC3944C7434
:1018630010940FF9900F4C74FFF0A3E9F07A4C7BBE
:101873000FD083D08222C082C083E98C828D83F013
:10188300D083D08222C082C08379008C828D83E092
:10189300F9D083D08222EEC0E0E9FEF9121879D0A4
:1018A300E0FE22EEC0E07E00121888E9FEF9D0E0E7
:1018B300FE22C0E0C0D0E8C0E0C082C083C2AF90C7
:1018C3000F017400F0A374F9F0900F01E0F8A3E0A6
:1018D300F5838882E0540F900F00F0C289D2AFD015
:1018E30083D082D0E0F8D0D0D0E03274F712013840
:1018F300EAFEEBFF800312196EEEFAEFFB120FF311
:10190300EA4B7016900F14E0F8A3E0F9E84960E69B
:10191300E0F583888212013680DF7F0202019E7424
:10192300F8120138EAFEEBFFEEFAEFFB121711EEA5
:101933002402FAEF3400FB121711EEFAEFFB7F01DA
:1019430002019E74FE1200E1851082851183AA8232
:10195300AB831217F9851082851183AA82AB831298
:10196300181580FE7A017B000219770219670200BD
:06197300260218EE80FEC2
:000071018E
:00000001FF
