:030000000200718A
:100023000208DA020BD7120080B9000302006BE466
:10003300900F00780D79018002F0A3D8FCD9FA90D3
:100043000F0CAA82AB83900083782D79018015E48D
:1000530093A3AC82AD838A828B83F0A3AA82AB8302
:100063008C828D83D8E9D9E7120B61120BD475D03A
:10007300007581BF75100075110F020029790122E7
:100083000420202020004741550044524F00415690
:10009300540053545000415252004C696E6520463F
:1000A3006F6C6C6F7765722053504900251010AF49
:1000B30008F510400215118008F51040021511D201
:1000C300AF22C0D0251010AF08F5105002051180E3
:1000D30008F51050020511D2AFD0D0222510F582B9
:1000E300E43511F583222510C582C0E0E51134FF04
:1000F300C583C0E0E510C3958224F910AF0885835A
:10010300118582108008858311858210D2AFCEF0CD
:10011300A3E520F0A37808E608F0A3DEFAEFF0A346
:10012300E58124FBF8E608F0A3E608F0A30808E657
:1001330008F0A3E608F0A315811581D0E0FED0E016
:10014300F815811581E8C0E0EEC0E02285118385B2
:100153001082E0A3FEE0A3F5207808E0A3F608DF11
:10016300FAE0A3FFE0A3C0E0E0A3C0E0E0A3C0E0A7
:10017300E0A3C0E010AF0885821085831180088555
:100183008210858311D2AFD083D08222C0D02510B4
:10019300C582C0E0E51134FFC583C0E0E510C39517
:1001A3008224F310AF08858311858210800885832C
:1001B30011858210D2AFC8F0A3E9F0A3EAF0A3EB54
:1001C300F0A37908E709F0A3D8FAECF0A3EDF0A3C4
:1001D300EEF0A3EFF0A3D0E0F0A3D0E0F0A3D0E0E3
:1001E300F0A3E520F0A3E5F0F0A3228511838510A9
:1001F30082E0C0E0A3E0F9A3E0FAA3E0FBA3780860
:10020300E0F608A3DFFAE0FCA3E0FDA3E0FEA3E031
:10021300FFA3E0C0E0A3E0C0E0A3E0F5D0A3E0F5D6
:1002230020A3E0A3F5F010AF088583118582108029
:1002330008858311858210D2AFD082D083D0E0F8B5
:10024300D0E03274F81200E9EAFEEBFF7C007DF89F
:10025300EEFAEFFB1205B07901EE2402FAEF340057
:10026300FB120A2B7900EE2404FAEF3400FB120A86
:100273002B7903EE2406FAEF3400FB120A2B7902E2
:10028300EE2408FAEF3400FB120A2BEE240AFAEFED
:100293003400FB1209A6EE240BF582EF3400F5833C
:1002A3007400F0EE240CF582EF3400F5837400F053
:1002B300A37408F0EE240EF582EF3400F583740086
:1002C300F0A37403F0EEFAEFFB7F0102014F020586
:1002D3002474F81200E9EAFEEBFF89087C03790035
:1002E300EEFAEFFB1206BE7C0D7D0FEEFAEFFB126A
:1002F300074D7C037900EEFAEFFB1206BE7401652D
:100303000870737C127D0FEEFAEFFB12074DEE249B
:100313000EF582EF3400F583E0FCA3E0FDEE24024A
:10032300FAEF3400FB120A50EE240EF582EF34008C
:10033300F583E0FCA3E0FDEE2404FAEF3400FB12A6
:100343000A73EE240EF582EF3400F583E0FCA3E09C
:10035300FDEE2406FAEF3400FB120A50EE240EF5EC
:1003630082EF3400F583E0FCA3E0FDEE2408FAEF0E
:100373003400FB120A73E50870737C167D0FEEFAE6
:10038300EFFB12074DEE240EF582EF3400F583E008
:10039300FCA3E0FDEE2402FAEF3400FB120A73EE35
:1003A300240EF582EF3400F583E0FCA3E0FDEE2498
:1003B30004FAEF3400FB120A50EE240EF582EF34F8
:1003C30000F583E0FCA3E0FDEE2406FAEF3400FB26
:1003D300120A73EE240EF582EF3400F583E0FCA3DA
:1003E300E0FDEE2408FAEF3400FB120A50740265B4
:1003F3000870737C1A7D0FEEFAEFFB12074DEE24A3
:100403000CF582EF3400F583E0FCA3E0FDEE24025B
:10041300FAEF3400FB120A50EE240CF582EF34009D
:10042300F583E0FCA3E0FDEE2404FAEF3400FB12B5
:100433000A50EE240CF582EF3400F583E0FCA3E0D0
:10044300FDEE2406FAEF3400FB120A50EE240CF5FD
:1004530082EF3400F583E0FCA3E0FDEE2408FAEF1D
:100463003400FB120A507404650870377C1E7D0F3C
:10047300EEFAEFFB12074DEE2402FAEF3400FB1203
:100483000A97EE2404FAEF3400FB120A97EE2406CF
:10049300FAEF3400FB120A97EE2408FAEF3400FB5C
:1004A300120A977405650870737C227D0FEEFAEFCC
:1004B300FB12074DEE240CF582EF3400F583E0FCCC
:1004C300A3E0FDEE2402FAEF3400FB120A73EE24DC
:1004D3000CF582EF3400F583E0FCA3E0FDEE240489
:1004E300FAEF3400FB120A73EE240CF582EF3400AA
:1004F300F583E0FCA3E0FDEE2406FAEF3400FB12E3
:100503000A73EE240CF582EF3400F583E0FCA3E0DC
:10051300FDEE2408FAEF3400FB120A737F01020197
:100523004F74F81200E9EAFEEBFF7C017900EEFA62
:10053300EFFB1206BE7C267D0FEEFAEFFB12074D92
:10054300EE240CF582EF3400F5837480F0A374027B
:10055300F0EE240AFAEF3400FB1209BEE96024141A
:10056300600514603A8041EE240EF582EF3400F505
:10057300837400F0A37407F07901EEFAEFFB120223
:10058300D48025EE240EF582EF3400F5837400F059
:10059300A37407F07900EEFAEFFB1202D480097915
:1005A30002EEFAEFFB1202D47F0102014F74F8123C
:1005B30000E9EAFEEBFF8E828F83ECF0A3EDF0EE11
:1005C300FAEFFB120610EEFAEFFB7F0102014F7800
:1005D3000079008008E82401F8E93400F9C3EC98B5
:1005E300ED9950F12274F81200E9EAFEEBFF8E82D6
:1005F3008F83E02401FCA3E03400FDEEFAEFFB124D
:100603000B52E9F8A2E740E67F0102014F74F712AB
:1006130000E9EAFEEBFF75080075090080297C10EC
:100623007D27EEFAEFFB1205D279388E828F83E0B5
:10063300FCA3E0FDEEFAEFFB120B45E5082401F500
:1006430008E5093400F509C3E5089404E5099400B5
:1006530040CCEEFAEFFB1205E879388E828F83E007
:10066300FCA3E0FDEEFAEFFB120B45EEFAEFFB12F3
:1006730005E879018E828F83E0FCA3E0FDEEFAEFBB
:10068300FB120B45EEFAEFFB1205E8790C8E828F15
:1006930083E0FCA3E0FDEEFAEFFB120B45EEFAEF6D
:1006A300FB1205E879068E828F83E0FCA3E0FDEE62
:1006B300FAEFFB120B457F0202014F74F61200E9B9
:1006C300EAFEEBFF89098C0AE50A14600B14600D3E
:1006D300146012146017801D850908801B7440255F
:1006E30009F508801374142509F508800B74542543
:1006F30009F5088003850908D3E50892E7F508EEB4
:10070300FAEFFB1205E8A9088E828F83E0FCA3E0D1
:10071300FDEEFAEFFB120B457F0302014F74F81253
:1007230000E9EAFEEBFF8908EEFAEFFB1205E8A900
:10073300088E828F83E02402FCA3E03400FDEEFAEE
:10074300EFFB120B457F0102014F74F81200E9EA37
:10075300FEEBFF8C828D83800AE0F9EEFAEFFB1249
:100763000720A3E070F37F0102014FC082C0838A98
:10077300828B83AA82AB83120B8DD294AA82AB8322
:10078300D083D0822274F81200E98A828B83E9FF36
:10079300ECFEEF606F146003020897C2947940AADD
:1007A30082AB83120B92E97900AA82AB83120B927C
:1007B300E9EEF9AA82AB83120B92E9D294C294793F
:1007C30040AA82AB83120B92E97901AA82AB83120E
:1007D3000B92E97900AA82AB83120B92E9D294C2FD
:1007E300947940AA82AB83120B92E97906AA82AB71
:1007F30083120B92E97900AA82AB83120B92E9D29E
:1008030094020897C2947940AA82AB83120B92E9AF
:100813007900AA82AB83120B92E974FF6EF9E9FEA9
:10082300AA82AB83120B92E9D294C2947940AA8232
:10083300AB83120B92E97901AA82AB83120B92E983
:100843007900AA82AB83120B92E9D294C2947940C5
:10085300AA82AB83120B92E97906AA82AB83120BAD
:1008630092E97900AA82AB83120B92E9D294C294E3
:100873007940AA82AB83120B92E9790AAA82AB83ED
:10088300120B92E974FF6EF9E9FEAA82AB83120B95
:1008930092E9D2947F0102014FC082C0838A828B86
:1008A30083C2947941AA82AB83120B92E97909AA94
:1008B30082AB83120B92E97900AA82AB83120B926B
:1008C300E9F9D294D083D08222C082C083900F01F1
:1008D300E0F9D083D08222C0E074F212018FC2AF5C
:1008E300A298400302099F900F06C082C083900F15
:1008F30008E0F8A3E0F9D083D082C3E098A3E0999D
:100903005010900F04E0F8A3E0F9900F08E8F0A36B
:10091300E9F0E599C0E0900F08E0F8A3E0F58388DB
:1009230082D0E0F0E599900F02F0900F037401F08C
:10093300900F08E02401F8A3E03400F9900F08E8D1
:10094300F0A3E9F01208CCE9FA7B00900F0CE0F871
:10095300790024FFF8E934FFF9C3EA98EB99A2D2AE
:1009630065D0335009900F01E02401F0802C900FE3
:10097300017400F0900F007401F0900F0CE0F8790F
:1009830000C3E498F8E499F9900F08E028F8A3E08D
:1009930039F9900F0AE8F0A3E9F0C298D2AF7F01CA
:1009A3000201EEC082C0838A828B83AA82AB831248
:1009B300076EAA82AB83D083D0822274F81200E937
:1009C30074FF1200AF8A828B837CE07901AA82AB29
:1009D30083120788AA82AB8312089CE9851082855B
:1009E3001183F0851082851183E0A2E55014D2F0C3
:1009F300851082851183E0A2E75007D382F050026D
:100A03007E02851082851183E0A2E540027E008587
:100A13001082851183E0A2E740027E01EEF97401A2
:100A23001200C57F0102014F74F81200E9EAFEEBE0
:100A3300FF8908EEFAEFFB120AAEE5088E828F8378
:100A4300A3E508F0EEFAEFFB7F0102014FC082C07D
:100A53008374FF5CFC740F5DFDEC2400FCED340833
:100A6300FD8A828B83A3E0F9120AC6D083D0822247
:100A7300C082C08374FF5CFC740F5DFD7400C39C73
:100A8300FC74089DFD8A828B83A3E0F9120AC6D009
:100A930083D08222C082C0838A828B83A3E0F97CC5
:100AA300007D08120AC6D083D08222C082C0838A06
:100AB300828B83AA82AB83120B8DAA82AB83D083F2
:100AC300D0822274F81200E974FE1200AFEAFEEB42
:100AD300FF8908D3E50892E3F508E508C454F0F567
:100AE30008851082851183ECF0A3EDF074011200E8
:100AF300DFE04508F0C29674011200DFE0F9EEFA78
:100B0300EFFB120B92E9851082851183E0F9EEFA6F
:100B1300EFFB120B92E9D29674021200C57F010219
:100B2300014FC082C083E98C828D83F0D083D08251
:100B330022C082C08379008C828D83E0F9D083D078
:100B43008222EEC0E0E9FEF9120B25D0E0FE22EE90
:100B5300C0E07E00120B34E9FEF9D0E0FE2274EE11
:100B63001200AF851082851183AA82AB83120BB862
:100B730074021200DFAA82AB8312024674021200CF
:100B8300DFAA82AB831202D180F2C293C291227890
:100B9300088012C292E9C333F9D293A291E433C914
:100BA30049F9C29318E8C394014009E9A2E750E365
:100BB300D29280E122C082C0838A828B837C007DB3
:100BC300F8AA82AB831205B0AA82AB83D083D0820A
:060BD3002202002680FE54
:000071018E
:00000001FF
