:0600000002008902379F97
:10003B00022D45023993120098B90003020083E4A4
:10004B00908FFF781F79018002F0A3D8FCD9FA902A
:10005B00901DAA82AB8390009B78C779018015E431
:10006B0093A3AC82AD838A828B83F0A3AA82AB83EA
:10007B008C828D83D8E9D9E712393E12399075D02D
:10008B00007581BF7510FF75118F02004179012238
:10009B00D26161000000000000C8426553AE3A2AED
:1000AB002A4D4F444520544543484E494349454EFC
:1000BB002A2A005452414D453A002A2A2A2A4D4FEA
:1000CB004445204D414E55454C2A2A2A2A00564973
:1000DB0054313A0020564954323A00202020200057
:1000EB0047004400415647004156440041524700E7
:1000FB004152440041565400535450004152520057
:10010B002A2A2A494E434C494E4F4D455452452AB3
:10011B002A2A002A2A2A2A535549564945204C494E
:10012B00474E452A2A2A2A002A2A2A2A4D4F444575
:10013B0020455649544555522A2A2A2A002A2A2A4A
:10014B002A4D4F444520535549564555522A2A2A84
:10015B002A005C8FA23FE9799EC608CAC608CBC6A7
:10016B0008CCC6C370207996CACBCC7019798ECBCC
:10017B00CC70137986CC700EF9802ACA33CACB3374
:10018B00CBCC33CC331930E7F2CCCBCA3350147011
:10019B0004EA30E00DE4CA3ACACB3BCBCC3CCC50A2
:1001AB000209C3E913C6CC182313C6CB18C6CA1849
:1001BB00C6F9228A088B098C0A8D0B780812020863
:1001CB0020F01430E72B74FFFCFBFA747F8022E4E1
:1001DB00FCFBFA7480801AB48008BC00F2BB00EF01
:1001EB00800F50EBF9E4C39AFAE49BFBE49CFCE42C
:1001FB0099C6CC18C6CB18C6CA18C6F922E4C9C60C
:10020B0008CAC608CBC6D3330308CCC63392F0C397
:10021B00947F402E94184019C9B90704CACBCC223D
:10022B005025C309CA33CACB33CBCC33CC33D9F427
:10023B0022F4600DC9CCC313CB13CBCA13CAD9F6A6
:10024B00CC22E4FCFBFA2214FCFBFA22E6C33318A3
:10025B00461846184622E7C3331947194719472250
:10026B00181818E6084608700AE608C3337005E646
:10027B0033F4220822191919E7094709700AE7090B
:10028B00C3337005E733F4220922E6084608C3138B
:10029B004608336002E633F422E7094709C31347E4
:1002AB0009336002E733F42200120295604F120209
:1002BB00A46012E7548066F612026B701112026191
:1002CB00703B090909F4F618F618F618F622120213
:1002DB0080701512025708080860EAE6447FF6188A
:1002EB00768018E4F618F622120257601612026195
:1002FB007012E4F608F608F608E65480F6090909C8
:10030B0018181822EAC0E0EBC0E0ECC0E0EDC0E04A
:10031B00E687F0A4FBACF008E687F0A42CFCE435F0
:10032B00F0FA1809E687F0A42C4B60027401CA3569
:10033B00F0FCE433FB09E687F0D2F7A42CCB35F0C5
:10034B00FC1908E687F0A42BCC35F0FBE433FD0851
:10035B0019E687F0D2E7A42C4ACB35F0CD3400FC5C
:10036B0009E687F0D2E7A42DCC35F0FDE433FA098A
:10037B0018E687F0D2F7A42CCD35F0CA3400FC0870
:10038B00E687F0D2E7D2F7A42ACC35F07A7E20E7C5
:10039B000B0ACB33CBCD33CDCC33CC33CB33501447
:1003AB007004ED30E00ED2F1E4CD3DCDCC3CCC3B36
:1003BB005005DA05C2F1EB547FC63308E63392F0F1
:1003CB00FBE73309E733C39A502D2B70190C0D4CF7
:1003DB004D70151806E608C333700D20F10AA2F014
:1003EB0013F6E418800B4024E4F630F00276801804
:1003FB00F618F618F68024D33B14501074FFA2F0B5
:10040B0013F6187680E418F618F6800FA2F013F6A0
:10041B0018E63303F618ECF618EDF6D0E0FDD0E055
:10042B00FCD0E0FBD0E0FA221202A4604612029547
:10043B00603DE9687008F618F618F618F622748015
:10044B0067F7120467090909748067F7221202958E
:10045B00601D1202A47005191919801A12026B7013
:10046B001F120280C37003E667331919194007186E
:10047B0018182208080874FFF618F618F618F62252
:10048B001202806017120261702192F012025770F3
:10049B0019501720F014080808090909E7F618196C
:1004AB00E7F61819E7F61819E7F62212025760E675
:1004BB00E869701F0808E62480F608E436F618543D
:1004CB007FB47F0CE654806007F6E418F618F6222A
:1004DB00181822E9C6CC08C6CD08C6CE08C6CFC0B0
:1004EB00E0E8C0E0EAC0E0EBC0E009E9F809E7FAB0
:1004FB0009E7FBE6F918E6F8C3EC98ED99EE9AEBF1
:10050B00C2E7F5F0EFC2E795F0500E600CEBCFFBB6
:10051B00EACEFAE9CDF9E8CCF8EAA2E7D2E7FAEBB2
:10052B0033FB13F5F0EEA2E7D2E7FEEF33FFC5F096
:10053B0013A2E730E601B313C5F0C3C0E0C0F07FF0
:10054B0000C39BFB605B9418600C401AD0E023F94E
:10055B00D0E0F80206368AF0E9486003D2F0E4AF47
:10056B00F0FAF9F8803BEB30E40D89F0EA6003D246
:10057B00F0E4AFF0F9CAF8EB30E30D88F0EF60026E
:10058B00D2F0AFF0E4CAC9F8EB54076014FBC3EA2E
:10059B0013FAE913F9E813F8EF135002D2E0FFDB7B
:1005AB00EDD0E0C0E030E739C3E49FFFF5F0EC9805
:1005BB00FC42F0ED99FD42F0EE9AFE42F0D0E0F9EC
:1005CB00D0E0F8E5F0607AE923F9EE20E742D802B3
:1005DB008067C3EF33FFEC33FCED33FDEE33FE806E
:1005EB00EAEC28FCED39FDEE3AFED0E023F9D0E041
:1005FB00F84002801BC3EE13FEED13FDEC13FCEF72
:10060B00135002D2E0FF08B800067F7F74FF802EE4
:10061B00EF3350178CF020F00260100CBC000C0D67
:10062B00BD00080EBE000408E860DFE933E813FFE5
:10063B00EE2313FE4F4D4C8008E95480FFE4FEFD82
:10064B00FCEE33EF33F47004FCFD7E80D0E0FBD086
:10065B00E0FAD0E0F8D0E0CFC618CEC618CDC61859
:10066B00CCC6F922E0F608A3E0F608A3E0F608A34F
:10067B00E0F622E6F008A3E6F008A3E6F008A3E60E
:10068B00F022E0FAA3E0FBA3E0FCA3E0FD22EAF0FA
:10069B00A3EBF0A3ECF0A3EDF022CAC0E0E6F0A3CD
:1006AB0008DAFAD0E0FA22CAC0E0E0A3C582CCC5D2
:1006BB0082C583CDC583F0A3C582CCC582C583CD4E
:1006CB00C583DAE6D0E0CA22B90010BB0008E88A7D
:1006DB00F084F8AAF022E4FBC8FA22EB70227B101C
:1006EB00C833C8C933C9335007C39AC3DBF280067A
:1006FB009A50012ADBEAC833F4C8C933F4C9FA2289
:10070B0075F008E4C833C8C933C933C99AC99B50BB
:10071B0004C92AC93BD5F0ECFBC833F4C8E4C9FAC9
:10072B0022600C08C6C313C618C613C6D5E0F42244
:10073B00251010AF08F510400215118008F5104078
:10074B00021511D2AF22C0D0251010AF08F51050F2
:10075B000205118008F51050020511D2AFD0D0223E
:10076B002510F58210AF08F510400215118008F521
:10077B001040021511D2AF851183222510F582E4AA
:10078B003511F58322E4732510C582C0E0E51134E1
:10079B00FFC583C0E0E510C3958224F910AF08852F
:1007AB0083118582108008858311858210D2AFCE8C
:1007BB00F0A3E520F0A37808E608F0A3DEFAEFF04B
:1007CB00A3E58124FBF8E608F0A3E608F0A30808EC
:1007DB00E608F0A3E608F0A315811581D0E0FED062
:1007EB00E0F815811581E8C0E0EEC0E022851183A9
:1007FB00851082E0A3FEE0A3F5207808E0A3F608BD
:10080B00DFFAE0A3FFE0A3C0E0E0A3C0E0E0A3C0F9
:10081B00E0E0A3C0E010AF0885821085831180084B
:10082B00858210858311D2AFD083D082227404804D
:10083B0006740280027401C0E0F40412076BD0E06E
:10084B001206A522D083D082E9C0E0E493A3C3862D
:10085B00F0C5F095F0F908E493A386F0C5F095F098
:10086B00700BE493A3C3994005E9048002A3E475DC
:10087B00F002A42582F582E5F03583F583D0E0F90B
:10088B00E493A3C0E0E493C0E022D083D082ECC019
:10089B00E0EDC0E0E493A3FCE493A3FDED4C600D0D
:1008AB001208E1EC24FFFCED34FFFD80EFE493A391
:1008BB00FCE493A3FDED4C600D120920EC24FFFC2E
:1008CB00ED34FFFD80EFD0E0FDD0E0FCE493A3C05E
:1008DB00E0E493C0E022C0E0C3E493960874019374
:1008EB009618400FE49366700808740193661870AD
:1008FB00007019A3A3C3E49396087401939618A3ED
:10090B00A3400DD0E0D0E0D0E00208D1A3A3A3A375
:10091B00A3A3D0E022C0E0C0F088F0E49366700897
:10092B000874019366187000A8F0A3A3700BD0F0A5
:10093B00D0E0D0E0D0E00208D1A3A3D0F0D0E022E9
:10094B0074F7120792EAFEEBFF7C007DF8EEFAEFEC
:10095B00FB121F2D750880750925780812083C7C41
:10096B0005790AEE2402FAEF3400FB122B10740205
:10097B001207517900EE2406FAEF3400FB12368E83
:10098B007901EE240AFAEF3400FB12368E7903EE6E
:10099B00240EFAEF3400FB12368E7902EE2412FA93
:1009AB00EF3400FB12368EEE2416FAEF3400FB12F6
:1009BB0035D77901EE241AFAEF3400FB1238987907
:1009CB0000EE241DFAEF3400FB123898EE2420FAC7
:1009DB00EF3400FB12385CEE2422FAEF3400FB12EA
:1009EB0035BFEE2424FAEF3400FB12396BEE2438BA
:1009FB00F582EF3400F5837440F0EE2439F582EF85
:100A0B003400F5837430F0EE2435F582EF3400F5C5
:100A1B00837440F0EE2436F582EF3400F5837430A6
:100A2B00F0EE2432F582EF3400F5837400F0EEFA29
:100A3B00EFFB7F020207F874F5120792EAFEEBFF59
:100A4B0089098C087C007DF8EEFAEFFB121F2D75DF
:100A5B000A80750B25780A12083C7C05790AEE246E
:100A6B0002FAEF3400FB122B1074021207517900BB
:100A7B00EE2406FAEF3400FB12368E7901EE240ACF
:100A8B00FAEF3400FB12368E7903EE240EFAEF34B4
:100A9B0000FB12368E7902EE2412FAEF3400FB12B1
:100AAB00368EEE2416FAEF3400FB1235D77901EEB1
:100ABB00241AFAEF3400FB1238987900EE241DFA51
:100ACB00EF3400FB123898EE2420FAEF3400FB12BF
:100ADB00385CEE2422FAEF3400FB1235BFEE2424EF
:100AEB00FAEF3400FB12396BE509EE2438F582EF8F
:100AFB003400F583E509F0E508EE2439F582EF348F
:100B0B0000F583E508F0E509EE2435F582EF3400B6
:100B1B00F583E509F0E508EE2436F582EF3400F5B0
:100B2B0083E508F0EE2432F582EF3400F583740090
:100B3B00F0EEFAEFFB7F040207F874F1120792EA6A
:100B4B00FEEBFF909012E070169090127401F0EE95
:100B5B00243AF8EF3400F9909013E8F0A3E9F0EEA3
:100B6B002402FAEF3400FB122BEA8A088B09E50802
:100B7B0045097003020C2EEEFAEFFB121F8DEE24CB
:100B8B0002FAEF3400FB122BEA8A828B83E0C0E07F
:100B9B00EE243AF582EF3400F583D0E0F0EE240238
:100BAB00FAEF3400FB122BEA8A828B83A3E0C0E0BE
:100BBB00EE243BF582EF3400F583D0E0F0EE240217
:100BCB00FAEF3400FB122BEA8A828B83A3A3E0C0DB
:100BDB00E0EE243CF582EF3400F583D0E0F0EE2418
:100BEB0002FAEF3400FB122BEA8A828B83A3A3A3B6
:100BFB00E0C0E0EE243DF582EF3400F583D0E0F069
:100C0B00EE2402FAEF3400FB122BEA8A828B83A3C9
:100C1B00A3A3A3E0C0E0EE243EF582EF3400F583FE
:100C2B00D0E0F0909013E0F8A3E0F5838882E02405
:100C3B00BF7003020CD124FD6060147003020CE141
:100C4B0014602714604824FA606C24FD605824FE5D
:100C5B006030146021147003020CFF147003020C3B
:100C6B00F0147003020D0E020D6A7902EEFAEFFB1F
:100C7B001212FC020D6A7904EEFAEFFB1212FC025F
:100C8B000D6A7905EEFAEFFB1212FC020D6A79017F
:100C9B00EEFAEFFB1212FC020D6A7900EEFAEFFB93
:100CAB001212FC020D6AEE2432F582EF3400F5834A
:100CBB007400F0020D6AEE2432F582EF3400F583F6
:100CCB007404F0020D6AEE2432F582EF3400F583E2
:100CDB007401F0020D6AEE2432F582EF3400F583D5
:100CEB007403F0807AEE2432F582EF3400F58374CE
:100CFB0002F0806BEE2432F582EF3400F58374053D
:100D0B00F0805C909013E0F8A3E0F5838882A3E079
:100D1B006431701D909013E0F8A3E0F5838882A3F3
:100D2B00A3E0C0E0EE2436F582EF3400F583D0E08B
:100D3B00F0909013E0F8A3E0F5838882A3E0643091
:100D4B00701D909013E0F8A3E0F5838882A3A3E0D5
:100D5B00C0E0EE2435F582EF3400F583D0E0F0EE01
:100D6B002432F582EF3400F583E064047024909014
:100D7B0013E0F8A3E0F5838882A3A3E0FC90901323
:100D8B00E0F8A3E0F5838882A3E0F9EEFAEFFB121B
:100D9B00113DEE2432F582EF3400F583E0640170EF
:100DAB0007EEFAEFFB12185DEE2432F582EF3400FA
:100DBB00F583E064037007EEFAEFFB121CD3EE240D
:100DCB0032F582EF3400F583E064027007EEFAEF40
:100DDB00FB1219E9EE2432F582EF3400F583E0645F
:100DEB00056003020F277C017900EEFAEFFB12205E
:100DFB00627C2C7D90EEFAEFFB1223707C02790063
:100E0B00EEFAEFFB1220627C407D90EEFAEFFB12C4
:100E1B002370EE243AF582EF3400F583E0F9EEFA15
:100E2B00EFFB1220C4EE243BF582EF3400F583E098
:100E3B00F9EEFAEFFB1220C4EE243CF582EF3400FE
:100E4B00F583E0F9EEFAEFFB1220C4EE243DF582B8
:100E5B00EF3400F583E0F9EEFAEFFB1220C4EE2439
:100E6B003EF582EF3400F583E0F9EEFAEFFB12204A
:100E7B00C47C037900EEFAEFFB122062EE2416FA23
:100E8B00EF3400FB12374EEEFAEFFB1223917C048A
:100E9B007900EEFAEFFB122062EE241AFAEF34001F
:100EAB00FB1238BEEAFCEBFDEEFAEFFB1222D27C12
:100EBB00047906EEFAEFFB122062EE241DFAEF34F2
:100ECB0000FB1238BEEAFCEBFDEEFAEFFB1222D26E
:100EDB007C04790CEEFAEFFB122062EE2420FAEF81
:100EEB003400FB123874EEFAEFFB1222737C047998
:100EFB0010EEFAEFFB122062EE2422FAEF3400FB25
:100F0B0012390A8A088B098C0A8D0B78081208385B
:100F1B00EEFAEFFB1223C97404120751EE2432F5DB
:100F2B0082EF3400F583E06003021138EE2435F5CF
:100F3B0082EF3400F583E0F50CE4F50DF50EF50FBB
:100F4B00780C1201619090DF780812066F780C799B
:100F5B00081202B3780C1201C8E50CEE2438F582A6
:100F6B00EF3400F583E50CF0EE2436F582EF340018
:100F7B00F583E0F50CE4F50DF50EF50F780C120189
:100F8B00619090DF780812066F780C79081202B323
:100F9B00780C1201C8E50CEE2439F582EF3400F51C
:100FAB0083E50CF07C017900EEFAEFFB1220627CFA
:100FBB00477D90EEFAEFFB1223707C027900EEFA7C
:100FCB00EFFB1220627C407D90EEFAEFFB12237058
:100FDB00EE243AF582EF3400F583E0F9EEFAEFFBFD
:100FEB001220C4EE243BF582EF3400F583E0F9EEDA
:100FFB00FAEFFB1220C4EE243CF582EF3400F583AC
:10100B00E0F9EEFAEFFB1220C4EE243DF582EF344B
:10101B0000F583E0F9EEFAEFFB1220C4EE243EF567
:10102B0082EF3400F583E0F9EEFAEFFB1220C47C7B
:10103B0003790AEEFAEFFB122062EE2422FAEF3468
:10104B0000FB12390A8A088B098C0A8D0B7808125F
:10105B000838EEFAEFFB1223C974041207517C0314
:10106B007900EEFAEFFB1220627C047900EEFAEFC6
:10107B00FB1220627C5B7D90EEFAEFFB122370EE8D
:10108B002438F582EF3400F583E0F9EEFAEFFB122A
:10109B0022737C617D90EEFAEFFB122370EE243904
:1010AB00F582EF3400F583E0F9EEFAEFFB122273D1
:1010BB00909013E0F8A3E0F5838882E06446700912
:1010CB007902EEFAEFFB1212FC909013E0F8A3E01A
:1010DB00F5838882E0645370097904EEFAEFFB1212
:1010EB0012FC909013E0F8A3E0F5838882E0645241
:1010FB0070097905EEFAEFFB1212FC909013E0F8F1
:10110B00A3E0F5838882E0644770097901EEFAEF7A
:10111B00FB1212FC909013E0F8A3E0F5838882E0B9
:10112B00644470097900EEFAEFFB1212FC7F08029F
:10113B0007F874F7120792EAFEEBFF89098C08E5B2
:10114B0008C394804051E509C39480404A748125BB
:10115B0008C0E0EE2438F582EF3400F583D0E0F0E0
:10116B0074812509C0E0EE2439F582EF3400F58354
:10117B00D0E0F0EE2439F582EF3400F583E0C39430
:10118B0041400B7901EEFAEFFB1212FC8009790654
:10119B00EEFAEFFB1212FCE508C39480404DE50913
:1011AB00C3947F504674812508C0E0EE2438F58245
:1011BB00EF3400F583D0E0F0E509EE2439F582EF4A
:1011CB003400F583E509F0EE2439F582EF3400F5B0
:1011DB0083E0C39441400B7901EEFAEFFB1212FC52
:1011EB0080097908EEFAEFFB1212FCE508C3947F35
:1011FB00504DE509C394804046E508EE2438F5824E
:10120B00EF3400F583E508F074812509C0E0EE2486
:10121B0039F582EF3400F583D0E0F0EE2439F58216
:10122B00EF3400F583E0C39441400B7900EEFAEF05
:10123B00FB1212FC80097907EEFAEFFB1212FCE5A8
:10124B0008C3947F5049E509C3947F5042E508EEEB
:10125B002438F582EF3400F583E508F0E509EE2438
:10126B0039F582EF3400F583E509F0EE2439F58288
:10127B00EF3400F583E0C39441400B7900EEFAEFB5
:10128B00FB1212FC80097909EEFAEFFB1212FC7CBF
:10129B00017900EEFAEFFB1220627C8D7D90EEFA65
:1012AB00EFFB1223707C047900EEFAEFFB12206245
:1012BB007C5B7D90EEFAEFFB122370EE2438F58207
:1012CB00EF3400F583E0F9EEFAEFFB1222737C6149
:1012DB007D90EEFAEFFB122370EE2439F582EF349A
:1012EB0000F583E0F9EEFAEFFB1222737F0202079F
:1012FB00F874F8120792EAFEEBFF8908EEFAEFFB9F
:10130B001217FF7C037900EEFAEFFB1220627C6868
:10131B007D90EEFAEFFB1223707C037900EEFAEF6F
:10132B00FB1220627401650870677C6D7D90EEFA8C
:10133B00EFFB122370EE2439F582EF3400F583E0D6
:10134B00F9EE2406FAEF3400FB1236B5EE2439F52C
:10135B0082EF3400F583E0F9EE240AFAEF3400FB58
:10136B001236E1EE2439F582EF3400F583E0F9EE25
:10137B00240EFAEF3400FB1236B5EE2439F582EF6A
:10138B003400F583E0F9EE2412FAEF3400FB123649
:10139B00E1E50870677C6F7D90EEFAEFFB1223702E
:1013AB00EE2439F582EF3400F583E0F9EE2406FAEA
:1013BB00EF3400FB1236E1EE2439F582EF3400F501
:1013CB0083E0F9EE240AFAEF3400FB1236B5EE2473
:1013DB0039F582EF3400F583E0F9EE240EFAEF34A1
:1013EB0000FB1236E1EE2439F582EF3400F583E091
:1013FB00F9EE2412FAEF3400FB1236B574066508C9
:10140B0060030214BEEE2439F582EF3400F583E05D
:10141B00F8EE2438F582EF3400F583E0C398502CB6
:10142B00EE2438F582EF3400F583E0C39411401CB1
:10143B00EE2438F582EF3400F583E024F0C0E0EEC3
:10144B002439F582EF3400F583D0E0F07C717D9088
:10145B00EEFAEFFB122370EE2438F582EF3400F531
:10146B0083E0F9EE2406FAEF3400FB1236B5EE24D6
:10147B0039F582EF3400F583E0F9EE240AFAEF3404
:10148B0000FB1236B5EE2438F582EF3400F583E01D
:10149B00F9EE240EFAEF3400FB1236B5EE2439F5D3
:1014AB0082EF3400F583E0F9EE2412FAEF3400FBFF
:1014BB001236B5740765086003021575EE2439F50D
:1014CB0082EF3400F583E0F8EE2438F582EF340038
:1014DB00F583E0C398502CEE2438F582EF3400F5F9
:1014EB0083E0C39411401CEE2438F582EF3400F5F1
:1014FB0083E024F0C0E0EE2439F582EF3400F5836D
:10150B00D0E0F07C757D90EEFAEFFB122370EE24A9
:10151B0039F582EF3400F583E0F9EE2406FAEF3467
:10152B0000FB1236B5EE2438F582EF3400F583E07C
:10153B00F9EE240AFAEF3400FB1236B5EE2439F536
:10154B0082EF3400F583E0F9EE240EFAEF3400FB62
:10155B001236B5EE2438F582EF3400F583E0F9EE60
:10156B002412FAEF3400FB1236B5740865086003D9
:10157B0002162CEE2439F582EF3400F583E0F8EEF9
:10158B002438F582EF3400F583E0C398502CEE2419
:10159B0038F582EF3400F583E0C39411401CEE2440
:1015AB0038F582EF3400F583E024F0C0E0EE243907
:1015BB00F582EF3400F583D0E0F07C797D90EEFA84
:1015CB00EFFB122370EE2438F582EF3400F583E045
:1015DB00F9EE2406FAEF3400FB1236E1EE2439F56E
:1015EB0082EF3400F583E0F9EE240AFAEF3400FBC6
:1015FB001236E1EE2438F582EF3400F583E0F9EE94
:10160B00240EFAEF3400FB1236E1EE2439F582EFAB
:10161B003400F583E0F9EE2412FAEF3400FB1236B6
:10162B00E17409650860030216E3EE2439F582EFD5
:10163B003400F583E0F8EE2438F582EF3400F583BF
:10164B00E0C398502CEE2438F582EF3400F583E09C
:10165B00C39411401CEE2438F582EF3400F583E07F
:10166B0024F0C0E0EE2439F582EF3400F583D0E0AE
:10167B00F07C7D7D90EEFAEFFB122370EE2439F5B2
:10168B0082EF3400F583E0F9EE2406FAEF3400FB29
:10169B001236E1EE2438F582EF3400F583E0F9EEF3
:1016AB00240AFAEF3400FB1236E1EE2439F582EF0F
:1016BB003400F583E0F9EE240EFAEF3400FB12361A
:1016CB00E1EE2438F582EF3400F583E0F9EE2412D5
:1016DB00FAEF3400FB1236E17402650870677C8107
:1016EB007D90EEFAEFFB122370EE2438F582EF3487
:1016FB0000F583E0F9EE2406FAEF3400FB1236B561
:10170B00EE2438F582EF3400F583E0F9EE240AFA83
:10171B00EF3400FB1236B5EE2438F582EF3400F5CA
:10172B0083E0F9EE240EFAEF3400FB1236B5EE240B
:10173B0038F582EF3400F583E0F9EE2412FAEF343A
:10174B0000FB1236B57404650870377C857D90EE0E
:10175B00FAEFFB122370EE2406FAEF3400FB12377C
:10176B000EEE240AFAEF3400FB12370EEE240EFABB
:10177B00EF3400FB12370EEE2412FAEF3400FB129B
:10178B00370E7405650870677C897D90EEFAEFFB68
:10179B00122370EE2438F582EF3400F583E0F9EE76
:1017AB002406FAEF3400FB1236E1EE2438F582EF13
:1017BB003400F583E0F9EE240AFAEF3400FB12361D
:1017CB00E1EE2438F582EF3400F583E0F9EE240ED8
:1017DB00FAEF3400FB1236E1EE2438F582EF3400D9
:1017EB00F583E0F9EE2412FAEF3400FB1236E17FB9
:1017FB00010207F874F8120792EAFEEBFFEE2420C1
:10180B00FAEF3400FB123874E9C0E0EE2437F582AE
:10181B00EF3400F583D0E0F0EE2438F582EF34009E
:10182B00F583E0F8EE2437F582EF3400F583E0C35F
:10183B0098501AEE2437F582EF3400F583E0C0E0C0
:10184B00EE2438F582EF3400F583D0E0F07F01020F
:10185B0007F874F8120792EAFEEBFF7C017900EEB1
:10186B00FAEFFB1220627CA07D90EEFAEFFB1223C5
:10187B00707C027900EEFAEFFB1220627C407D90C7
:10188B00EEFAEFFB122370EE243AF582EF3400F5FB
:10189B0083E0F9EEFAEFFB1220C4EE243BF582EF66
:1018AB003400F583E0F9EEFAEFFB1220C4EE243C92
:1018BB00F582EF3400F583E0F9EEFAEFFB1220C46A
:1018CB00EE243DF582EF3400F583E0F9EEFAEFFB01
:1018DB001220C4EE243EF582EF3400F583E0F9EEDE
:1018EB00FAEFFB1220C47C037900EEFAEFFB122017
:1018FB00627C047900EEFAEFFB1220627C5B7D9038
:10190B00EEFAEFFB122370EE2438F582EF3400F57C
:10191B0083E0F9EEFAEFFB1222737C617D90EEFA15
:10192B00EFFB122370EE2439F582EF3400F583E0E0
:10193B00F9EEFAEFFB122273EE2438F582EF340046
:10194B00F5837428F0EE2416FAEF3400FB1235F110
:10195B00E9604214600F14606C24FE607314604DD8
:10196B0014601A8074EE2439F582EF3400F5837419
:10197B0070F07901EEFAEFFB1212FC805CEE243969
:10198B00F582EF3400F5837430F07901EEFAEFFB5A
:10199B001212FC8044EE2439F582EF3400F5837487
:1019AB0070F07900EEFAEFFB1212FC802CEE24396A
:1019BB00F582EF3400F5837430F07900EEFAEFFB2B
:1019CB001212FC80147902EEFAEFFB1212FC800962
:1019DB007904EEFAEFFB1212FC7F010207F874F7A1
:1019EB00120792EAFEEBFF7C017900EEFAEFFB1295
:1019FB0020627CCA7D90EEFAEFFB1223707C027999
:101A0B0000EEFAEFFB1220627C407D90EEFAEFFBCA
:101A1B00122370EE243AF582EF3400F583E0F9EEF1
:101A2B00FAEFFB1220C4EE243BF582EF3400F58372
:101A3B00E0F9EEFAEFFB1220C4EE243CF582EF3412
:101A4B0000F583E0F9EEFAEFFB1220C4EE243DF52E
:101A5B0082EF3400F583E0F9EEFAEFFB1220C4EECF
:101A6B00243EF582EF3400F583E0F9EEFAEFFB123A
:101A7B0020C47C037900EEFAEFFB1220627C047920
:101A8B0000EEFAEFFB1220627C5B7D90EEFAEFFB2F
:101A9B00122370EE2438F582EF3400F583E0F9EE73
:101AAB00FAEFFB1222737C617D90EEFAEFFB1223AF
:101ABB0070EE2439F582EF3400F583E0F9EEFAEF9E
:101ACB00FB122273EE2438F582EF3400F583743069
:101ADB00F0EE2439F582EF3400F583747FF0EE24B9
:101AEB001DFAEF3400FB1238BE8A088B09C3E508D8
:101AFB009400E5099403400DEE2434F582EF340095
:101B0B00F5837402F0EE241AFAEF3400FB1238BEA0
:101B1B008A088B09C3E5089400E5099403400DEE90
:101B2B002434F582EF3400F5837402F0EE241DFAB1
:101B3B00EF3400FB1238BE8A088B09C3E50894000A
:101B4B00E5099407400DEE2434F582EF3400F5835C
:101B5B007400F0EE241AFAEF3400FB1238BE8A0838
:101B6B008B09C3E5089400E5099407400DEE243476
:101B7B00F582EF3400F5837401F0EE241DFAEF3497
:101B8B0000FB1238BE8A088B09C3E5089400E509EF
:101B9B00940A400DEE2434F582EF3400F58374047F
:101BAB00F0EE241AFAEF3400FB1238BE8A088B09C8
:101BBB00C3E5089400E509940A400DEE2434F58240
:101BCB00EF3400F5837404F0EE241DFAEF3400FBC0
:101BDB001238BE8A088B09C3E5089400E509940BFB
:101BEB00400DEE2434F582EF3400F5837405F0EEEE
:101BFB00241AFAEF3400FB1238BE8A088B09C3E5AE
:101C0B00089400E509940B400DEE2434F582EF3473
:101C1B0000F5837405F0EE2433F582EF3400F58381
:101C2B00E0606FEE2434F582EF3400F583E064FF5F
:101C3B006060EE2434F582EF3400F583E0640170CC
:101C4B00097901EEFAEFFB1212FCEE2434F582EF68
:101C5B003400F583E070097900EEFAEFFB1212FC09
:101C6B00EE2434F582EF3400F583E06404700979D7
:101C7B0004EEFAEFFB1212FCEE2434F582EF340083
:101C8B00F583E06405702E7905EEFAEFFB1212FC7A
:101C9B008023EE2433F582EF3400F5837404F0EEE9
:101CAB002434F582EF3400F58374FFF07902EEFAF9
:101CBB00EFFB1212FCEE2433F582EF3400F583E0D8
:101CCB0024FFF07F020207F874F7120792EAFEEB8B
:101CDB00FF7C017900EEFAEFFB1220627CB57D9060
:101CEB00EEFAEFFB1223707C027900EEFAEFFB1297
:101CFB0020627C407D90EEFAEFFB122370EE243ACB
:101D0B00F582EF3400F583E0F9EEFAEFFB1220C415
:101D1B00EE243BF582EF3400F583E0F9EEFAEFFBAE
:101D2B001220C4EE243CF582EF3400F583E0F9EE8B
:101D3B00FAEFFB1220C4EE243DF582EF3400F5835D
:101D4B00E0F9EEFAEFFB1220C4EE243EF582EF34FD
:101D5B0000F583E0F9EEFAEFFB1220C47C03790067
:101D6B00EEFAEFFB1220627C047900EEFAEFFB1225
:101D7B0020627C5B7D90EEFAEFFB122370EE243831
:101D8B00F582EF3400F583E0F9EEFAEFFB122273E4
:101D9B007C617D90EEFAEFFB122370EE2439F58215
:101DAB00EF3400F583E0F9EEFAEFFB122273EE2429
:101DBB0038F582EF3400F5837450F0EE2439F58258
:101DCB00EF3400F583747FF0EE241DFAEF3400FB43
:101DDB001238BE8A088B09C3E5089400E509940301
:101DEB00400DEE2434F582EF3400F5837401F0EEF0
:101DFB00241AFAEF3400FB1238BE8A088B09C3E5AC
:101E0B00089400E5099403400DEE2434F582EF3479
:101E1B0000F5837400F0EE241DFAEF3400FB12384A
:101E2B00BE8A088B09C3E5089400E509940B400DA5
:101E3B00EE2434F582EF3400F5837405F0EE241AAA
:101E4B00FAEF3400FB1238BE8A088B09C3E50894FD
:101E5B0000E509940B400DEE2434F582EF3400F5C8
:101E6B00837405F0EE2433F582EF3400F583E060E4
:101E7B0057EE2434F582EF3400F583E064FF6048BD
:101E8B00EE2434F582EF3400F583E06401700979B8
:101E9B0001EEFAEFFB1212FCEE2434F582EF340064
:101EAB00F583E070097900EEFAEFFB1212FCEE24D9
:101EBB0034F582EF3400F583E06405702E7905EE7E
:101ECB00FAEFFB1212FC8023EE2433F582EF340081
:101EDB00F583740FF0EE2434F582EF3400F5837440
:101EEB00FFF07902EEFAEFFB1212FCEE2433F582CF
:101EFB00EF3400F583E024FFF07F020207F874F85B
:101F0B00120792EAFEEBFF8E828F837400F0A374AC
:101F1B00F8F0EEFAEFFB121FB4EEFAEFFB7F0102C3
:101F2B0007F874F8120792EAFEEBFF8E828F83ECB0
:101F3B00F0A3EDF0EEFAEFFB121FB4EEFAEFFB7F1E
:101F4B00010207F8780079008008E82401F8E934E9
:101F5B0000F9C3EC98ED9950F12274F8120792EA4C
:101F6B00FEEBFF8E828F83E02401FCA3E03400FDA7
:101F7B00EEFAEFFB12384DE9F8A2E740E67F0102DB
:101F8B0007F874F8120792EAFEEBFFEEFAEFFB127A
:101F9B001F6579018E828F83E0FCA3E0FDEEFAEFE3
:101FAB00FB1238407F010207F874F7120792EAFE22
:101FBB00EBFF75080075090080297C107D27EEFA70
:101FCB00EFFB121F4F79388E828F83E0FCA3E0FD6D
:101FDB00EEFAEFFB123840E5082401F508E5093469
:101FEB0000F509C3E5089404E509940040CCEEFA2A
:101FFB00EFFB121F6579388E828F83E0FCA3E0FD27
:10200B00EEFAEFFB123840EEFAEFFB121F65790187
:10201B008E828F83E0FCA3E0FDEEFAEFFB123840DB
:10202B00EEFAEFFB121F65790C8E828F83E0FCA317
:10203B00E0FDEEFAEFFB123840EEFAEFFB121F65F4
:10204B0079068E828F83E0FCA3E0FDEEFAEFFB12A4
:10205B0038407F020207F874F6120792EAFEEBFF94
:10206B0089098C0AE50A14600B14600D14601214B4
:10207B006017801D850908801B74402509F50880B1
:10208B001374142509F508800B74542509F5088081
:10209B0003850908D3E50892E7F508EEFAEFFB1282
:1020AB001F65A9088E828F83E0FCA3E0FDEEFAEF9B
:1020BB00FB1238407F030207F874F8120792EAFE0E
:1020CB00EBFF8908EEFAEFFB121F65A9088E828FD2
:1020DB0083E02402FCA3E03400FDEEFAEFFB1238A0
:1020EB00407F010207F874F8120792EAFEEBFF89B2
:1020FB0008EEFAEFFB121F65A9088E828F83E0248E
:10210B0002FCA3E03400FDEEFAEFFB1238407F0136
:10211B000207F874F8120792E9FA7408120786E0BE
:10212B00F8A3E0F9EAFBC4540F8C828D83F0740F93
:10213B005A88828983F08C828D83E0C3940A500A7B
:10214B008C828D83E02430F080088C828D83E02498
:10215B0037F088828983E0C3940A500A8882898386
:10216B00E02430F0800888828983E02437F07F01F7
:10217B000207F874F3120792740D120786E0F8A3A6
:10218B00E0F9E8FAE9FB740F120786E0F8A3E0F92F
:10219B00E8FEE9FF7411120786E0F8A3E0F9880A5C
:1021AB00890B7413120786E0F8A3E0F9880C890DEC
:1021BB008C088D09740C780812072CE5088A828B21
:1021CB0083E508F0ECF8EDF9E4E9F8540F8E828F13
:1021DB0083F0ECC4540F850A82850B83F0EC540F0B
:1021EB00850C82850D83F08A828B83E0C3940A5021
:1021FB000A8A828B83E02430F080088A828B83E00A
:10220B002437F08E828F83E0C3940A500A8E828F1C
:10221B0083E02430F080088E828F83E02437F085B2
:10222B000A82850B83E0C3940A500C850A82850BC6
:10223B0083E02430F0800A850A82850B83E0243703
:10224B00F0850C82850D83E0C3940A500C850C82BB
:10225B00850D83E02430F0800A850C82850D83E0A8
:10226B002437F07F060207F874F512079274FE12FA
:10227B00073BEAFEEBFF8908851082851183858277
:10228B000A85830B780A12083C7403120786AC820A
:10229B00AD83A908EEFAEFFB12211E74021207514F
:1022AB007401120786E0F9EEFAEFFB1220C48510D9
:1022BB0082851183E0F9EEFAEFFB1220C47402124F
:1022CB0007517F040207F874F712079274FC120788
:1022DB003BEAFEEBFF85108285118385820885839F
:1022EB0009780812083C74031207868582088583D7
:1022FB0009780812083C74061207868582088583C4
:10230B0009780812083C74091207868582088583B0
:10231B0009780812083CEEFAEFFB12217E740812C2
:10232B0007517403120786E0F9EEFAEFFB1220C493
:10233B007402120786E0F9EEFAEFFB1220C4740167
:10234B00120786E0F9EEFAEFFB1220C485108285A6
:10235B001183E0F9EEFAEFFB1220C474041207515B
:10236B007F020207F874F8120792EAFEEBFF8C82E9
:10237B008D83800AE0F9EEFAEFFB1220F1A3E070F7
:10238B00F37F010207F874F81207928A828B83E9B4
:10239B00FF7E00800E7930AA82AB831220F1EFC34F
:1023AB0033FF0EEEC394085010EFA2E750E77931DC
:1023BB00AA82AB831220F180E57F010207F874F14A
:1023CB0012079274F212073B851082851183EAF093
:1023DB00A3EBF0741D120786780812066F740212B5
:1023EB0007867400F0A37400F090902012068D7491
:1023FB000A12078612069974061207867400F0A358
:10240B007400F074041207867400F0A37400F07E5D
:10241B00007F0074081207867400F0A37400F08527
:10242B00080C85090D850A0E850B0F780C1201C857
:10243B007406120786E50CF0A3E50DF085080C85F4
:10244B00090D850A0E850B0F780C1201C874081242
:10245B000786E50CF0A3E50DF07408120786E0F58E
:10246B000CA3E0F50DE4F50EF50F780C1201617875
:10247B0008790C120433909024780C12066F7808AC
:10248B00790C1202B3740A120786780812067E744E
:10249B000A12078612068D1201BE7408120786E512
:1024AB0008F0A3E509F074021207867400F0A37418
:1024BB0000F0801E7939851082851183E0FAA3E044
:1024CB00FB1220F17402120786E02401F0A3E03422
:1024DB0000F07402120786C3E09403A3E09400A2F9
:1024EB00D265D03340030226997402120786E0F8B6
:1024FB00A3E0F9E84970477406120786E0F8A3E0F9
:10250B00F97A647B001206D37404120786E8F0A3F1
:10251B00E9F07404120786E0F8A3E0F9E875F064BB
:10252B00A4C8AAF075F000A42AFA75F064E9A42AED
:10253B00F97406120786C3E098F0A3E099F07402D1
:10254B00120786E064017004A3E064007047740610
:10255B00120786E0F8A3E0F97A0A7B001206D3741F
:10256B0004120786E8F0A3E9F07404120786E0F87A
:10257B00A3E0F9E875F00AA4C8AAF075F000A42A44
:10258B00FA75F00AE9A42AF97406120786C3E098D3
:10259B00F0A3E099F07402120786E064027004A3C2
:1025AB00E0640070147406120786E0F8A3E0F97477
:1025BB0004120786E8F0A3E9F07404120786E0F52D
:1025CB0008A3E0F509780812084F000009CF24EEA4
:1025DB00250126142627263A264D266026732686A5
:1025EB0026BF247930851082851183E0FAA3E0FBA6
:1025FB001220F10224CF7931851082851183E0FA04
:10260B00A3E0FB1220F10224CF79328510828511D1
:10261B0083E0FAA3E0FB1220F10224CF793385107B
:10262B0082851183E0FAA3E0FB1220F10224CF791B
:10263B0034851082851183E0FAA3E0FB1220F102AE
:10264B0024CF7935851082851183E0FAA3E0FB1244
:10265B0020F10224CF7936851082851183E0FAA30D
:10266B00E0FB1220F10224CF79378510828511838C
:10267B00E0FAA3E0FB1220F10224CF793885108217
:10268B00851183E0FAA3E0FB1220F10224CF792E0F
:10269B00851082851183E0FAA3E0FB1220F174020E
:1026AB001207867400F0A37400F0801E7939851030
:1026BB0082851183E0FAA3E0FB1220F1740212076A
:1026CB0086E02401F0A3E03400F07402120786C305
:1026DB00E09402A3E09400A2D265D0334003022819
:1026EB00127402120786E0F8A3E0F9E84970197436
:1026FB0008120786E0F8A3E0F97A0A7B001206D3EA
:10270B0088088909AE08AF097402120786E06401D4
:10271B007004A3E0640070227408120786EE75F053
:10272B000AA4CEA8F075F000A428F875F00AEFA45F
:10273B0028FFE0C39EFEA3E09FFF8E088F09780859
:10274B0012084F000009C72667277A278D27A02775
:10275B00B327C627D927EC27FF27B7267930851053
:10276B0082851183E0FAA3E0FB1220F10226C779E0
:10277B0031851082851183E0FAA3E0FB1220F10270
:10278B0026C77932851082851183E0FAA3E0FB120C
:10279B0020F10226C77933851082851183E0FAA3D5
:1027AB00E0FB1220F10226C7793485108285118354
:1027BB00E0FAA3E0FB1220F10226C77935851082DF
:1027CB00851183E0FAA3E0FB1220F10226C77936CC
:1027DB00851082851183E0FAA3E0FB1220F102261B
:1027EB00C77937851082851183E0FAA3E0FB1220AD
:1027FB00F10226C77938851082851183E0FAA3E0B0
:10280B00FB1220F10226C7740E1207517F08020734
:10281B00F8C082C0838A828B83AA82AB8312313148
:10282B00AA82AB83D083D0822274F212079274FEF9
:10283B0012073BEAFEEBFF89097410120786E0F8DA
:10284B007413120786E0F50E851082851183ECF068
:10285B00A3EDF0E8600914602A14607C022949EEAC
:10286B00FAEFFB1231418007EEFAEFFB12314174A4
:10287B00012509F9EEFAEFFB123235E9640160E844
:10288B00022949EEFAEFFB1231418007EEFAEFFB1A
:10289B00123141A909EEFAEFFB123235E9640160FE
:1028AB00EB851082851183E0F9EEFAEFFB123235DE
:1028BB00E9640160ECEEFAEFFB1231418007EEFAAE
:1028CB00EFFB12314174012509F9EEFAEFFB1232DD
:1028DB0035E9640160E88066EEFAEFFB1231418066
:1028EB0007EEFAEFFB123141A909EEFAEFFB1232B8
:1028FB0035E9640160EB851082851183E0F9EEFA0E
:10290B00EFFB123235E9640160EC7401120786E0CB
:10291B00F9EEFAEFFB123235E9640160EDEEFAEFF6
:10292B00FB1231418007EEFAEFFB123141740125A6
:10293B0009F9EEFAEFFB123235E9640160E8E50EB6
:10294B00C39402404F75080080267900EEFAEFFB26
:10295B001231F9E9C0E0E508A808790074111207F3
:10296B0086E028FAA3E0398A82F583D0E0F00508E7
:10297B0085080A750B00850E0C750D00E50C24FF00
:10298B00F8E50D34FFF9C3E50A98E50B99A2D2657A
:10299B00D03340B67901EEFAEFFB1231F9E9C0E022
:1029AB00E50EA80E79007411120786E028F8A3E053
:1029BB0039F9E824FFF582E934FFF583D0E0F0EE36
:1029CB00FAEFFB12316B74021207517F070207F803
:1029DB0074F112079274FE12073BEAFEEBFF8908B3
:1029EB007411120786E0F87412120786E0F50EA335
:1029FB00E0F50F7414120786E0F50C851082851133
:102A0B0083ECF0A3EDF0E860091460261460570224
:102A1B002AB6EEFAEFFB1231418007EEFAEFFB120A
:102A2B003141A908EEFAEFFB123235E9640160EB94
:102A3B008079EEFAEFFB1231418007EEFAEFFB12D1
:102A4B003141A908EEFAEFFB123235E9640160EB74
:102A5B00851082851183E0F9EEFAEFFB123235E92E
:102A6B00640160EC8045EEFAEFFB1231418007EE1A
:102A7B00FAEFFB123141A908EEFAEFFB123235E9FE
:102A8B00640160EB851082851183E0F9EEFAEFFBB0
:102A9B00123235E9640160EC7401120786E0F9EE3D
:102AAB00FAEFFB123235E9640160EDE50CC39402D9
:102ABB00402E750900E509C3950C503885090A7538
:102ACB000B00E50E250AF582E50F350BF583E0F9D2
:102ADB00EEFAEFFB123235E9640160E0050980D5AF
:102AEB00850E82850F83E0F9EEFAEFFB123235E9A2
:102AFB00640160ECEEFAEFFB12316B7402120751BA
:102B0B007F080207F874F31207928A088B09890A67
:102B1B008C0B740D120786E0FEA3E0FFAA08AB092D
:102B2B00121F09850A0C750D00AA0CAB0D12398DFD
:102B3B0090900AEAF0A3EBF0E50AA80A79009090CE
:102B4B000AE028F8A3E039F990900CE8F0A3E9F03B
:102B5B00E50A909006F0E50B909007F090900AE054
:102B6B00F8A3E0F9909010E8F0A3E9F0EEFCEFFD8C
:102B7B00AA08AB09122B8BAA08AB097F060207F830
:102B8B0074F7120792C2AF43892075C050D2DF8C05
:102B9B00088D097808120895000004008025B92BD0
:102BAB00004BBE2B8070C32B00E1C82BCB2B758D3C
:102BBB00FA800D758DFD8008758DFE8003758DFF78
:102BCB00D28EC2ABD2AEC2C0C2C1D2AF7F0202079D
:102BDB00F8C082C083909009E0F9D083D08222C0E4
:102BEB0082C083C2AF122C0DE9600CD2AF90900A59
:102BFB00E0FAA3E0FB8006D2AF7A007B00D083D053
:102C0B00822274F51207927E007F00750800750A08
:102C1B0000750900122BDCE97003022D3B90900A22
:102C2B00E0F8A3E0F990900EE8F0A3E9F0E509A82D
:102C3B0009790090900EE028FAA3E0398A82F58397
:102C4B00E02EFE80180509E509A809790090900E81
:102C5B00E028FAA3E0398A82F583E02EFE85090A83
:102C6B00750B00909007E0F8790024FDF8E934FF2C
:102C7B00F9C3E50A98E50B99A2D265D03340C60596
:102C8B0009E509A809790090900EE028FAA3E0392C
:102C9B008A82F583E0C39441401CE509A8097900B9
:102CAB0090900EE028FAA3E0398A82F583E024C9DC
:102CBB00C454F0FF8018E509A809790090900EE044
:102CCB0028FAA3E0398A82F583E0C454F0FF0509A2
:102CDB00E509A809790090900EE028FAA3E0398A5B
:102CEB0082F583E0C39441401DE509A80979009062
:102CFB00900EE028FAA3E0398A82F583E024C9F527
:102D0B0008EF4208801BE509A809790090900EE0B6
:102D1B0028FAA3E0398A82F583E024D0F508EF4244
:102D2B0008E5086E7005750A018008750A008003B6
:102D3B00750A00A90A7F040207F8C0E0C0D0E8C0FA
:102D4B00E0E9C0E0C082C083C2AFA2C050749090D3
:102D5B0010E0F8A3E0F990900CE0687003A3E06931
:102D6B00701090900AE0F8A3E0F9909010E8F0A3AF
:102D7B00E9F0E5C1C0E0909010E0F8A3E0F583889E
:102D8B0082D0E0F0909010E02401F8A3E03400F939
:102D9B00909010E8F0A3E9F0909007E0F89090087D
:102DAB00E0C398500F909008E02401F090900974C4
:102DBB0000F0800C9090087400F09090097401F072
:102DCB00C2C0D2AFD083D082D0E0F9D0E0F8D0D05F
:102DDB00D0E03274F7120792EAFEEBFF800CEC2482
:102DEB00020A0AED3400FB12328C909019E0FAA320
:102DFB00E0FBEA4B702B7A1B7B908003122E89121F
:102E0B002E7D605388828983C3E09EA3E09F40ECB4
:102E1B00805B88828983C3E09EA3E09F504F122E74
:102E2B0089122E7D70EC909019122F8FE0FCA3E08D
:102E3B00FD7A1B7B90800F88828983C3E09EA3E081
:102E4B009F502A122E898A828B83E0F8A3E0F9EC3B
:102E5B00687002ED6970E01237E48A088B09AC08E0
:102E6B00AD09EC4D6003022DE97A007B007F020275
:102E7B0007F88A828B83E0F8A3E0F9E84922E8247B
:102E8B0002FAE93400FB2274F6120792EA2402FEDE
:102E9B00EB3400FFC3EA9EEB9F40077A007B0002F6
:102EAB002F78C3EE9404EF940050047E047F00EE61
:102EBB00FAEFFB122DDE8A088B09A808A909E8FC9A
:102ECB00E9FDE84960D58C828D83E0FAA3E0FBEA4B
:102EDB002402F8EB3400F98A828B83E024FCF5089A
:102EEB00A3E034FFF509C3E5089EE5099F5013885D
:102EFB00828983E0F8A3E0F98C828D83E8F0A3E963
:102F0B008036EA2EF508EB3FF5098C828D83E508B8
:102F1B00F0A3E509F088828983E0F508A3E0122F7E
:102F2B0089A3A3122F7DE0C39EF508A3E09F122F68
:102F3B0089122F7DEEF0A3EFF08C828D83122E8100
:102F4B006016E824020808E93400F988828983E0D6
:102F5B00FCA3E0FDEC4D700478007900909019E82B
:102F6B00F0A3E9F0EA24020A0AEB3400FB7F030228
:102F7B0007F8E508F0A3E509F08A828B8322F509AF
:102F8B008C828D83E0F8A3E0F583888222C082C017
:102F9B00838A828B83AA82AB8312281CAA82AB837F
:102FAB00122FB7AA82AB83D083D0822274F7120779
:102FBB009274FE12073B90901DC082C083851082D5
:102FCB00851183AC82AD83D083D08274021206B29A
:102FDB00750802780812084074011207868582086A
:102FEB00858309780812083C750800780812084098
:102FFB007C007D0079681229DB740412075174027E
:10300B001207517F020207F874F512079274FB1234
:10301B00073BEAFEEBFF8908908FFFC082C08374E9
:10302B0001120786AC82AD83D083D0827402120664
:10303B00B290901FC082C083851082851183AC82B1
:10304B00AD83D083D08274011206B2E508600B14F5
:10305B00601814602114602A8032851082851183D8
:10306B00E0851082851183F0802285108285118383
:10307B00E0D2E1F08016851082851183E0D2E2F078
:10308B00800A851082851183E04406F0750901786A
:10309B0009120840740112078685820A85830B7812
:1030AB000A12083C75090078091208407C007D0063
:1030BB007968EEFAEFFB1229DB74041207517509DC
:1030CB00027809120840740212078685820A8583EA
:1030DB000B780A12083C75090078091208407C002D
:1030EB007D007968EEFAEFFB122834740412075155
:1030FB007401120786E0540FC0E07404120786D0E7
:10310B00E0F07402120786E0C0E07403120786D069
:10311B00E0F07403120786E0FAA3E0FB74051207D4
:10312B00517F040207F8C082C0838A828B837405A7
:10313B00F0D083D08222C082C0838A828B83D2B4A8
:10314B00D2B5AA82AB83123274C2B4AA82AB8312F9
:10315B003274C2B5AA82AB83123274D083D082226E
:10316B00C082C0838A828B83C2B4C2B5AA82AB836E
:10317B00123274D2B5AA82AB83123274D2B4AA8241
:10318B00AB83123274D083D0822274F81207928AE6
:10319B00828B83D2B4AA82AB83123274D2B5AA8249
:1031AB00AB83123274A2B4E433FEAA82AB83123225
:1031BB0074C2B5AA82AB83123274EEF97F01020797
:1031CB00F874F81207928A828B83E9FEA2E092B41C
:1031DB00AA82AB83123274D2B5AA82AB8312327439
:1031EB00C2B5AA82AB831232747F010207F874F85E
:1031FB001207928A828B83E9FF7E00750800801389
:10320B00AA82AB83123195E9640170010EEEC333D0
:10321B00FE0508E508C3940840E6EFF9AA82AB83E4
:10322B001231CCEEF97F010207F874F81207928A7B
:10323B00828B83E9FF7E00800E7901AA82AB831219
:10324B0031CCEFC333FF0EEEC394085010EFA2E75F
:10325B0040E77900AA82AB831231CC80E5AA82AB1E
:10326B00831231957F010207F8C082C0838A828B5B
:10327B0083E0F8800118E8C3940150F9D083D08221
:10328B002274F3120792EA4B70030233CAEA24FE4C
:10329B001A1AEB34FFFB8A828B83E0FEA3E0FFC399
:1032AB00EE9404EF940050030233CA90901BE0FCA1
:1032BB00A3E0FDEA2402F508EB3400F509EC4D60C0
:1032CB000BEAF8EBF9C3E89CE99D5015850882855C
:1032DB000983ECF0A3EDF090901B02336BAC82AD45
:1032EB0083EC2402F50AED3400F50B850A82F58395
:1032FB00E0F50CA3E0850C82F583E582458360093C
:10330B00C3E58298E5839940D41233CFEC28F8EDCE
:10331B0039F9C3EA98EB9950030233CAEA68700291
:10332B00EB6970118C828D83E02EF0A3E03FF0EC03
:10333B00FAEDFB8030850A82850B831233D3E84983
:10334B00600DEA2EFCEB3FFDC3E89CE99D407085C8
:10335B000882850983E8F0A3E9F0850A82850B834F
:10336B00EAF0A3EBF0EA2402F8EB3400F9E8FCE90D
:10337B00FD1233CFE84960478A828B83E0FEA3E0DE
:10338B00FFEA2EFEEB3FFFE86E7002E96F703090A4
:10339B009019E4F0A3F01233CF88828983E0FEA367
:1033AB00E0FF8A828B83E02EF0A3E03FF0888289D6
:1033BB0083A3A31233D38C828D83E8F0A3E9F07F30
:1033CB00060207F88C828D83E0F8A3E0F92274F8EB
:1033DB00120792EAFEEBFFEEFAEFFB12281C8E822D
:1033EB008F83A3A37498F0EEFAEFFB7F010207F82B
:1033FB0074F712079274FA12073BE9FE8510828567
:10340B0011837410F0EE600B14601E1460311460A5
:10341B00448056851082851183E0C2E1F0851082CD
:10342B00851183E0C2E2F08040851082851183E034
:10343B00D2E1F0851082851183E0C2E2F0802A850B
:10344B001082851183E0C2E1F0851082851183E043
:10345B00D2E2F08014851082851183E0D2E1F085F1
:10346B001082851183E0D2E2F07401120786ECF032
:10347B00A3EDF0851082851183E0C0E07403120781
:10348B0086D0E0F07402120786E0C0E074041207E5
:10349B0086D0E0F07401120786E0C0E074051207D5
:1034AB0086D0E0F075080378081208407404120700
:1034BB0086858208858309780812083C7508007890
:1034CB00081208407C007D008A828B83A3A3E0F95D
:1034DB001229DB740412075174061207517F020282
:1034EB0007F874F7120792EAFEEBFF7C007DF8EE0B
:1034FB00FAEFFB121F2D7508807509257808120845
:10350B003C7C057905EE2402FAEF3400FB122B10FC
:10351B0074021207517944EE2406FAEF3400FB12C1
:10352B003727EE240AFAEF3400FB1233D9EE240DC1
:10353B00FAEF3400FB122F987900EE240FFAEF34D8
:10354B0000FB12368E7901EE2413FAEF3400FB12D6
:10355B00368E7903EE2417FAEF3400FB12368E7990
:10356B0002EE241BFAEF3400FB12368EEE241FFA08
:10357B00EF3400FB1235D77900EE2423FAEF340039
:10358B00FB1238987901EE2426FAEF3400FB12383F
:10359B0098EE2429FAEF3400FB1235BF7C7F797F3C
:1035AB00EE242BFAEF3400FB120A42EEFAEFFB7F0C
:1035BB00020207F8C082C0838A828B83AA82AB8304
:1035CB00122F98AA82AB83D083D08222C082C08371
:1035DB008A828B837944AA82AB83123727AA82AB68
:1035EB0083D083D0822274F812079274FF12073BA8
:1035FB0012374EE9851082851183F0851082851173
:10360B0083E064FE70027E00851082851183E06486
:10361B00C0602C851082851183E064C86021851001
:10362B0082851183E064186016851082851183E012
:10363B00640C600B851082851183E064DC70047E62
:10364B00028034851082851183E0A2E150027E0155
:10365B00851082851183E0A2E250027E06851082DE
:10366B00851183E0A2E550027E00851082851183CF
:10367B00E0A2E450027E05EEF974011207517F01BE
:10368B000207F874F8120792EAFEEBFF8908EEFACC
:10369B00EFFB1233D9E5088E828F83A3A3A3E50832
:1036AB00F0EEFAEFFB7F010207F874F8120792E9CC
:1036BB00FE8E82758300AC82AD83E4CCFDEC2400DE
:1036CB00FCED3480FD8A828B83A3A3A3E0F9123334
:1036DB00FB7F010207F874F8120792E9FE8E8275E0
:1036EB008300AC82AD83E4CCFD7400C39CFC74807E
:1036FB009DFD8A828B83A3A3A3E0F91233FB7F0189
:10370B000207F8C082C0837C007D808A828B83A3F2
:10371B00A3A3E0F91233FBD083D0822274F81207F3
:10372B0092EAFEEBFF8908EEFAEFFB12281CE50884
:10373B008E828F83A3A3A3E508F0EEFAEFFB7F0144
:10374B000207F874F712079274FF12073B75080112
:10375B007808120840740112078685820885830950
:10376B00780812083C75080078081208407C007D28
:10377B00008A828B83A3A3A3E0F91228347404126A
:10378B000751851082851183E0F974011207517F6F
:10379B00020207F8C0E0C0D0E8C0E0C082C083C21C
:1037AB00AF9090017401F09090027401F09090042E
:1037BB007400F0A374F9F0909004E0F8A3E0F583A3
:1037CB008882E0540F909003F0C289D2AFD083D09F
:1037DB0082D0E0F8D0D0D0E032C082C08390901776
:1037EB00E0F8A3E0F9E84960067A007B00802190BD
:1037FB00901774E3F0A37490F074E2C394E37491A4
:10380B009490F99090E374FFF0A3E9F07AE37B9046
:10381B00D083D08222C082C083E98C828D83F0D08A
:10382B0083D08222C082C08379008C828D83E0F9A1
:10383B00D083D08222EEC0E0E9FEF9123820D0E02E
:10384B00FE22EEC0E07E0012382FE9FEF9D0E0FE3A
:10385B0022C082C0838A828B83AA82AB83122F9869
:10386B00AA82AB83D083D0822274F512079279029D
:10387B001230138A0A8B0B850A08850B097405789D
:10388B000812072CE508A9087F040207F874F81240
:10389B000792EAFEEBFF8908EEFAEFFB122F98E591
:1038AB00088E828F83A3A3E508F0EEFAEFFB7F016E
:1038BB000207F8C082C0838A828B83A3A3E0F9122C
:1038CB003013D083D0822274F7120792EAFEEBFFFB
:1038DB00800312398AEEFAEFFB122E928B09A9099B
:1038EB00EA497016909015E0F8A3E0F9E84960E218
:1038FB00E0F583888212079080DB7F020207F87461
:10390B00F112079279031230138A088B09E4F50A36
:10391B00F50B7808120161909028780C12066F78DD
:10392B0008790C1202B3AA08AB09AC0AAD0B7F08DD
:10393B000207F8745712073B743F120786AA82AB33
:10394B00831234ED851082851183AA82AB83120911
:10395B004B851082851183AA82AB83120B4580F1B4
:10396B00C082C0838A828B83AA82AB8312281CAA53
:10397B0082AB83D083D082227A017B0002399302FF
:0A398B0039830238D202003E80FEAC
:0000890176
:00000001FF
