:100000000200510209A7020A04120060B9000302AB
:10001000004BE4900F00780479018002F0A3D8FC33
:10002000D9FA900F03AA82AB83900063781279010A
:100030008015E493A3AC82AD838A828B83F0A3AA5C
:1000400082AB838C828D83D8E9D9E71209E0120A4A
:100050000175D0007581BF75100075110F02000980
:100060007901224A65207465737465206C27656385
:1000700072616E00CAC0E0E6F0A308DAFAD0E0FAD6
:1000800022C3E498F8E499F91200C28026C3E49AE6
:10009000FAE49BFBE920E7E91200C2E498F8E4994E
:1000A000F922C3E498F8E499F91200C2E498F8E45C
:1000B00099F9C3E49AFAE49BFB22EB20E7CFE9200D
:1000C000E7E0B90010BB0008E88AF084F8AAF02243
:1000D000E4FBC8FA22EB70227B10C833C8C933C9CD
:1000E000335007C39AC3DBF280069A50012ADBEA39
:1000F000C833F4C8C933F4C9FA2275F008E4C83328
:10010000C8C933C933C99AC99B5004C92AC93BD548
:10011000F0ECFBC833F4C8E4C9FA22600C08C6C38B
:1001200013C618C613C6D5E0F422251010AF08F583
:1001300010400215118008F51040021511D2AF22AF
:10014000C0D0251010AF08F510500205118008F539
:100150001050020511D2AFD0D0222510F58210AF79
:1001600008F510400215118008F51040021511D253
:10017000AF851183222510F582E43511F583222500
:1001800010C582C0E0E51134FFC583C0E0E510C3AF
:10019000958224F910AF0885831185821080088527
:1001A0008311858210D2AFCEF0A3E520F0A37808AA
:1001B000E608F0A3DEFAEFF0A3E58124FBF8E608F9
:1001C000F0A3E608F0A30808E608F0A3E608F0A309
:1001D00015811581D0E0FED0E0F815811581E8C0C9
:1001E000E0EEC0E022851183851082E0A3FEE0A34B
:1001F000F5207808E0A3F608DFFAE0A3FFE0A3C04B
:10020000E0E0A3C0E0E0A3C0E0E0A3C0E010AF08DE
:100210008582108583118008858210858311D2AF75
:10022000D083D0822274028000C0E0F40412015A0C
:10023000D0E01200742274F812017FEAFEEBFF8E08
:10024000828F83ECF0A3EDF0EEFAEFFB120296EE54
:10025000FAEFFB7F010201E5780079008008E824CD
:1002600001F8E93400F9C3EC98ED9950F12274F8E3
:1002700012017FEAFEEBFF8E828F83E02401FCA354
:10028000E03400FDEEFAEFFB120998E9F8A2E7402E
:10029000E67F010201E574F712017FEAFEEBFF75CC
:1002A000080075090080297C107D27EEFAEFFB120B
:1002B000025879388E828F83E0FCA3E0FDEEFAEFDE
:1002C000FB12098BE5082401F508E5093400F5095E
:1002D000C3E5089404E509940040CCEEFAEFFB1264
:1002E000026E79388E828F83E0FCA3E0FDEEFAEF98
:1002F000FB12098BEEFAEFFB12026E79018E828FF0
:1003000083E0FCA3E0FDEEFAEFFB12098BEEFAEFBF
:10031000FB12026E790C8E828F83E0FCA3E0FDEE6F
:10032000FAEFFB12098BEEFAEFFB12026E79068EE2
:10033000828F83E0FCA3E0FDEEFAEFFB12098B7FD6
:10034000020201E574F612017FEAFEEBFF89098CD7
:100350000AE50A14600B14600D1460121460178013
:100360001D850908801B74402509F5088013741445
:100370002509F508800B74542509F50880038509C3
:1003800008D3E50892E7F508EEFAEFFB12026EA932
:10039000088E828F83E0FCA3E0FDEEFAEFFB1209EA
:1003A0008B7F030201E574F812017FEAFEEBFF89FF
:1003B00008EEFAEFFB12026EA9088E828F83E0240A
:1003C00002FCA3E03400FDEEFAEFFB12098B7F0183
:1003D0000201E574F812017FEAFEEBFF8908EEFAEC
:1003E000EFFB12026EA9088E828F83E02402FCA329
:1003F000E03400FDEEFAEFFB12098B7F010201E50C
:1004000074F812017FE9FAEAFBC4540F8C828D83E1
:10041000F07408120175E0F8A3E0F9740F5A8882AD
:100420008983F08C828D83E0C3940A500A8C828D7C
:1004300083E02430F080088C828D83E02437F088BC
:10044000828983E0C3940A500A88828983E0243039
:10045000F0800888828983E02437F07F010201E57B
:1004600074F712017F7409120175E0F8A3E0F9E84E
:10047000FAE9FB8C088D09740C780812011BE50859
:100480008A828B83E508F0740B120175E0F8A3E013
:10049000F9ECFEEDFFE4EFFE540F88828983F074DF
:1004A0000D120175E0FEA3E0FFECC4540F8E828FA5
:1004B00083F0740F120175E0F508A3E0F509EC5420
:1004C0000F850882850983F08A828B83E0C3940AB2
:1004D000500A8A828B83E02430F080088A828B83E2
:1004E000E02437F088828983E0C3940A500A888226
:1004F0008983E02430F0800888828983E02437F003
:100500008E828F83E0C3940A500A8E828F83E02408
:1005100030F080088E828F83E02437F08508828552
:100520000983E0C3940A500C850882850983E0247E
:1005300030F0800A850882850983E02437F07F0245
:100540000201E574F512017F74FE12012AEAFEEB46
:10055000FF890885108285118385820A85830B783F
:100560000A1202257403120175AC82AD83A908EE4C
:10057000FAEFFB12040074021201407401120175BB
:10058000E0F9EEFAEFFB1203A6851082851183E0F5
:10059000F9EEFAEFFB1203A674021201407F040287
:1005A00001E574F712017F74FC12012AEAFEEBFFE9
:1005B0008510828511838582088583097808120257
:1005C0002574031201758582088583097808120253
:1005D0002574061201758582088583097808120240
:1005E000257409120175858208858309780812022D
:1005F00025EEFAEFFB120460740812014074031236
:100600000175E0F9EEFAEFFB1203A6740212017510
:10061000E0F9EEFAEFFB1203A67401120175E0F99E
:10062000EEFAEFFB1203A6851082851183E0F9EE46
:10063000FAEFFB1203A674041201407F020201E5E7
:1006400074F812017FEAFEEBFF8C828D83800AE052
:10065000F9EEFAEFFB1203D3A3E070F37F0102017E
:10066000E574F812017F8A828B83E9FF7E00800E99
:100670007930AA82AB831203D3EFC333FF0EEEC3EC
:1006800094085010EFA2E750E77931AA82AB8312A9
:1006900003D380E57F010201E574F712017F8A82AE
:1006A0008B83ECFEEDFFC3EE9400EF9400A2D265C5
:1006B000D033400302079D792DAA82AB831203D366
:1006C00074FF6EFE74FF6FFFEEF8EFF97AE87B03BC
:1006D0001200BAE8FCECF87900E875F0E8A4C8AAC2
:1006E000F075F003A42AFA75F0E8E9A42AF9C3EE3C
:1006F00098FEEF99FFEEF8EFF97A647B001200BAEA
:10070000E8F508E508A8087900E875F064A4C8AA27
:10071000F075F000A42AFA75F064E9A42AF9C3EE92
:1007200098FEEF99FFEEF8EFF97A0A7B001200BA13
:10073000E8F509E509A8097900E875F00AA4C8AA4E
:10074000F075F000A42AFA75F00AE9A42AF9C3EEBC
:1007500098FEEF99FFEEF8EFF97A017B001200BAEC
:10076000E8FE74302CFC74302508F5087430250937
:10077000F50974302EFEECF9AA82AB831203A6A908
:1007800008AA82AB831203A6A909AA82AB8312032B
:10079000A6EEF9AA82AB831203A60208787920AAF2
:1007A00082AB831203D3EEF8EFF97AE87B031200F1
:1007B000BAE8FCECF87900E875F0E8A4C8AAF0758E
:1007C000F003A42AFA75F0E8E9A42AF9C3EE98FE2A
:1007D000EF99FFEEF8EFF97A647B001200BAE8F5C2
:1007E00008E508A8087900E875F064A4C8AAF075BF
:1007F000F000A42AFA75F064E9A42AF9C3EE98FE81
:10080000EF99FFEEF8EFF97A0A7B001200BAE8F5EB
:1008100009E509A8097900E875F00AA4C8AAF075E5
:10082000F000A42AFA75F00AE9A42AF9C3EE98FEAA
:10083000EF99FFEEF8EFF97A017B001200BAE8FEBB
:1008400074302CFC74302508F50874302509F5093E
:1008500074302EFEECF9AA82AB831203A6A908AA73
:1008600082AB831203A6A909AA82AB831203A6EE68
:10087000F9AA82AB831203A67F020201E5C082C0FF
:10088000838A828B837C007DF8AA82AB8312023636
:10089000AA82AB83D083D0822202089C74F6120114
:1008A0007F8A828B83750A177508CD7509AB7EDD4B
:1008B0007F047C017900AA82AB831203447954AA95
:1008C00082AB831203D37945AA82AB831203D37917
:1008D00053AA82AB831203D37954AA82AB83120347
:1008E000D37953AA82AB831203D37C017909AA82FC
:1008F000AB83120344EEFCEFFDAA82AB8312069990
:100900007C027900AA82AB83120344A90AAA82ABB3
:10091000831205437C02790AAA82AB83120344AC9A
:1009200008AD09AA82AB831205A27C037900AA82D2
:10093000AB831203447C037D0FAA82AB8312064073
:100940007C047900AA82AB831203447977AA82AB34
:10095000831206617C04790AAA82AB83120344796C
:1009600055AA82AB831206610208B2C082C083E935
:100970008C828D83F0D083D08222C082C0837900A4
:100980008C828D83E0F9D083D08222EEC0E0E9FE34
:10099000F912096BD0E0FE22EEC0E07E0012097A67
:1009A000E9FEF9D0E0FE22C0E0C0D0E8C0E0C0829D
:1009B000C083C2AF900F017400F0A374F9F0900FE0
:1009C00001E0F8A3E0F5838882E0540F900F00F077
:1009D000C289D2AFD083D082D0E0F8D0D0D0E0327C
:1009E00074FE12012A851082851183AA82AB8312BC
:1009F000087D851082851183AA82AB8312089980B5
:060A0000FE02000680FE6C
:00005101AE
:00000001FF
