:06000000020089023787AF
:10003B00022D32023977120098B90003020083E4D3
:10004B00900F00781F79018002F0A3D8FCD9FA90A9
:10005B000F1EAA82AB8390009B78C379018015E4B5
:10006B0093A3AC82AD838A828B83F0A3AA82AB83EA
:10007B008C828D83D8E9D9E712392212397475D065
:10008B00007581BF75100075110F020041790122B7
:10009B00D261610000C8426553AE3A2A2A4D4F44E3
:1000AB004520544543484E494349454E2A2A00545E
:1000BB0052414D453A002A2A2A2A4D4F4445204D9C
:1000CB00414E55454C2A2A2A2A00564954313A00AA
:1000DB0020564954323A002020202000470044008B
:1000EB00415647004156440041524700415244009B
:1000FB004156540053545000415252002A2A2A4967
:10010B004E434C494E4F4D455452452A2A2A002AFC
:10011B002A2A2A535549564945204C49474E452AC8
:10012B002A2A2A002A2A2A2A4D4F44452045564975
:10013B00544555522A2A2A2A002A2A2A2A4D4F4444
:10014B004520535549564555522A2A2A2A005C8F79
:10015B00A23FE9799EC608CAC608CBC608CCC6C35F
:10016B0070207996CACBCC7019798ECBCC70137961
:10017B0086CC700EF9802ACA33CACB33CBCC33CCA6
:10018B00331930E7F2CCCBCA3350147004EA30E0A9
:10019B000DE4CA3ACACB3BCBCC3CCC500209C3E9E9
:1001AB0013C6CC182313C6CB18C6CA18C6F922120D
:1001BB0001FA20F01430E72B74FFFCFBFA747F80FC
:1001CB0022E4FCFBFA7480801AB48008BC00F2BBFA
:1001DB0000EF800F50EBF9E4C39AFAE49BFBE49C2D
:1001EB00FCE499C6CC18C6CB18C6CA18C6F922E4CB
:1001FB00C9C608CAC608CBC6D3330308CCC63392CC
:10020B00F0C3947F402E94184019C9B90704CACB88
:10021B00CC225025C309CA33CACB33CBCC33CC3316
:10022B00D9F422F4600DC9CCC313CB13CBCA13CAB8
:10023B00D9F6CC22E4FCFBFA2214FCFBFA22E6C32F
:10024B003318461846184622E7C33319471947197E
:10025B004722181818E6084608700AE608C33370D8
:10026B0005E633F4220822191919E7094709700A20
:10027B00E709C3337005E733F4220922E608460881
:10028B00C3134608336002E633F422E7094709C378
:10029B00134709336002E733F42200120287604FE1
:1002AB001202966012E7548066F612025D7011120C
:1002BB000253703B090909F4F618F618F618F622E2
:1002CB00120272701512024908080860EAE6447FB0
:1002DB00F618768018E4F618F62212024960161208
:1002EB0002537012E4F608F608F608E65480F60995
:1002FB00090918181822EAC0E0EBC0E0ECC0E0EDE9
:10030B00C0E0E687F0A4FBACF008E687F0A42CFC79
:10031B00E435F0FA1809E687F0A42C4B600274015F
:10032B00CA35F0FCE433FB09E687F0D2F7A42CCBFB
:10033B0035F0FC1908E687F0A42BCC35F0FBE43341
:10034B00FD0819E687F0D2E7A42C4ACB35F0CD3463
:10035B0000FC09E687F0D2E7A42DCC35F0FDE433A1
:10036B00FA0918E687F0D2F7A42CCD35F0CA340081
:10037B00FC08E687F0D2E7D2F7A42ACC35F07A7ED8
:10038B0020E70B0ACB33CBCD33CDCC33CC33CB33B4
:10039B0050147004ED30E00ED2F1E4CD3DCDCC3CE9
:1003AB00CC3B5005DA05C2F1EB547FC63308E6337C
:1003BB0092F0FBE73309E733C39A502D2B70190CDE
:1003CB000D4C4D70151806E608C333700D20F10A5D
:1003DB00A2F013F6E418800B4024E4F630F002761A
:1003EB008018F618F618F68024D33B14501074FFBF
:1003FB00A2F013F6187680E418F618F6800FA2F028
:10040B0013F618E63303F618ECF618EDF6D0E0FD0C
:10041B00D0E0FCD0E0FBD0E0FA221202966046124C
:10042B000287603DE9687008F618F618F618F62290
:10043B00748067F7120459090909748067F722124F
:10044B000287601D1202967005191919801A120283
:10045B005D701F120272C37003E6673319191940DE
:10046B00071818182208080874FFF618F618F6185B
:10047B00F6221202726017120253702192F01202CE
:10048B00497019501720F014080808090909E7F6F4
:10049B001819E7F61819E7F61819E7F622120249A8
:1004AB0060E6E869701F0808E62480F608E436F673
:1004BB0018547FB47F0CE654806007F6E418F618E6
:1004CB00F622181822E9C6CC08C6CD08C6CE08C637
:1004DB00CFC0E0E8C0E0EAC0E0EBC0E009E9F80912
:1004EB00E7FA09E7FBE6F918E6F8C3EC98ED99EEA5
:1004FB009AEBC2E7F5F0EFC2E795F0500E600CEB0C
:10050B00CFFBEACEFAE9CDF9E8CCF8EAA2E7D2E7DD
:10051B00FAEB33FB13F5F0EEA2E7D2E7FEEF33FF76
:10052B00C5F013A2E730E601B313C5F0C3C0E0C0BA
:10053B00F07F00C39BFB605E9418600F401D14603E
:10054B001AD0E023F9D0E0F802062B8AF0E94860D4
:10055B0003D2F0E4AFF0FAF9F8803BEB30E40D890D
:10056B00F0EA6003D2F0E4AFF0F9CAF8EB30E30D38
:10057B0088F0EF6002D2F0AFF0E4CAC9F8EB540791
:10058B006014FBC3EA13FAE913F9E813F8EF1350FD
:10059B0002D2E0FFDBEDD0E0C0E030E739C3E49FEF
:1005AB00FFF5F0EC98FC42F0ED99FD42F0EE9AFE6F
:1005BB0042F0D0E0F9D0E0F8E5F0607AE923F9EE0B
:1005CB0020E742D8028067C3EF33FFEC33FCED33F7
:1005DB00FDEE33FE80EAEC28FCED39FDEE3AFED061
:1005EB00E023F9D0E0F84002801BC3EE13FEED13BD
:1005FB00FDEC13FCEF135002D2E0FF08B800067FAE
:10060B007F74FF802EEF3350178CF020F0026010B8
:10061B000CBC000C0DBD00080EBE000408E860DF2A
:10062B00E933E813FFEE2313FE4F4D4C8008E954DA
:10063B0080FFE4FEFDFCEE33EF33F47004FCFD7E33
:10064B0080D0E0FBD0E0FAD0E0F8D0E0CFC618CEF7
:10065B00C618CDC618CCC6F922E0F608A3E0F608FA
:10066B00A3E0F608A3E0F622E6F008A3E6F008A361
:10067B00E6F008A3E6F022CAC0E0E6F0A308DAFA37
:10068B00D0E0FA22CAC0E0E0A3C582CCC582C58304
:10069B00CDC583F0A3C582CCC582C583CDC583DA16
:1006AB00E6D0E0CA22B90010BB0008E88AF084F853
:1006BB00AAF022E4FBC8FA22EB70227B10C833C8E5
:1006CB00C933C9335007C39AC3DBF280069A500172
:1006DB002ADBEAC833F4C8C933F4C9FA2275F00827
:1006EB00E4C833C8C933C933C99AC99B5004C92A52
:1006FB00C93BD5F0ECFBC833F4C8E4C9FA22600C53
:10070B0008C6C313C618C613C6D5E0F422251010AD
:10071B00AF08F510400215118008F51040021511B5
:10072B00D2AF22C0D0251010AF08F5105002051122
:10073B008008F51050020511D2AFD0D0222510F54C
:10074B008210AF08F510400215118008F510400219
:10075B001511D2AF851183222510F582E43511F5E1
:10076B008322E4732510C582C0E0E51134FFC583F5
:10077B00C0E0E510C3958224F910AF08858311857D
:10078B0082108008858311858210D2AFCEF0A3E54D
:10079B0020F0A37808E608F0A3DEFAEFF0A3E581DA
:1007AB0024FBF8E608F0A3E608F0A30808E608F037
:1007BB00A3E608F0A315811581D0E0FED0E0F81573
:1007CB00811581E8C0E0EEC0E0228511838510829F
:1007DB00E0A3FEE0A3F5207808E0A3F608DFFAE03B
:1007EB00A3FFE0A3C0E0E0A3C0E0E0A3C0E0E0A370
:1007FB00C0E010AF088582108583118008858210B8
:10080B00858311D2AFD083D0822274048006740208
:10081B0080027401C0E0F404120748D0E012068293
:10082B0022D083D082E9C0E0E493A3C386F0C5F065
:10083B0095F0F908E493A386F0C5F095F0700BE4FE
:10084B0093A3C3994005E9048002A3E475F002A4C5
:10085B002582F582E5F03583F583D0E0F9E493A3A7
:10086B00C0E0E493C0E022D083D082ECC0E0EDC0C6
:10087B00E0E493A3FCE493A3FDED4C600D1208BEE2
:10088B00EC24FFFCED34FFFD80EFE493A3FCE49339
:10089B00A3FDED4C600D1208FDEC24FFFCED34FFC5
:1008AB00FD80EFD0E0FDD0E0FCE493A3C0E0E49347
:1008BB00C0E022C0E0C3E4939608740193961840FD
:1008CB000FE4936670080874019366187000701932
:1008DB00A3A3C3E49396087401939618A3A3400DA6
:1008EB00D0E0D0E0D0E00208AEA3A3A3A3A3A3D093
:1008FB00E022C0E0C0F088F0E49366700808740151
:10090B009366187000A8F0A3A3700BD0F0D0E0D0C2
:10091B00E0D0E00208AEA3A3D0F0D0E02274F7122F
:10092B00076FEAFEEBFF7C007DF8EEFAEFFB121F80
:10093B000A75088075092578081208197C05790A4B
:10094B00EE2402FAEF3400FB122AFD740212072E7A
:10095B007900EE2406FAEF3400FB1236767901EEBD
:10096B00240AFAEF3400FB1236767903EE240EFAE2
:10097B00EF3400FB1236767902EE2412FAEF3400D4
:10098B00FB123676EE2416FAEF3400FB1235BF79E4
:10099B0001EE241AFAEF3400FB1238807900EE24B2
:1009AB001DFAEF3400FB123880EE2420FAEF3400EE
:1009BB00FB1237CCEE2422FAEF3400FB1235A7EEF4
:1009CB002424FAEF3400FB12394FEE2438F582EF72
:1009DB003400F5837440F0EE2439F582EF3400F5E2
:1009EB00837430F0EE2435F582EF3400F5837440D8
:1009FB00F0EE2436F582EF3400F5837430F0EE24FC
:100A0B0032F582EF3400F5837400F0EEFAEFFB7FE2
:100A1B00020207D574F512076FEAFEEBFF89098C0A
:100A2B00087C007DF8EEFAEFFB121F0A750A807541
:100A3B000B25780A1208197C05790AEE2402FAEFC5
:100A4B003400FB122AFD740212072E7900EE2406E5
:100A5B00FAEF3400FB1236767901EE240AFAEF3402
:100A6B0000FB1236767903EE240EFAEF3400FB12FC
:100A7B0036767902EE2412FAEF3400FB123676EE5C
:100A8B002416FAEF3400FB1235BF7901EE241AFA63
:100A9B00EF3400FB1238807900EE241DFAEF34009E
:100AAB00FB123880EE2420FAEF3400FB1237CCEE29
:100ABB002422FAEF3400FB1235A7EE2424FAEF348C
:100ACB0000FB12394FE509EE2438F582EF3400F5BF
:100ADB0083E509F0E508EE2439F582EF3400F58360
:100AEB00E508F0E509EE2435F582EF3400F583E5F2
:100AFB0009F0E508EE2436F582EF3400F583E508BE
:100B0B00F0EE2432F582EF3400F5837400F0EEFA48
:100B1B00EFFB7F040207D574F112076FEAFEEBFFC0
:100B2B00900F13E07016900F137401F0EE243AF847
:100B3B00EF3400F9900F14E8F0A3E9F0EE2402FA79
:100B4B00EF3400FB122BD78A088B09E50845097097
:100B5B0003020C0BEEFAEFFB121F6AEE2402FAEF04
:100B6B003400FB122BD78A828B83E0C0E0EE243A51
:100B7B00F582EF3400F583D0E0F0EE2402FAEF3487
:100B8B0000FB122BD78A828B83A3E0C0E0EE243BC1
:100B9B00F582EF3400F583D0E0F0EE2402FAEF3467
:100BAB0000FB122BD78A828B83A3A3E0C0E0EE2439
:100BBB003CF582EF3400F583D0E0F0EE2402FAEF3F
:100BCB003400FB122BD78A828B83A3A3A3E0C0E054
:100BDB00EE243DF582EF3400F583D0E0F0EE2402F5
:100BEB00FAEF3400FB122BD78A828B83A3A3A3A328
:100BFB00E0C0E0EE243EF582EF3400F583D0E0F068
:100C0B00900F14E0F8A3E0F5838882E024BF700313
:100C1B00020CAE24FD6060147003020CBE1460273E
:100C2B0014604824FA606C24FD605824FE60301474
:100C3B006021147003020CDC147003020CCD1470D1
:100C4B0003020CEB020D477902EEFAEFFB1212D9FD
:100C5B00020D477904EEFAEFFB1212D9020D477918
:100C6B0005EEFAEFFB1212D9020D477901EEFAEFFE
:100C7B00FB1212D9020D477900EEFAEFFB1212D9D3
:100C8B00020D47EE2432F582EF3400F5837400F049
:100C9B00020D47EE2432F582EF3400F5837404F035
:100CAB00020D47EE2432F582EF3400F5837401F028
:100CBB00020D47EE2432F582EF3400F5837403F016
:100CCB00807AEE2432F582EF3400F5837402F080E3
:100CDB006BEE2432F582EF3400F5837405F0805C03
:100CEB00900F14E0F8A3E0F5838882A3E0643170E1
:100CFB001D900F14E0F8A3E0F5838882A3A3E0C056
:100D0B00E0EE2436F582EF3400F583D0E0F0900F5F
:100D1B0014E0F8A3E0F5838882A3E06430701D90A3
:100D2B000F14E0F8A3E0F5838882A3A3E0C0E0EE04
:100D3B002435F582EF3400F583D0E0F0EE2432F564
:100D4B0082EF3400F583E064047024900F14E0F814
:100D5B00A3E0F5838882A3A3E0FC900F14E0F8A333
:100D6B00E0F5838882A3E0F9EEFAEFFB12111AEE9D
:100D7B002432F582EF3400F583E064017007EEFA5C
:100D8B00EFFB12183AEE2432F582EF3400F583E0D4
:100D9B0064037007EEFAEFFB121CB0EE2432F582FF
:100DAB00EF3400F583E064027007EEFAEFFB1219E3
:100DBB00C6EE2432F582EF3400F583E06405600360
:100DCB00020F047C017900EEFAEFFB12203F7C2925
:100DDB007D0FEEFAEFFB12233B7C027900EEFAEF6C
:100DEB00FB12203F7C3D7D0FEEFAEFFB12233BEE17
:100DFB00243AF582EF3400F583E0F9EEFAEFFB12BB
:100E0B0020A1EE243BF582EF3400F583E0F9EEFAF6
:100E1B00EFFB1220A1EE243CF582EF3400F583E0CA
:100E2B00F9EEFAEFFB1220A1EE243DF582EF340030
:100E3B00F583E0F9EEFAEFFB1220A1EE243EF582EA
:100E4B00EF3400F583E0F9EEFAEFFB1220A17C03FF
:100E5B007900EEFAEFFB12203FEE2416FAEF340086
:100E6B00FB123736EEFAEFFB12235C7C047900EEB3
:100E7B00FAEFFB12203FEE241AFAEF3400FB123884
:100E8B00A6EAFCEBFDEEFAEFFB12229D7C04790641
:100E9B00EEFAEFFB12203FEE241DFAEF3400FB12AB
:100EAB0038A6EAFCEBFDEEFAEFFB12229D7C0479EF
:100EBB000CEEFAEFFB12203FEE2420FAEF3400FB8E
:100ECB001237E4EEFAEFFB12223E7C047910EEFAB5
:100EDB00EFFB12203FEE2422FAEF3400FB1238BA5C
:100EEB008A088B098C0A8D0B7808120815EEFAEF1D
:100EFB00FB122394740412072EEE2432F582EF3486
:100F0B0000F583E06003021115EE2435F582EF3412
:100F1B0000F583E0F50CE4F50DF50EF50F780C12EA
:100F2B00015D900FDC7808120664780C79081202C8
:100F3B00A5780C1201BAE50CEE2438F582EF3400DB
:100F4B00F583E50CF0EE2436F582EF3400F583E003
:100F5B00F50CE4F50DF50EF50F780C12015D900F05
:100F6B00DC7808120664780C79081202A5780C124A
:100F7B0001BAE50CEE2439F582EF3400F583E50C6C
:100F8B00F07C017900EEFAEFFB12203F7C447D0FE1
:100F9B00EEFAEFFB12233B7C027900EEFAEFFB1229
:100FAB00203F7C3D7D0FEEFAEFFB12233BEE243A04
:100FBB00F582EF3400F583E0F9EEFAEFFB1220A196
:100FCB00EE243BF582EF3400F583E0F9EEFAEFFB0C
:100FDB001220A1EE243CF582EF3400F583E0F9EE0C
:100FEB00FAEFFB1220A1EE243DF582EF3400F583DE
:100FFB00E0F9EEFAEFFB1220A1EE243EF582EF347E
:10100B0000F583E0F9EEFAEFFB1220A17C03790ADD
:10101B00EEFAEFFB12203FEE2422FAEF3400FB1224
:10102B0038BA8A088B098C0A8D0B7808120815EED2
:10103B00FAEFFB122394740412072E7C037900EE53
:10104B00FAEFFB12203F7C047900EEFAEFFB122043
:10105B003F7C587D0FEEFAEFFB12233BEE2438F565
:10106B0082EF3400F583E0F9EEFAEFFB12223E7CBF
:10107B005E7D0FEEFAEFFB12233BEE2439F582EF88
:10108B003400F583E0F9EEFAEFFB12223E900F14D9
:10109B00E0F8A3E0F5838882E0644670097902EEFC
:1010AB00FAEFFB1212D9900F14E0F8A3E0F5838846
:1010BB0082E0645370097904EEFAEFFB1212D990B7
:1010CB000F14E0F8A3E0F5838882E064527009798D
:1010DB0005EEFAEFFB1212D9900F14E0F8A3E0F52E
:1010EB00838882E0644770097901EEFAEFFB1212F4
:1010FB00D9900F14E0F8A3E0F5838882E064447084
:10110B00097900EEFAEFFB1212D97F080207D574AA
:10111B00F712076FEAFEEBFF89098C08E508C39409
:10112B00804051E509C39480404A74812508C0E092
:10113B00EE2438F582EF3400F583D0E0F07481258E
:10114B0009C0E0EE2439F582EF3400F583D0E0F0EE
:10115B00EE2439F582EF3400F583E0C39441400B64
:10116B007901EEFAEFFB1212D980097906EEFAEF4C
:10117B00FB1212D9E508C39480404DE509C3947F57
:10118B00504674812508C0E0EE2438F582EF340018
:10119B00F583D0E0F0E509EE2439F582EF3400F564
:1011AB0083E509F0EE2439F582EF3400F583E0C3D3
:1011BB009441400B7901EEFAEFFB1212D9800979B9
:1011CB0008EEFAEFFB1212D9E508C3947F504DE5F8
:1011DB0009C394804046E508EE2438F582EF3400CD
:1011EB00F583E508F074812509C0E0EE2439F5821A
:1011FB00EF3400F583D0E0F0EE2439F582EF3400C4
:10120B00F583E0C39441400B7900EEFAEFFB121229
:10121B00D980097907EEFAEFFB1212D9E508C394CE
:10122B007F5049E509C3947F5042E508EE2438F519
:10123B0082EF3400F583E508F0E509EE2439F582F9
:10124B00EF3400F583E509F0EE2439F582EF340035
:10125B00F583E0C39441400B7900EEFAEFFB1212D9
:10126B00D980097909EEFAEFFB1212D97C017900CA
:10127B00EEFAEFFB12203F7C8A7D0FEEFAEFFB12AA
:10128B00233B7C047900EEFAEFFB12203F7C587D68
:10129B000FEEFAEFFB12233BEE2438F582EF34000E
:1012AB00F583E0F9EEFAEFFB12223E7C5E7D0FEE4A
:1012BB00FAEFFB12233BEE2439F582EF3400F58372
:1012CB00E0F9EEFAEFFB12223E7F020207D574F82B
:1012DB0012076FEAFEEBFF8908EEFAEFFB1217DC41
:1012EB007C037900EEFAEFFB12203F7C657D0FEE5D
:1012FB00FAEFFB12233B7C037900EEFAEFFB122093
:10130B003F7401650870677C6A7D0FEEFAEFFB1284
:10131B00233BEE2439F582EF3400F583E0F9EE241C
:10132B0006FAEF3400FB12369DEE2439F582EF34CA
:10133B0000F583E0F9EE240AFAEF3400FB1236C90C
:10134B00EE2439F582EF3400F583E0F9EE240EFA42
:10135B00EF3400FB12369DEE2439F582EF3400F5A5
:10136B0083E0F9EE2412FAEF3400FB1236C9E508DC
:10137B0070677C6C7D0FEEFAEFFB12233BEE24398A
:10138B00F582EF3400F583E0F9EE2406FAEF340032
:10139B00FB1236C9EE2439F582EF3400F583E0F900
:1013AB00EE240AFAEF3400FB12369DEE2439F58257
:1013BB00EF3400F583E0F9EE240EFAEF3400FB1264
:1013CB0036C9EE2439F582EF3400F583E0F9EE24CB
:1013DB0012FAEF3400FB12369D74066508600302A7
:1013EB00149BEE2439F582EF3400F583E0F8EE24FC
:1013FB0038F582EF3400F583E0C398502CEE243897
:10140B00F582EF3400F583E0C39411401CEE2438D1
:10141B00F582EF3400F583E024F0C0E0EE2439F5DB
:10142B0082EF3400F583D0E0F07C6E7D0FEEFAEFA7
:10143B00FB12233BEE2438F582EF3400F583E0F901
:10144B00EE2406FAEF3400FB12369DEE2439F582BA
:10145B00EF3400F583E0F9EE240AFAEF3400FB12C7
:10146B00369DEE2438F582EF3400F583E0F9EE2457
:10147B000EFAEF3400FB12369DEE2439F582EF3471
:10148B0000F583E0F9EE2412FAEF3400FB12369DDF
:10149B00740765086003021552EE2439F582EF34A8
:1014AB0000F583E0F8EE2438F582EF3400F583E0A5
:1014BB00C398502CEE2438F582EF3400F583E0C34B
:1014CB009411401CEE2438F582EF3400F583E024B0
:1014DB00F0C0E0EE2439F582EF3400F583D0E0F074
:1014EB007C727D0FEEFAEFFB12233BEE2439F58273
:1014FB00EF3400F583E0F9EE2406FAEF3400FB122B
:10150B00369DEE2438F582EF3400F583E0F9EE24B6
:10151B000AFAEF3400FB12369DEE2439F582EF34D4
:10152B0000F583E0F9EE240EFAEF3400FB12369D42
:10153B00EE2438F582EF3400F583E0F9EE2412FA4D
:10154B00EF3400FB12369D74086508600302160920
:10155B00EE2439F582EF3400F583E0F8EE2438F50C
:10156B0082EF3400F583E0C398502CEE2438F582DB
:10157B00EF3400F583E0C39411401CEE2438F58260
:10158B00EF3400F583E024F0C0E0EE2439F582EF70
:10159B003400F583D0E0F07C767D0FEEFAEFFB1292
:1015AB00233BEE2438F582EF3400F583E0F9EE248B
:1015BB0006FAEF3400FB1236C9EE2439F582EF340C
:1015CB0000F583E0F9EE240AFAEF3400FB1236C97A
:1015DB00EE2438F582EF3400F583E0F9EE240EFAB1
:1015EB00EF3400FB1236C9EE2439F582EF3400F5E7
:1015FB0083E0F9EE2412FAEF3400FB1236C97409BA
:10160B00650860030216C0EE2439F582EF3400F54D
:10161B0083E0F8EE2438F582EF3400F583E0C398CD
:10162B00502CEE2438F582EF3400F583E0C394118F
:10163B00401CEE2438F582EF3400F583E024F0C033
:10164B00E0EE2439F582EF3400F583D0E0F07C7ABC
:10165B007D0FEEFAEFFB12233BEE2439F582EF34CC
:10166B0000F583E0F9EE2406FAEF3400FB1236C9DD
:10167B00EE2438F582EF3400F583E0F9EE240AFA14
:10168B00EF3400FB1236C9EE2439F582EF3400F546
:10169B0083E0F9EE240EFAEF3400FB1236C9EE2488
:1016AB0038F582EF3400F583E0F9EE2412FAEF34CB
:1016BB0000FB1236C97402650870677C7E7D0FEEE5
:1016CB00FAEFFB12233BEE2438F582EF3400F5835F
:1016DB00E0F9EE2406FAEF3400FB12369DEE2438C7
:1016EB00F582EF3400F583E0F9EE240AFAEF3400CB
:1016FB00FB12369DEE2438F582EF3400F583E0F9CA
:10170B00EE240EFAEF3400FB12369DEE2438F582F0
:10171B00EF3400F583E0F9EE2412FAEF3400FB12FC
:10172B00369D7404650870377C827D0FEEFAEFFBF3
:10173B0012233BEE2406FAEF3400FB1236F6EE24AE
:10174B000AFAEF3400FB1236F6EE240EFAEF3400F1
:10175B00FB1236F6EE2412FAEF3400FB1236F67457
:10176B0005650870677C867D0FEEFAEFFB12233B55
:10177B00EE2438F582EF3400F583E0F9EE2406FA17
:10178B00EF3400FB1236C9EE2438F582EF3400F546
:10179B0083E0F9EE240AFAEF3400FB1236C9EE248B
:1017AB0038F582EF3400F583E0F9EE240EFAEF34CE
:1017BB0000FB1236C9EE2438F582EF3400F583E0D6
:1017CB00F9EE2412FAEF3400FB1236C97F0102073F
:1017DB00D574F812076FEAFEEBFFEE2420FAEF3414
:1017EB0000FB1237E4E9C0E0EE2437F582EF34005A
:1017FB00F583D0E0F0EE2438F582EF3400F583E08A
:10180B00F8EE2437F582EF3400F583E0C398501AD5
:10181B00EE2437F582EF3400F583E0C0E0EE243898
:10182B00F582EF3400F583D0E0F07F010207D57429
:10183B00F812076FEAFEEBFF7C017900EEFAEFFB83
:10184B0012203F7C9D7D0FEEFAEFFB12233B7C02B7
:10185B007900EEFAEFFB12203F7C3D7D0FEEFAEFA5
:10186B00FB12233BEE243AF582EF3400F583E0F9CB
:10187B00EEFAEFFB1220A1EE243BF582EF3400F5DC
:10188B0083E0F9EEFAEFFB1220A1EE243CF582EF98
:10189B003400F583E0F9EEFAEFFB1220A1EE243DC4
:1018AB00F582EF3400F583E0F9EEFAEFFB1220A19D
:1018BB00EE243EF582EF3400F583E0F9EEFAEFFB10
:1018CB001220A17C037900EEFAEFFB12203F7C047F
:1018DB007900EEFAEFFB12203F7C587D0FEEFAEF0A
:1018EB00FB12233BEE2438F582EF3400F583E0F94D
:1018FB00EEFAEFFB12223E7C5E7D0FEEFAEFFB124F
:10190B00233BEE2439F582EF3400F583E0F9EEFA50
:10191B00EFFB12223EEE2438F582EF3400F5837490
:10192B0028F0EE2416FAEF3400FB1235D9E96042A9
:10193B0014600F14606C24FE607314604D14601AF5
:10194B008074EE2439F582EF3400F5837470F079EE
:10195B0001EEFAEFFB1212D9805CEE2439F582EF1F
:10196B003400F5837430F07901EEFAEFFB1212D9E3
:10197B008044EE2439F582EF3400F5837470F079EE
:10198B0000EEFAEFFB1212D9802CEE2439F582EF20
:10199B003400F5837430F07900EEFAEFFB1212D9B4
:1019AB0080147902EEFAEFFB1212D980097904EE5A
:1019BB00FAEFFB1212D97F010207D574F712076FEA
:1019CB00EAFEEBFF7C017900EEFAEFFB12203F7C85
:1019DB00C77D0FEEFAEFFB12233B7C027900EEFA88
:1019EB00EFFB12203F7C3D7D0FEEFAEFFB12233B0A
:1019FB00EE243AF582EF3400F583E0F9EEFAEFFBD3
:101A0B001220A1EE243BF582EF3400F583E0F9EED2
:101A1B00FAEFFB1220A1EE243CF582EF3400F583A4
:101A2B00E0F9EEFAEFFB1220A1EE243DF582EF3444
:101A3B0000F583E0F9EEFAEFFB1220A1EE243EF560
:101A4B0082EF3400F583E0F9EEFAEFFB1220A17C74
:101A5B00037900EEFAEFFB12203F7C047900EEFADB
:101A6B00EFFB12203F7C587D0FEEFAEFFB12233B6E
:101A7B00EE2438F582EF3400F583E0F9EEFAEFFB54
:101A8B0012223E7C5E7D0FEEFAEFFB12233BEE241F
:101A9B0039F582EF3400F583E0F9EEFAEFFB122211
:101AAB003EEE2438F582EF3400F5837430F0EE24EB
:101ABB0039F582EF3400F583747FF0EE241DFAEFD5
:101ACB003400FB1238A68A088B09C3E5089400E59D
:101ADB00099403400DEE2434F582EF3400F5837442
:101AEB0002F0EE241AFAEF3400FB1238A68A088BA8
:101AFB0009C3E5089400E5099403400DEE2434F581
:101B0B0082EF3400F5837402F0EE241DFAEF3400FB
:101B1B00FB1238A68A088B09C3E5089400E50994E3
:101B2B0007400DEE2434F582EF3400F5837400F09A
:101B3B00EE241AFAEF3400FB1238A68A088B09C37D
:101B4B00E5089400E5099407400DEE2434F582EF87
:101B5B003400F5837401F0EE241DFAEF3400FB1210
:101B6B0038A68A088B09C3E5089400E509940A4056
:101B7B000DEE2434F582EF3400F5837404F0EE247B
:101B8B001AFAEF3400FB1238A68A088B09C3E50852
:101B9B009400E509940A400DEE2434F582EF3400ED
:101BAB00F5837404F0EE241DFAEF3400FB1238A613
:101BBB008A088B09C3E5089400E509940B400DEEE8
:101BCB002434F582EF3400F5837405F0EE241AFA11
:101BDB00EF3400FB1238A68A088B09C3E508940082
:101BEB00E509940B400DEE2434F582EF3400F583B8
:101BFB007405F0EE2433F582EF3400F583E0606F6B
:101C0B00EE2434F582EF3400F583E064FF6060EE80
:101C1B002434F582EF3400F583E064017009790117
:101C2B00EEFAEFFB1212D9EE2434F582EF3400F505
:101C3B0083E070097900EEFAEFFB1212D9EE24342F
:101C4B00F582EF3400F583E0640470097904EEFA51
:101C5B00EFFB1212D9EE2434F582EF3400F583E05A
:101C6B006405702E7905EEFAEFFB1212D98023EE84
:101C7B002433F582EF3400F5837404F0EE2434F54D
:101C8B0082EF3400F58374FFF07902EEFAEFFB126A
:101C9B0012D9EE2433F582EF3400F583E024FFF004
:101CAB007F020207D574F712076FEAFEEBFF7C0188
:101CBB007900EEFAEFFB12203F7CB27D0FEEFAEFCC
:101CCB00FB12233B7C027900EEFAEFFB12203F7CE8
:101CDB003D7D0FEEFAEFFB12233BEE243AF582EF3C
:101CEB003400F583E0F9EEFAEFFB1220A1EE243B72
:101CFB00F582EF3400F583E0F9EEFAEFFB1220A149
:101D0B00EE243CF582EF3400F583E0F9EEFAEFFBBD
:101D1B001220A1EE243DF582EF3400F583E0F9EEBD
:101D2B00FAEFFB1220A1EE243EF582EF3400F5838F
:101D3B00E0F9EEFAEFFB1220A17C037900EEFAEF4B
:101D4B00FB12203F7C047900EEFAEFFB12203F7C64
:101D5B00587D0FEEFAEFFB12233BEE2438F582EFA2
:101D6B003400F583E0F9EEFAEFFB12223E7C5E7D48
:101D7B000FEEFAEFFB12233BEE2439F582EF340022
:101D8B00F583E0F9EEFAEFFB12223EEE2438F582F2
:101D9B00EF3400F5837450F0EE2439F582EF340004
:101DAB00F583747FF0EE241DFAEF3400FB1238A696
:101DBB008A088B09C3E5089400E5099403400DEEEE
:101DCB002434F582EF3400F5837401F0EE241AFA13
:101DDB00EF3400FB1238A68A088B09C3E508940080
:101DEB00E5099403400DEE2434F582EF3400F583BE
:101DFB007400F0EE241DFAEF3400FB1238A68A08AB
:101E0B008B09C3E5089400E509940B400DEE2434CF
:101E1B00F582EF3400F5837405F0EE241AFAEF34F3
:101E2B0000FB1238A68A088B09C3E5089400E50964
:101E3B00940B400DEE2434F582EF3400F5837405DA
:101E4B00F0EE2433F582EF3400F583E06057EE2497
:101E5B0034F582EF3400F583E064FF6048EE243400
:101E6B00F582EF3400F583E0640170097901EEFA35
:101E7B00EFFB1212D9EE2434F582EF3400F583E038
:101E8B0070097900EEFAEFFB1212D9EE2434F582C9
:101E9B00EF3400F583E06405702E7905EEFAEFFB65
:101EAB001212D98023EE2433F582EF3400F58374BC
:101EBB000FF0EE2434F582EF3400F58374FFF079E4
:101ECB0002EEFAEFFB1212D9EE2433F582EF340057
:101EDB00F583E024FFF07F020207D574F812076F39
:101EEB00EAFEEBFF8E828F837400F0A374F8F0EEA2
:101EFB00FAEFFB121F91EEFAEFFB7F010207D5748D
:101F0B00F812076FEAFEEBFF8E828F83ECF0A3EDE6
:101F1B00F0EEFAEFFB121F91EEFAEFFB7F010207D7
:101F2B00D5780079008008E82401F8E93400F9C37A
:101F3B00EC98ED9950F12274F812076FEAFEEBFF63
:101F4B008E828F83E02401FCA3E03400FDEEFAEFD8
:101F5B00FB123871E9F8A2E740E67F010207D5745E
:101F6B00F812076FEAFEEBFFEEFAEFFB121F427956
:101F7B00018E828F83E0FCA3E0FDEEFAEFFB1238BB
:101F8B00647F010207D574F712076FEAFEEBFF754A
:101F9B00080075090080297C107D27EEFAEFFB12F3
:101FAB001F2C79388E828F83E0FCA3E0FDEEFAEFD5
:101FBB00FB123864E5082401F508E5093400F5093E
:101FCB00C3E5089404E509940040CCEEFAEFFB124C
:101FDB001F4279388E828F83E0FCA3E0FDEEFAEF8F
:101FEB00FB123864EEFAEFFB121F4279018E828FDF
:101FFB0083E0FCA3E0FDEEFAEFFB123864EEFAEFA0
:10200B00FB121F42790C8E828F83E0FCA3E0FDEE66
:10201B00FAEFFB123864EEFAEFFB121F4279068ED1
:10202B00828F83E0FCA3E0FDEEFAEFFB1238647FB6
:10203B00020207D574F612076FEAFEEBFF89098CD3
:10204B000AE50A14600B14600D14601214601780FB
:10205B001D850908801B74402509F508801374142D
:10206B002509F508800B74542509F50880038509AB
:10207B0008D3E50892E7F508EEFAEFFB121F42A929
:10208B00088E828F83E0FCA3E0FDEEFAEFFB1238A3
:10209B00647F030207D574F812076FEAFEEBFF8922
:1020AB0008EEFAEFFB121F42A9088E828F83E02401
:1020BB0002FCA3E03400FDEEFAEFFB1238647F0163
:1020CB000207D574F812076FEAFEEBFF8908EEFAE8
:1020DB00EFFB121F42A9088E828F83E02402FCA320
:1020EB00E03400FDEEFAEFFB1238647F010207D5F6
:1020FB0074F812076FE9FAEAFBC4540F8C828D83D4
:10210B00F07408120763E0F8A3E0F9740F5A8882A1
:10211B008983F08C828D83E0C3940A500A8C828D64
:10212B0083E02430F080088C828D83E02437F088A4
:10213B00828983E0C3940A500A88828983E0243021
:10214B00F0800888828983E02437F07F010207D56D
:10215B0074F712076F7409120763E0F8A3E0F9E84C
:10216B00FAE9FB8C088D09740C7808120709E5084D
:10217B008A828B83E508F0740B120763E0F8A3E007
:10218B00F9ECFEEDFFE4EFFE540F88828983F074C7
:10219B000D120763E0FEA3E0FFECC4540F8E828F99
:1021AB0083F0740F120763E0F508A3E0F509EC5414
:1021BB000F850882850983F08A828B83E0C3940A9A
:1021CB00500A8A828B83E02430F080088A828B83CA
:1021DB00E02437F088828983E0C3940A500A88820E
:1021EB008983E02430F0800888828983E02437F0EB
:1021FB008E828F83E0C3940A500A8E828F83E024F1
:10220B0030F080088E828F83E02437F0850882853A
:10221B000983E0C3940A500C850882850983E02466
:10222B0030F0800A850882850983E02437F07F022D
:10223B000207D574F512076F74FE120718EAFEEB4E
:10224B00FF890885108285118385820A85830B7827
:10225B000A1208197403120763AC82AD83A908EE46
:10226B00FAEFFB1220FB740212072E7401120763A4
:10227B00E0F9EEFAEFFB1220A1851082851183E0C5
:10228B00F9EEFAEFFB1220A1740212072E7F040263
:10229B0007D574F712076F74FC120718EAFEEBFFF1
:1022AB008510828511838582088583097808120839
:1022BB00197403120763858208858309780812084D
:1022CB00197406120763858208858309780812083A
:1022DB001974091207638582088583097808120827
:1022EB0019EEFAEFFB12215B740812072E7403121E
:1022FB000763E0F9EEFAEFFB1220A17402120763F9
:10230B00E0F9EEFAEFFB1220A17401120763E0F97A
:10231B00EEFAEFFB1220A1851082851183E0F9EE16
:10232B00FAEFFB1220A1740412072E7F020207D5CD
:10233B0074F812076FEAFEEBFF8C828D83800AE044
:10234B00F9EEFAEFFB1220CEA3E070F37F01020748
:10235B00D574F812076F8A828B83E9FF7E00800E9B
:10236B007930AA82AB831220CEEFC333FF0EEEC3BC
:10237B0094085010EFA2E750E77931AA82AB831291
:10238B0020CE80E57F010207D574F112076F74F23E
:10239B00120718851082851183EAF0A3EBF0740203
:1023AB001207637400F0A37400F07C007D007E00C4
:1023BB007F00740A120763ECF0A3EDF0A3EEF0A319
:1023CB00EFF074061207637400F0A37400F074044A
:1023DB001207637400F0A37400F07E007F00740892
:1023EB001207637400F0A37400F0741D1207637876
:1023FB000812066485080C85090D850A0E850B0FDE
:10240B00780C1201BA7406120763E50CF0A3E50D04
:10241B00F085080C85090D850A0E850B0F780C12BB
:10242B0001BA7408120763E50CF0A3E50DF074080C
:10243B00120763E0F50CA3E0F50DE4F50EF50F784C
:10244B000C12015D7808790C120425900F21780C81
:10245B001206647808790C1202A5740A12076378C5
:10246B0008120673740A1207637808120664780858
:10247B001201BA7408120763E508F0A3E509F074BA
:10248B00021207637400F0A37400F0801E79398583
:10249B001082851183E0FAA3E0FB1220CE740212A6
:1024AB000763E02401F0A3E03400F0740212076329
:1024BB00C3E09403A3E09400A2D265D0334003029F
:1024CB0026727402120763E0F8A3E0F9E84970473B
:1024DB007406120763E0F8A3E0F97A647B00120636
:1024EB00B07404120763E8F0A3E9F07404120763F5
:1024FB00E0F8A3E0F9E875F064A4C8AAF075F00061
:10250B00A42AFA75F064E9A42AF97406120763C3C6
:10251B00E098F0A3E099F07402120763E064017095
:10252B0004A3E0640070477406120763E0F8A3E0AD
:10253B00F97A0A7B001206B07404120763E8F0A361
:10254B00E9F07404120763E0F8A3E0F9E875F00A08
:10255B00A4C8AAF075F000A42AFA75F00AE9A42A17
:10256B00F97406120763C3E098F0A3E099F07402C4
:10257B00120763E064027004A3E064007014740635
:10258B00120763E0F8A3E0F97404120763E8F0A301
:10259B00E9F07404120763E0F508A3E0F509780885
:1025AB0012082C000009A824C725DA25ED250026E2
:1025BB001326262639264C265F269824793085103B
:1025CB0082851183E0FAA3E0FB1220CE0224A879C6
:1025DB0031851082851183E0FAA3E0FB1220CE0235
:1025EB0024A87932851082851183E0FAA3E0FB12CF
:1025FB0020CE0224A87933851082851183E0FAA3BB
:10260B00E0FB1220CE0224A8793485108285118339
:10261B00E0FAA3E0FB1220CE0224A87935851082C4
:10262B00851183E0FAA3E0FB1220CE0224A87936B1
:10263B00851082851183E0FAA3E0FB1220CE0224E1
:10264B00A87937851082851183E0FAA3E0FB12206D
:10265B00CE0224A87938851082851183E0FAA3E095
:10266B00FB1220CE0224A8792E851082851183E0DF
:10267B00FAA3E0FB1220CE74021207637400F0A3DE
:10268B007400F0801E7939851082851183E0FAA3DE
:10269B00E0FB1220CE7402120763E02401F0A3E0EA
:1026AB003400F07402120763C3E09402A3E09400B9
:1026BB00A2D265D03340030227EB7402120763E00A
:1026CB00F8A3E0F9E84970197408120763E0F8A35E
:1026DB00E0F97A0A7B001206B088088909AE08AFC8
:1026EB00097402120763E064017004A3E0640070D4
:1026FB00227408120763EE75F00AA4CEA8F075F0E9
:10270B0000A428F875F00AEFA428FFE0C39EFEA3EF
:10271B00E09FFF8E088F09780812082C000009A093
:10272B002640275327662779278C279F27B227C553
:10273B0027D82790267930851082851183E0FAA35C
:10274B00E0FB1220CE0226A0793185108285118301
:10275B00E0FAA3E0FB1220CE0226A079328510828C
:10276B00851183E0FAA3E0FB1220CE0226A0793379
:10277B00851082851183E0FAA3E0FB1220CE02269E
:10278B00A07934851082851183E0FAA3E0FB122037
:10279B00CE0226A07935851082851183E0FAA3E05D
:1027AB00FB1220CE0226A07936851082851183E09C
:1027BB00FAA3E0FB1220CE0226A079378510828582
:1027CB001183E0FAA3E0FB1220CE0226A079388514
:1027DB001082851183E0FAA3E0FB1220CE0226A023
:1027EB00740E12072E7F080207D5C082C0838A821F
:1027FB008B83AA82AB8312311AAA82AB83D083D08C
:10280B00822274F212076F74FE120718EAFEEBFFB6
:10281B0089097410120763E0F8851082851183EC27
:10282B00F0A3EDF0E8600914602A14607C02291A09
:10283B00EEFAEFFB12312A8007EEFAEFFB12312A88
:10284B0074012509F9EEFAEFFB123221E9640160FC
:10285B00E802291AEEFAEFFB12312A8007EEFAEFA3
:10286B00FB12312AA909EEFAEFFB123221E96401BE
:10287B0060EB851082851183E0F9EEFAEFFB1232E3
:10288B0021E9640160ECEEFAEFFB12312A8007EECE
:10289B00FAEFFB12312A74012509F9EEFAEFFB125C
:1028AB003221E9640160E88066EEFAEFFB12312A0F
:1028BB008007EEFAEFFB12312AA909EEFAEFFB12B1
:1028CB003221E9640160EB851082851183E0F9EE1A
:1028DB00FAEFFB123221E9640160EC740112076319
:1028EB00E0F9EEFAEFFB123221E9640160EDEEFA4A
:1028FB00EFFB12312A8007EEFAEFFB12312A74013B
:10290B002509F9EEFAEFFB123221E9640160E87454
:10291B0011120763E0F8A3E0F97411120763E8F0F2
:10292B00A3E9F07413120763E0F50EE50EC39402EE
:10293B00404F75080080267900EEFAEFFB1231E567
:10294B00E9C0E0E508A80879007411120763E028D4
:10295B00FAA3E0398A82F583D0E0F0050885080AEE
:10296B00750B00850E0C750D00E50C24FFF8E50DBD
:10297B0034FFF9C3E50A98E50B99A2D265D0334031
:10298B00B67901EEFAEFFB1231E5E9C0E0E50EA8EE
:10299B000E79007411120763E028F8A3E039F9E807
:1029AB0024FFF582E934FFF583D0E0F0EEFAEFFB7C
:1029BB00123154740212072E7F070207D574F112DD
:1029CB00076F74FE120718EAFEEBFF8908741112E9
:1029DB000763E0F8851082851183ECF0A3EDF0E836
:1029EB006009146026146057022A8FEEFAEFFB126F
:1029FB00312A8007EEFAEFFB12312AA908EEFAEF23
:102A0B00FB123221E9640160EB8079EEFAEFFB12E5
:102A1B00312A8007EEFAEFFB12312AA908EEFAEF02
:102A2B00FB123221E9640160EB851082851183E092
:102A3B00F9EEFAEFFB123221E9640160EC8045EE0E
:102A4B00FAEFFB12312A8007EEFAEFFB12312AA9BB
:102A5B0008EEFAEFFB123221E9640160EB8510827C
:102A6B00851183E0F9EEFAEFFB123221E964016084
:102A7B00EC7401120763E0F9EEFAEFFB123221E975
:102A8B00640160ED7412120763E0F50EA3E0F50F1D
:102A9B007414120763E0F50CE50CC39402402E7519
:102AAB000900E509C3950C503885090A750B00E53B
:102ABB000E250AF582E50F350BF583E0F9EEFAEFFB
:102ACB00FB123221E9640160E0050980D5850E8295
:102ADB00850F83E0F9EEFAEFFB123221E964016016
:102AEB00ECEEFAEFFB123154740212072E7F080240
:102AFB0007D574F312076F8A088B09890A8C0B743C
:102B0B000D120763E0FEA3E0FFAA08AB09121EE655
:102B1B00850A0C750D00AA0CAB0D123971900F0BB9
:102B2B00EAF0A3EBF0E50AA80A7900900F0BE02876
:102B3B00F8A3E039F9900F0DE8F0A3E9F0E50A905E
:102B4B000F07F0E50B900F08F0900F0BE0F8A3E0E8
:102B5B00F9900F11E8F0A3E9F0EEFCEFFDAA08AB3A
:102B6B0009122B78AA08AB097F060207D574F71256
:102B7B00076FC2AF43892075C050D2DF8C088D0917
:102B8B007808120872000004008025A62B004BABBE
:102B9B002B8070B02B00E1B52BB82B758DFA800D07
:102BAB00758DFD8008758DFE8003758DFFD28EC2ED
:102BBB00ABD2AEC2C0C2C1D2AF7F020207D5C082B8
:102BCB00C083900F0AE0F9D083D08222C082C083E9
:102BDB00C2AF122BFAE9600CD2AF900F0BE0FAA345
:102BEB00E0FB8006D2AF7A007B00D083D0822274C8
:102BFB00F512076F7E007F00750800750A007509D6
:102C0B0000122BC9E97003022D28900F0BE0F8A3DB
:102C1B00E0F9900F0FE8F0A3E9F0E509A8097900B6
:102C2B00900F0FE028FAA3E0398A82F583E02EFE9D
:102C3B0080180509E509A8097900900F0FE028FA1B
:102C4B00A3E0398A82F583E02EFE85090A750B0015
:102C5B00900F08E0F8790024FDF8E934FFF9C3E59B
:102C6B000A98E50B99A2D265D03340C60509E50950
:102C7B00A8097900900F0FE028FAA3E0398A82F5B2
:102C8B0083E0C39441401CE509A8097900900F0F1C
:102C9B00E028FAA3E0398A82F583E024C9C454F012
:102CAB00FF8018E509A8097900900F0FE028FAA317
:102CBB00E0398A82F583E0C454F0FF0509E509A8E1
:102CCB00097900900F0FE028FAA3E0398A82F58387
:102CDB00E0C39441401DE509A8097900900F0FE06E
:102CEB0028FAA3E0398A82F583E024C9F508EF427C
:102CFB0008801BE509A8097900900F0FE028FAA3BB
:102D0B00E0398A82F583E024D0F508EF4208E50824
:102D1B006E7005750A018008750A008003750A003C
:102D2B00A90A7F040207D5C0E0C0D0E8C0E0E9C023
:102D3B00E0C082C083C2AFA2C05074900F11E0F804
:102D4B00A3E0F9900F0DE0687003A3E06970109099
:102D5B000F0BE0F8A3E0F9900F11E8F0A3E9F0E511
:102D6B00C1C0E0900F11E0F8A3E0F5838882D0E0BA
:102D7B00F0900F11E02401F8A3E03400F9900F114B
:102D8B00E8F0A3E9F0900F08E0F8900F09E0C39882
:102D9B00500F900F09E02401F0900F0A7400F0809F
:102DAB000C900F097400F0900F0A7401F0C2C0D29E
:102DBB00AFD083D082D0E0F9D0E0F8D0D0D0E032E1
:102DCB0074F712076FEAFEEBFF8006122E741232B5
:102DDB0078900F1AE0FAA3E0FBEA4B70297A1C7B80
:102DEB000F122E64605888828983C3E09EA3E09FF4
:102DFB005062122E7480EA88828983C3E09EA3E01E
:102E0B009F5051122E74122E6470EC900F1A122FC9
:102E1B0078122E6EE8FCE9FD7A1C7B0F8003122ED4
:102E2B00748A828B83122E6EEC687002ED69600ED1
:102E3B0088828983C3E09EA3E09F40E2801612380C
:102E4B00088A088B09A808A909E8496003022DD64E
:102E5B007A007B007F020207D58A828B83122E6E4B
:102E6B00E84922E0F8A3E0F922E82402FAE9340069
:102E7B00FB2274F412076FEA2402FEEB3400FFC34B
:102E8B00EA9EEB9F501DC3EE9404EF940050047E1A
:102E9B00047F00EEFAEFFB122DCB8A088B09EA4573
:102EAB000970077A007B00022F6D8A828B83E0FA10
:102EBB00A3E0FBEA2402F8EB3400F98A828B83E06F
:102ECB00FCA3E0FDEC24FCF50AED34FFF50BC3E5A8
:102EDB000A9EE50B9F501388828983122E6E8508FC
:102EEB0082850983E8F0A3E98043EA2EF50AEB3FDC
:102EFB00F50B850882850983E50AF0A3E50BF088BD
:102F0B00828983E0F50AA3E0F50B122F72A3A3E5E8
:102F1B000AF0A3E50BF0ECC39EFCED9FFD122F72A4
:102F2B00ECF0A3EDF08A828B83EEF0A3EFF0850833
:102F3B0082850983122E686015E82402F8E93400B3
:102F4B00F988828983E0FCA3E0FDEC4D70047800E6
:102F5B007900900F1AE8F0A3E9F0EA2402FAEB34B7
:102F6B0000FB7F050207D5850882850983E0F8A35E
:102F7B00E0F583888222C082C0838A828B83AA82F7
:102F8B00AB831227F5AA82AB83122FA0AA82AB8345
:102F9B00D083D0822274F712076F74FE1207189039
:102FAB000F1EC082C083851082851183AC82AD83D6
:102FBB00D083D082740212068F750802780812082B
:102FCB001D7401120763858208858309780812082E
:102FDB0019750800780812081D7C007D00796812AD
:102FEB0029C8740412072E740212072E7F020207DF
:102FFB00D574F512076F74FB120718EAFEEBFF8905
:10300B0008900F00C082C0837401120763AC82ADBD
:10301B0083D083D082740212068F900F20C082C09F
:10302B0083851082851183AC82AD83D083D082746B
:10303B000112068FE508600B1460181460211460F0
:10304B002A8032851082851183E085108285118359
:10305B00F08022851082851183E0D2E1F080168505
:10306B001082851183E0D2E2F0800A8510828511EF
:10307B0083E04406F0750901780912081D740112EA
:10308B00076385820A85830B780A12081975090074
:10309B00780912081D7C007D007968EEFAEFFB12AF
:1030AB0029C8740412072E750902780912081D74B9
:1030BB000212076385820A85830B780A1208197539
:1030CB000900780912081D7C007D007968EEFAEF83
:1030DB00FB12280D740412072E7401120763E054BF
:1030EB000FC0E07404120763D0E0F07402120763A0
:1030FB00E0C0E07403120763D0E0F07403120763BF
:10310B00E0FAA3E0FB740512072E7F040207D5C07B
:10311B0082C0838A828B837405F0D083D08222C0D5
:10312B0082C0838A828B83D2B4D2B5AA82AB83123C
:10313B003260C2B4AA82AB83123260C2B5AA82AB30
:10314B0083123260D083D08222C082C0838A828B6A
:10315B0083C2B4C2B5AA82AB83123260D2B5AA8243
:10316B00AB83123260D2B4AA82AB83123260D083AB
:10317B00D0822274F812076F8A828B83D2B4AA8210
:10318B00AB83123260D2B5AA82AB83123260A2B487
:10319B00E433FEAA82AB83123260C2B5AA82AB8340
:1031AB00123260EEF97F010207D574F812076F8AAD
:1031BB00828B83E9FEEEFFEEA2E092B4AA82AB8390
:1031CB00123260D2B5AA82AB83123260C2B5AA8228
:1031DB00AB831232607F010207D574F812076F8A36
:1031EB00828B83E9FF7E007508008013AA82AB8374
:1031FB0012317EE9640170010EEEC333FE0508E562
:10320B0008C3940840E6EFF9AA82AB831231B5EEFE
:10321B00F97F010207D574F812076F8A828B83E955
:10322B00FF7E00800E7901AA82AB831231B5EFC30A
:10323B0033FF0EEEC394085010EFA2E740E779007E
:10324B00AA82AB831231B580E5AA82AB8312317EA1
:10325B007F010207D5C082C0838A828B83E0F8800E
:10326B000118E8C3940150F9D083D0822274F31271
:10327B00076FEA4B70030233B2EA24FEFAEB34FF1A
:10328B00FB8A828B83E0FEA3E0FFC3EE9404EF94F2
:10329B000050030233B2900F1CE0FCA3E0FDEA24C4
:1032AB0002F508EB3400F509EC4D600BEAF8EBF98D
:1032BB00C3E89CE99D5015850882850983ECF0A332
:1032CB00EDF0900F1C023356AC82AD83EC2402F56B
:1032DB000AED3400F50B850A82F583E0F50CA3E0CB
:1032EB00850C82F583E58245836009C3E58298E509
:1032FB00839940D41233B7EC28F8ED39F9C3EA9827
:10330B00EB9950030233B2EA687002EB6970118CCF
:10331B00828D83E02EF0A3E03FF0ECFAEDFB8030E2
:10332B00850A82850B831233BBE849600DEA2EFCBC
:10333B00EB3FFDC3E89CE99D406D850882850983C1
:10334B00E8F0A3E9F0850A82850B83EAF0A3EBF0A2
:10335B00EA2402F8EB3400F9E8FCE9FD1233B7E894
:10336B004960448A828B83E0FEA3E0FFEA2EFEEBEA
:10337B003FFFE86E7002E96F702D900F1AE4F0A317
:10338B00F088828983E0FEA3E0FF8A828B83E02EA4
:10339B00F0A3E03FF088828983A3A31233BB8C8216
:1033AB008D83E8F0A3E9F07F060207D58C828D832D
:1033BB00E0F8A3E0F92274F812076FEAFEEBFFEED8
:1033CB00FAEFFB1227F58E828F83A3A37498F0EE8E
:1033DB00FAEFFB7F010207D574F712076F74FA122D
:1033EB000718E9FE8510828511837410F0EE600BCF
:1033FB0014601E1460311460448056851082851150
:10340B0083E0C2E1F0851082851183E0C2E2F08097
:10341B0040851082851183E0D2E1F0851082851101
:10342B0083E0C2E2F0802A851082851183E0C2E13D
:10343B00F0851082851183E0D2E2F0801485108232
:10344B00851183E0D2E1F0851082851183E0D2E211
:10345B00F07401120763ECF0A3EDF0851082851177
:10346B0083E0C0E07403120763D0E0F0740212072C
:10347B0063E0C0E07404120763D0E0F0740112073C
:10348B0063E0C0E07405120763D0E0F075080378C1
:10349B000812081D74041207638582088583097856
:1034AB0008120819750800780812081D7C007D00A9
:1034BB008A828B83A3A3E0F91229C8740412072E06
:1034CB00740612072E7F020207D574F712076FEAF4
:1034DB00FEEBFF7C007DF8EEFAEFFB121F0A75087E
:1034EB008075092578081208197C057905EE2402E8
:1034FB00FAEF3400FB122AFD740212072E7944EE08
:10350B002406FAEF3400FB12370FEE240AFAEF34DD
:10351B0000FB1233C1EE240DFAEF3400FB122F81A6
:10352B007900EE240FFAEF3400FB1236767901EEB8
:10353B002413FAEF3400FB1236767903EE2417FAD4
:10354B00EF3400FB1236767902EE241BFAEF3400CF
:10355B00FB123676EE241FFAEF3400FB1235BF79DF
:10356B0000EE2423FAEF3400FB1238807901EE24AD
:10357B0026FAEF3400FB123880EE2429FAEF3400E0
:10358B00FB1235A77C7F797FEE242BFAEF3400FBFF
:10359B00120A1FEEFAEFFB7F020207D5C082C0832F
:1035AB008A828B83AA82AB83122F81AA82AB83D0B0
:1035BB0083D08222C082C0838A828B837944AA8281
:1035CB00AB8312370FAA82AB83D083D0822274F8DD
:1035DB0012076F74FF120718123736E985108285B0
:1035EB001183F0851082851183E064FE70027E00EA
:1035FB00851082851183E064C0602C851082851153
:10360B0083E064C86021851082851183E0641860B3
:10361B0016851082851183E0640C600B8510828502
:10362B001183E064DC70047E028034851082851186
:10363B0083E0A2E150027E01851082851183E0A216
:10364B00E250027E06851082851183E0A2E55002CE
:10365B007E00851082851183E0A2E450027E05EE88
:10366B00F9740112072E7F010207D574F812076F48
:10367B00EAFEEBFF8908EEFAEFFB1233C1E5088E89
:10368B00828F83A3A3A3E508F0EEFAEFFB7F010281
:10369B0007D574F812076FE9FE8E82758300AC8232
:1036AB00AD83E4CCFDEC2400FCED3480FD8A828BF1
:1036BB0083A3A3A3E0F91233E37F010207D574F8C8
:1036CB0012076FE9FE8E82758300AC82AD83E4CC6A
:1036DB00FD7400C39CFC74809DFD8A828B83A3A325
:1036EB00A3E0F91233E37F010207D5C082C0837CCC
:1036FB00007D808A828B83A3A3A3E0F91233E3D0EE
:10370B0083D0822274F812076FEAFEEBFF8908EE72
:10371B00FAEFFB1227F5E5088E828F83A3A3A3E5AF
:10372B0008F0EEFAEFFB7F010207D574F712076F73
:10373B0074FF120718750801780812081D7401121E
:10374B0007638582088583097808120819750800B4
:10375B00780812081D7C007D008A828B83A3A3A3AB
:10376B00E0F912280D740412072E8510828511833F
:10377B00E0F9740112072E7F020207D5C0E0C0D01A
:10378B00E8C0E0C082C083C2AF900F027401F0901A
:10379B000F037401F0900F057400F0A374F9F0900F
:1037AB000F05E0F8A3E0F5838882E0540F900F0437
:1037BB00F0C289D2AFD083D082D0E0F8D0D0D0E0A5
:1037CB0032C082C0838A828B83AA82AB83122F8101
:1037DB00AA82AB83D083D0822274F512076F790251
:1037EB00122FFC8A0A8B0B850A08850B0974057846
:1037FB0008120709E508A9087F040207D5C082C093
:10380B0083900F18E0F8A3E0F9E84960067A007B93
:10381B00008021900F1874E0F0A3740FF074DFC3D5
:10382B0094E07410940FF9900FE074FFF0A3E9F09B
:10383B007AE07B0FD083D08222C082C083E98C8256
:10384B008D83F0D083D08222C082C08379008C829A
:10385B008D83E0F9D083D08222EEC0E0E9FEF9122D
:10386B003844D0E0FE22EEC0E07E00123853E9FE71
:10387B00F9D0E0FE2274F812076FEAFEEBFF89081D
:10388B00EEFAEFFB122F81E5088E828F83A3A3E55F
:10389B0008F0EEFAEFFB7F010207D5C082C0838AE6
:1038AB00828B83A3A3E0F9122FFCD083D0822274E6
:1038BB00F112076F7903122FFC8A088B09E4F50AC2
:1038CB00F50B780812015D900F25780C12066478C1
:1038DB0008790C1202A5AA08AB09AC0AAD0B7F083C
:1038EB000207D574F712076FEAFEEBFF800312395C
:1038FB006EEEFAEFFB122E7DEA4B7016900F16E070
:10390B00F8A3E0F9E84960E6E0F583888212076DD9
:10391B0080DF7F020207D57457120718743F120716
:10392B0063AA82AB831234D5851082851183AA8258
:10393B00AB83120928851082851183AA82AB83126F
:10394B000B2280F1C082C0838A828B83AA82AB83D5
:10395B001227F5AA82AB83D083D082227A017B0017
:0E396B000239770239670238EE02003E80FE14
:0000890176
:00000001FF
