:0300000002009F5C
:100043000203EAEAFEEBFF120387EEFAEFFB020478
:10005300E31200AEB90003020096E4900F00781992
:1000630079018002F0A3D8FCD9FA900F18AA82ABC9
:10007300839000B1781379018015E493A3AC82AD2A
:10008300838A828B83F0A3AA82AB838C828D83D8ED
:10009300E9D9E71204CE1204CC1204E075D000753E
:1000A30081BF75100075110F020054790122060FEC
:1000B300050FE6040E0F080F9501140F100FE80447
:1000C300E4732510C582C0E0E51134FFC583C0E0A9
:1000D300E510C3958224F910AF088583118582103A
:1000E3008008858311858210D2AFCEF0A3E520F07E
:1000F300A37808E608F0A3DEFAEFF0A3E58124FB7A
:10010300F8E608F0A3E608F0A30808E608F0A3E67B
:1001130008F0A315811581D0E0FED0E0F815811514
:1001230081E8C0E0EEC0E022851183851082E0A360
:10013300FEE0A3F5207808E0A3F608DFFAE0A3FFCA
:10014300E0A3C0E0E0A3C0E0E0A3C0E0E0A3C0E020
:1001530010AF0885821085831180088582108583FE
:1001630011D2AFD083D08222A20474F81200C5EA60
:10017300FEEBFF8E828F83A3A3A3A37400F0A3746B
:10018300F8F0EEFAEFFB1201C3EEFAEFFB7F010288
:10019300012B02019874F81200C5EAFEEBFFEEFA98
:1001A300EFFB12028C79018E828F83A3A3A3A3E0BA
:1001B300FCA3E0FDEEFAEFFB1204467F0102012BE4
:1001C30074F71200C5EAFEEBFF750800750900809D
:1001D3002D79388E828F83A3A3A3A3E0FCA3E0FD34
:1001E300EEFAEFFB1204467C107D27EEFAEFFB12CA
:1001F30002B8E5082401F508E5093400F509C3E56B
:10020300089403E509940040C8EEFAEFFB12028C50
:1002130079388E828F83A3A3A3A3E0FCA3E0FDEE32
:10022300FAEFFB120446EEFAEFFB12028C790D8E05
:10023300828F83A3A3A3A3E0FCA3E0FDEEFAEFFB6D
:10024300120446EEFAEFFB12028C79018E828F8341
:10025300A3A3A3A3E0FCA3E0FDEEFAEFFB12044685
:10026300EEFAEFFB12028C79068E828F83A3A3A38F
:10027300A3E0FCA3E0FDEEFAEFFB120446EEFAEF77
:10028300FB12028C7F0202012B74F81200C5EAFEF6
:10029300EBFF8E828F83A3A3A3A3E02401FCA3E03F
:1002A3003400FDEEFAEFFB120453E9F8A2E740E253
:1002B3007F0102012B780079008008E82401F8E926
:1002C3003400F9C3E89CE99D40F12274F41200C59F
:1002D3008A0A8B0BECFEEDFF750C02850A08850B71
:1002E3000980201203347402650C7014850882851A
:1002F3000983E493C0E0740193F583D0821200C3B1
:10030300120334EE65087003EF65096019850882EE
:10031300850983E493F8740193F9E84960C574028D
:10032300650C70C880DA150CE50C70AF7F0502010F
:100333002BE5082402F508E5093400F5092274F8D1
:100343001200C5EAFEEBFF8E828F83E0F8A3E0F58F
:100353008388821203DBE849700B1203D8EE6870BE
:1003630002EF6970031204D91203D88E828F8312AD
:1003730003E1E8F0A3E9F0900F16EEF0A3EFF07FAE
:100383000102012BC082C08380078C828D831200FF
:10039300C31203D8E8496038900F161203E1120321
:1003A300E1E0FAA3E0FB900F16EAF0A3EBF08882FA
:1003B3008983A3A3A3A3E0FAA3E0FBEAFCEBFD88F4
:1003C300828983A3A3E0FAA3E0FBEA4B70BC80BA63
:1003D300D083D08222900F16E0F8A3E0F922E0FA4E
:1003E300A3E0F5838A8222C0E0C0D0E8C0E0C082E7
:1003F300C083D291E5DDA2E2500975DEFF900F03C1
:100403007401F0E5DDA2E1500975DEFF900F04747D
:1004130001F0900F02E0F8900F01E0586006900F92
:10042300007400F0900F02E0F4F8900F01E05860C0
:1004330006900F007400F0D083D082D0E0F8D0D0C3
:10044300D0E032EEC0E0E9FEF912047AD0E0FE22F9
:10045300020456C082C0838A828B83A3A3ECF0A3D9
:10046300EDF08A828B83A3A3E0F8A3E0F58388826F
:10047300E0F9D083D08222C082C0838A828B83A397
:10048300A3ECF0A3EDF0E9C0E08A828B83A3A3E0A1
:10049300F8A3E0F5838882D0E0F0D083D082227A7B
:1004A300057B0F1204E57A187B0F1203417A087B50
:1004B3000F12016D7A1E7B0F1203417A107B0F120C
:1004C30004E77A247B0F02034180FE7C6D7D017A71
:1004D3006B7B010202CE7A017B000204E302004639
:0604E30080FE222222220D
:00009F0160
:00000001FF
